{
	"solidity入门练习/6_BinarySearch.sol": {
		"BinarySearch": {
			"abi": [
				{
					"inputs": [
						{
							"internalType": "uint256[]",
							"name": "arr",
							"type": "uint256[]"
						},
						{
							"internalType": "uint256",
							"name": "target",
							"type": "uint256"
						}
					],
					"name": "binarySearch",
					"outputs": [
						{
							"internalType": "int256",
							"name": "",
							"type": "int256"
						}
					],
					"stateMutability": "pure",
					"type": "function"
				}
			],
			"devdoc": {
				"kind": "dev",
				"methods": {},
				"version": 1
			},
			"evm": {
				"assembly": "    /* \"solidity\\xe5\\x85\\xa5\\xe9\\x97\\xa8\\xe7\\xbb\\x83\\xe4\\xb9\\xa0/6_BinarySearch.sol\":109:785  contract BinarySearch {... */\n  mstore(0x40, 0x80)\n  callvalue\n  dup1\n  iszero\n  tag_1\n  jumpi\n  revert(0x00, 0x00)\ntag_1:\n  pop\n  dataSize(sub_0)\n  dup1\n  dataOffset(sub_0)\n  0x00\n  codecopy\n  0x00\n  return\nstop\n\nsub_0: assembly {\n        /* \"solidity\\xe5\\x85\\xa5\\xe9\\x97\\xa8\\xe7\\xbb\\x83\\xe4\\xb9\\xa0/6_BinarySearch.sol\":109:785  contract BinarySearch {... */\n      mstore(0x40, 0x80)\n      callvalue\n      dup1\n      iszero\n      tag_1\n      jumpi\n      revert(0x00, 0x00)\n    tag_1:\n      pop\n      jumpi(tag_2, lt(calldatasize, 0x04))\n      shr(0xe0, calldataload(0x00))\n      dup1\n      0xb12601da\n      eq\n      tag_3\n      jumpi\n    tag_2:\n      revert(0x00, 0x00)\n        /* \"solidity\\xe5\\x85\\xa5\\xe9\\x97\\xa8\\xe7\\xbb\\x83\\xe4\\xb9\\xa0/6_BinarySearch.sol\":191:783  function binarySearch(uint[] memory arr, uint target) public pure returns (int) {... */\n    tag_3:\n      tag_4\n      0x04\n      dup1\n      calldatasize\n      sub\n      dup2\n      add\n      swap1\n      tag_5\n      swap2\n      swap1\n      tag_6\n      jump\t// in\n    tag_5:\n      tag_7\n      jump\t// in\n    tag_4:\n      mload(0x40)\n      tag_8\n      swap2\n      swap1\n      tag_9\n      jump\t// in\n    tag_8:\n      mload(0x40)\n      dup1\n      swap2\n      sub\n      swap1\n      return\n    tag_7:\n        /* \"solidity\\xe5\\x85\\xa5\\xe9\\x97\\xa8\\xe7\\xbb\\x83\\xe4\\xb9\\xa0/6_BinarySearch.sol\":266:269  int */\n      0x00\n        /* \"solidity\\xe5\\x85\\xa5\\xe9\\x97\\xa8\\xe7\\xbb\\x83\\xe4\\xb9\\xa0/6_BinarySearch.sol\":281:289  int left */\n      0x00\n        /* \"solidity\\xe5\\x85\\xa5\\xe9\\x97\\xa8\\xe7\\xbb\\x83\\xe4\\xb9\\xa0/6_BinarySearch.sol\":292:293  0 */\n      0x00\n        /* \"solidity\\xe5\\x85\\xa5\\xe9\\x97\\xa8\\xe7\\xbb\\x83\\xe4\\xb9\\xa0/6_BinarySearch.sol\":281:293  int left = 0 */\n      swap1\n      pop\n        /* \"solidity\\xe5\\x85\\xa5\\xe9\\x97\\xa8\\xe7\\xbb\\x83\\xe4\\xb9\\xa0/6_BinarySearch.sol\":303:312  int right */\n      0x00\n        /* \"solidity\\xe5\\x85\\xa5\\xe9\\x97\\xa8\\xe7\\xbb\\x83\\xe4\\xb9\\xa0/6_BinarySearch.sol\":333:334  1 */\n      0x01\n        /* \"solidity\\xe5\\x85\\xa5\\xe9\\x97\\xa8\\xe7\\xbb\\x83\\xe4\\xb9\\xa0/6_BinarySearch.sol\":319:322  arr */\n      dup6\n        /* \"solidity\\xe5\\x85\\xa5\\xe9\\x97\\xa8\\xe7\\xbb\\x83\\xe4\\xb9\\xa0/6_BinarySearch.sol\":319:329  arr.length */\n      mload\n        /* \"solidity\\xe5\\x85\\xa5\\xe9\\x97\\xa8\\xe7\\xbb\\x83\\xe4\\xb9\\xa0/6_BinarySearch.sol\":315:334  int(arr.length) - 1 */\n      tag_11\n      swap2\n      swap1\n      tag_12\n      jump\t// in\n    tag_11:\n        /* \"solidity\\xe5\\x85\\xa5\\xe9\\x97\\xa8\\xe7\\xbb\\x83\\xe4\\xb9\\xa0/6_BinarySearch.sol\":303:334  int right = int(arr.length) - 1 */\n      swap1\n      pop\n        /* \"solidity\\xe5\\x85\\xa5\\xe9\\x97\\xa8\\xe7\\xbb\\x83\\xe4\\xb9\\xa0/6_BinarySearch.sol\":345:745  while (left <= right ) {... */\n    tag_13:\n        /* \"solidity\\xe5\\x85\\xa5\\xe9\\x97\\xa8\\xe7\\xbb\\x83\\xe4\\xb9\\xa0/6_BinarySearch.sol\":360:365  right */\n      dup1\n        /* \"solidity\\xe5\\x85\\xa5\\xe9\\x97\\xa8\\xe7\\xbb\\x83\\xe4\\xb9\\xa0/6_BinarySearch.sol\":352:356  left */\n      dup3\n        /* \"solidity\\xe5\\x85\\xa5\\xe9\\x97\\xa8\\xe7\\xbb\\x83\\xe4\\xb9\\xa0/6_BinarySearch.sol\":352:365  left <= right */\n      sgt\n        /* \"solidity\\xe5\\x85\\xa5\\xe9\\x97\\xa8\\xe7\\xbb\\x83\\xe4\\xb9\\xa0/6_BinarySearch.sol\":345:745  while (left <= right ) {... */\n      tag_14\n      jumpi\n        /* \"solidity\\xe5\\x85\\xa5\\xe9\\x97\\xa8\\xe7\\xbb\\x83\\xe4\\xb9\\xa0/6_BinarySearch.sol\":382:389  int mid */\n      0x00\n        /* \"solidity\\xe5\\x85\\xa5\\xe9\\x97\\xa8\\xe7\\xbb\\x83\\xe4\\xb9\\xa0/6_BinarySearch.sol\":409:410  2 */\n      0x02\n        /* \"solidity\\xe5\\x85\\xa5\\xe9\\x97\\xa8\\xe7\\xbb\\x83\\xe4\\xb9\\xa0/6_BinarySearch.sol\":401:405  left */\n      dup4\n        /* \"solidity\\xe5\\x85\\xa5\\xe9\\x97\\xa8\\xe7\\xbb\\x83\\xe4\\xb9\\xa0/6_BinarySearch.sol\":393:398  right */\n      dup4\n        /* \"solidity\\xe5\\x85\\xa5\\xe9\\x97\\xa8\\xe7\\xbb\\x83\\xe4\\xb9\\xa0/6_BinarySearch.sol\":393:405  right + left */\n      tag_15\n      swap2\n      swap1\n      tag_16\n      jump\t// in\n    tag_15:\n        /* \"solidity\\xe5\\x85\\xa5\\xe9\\x97\\xa8\\xe7\\xbb\\x83\\xe4\\xb9\\xa0/6_BinarySearch.sol\":392:410  (right + left) / 2 */\n      tag_17\n      swap2\n      swap1\n      tag_18\n      jump\t// in\n    tag_17:\n        /* \"solidity\\xe5\\x85\\xa5\\xe9\\x97\\xa8\\xe7\\xbb\\x83\\xe4\\xb9\\xa0/6_BinarySearch.sol\":382:410  int mid = (right + left) / 2 */\n      swap1\n      pop\n        /* \"solidity\\xe5\\x85\\xa5\\xe9\\x97\\xa8\\xe7\\xbb\\x83\\xe4\\xb9\\xa0/6_BinarySearch.sol\":440:453  uint midValue */\n      0x00\n        /* \"solidity\\xe5\\x85\\xa5\\xe9\\x97\\xa8\\xe7\\xbb\\x83\\xe4\\xb9\\xa0/6_BinarySearch.sol\":456:459  arr */\n      dup7\n        /* \"solidity\\xe5\\x85\\xa5\\xe9\\x97\\xa8\\xe7\\xbb\\x83\\xe4\\xb9\\xa0/6_BinarySearch.sol\":465:468  mid */\n      dup3\n        /* \"solidity\\xe5\\x85\\xa5\\xe9\\x97\\xa8\\xe7\\xbb\\x83\\xe4\\xb9\\xa0/6_BinarySearch.sol\":456:470  arr[uint(mid)] */\n      dup2\n      mload\n      dup2\n      lt\n      tag_19\n      jumpi\n      tag_20\n      tag_21\n      jump\t// in\n    tag_20:\n    tag_19:\n      0x20\n      mul\n      0x20\n      add\n      add\n      mload\n        /* \"solidity\\xe5\\x85\\xa5\\xe9\\x97\\xa8\\xe7\\xbb\\x83\\xe4\\xb9\\xa0/6_BinarySearch.sol\":440:470  uint midValue = arr[uint(mid)] */\n      swap1\n      pop\n        /* \"solidity\\xe5\\x85\\xa5\\xe9\\x97\\xa8\\xe7\\xbb\\x83\\xe4\\xb9\\xa0/6_BinarySearch.sol\":527:535  midValue */\n      dup1\n        /* \"solidity\\xe5\\x85\\xa5\\xe9\\x97\\xa8\\xe7\\xbb\\x83\\xe4\\xb9\\xa0/6_BinarySearch.sol\":517:523  target */\n      dup7\n        /* \"solidity\\xe5\\x85\\xa5\\xe9\\x97\\xa8\\xe7\\xbb\\x83\\xe4\\xb9\\xa0/6_BinarySearch.sol\":517:535  target == midValue */\n      sub\n        /* \"solidity\\xe5\\x85\\xa5\\xe9\\x97\\xa8\\xe7\\xbb\\x83\\xe4\\xb9\\xa0/6_BinarySearch.sol\":513:735  if (target == midValue){... */\n      tag_22\n      jumpi\n        /* \"solidity\\xe5\\x85\\xa5\\xe9\\x97\\xa8\\xe7\\xbb\\x83\\xe4\\xb9\\xa0/6_BinarySearch.sol\":561:564  mid */\n      dup2\n        /* \"solidity\\xe5\\x85\\xa5\\xe9\\x97\\xa8\\xe7\\xbb\\x83\\xe4\\xb9\\xa0/6_BinarySearch.sol\":554:564  return mid */\n      swap5\n      pop\n      pop\n      pop\n      pop\n      pop\n      jump(tag_10)\n        /* \"solidity\\xe5\\x85\\xa5\\xe9\\x97\\xa8\\xe7\\xbb\\x83\\xe4\\xb9\\xa0/6_BinarySearch.sol\":513:735  if (target == midValue){... */\n    tag_22:\n        /* \"solidity\\xe5\\x85\\xa5\\xe9\\x97\\xa8\\xe7\\xbb\\x83\\xe4\\xb9\\xa0/6_BinarySearch.sol\":623:631  midValue */\n      dup1\n        /* \"solidity\\xe5\\x85\\xa5\\xe9\\x97\\xa8\\xe7\\xbb\\x83\\xe4\\xb9\\xa0/6_BinarySearch.sol\":614:620  target */\n      dup7\n        /* \"solidity\\xe5\\x85\\xa5\\xe9\\x97\\xa8\\xe7\\xbb\\x83\\xe4\\xb9\\xa0/6_BinarySearch.sol\":614:631  target < midValue */\n      lt\n        /* \"solidity\\xe5\\x85\\xa5\\xe9\\x97\\xa8\\xe7\\xbb\\x83\\xe4\\xb9\\xa0/6_BinarySearch.sol\":610:735  if (target < midValue ) {... */\n      iszero\n      tag_24\n      jumpi\n        /* \"solidity\\xe5\\x85\\xa5\\xe9\\x97\\xa8\\xe7\\xbb\\x83\\xe4\\xb9\\xa0/6_BinarySearch.sol\":666:667  1 */\n      0x01\n        /* \"solidity\\xe5\\x85\\xa5\\xe9\\x97\\xa8\\xe7\\xbb\\x83\\xe4\\xb9\\xa0/6_BinarySearch.sol\":660:663  mid */\n      dup3\n        /* \"solidity\\xe5\\x85\\xa5\\xe9\\x97\\xa8\\xe7\\xbb\\x83\\xe4\\xb9\\xa0/6_BinarySearch.sol\":660:667  mid - 1 */\n      tag_25\n      swap2\n      swap1\n      tag_12\n      jump\t// in\n    tag_25:\n        /* \"solidity\\xe5\\x85\\xa5\\xe9\\x97\\xa8\\xe7\\xbb\\x83\\xe4\\xb9\\xa0/6_BinarySearch.sol\":652:667  right = mid - 1 */\n      swap3\n      pop\n        /* \"solidity\\xe5\\x85\\xa5\\xe9\\x97\\xa8\\xe7\\xbb\\x83\\xe4\\xb9\\xa0/6_BinarySearch.sol\":610:735  if (target < midValue ) {... */\n      jump(tag_26)\n    tag_24:\n        /* \"solidity\\xe5\\x85\\xa5\\xe9\\x97\\xa8\\xe7\\xbb\\x83\\xe4\\xb9\\xa0/6_BinarySearch.sol\":719:720  1 */\n      0x01\n        /* \"solidity\\xe5\\x85\\xa5\\xe9\\x97\\xa8\\xe7\\xbb\\x83\\xe4\\xb9\\xa0/6_BinarySearch.sol\":713:716  mid */\n      dup3\n        /* \"solidity\\xe5\\x85\\xa5\\xe9\\x97\\xa8\\xe7\\xbb\\x83\\xe4\\xb9\\xa0/6_BinarySearch.sol\":713:720  mid + 1 */\n      tag_27\n      swap2\n      swap1\n      tag_16\n      jump\t// in\n    tag_27:\n        /* \"solidity\\xe5\\x85\\xa5\\xe9\\x97\\xa8\\xe7\\xbb\\x83\\xe4\\xb9\\xa0/6_BinarySearch.sol\":706:720  left = mid + 1 */\n      swap4\n      pop\n        /* \"solidity\\xe5\\x85\\xa5\\xe9\\x97\\xa8\\xe7\\xbb\\x83\\xe4\\xb9\\xa0/6_BinarySearch.sol\":610:735  if (target < midValue ) {... */\n    tag_26:\n        /* \"solidity\\xe5\\x85\\xa5\\xe9\\x97\\xa8\\xe7\\xbb\\x83\\xe4\\xb9\\xa0/6_BinarySearch.sol\":368:745  {... */\n      pop\n      pop\n        /* \"solidity\\xe5\\x85\\xa5\\xe9\\x97\\xa8\\xe7\\xbb\\x83\\xe4\\xb9\\xa0/6_BinarySearch.sol\":345:745  while (left <= right ) {... */\n      jump(tag_13)\n    tag_14:\n        /* \"solidity\\xe5\\x85\\xa5\\xe9\\x97\\xa8\\xe7\\xbb\\x83\\xe4\\xb9\\xa0/6_BinarySearch.sol\":761:763  -1 */\n      0xffffffffffffffffffffffffffffffffffffffffffffffffffffffffffffffff\n        /* \"solidity\\xe5\\x85\\xa5\\xe9\\x97\\xa8\\xe7\\xbb\\x83\\xe4\\xb9\\xa0/6_BinarySearch.sol\":754:763  return -1 */\n      swap3\n      pop\n      pop\n      pop\n        /* \"solidity\\xe5\\x85\\xa5\\xe9\\x97\\xa8\\xe7\\xbb\\x83\\xe4\\xb9\\xa0/6_BinarySearch.sol\":191:783  function binarySearch(uint[] memory arr, uint target) public pure returns (int) {... */\n    tag_10:\n      swap3\n      swap2\n      pop\n      pop\n      jump\t// out\n        /* \"#utility.yul\":7:82   */\n    tag_28:\n        /* \"#utility.yul\":40:46   */\n      0x00\n        /* \"#utility.yul\":73:75   */\n      0x40\n        /* \"#utility.yul\":67:76   */\n      mload\n        /* \"#utility.yul\":57:76   */\n      swap1\n      pop\n        /* \"#utility.yul\":7:82   */\n      swap1\n      jump\t// out\n        /* \"#utility.yul\":88:205   */\n    tag_29:\n        /* \"#utility.yul\":197:198   */\n      0x00\n        /* \"#utility.yul\":194:195   */\n      0x00\n        /* \"#utility.yul\":187:199   */\n      revert\n        /* \"#utility.yul\":211:328   */\n    tag_30:\n        /* \"#utility.yul\":320:321   */\n      0x00\n        /* \"#utility.yul\":317:318   */\n      0x00\n        /* \"#utility.yul\":310:322   */\n      revert\n        /* \"#utility.yul\":334:451   */\n    tag_31:\n        /* \"#utility.yul\":443:444   */\n      0x00\n        /* \"#utility.yul\":440:441   */\n      0x00\n        /* \"#utility.yul\":433:445   */\n      revert\n        /* \"#utility.yul\":457:559   */\n    tag_32:\n        /* \"#utility.yul\":498:504   */\n      0x00\n        /* \"#utility.yul\":549:551   */\n      0x1f\n        /* \"#utility.yul\":545:552   */\n      not\n        /* \"#utility.yul\":540:542   */\n      0x1f\n        /* \"#utility.yul\":533:538   */\n      dup4\n        /* \"#utility.yul\":529:543   */\n      add\n        /* \"#utility.yul\":525:553   */\n      and\n        /* \"#utility.yul\":515:553   */\n      swap1\n      pop\n        /* \"#utility.yul\":457:559   */\n      swap2\n      swap1\n      pop\n      jump\t// out\n        /* \"#utility.yul\":565:745   */\n    tag_33:\n        /* \"#utility.yul\":613:690   */\n      0x4e487b7100000000000000000000000000000000000000000000000000000000\n        /* \"#utility.yul\":610:611   */\n      0x00\n        /* \"#utility.yul\":603:691   */\n      mstore\n        /* \"#utility.yul\":710:714   */\n      0x41\n        /* \"#utility.yul\":707:708   */\n      0x04\n        /* \"#utility.yul\":700:715   */\n      mstore\n        /* \"#utility.yul\":734:738   */\n      0x24\n        /* \"#utility.yul\":731:732   */\n      0x00\n        /* \"#utility.yul\":724:739   */\n      revert\n        /* \"#utility.yul\":751:1032   */\n    tag_34:\n        /* \"#utility.yul\":834:861   */\n      tag_55\n        /* \"#utility.yul\":856:860   */\n      dup3\n        /* \"#utility.yul\":834:861   */\n      tag_32\n      jump\t// in\n    tag_55:\n        /* \"#utility.yul\":826:832   */\n      dup2\n        /* \"#utility.yul\":822:862   */\n      add\n        /* \"#utility.yul\":964:970   */\n      dup2\n        /* \"#utility.yul\":952:962   */\n      dup2\n        /* \"#utility.yul\":949:971   */\n      lt\n        /* \"#utility.yul\":928:946   */\n      0xffffffffffffffff\n        /* \"#utility.yul\":916:926   */\n      dup3\n        /* \"#utility.yul\":913:947   */\n      gt\n        /* \"#utility.yul\":910:972   */\n      or\n        /* \"#utility.yul\":907:995   */\n      iszero\n      tag_56\n      jumpi\n        /* \"#utility.yul\":975:993   */\n      tag_57\n      tag_33\n      jump\t// in\n    tag_57:\n        /* \"#utility.yul\":907:995   */\n    tag_56:\n        /* \"#utility.yul\":1015:1025   */\n      dup1\n        /* \"#utility.yul\":1011:1013   */\n      0x40\n        /* \"#utility.yul\":1004:1026   */\n      mstore\n        /* \"#utility.yul\":794:1032   */\n      pop\n        /* \"#utility.yul\":751:1032   */\n      pop\n      pop\n      jump\t// out\n        /* \"#utility.yul\":1038:1167   */\n    tag_35:\n        /* \"#utility.yul\":1072:1078   */\n      0x00\n        /* \"#utility.yul\":1099:1119   */\n      tag_59\n      tag_28\n      jump\t// in\n    tag_59:\n        /* \"#utility.yul\":1089:1119   */\n      swap1\n      pop\n        /* \"#utility.yul\":1128:1161   */\n      tag_60\n        /* \"#utility.yul\":1156:1160   */\n      dup3\n        /* \"#utility.yul\":1148:1154   */\n      dup3\n        /* \"#utility.yul\":1128:1161   */\n      tag_34\n      jump\t// in\n    tag_60:\n        /* \"#utility.yul\":1038:1167   */\n      swap2\n      swap1\n      pop\n      jump\t// out\n        /* \"#utility.yul\":1173:1484   */\n    tag_36:\n        /* \"#utility.yul\":1250:1254   */\n      0x00\n        /* \"#utility.yul\":1340:1358   */\n      0xffffffffffffffff\n        /* \"#utility.yul\":1332:1338   */\n      dup3\n        /* \"#utility.yul\":1329:1359   */\n      gt\n        /* \"#utility.yul\":1326:1382   */\n      iszero\n      tag_62\n      jumpi\n        /* \"#utility.yul\":1362:1380   */\n      tag_63\n      tag_33\n      jump\t// in\n    tag_63:\n        /* \"#utility.yul\":1326:1382   */\n    tag_62:\n        /* \"#utility.yul\":1412:1416   */\n      0x20\n        /* \"#utility.yul\":1404:1410   */\n      dup3\n        /* \"#utility.yul\":1400:1417   */\n      mul\n        /* \"#utility.yul\":1392:1417   */\n      swap1\n      pop\n        /* \"#utility.yul\":1472:1476   */\n      0x20\n        /* \"#utility.yul\":1466:1470   */\n      dup2\n        /* \"#utility.yul\":1462:1477   */\n      add\n        /* \"#utility.yul\":1454:1477   */\n      swap1\n      pop\n        /* \"#utility.yul\":1173:1484   */\n      swap2\n      swap1\n      pop\n      jump\t// out\n        /* \"#utility.yul\":1490:1607   */\n    tag_37:\n        /* \"#utility.yul\":1599:1600   */\n      0x00\n        /* \"#utility.yul\":1596:1597   */\n      0x00\n        /* \"#utility.yul\":1589:1601   */\n      revert\n        /* \"#utility.yul\":1613:1690   */\n    tag_38:\n        /* \"#utility.yul\":1650:1657   */\n      0x00\n        /* \"#utility.yul\":1679:1684   */\n      dup2\n        /* \"#utility.yul\":1668:1684   */\n      swap1\n      pop\n        /* \"#utility.yul\":1613:1690   */\n      swap2\n      swap1\n      pop\n      jump\t// out\n        /* \"#utility.yul\":1696:1818   */\n    tag_39:\n        /* \"#utility.yul\":1769:1793   */\n      tag_67\n        /* \"#utility.yul\":1787:1792   */\n      dup2\n        /* \"#utility.yul\":1769:1793   */\n      tag_38\n      jump\t// in\n    tag_67:\n        /* \"#utility.yul\":1762:1767   */\n      dup2\n        /* \"#utility.yul\":1759:1794   */\n      eq\n        /* \"#utility.yul\":1749:1812   */\n      tag_68\n      jumpi\n        /* \"#utility.yul\":1808:1809   */\n      0x00\n        /* \"#utility.yul\":1805:1806   */\n      0x00\n        /* \"#utility.yul\":1798:1810   */\n      revert\n        /* \"#utility.yul\":1749:1812   */\n    tag_68:\n        /* \"#utility.yul\":1696:1818   */\n      pop\n      jump\t// out\n        /* \"#utility.yul\":1824:1963   */\n    tag_40:\n        /* \"#utility.yul\":1870:1875   */\n      0x00\n        /* \"#utility.yul\":1908:1914   */\n      dup2\n        /* \"#utility.yul\":1895:1915   */\n      calldataload\n        /* \"#utility.yul\":1886:1915   */\n      swap1\n      pop\n        /* \"#utility.yul\":1924:1957   */\n      tag_70\n        /* \"#utility.yul\":1951:1956   */\n      dup2\n        /* \"#utility.yul\":1924:1957   */\n      tag_39\n      jump\t// in\n    tag_70:\n        /* \"#utility.yul\":1824:1963   */\n      swap3\n      swap2\n      pop\n      pop\n      jump\t// out\n        /* \"#utility.yul\":1986:2696   */\n    tag_41:\n        /* \"#utility.yul\":2082:2087   */\n      0x00\n        /* \"#utility.yul\":2107:2188   */\n      tag_72\n        /* \"#utility.yul\":2123:2187   */\n      tag_73\n        /* \"#utility.yul\":2180:2186   */\n      dup5\n        /* \"#utility.yul\":2123:2187   */\n      tag_36\n      jump\t// in\n    tag_73:\n        /* \"#utility.yul\":2107:2188   */\n      tag_35\n      jump\t// in\n    tag_72:\n        /* \"#utility.yul\":2098:2188   */\n      swap1\n      pop\n        /* \"#utility.yul\":2208:2213   */\n      dup1\n        /* \"#utility.yul\":2237:2243   */\n      dup4\n        /* \"#utility.yul\":2230:2235   */\n      dup3\n        /* \"#utility.yul\":2223:2244   */\n      mstore\n        /* \"#utility.yul\":2271:2275   */\n      0x20\n        /* \"#utility.yul\":2264:2269   */\n      dup3\n        /* \"#utility.yul\":2260:2276   */\n      add\n        /* \"#utility.yul\":2253:2276   */\n      swap1\n      pop\n        /* \"#utility.yul\":2324:2328   */\n      0x20\n        /* \"#utility.yul\":2316:2322   */\n      dup5\n        /* \"#utility.yul\":2312:2329   */\n      mul\n        /* \"#utility.yul\":2304:2310   */\n      dup4\n        /* \"#utility.yul\":2300:2330   */\n      add\n        /* \"#utility.yul\":2353:2356   */\n      dup6\n        /* \"#utility.yul\":2345:2351   */\n      dup2\n        /* \"#utility.yul\":2342:2357   */\n      gt\n        /* \"#utility.yul\":2339:2461   */\n      iszero\n      tag_74\n      jumpi\n        /* \"#utility.yul\":2372:2451   */\n      tag_75\n      tag_37\n      jump\t// in\n    tag_75:\n        /* \"#utility.yul\":2339:2461   */\n    tag_74:\n        /* \"#utility.yul\":2487:2493   */\n      dup4\n        /* \"#utility.yul\":2470:2690   */\n    tag_76:\n        /* \"#utility.yul\":2504:2510   */\n      dup2\n        /* \"#utility.yul\":2499:2502   */\n      dup2\n        /* \"#utility.yul\":2496:2511   */\n      lt\n        /* \"#utility.yul\":2470:2690   */\n      iszero\n      tag_78\n      jumpi\n        /* \"#utility.yul\":2579:2582   */\n      dup1\n        /* \"#utility.yul\":2608:2645   */\n      tag_79\n        /* \"#utility.yul\":2641:2644   */\n      dup9\n        /* \"#utility.yul\":2629:2639   */\n      dup3\n        /* \"#utility.yul\":2608:2645   */\n      tag_40\n      jump\t// in\n    tag_79:\n        /* \"#utility.yul\":2603:2606   */\n      dup5\n        /* \"#utility.yul\":2596:2646   */\n      mstore\n        /* \"#utility.yul\":2675:2679   */\n      0x20\n        /* \"#utility.yul\":2670:2673   */\n      dup5\n        /* \"#utility.yul\":2666:2680   */\n      add\n        /* \"#utility.yul\":2659:2680   */\n      swap4\n      pop\n        /* \"#utility.yul\":2546:2690   */\n      pop\n        /* \"#utility.yul\":2530:2534   */\n      0x20\n        /* \"#utility.yul\":2525:2528   */\n      dup2\n        /* \"#utility.yul\":2521:2535   */\n      add\n        /* \"#utility.yul\":2514:2535   */\n      swap1\n      pop\n        /* \"#utility.yul\":2470:2690   */\n      jump(tag_76)\n    tag_78:\n        /* \"#utility.yul\":2474:2495   */\n      pop\n        /* \"#utility.yul\":2088:2696   */\n      pop\n      pop\n        /* \"#utility.yul\":1986:2696   */\n      swap4\n      swap3\n      pop\n      pop\n      pop\n      jump\t// out\n        /* \"#utility.yul\":2719:3089   */\n    tag_42:\n        /* \"#utility.yul\":2790:2795   */\n      0x00\n        /* \"#utility.yul\":2839:2842   */\n      dup3\n        /* \"#utility.yul\":2832:2836   */\n      0x1f\n        /* \"#utility.yul\":2824:2830   */\n      dup4\n        /* \"#utility.yul\":2820:2837   */\n      add\n        /* \"#utility.yul\":2816:2843   */\n      slt\n        /* \"#utility.yul\":2806:2928   */\n      tag_81\n      jumpi\n        /* \"#utility.yul\":2847:2926   */\n      tag_82\n      tag_31\n      jump\t// in\n    tag_82:\n        /* \"#utility.yul\":2806:2928   */\n    tag_81:\n        /* \"#utility.yul\":2964:2970   */\n      dup2\n        /* \"#utility.yul\":2951:2971   */\n      calldataload\n        /* \"#utility.yul\":2989:3083   */\n      tag_83\n        /* \"#utility.yul\":3079:3082   */\n      dup5\n        /* \"#utility.yul\":3071:3077   */\n      dup3\n        /* \"#utility.yul\":3064:3068   */\n      0x20\n        /* \"#utility.yul\":3056:3062   */\n      dup7\n        /* \"#utility.yul\":3052:3069   */\n      add\n        /* \"#utility.yul\":2989:3083   */\n      tag_41\n      jump\t// in\n    tag_83:\n        /* \"#utility.yul\":2980:3083   */\n      swap2\n      pop\n        /* \"#utility.yul\":2796:3089   */\n      pop\n        /* \"#utility.yul\":2719:3089   */\n      swap3\n      swap2\n      pop\n      pop\n      jump\t// out\n        /* \"#utility.yul\":3095:3779   */\n    tag_6:\n        /* \"#utility.yul\":3188:3194   */\n      0x00\n        /* \"#utility.yul\":3196:3202   */\n      0x00\n        /* \"#utility.yul\":3245:3247   */\n      0x40\n        /* \"#utility.yul\":3233:3242   */\n      dup4\n        /* \"#utility.yul\":3224:3231   */\n      dup6\n        /* \"#utility.yul\":3220:3243   */\n      sub\n        /* \"#utility.yul\":3216:3248   */\n      slt\n        /* \"#utility.yul\":3213:3332   */\n      iszero\n      tag_85\n      jumpi\n        /* \"#utility.yul\":3251:3330   */\n      tag_86\n      tag_29\n      jump\t// in\n    tag_86:\n        /* \"#utility.yul\":3213:3332   */\n    tag_85:\n        /* \"#utility.yul\":3399:3400   */\n      0x00\n        /* \"#utility.yul\":3388:3397   */\n      dup4\n        /* \"#utility.yul\":3384:3401   */\n      add\n        /* \"#utility.yul\":3371:3402   */\n      calldataload\n        /* \"#utility.yul\":3429:3447   */\n      0xffffffffffffffff\n        /* \"#utility.yul\":3421:3427   */\n      dup2\n        /* \"#utility.yul\":3418:3448   */\n      gt\n        /* \"#utility.yul\":3415:3532   */\n      iszero\n      tag_87\n      jumpi\n        /* \"#utility.yul\":3451:3530   */\n      tag_88\n      tag_30\n      jump\t// in\n    tag_88:\n        /* \"#utility.yul\":3415:3532   */\n    tag_87:\n        /* \"#utility.yul\":3556:3634   */\n      tag_89\n        /* \"#utility.yul\":3626:3633   */\n      dup6\n        /* \"#utility.yul\":3617:3623   */\n      dup3\n        /* \"#utility.yul\":3606:3615   */\n      dup7\n        /* \"#utility.yul\":3602:3624   */\n      add\n        /* \"#utility.yul\":3556:3634   */\n      tag_42\n      jump\t// in\n    tag_89:\n        /* \"#utility.yul\":3546:3634   */\n      swap3\n      pop\n        /* \"#utility.yul\":3342:3644   */\n      pop\n        /* \"#utility.yul\":3683:3685   */\n      0x20\n        /* \"#utility.yul\":3709:3762   */\n      tag_90\n        /* \"#utility.yul\":3754:3761   */\n      dup6\n        /* \"#utility.yul\":3745:3751   */\n      dup3\n        /* \"#utility.yul\":3734:3743   */\n      dup7\n        /* \"#utility.yul\":3730:3752   */\n      add\n        /* \"#utility.yul\":3709:3762   */\n      tag_40\n      jump\t// in\n    tag_90:\n        /* \"#utility.yul\":3699:3762   */\n      swap2\n      pop\n        /* \"#utility.yul\":3654:3772   */\n      pop\n        /* \"#utility.yul\":3095:3779   */\n      swap3\n      pop\n      swap3\n      swap1\n      pop\n      jump\t// out\n        /* \"#utility.yul\":3785:3861   */\n    tag_43:\n        /* \"#utility.yul\":3821:3828   */\n      0x00\n        /* \"#utility.yul\":3850:3855   */\n      dup2\n        /* \"#utility.yul\":3839:3855   */\n      swap1\n      pop\n        /* \"#utility.yul\":3785:3861   */\n      swap2\n      swap1\n      pop\n      jump\t// out\n        /* \"#utility.yul\":3867:3982   */\n    tag_44:\n        /* \"#utility.yul\":3952:3975   */\n      tag_93\n        /* \"#utility.yul\":3969:3974   */\n      dup2\n        /* \"#utility.yul\":3952:3975   */\n      tag_43\n      jump\t// in\n    tag_93:\n        /* \"#utility.yul\":3947:3950   */\n      dup3\n        /* \"#utility.yul\":3940:3976   */\n      mstore\n        /* \"#utility.yul\":3867:3982   */\n      pop\n      pop\n      jump\t// out\n        /* \"#utility.yul\":3988:4206   */\n    tag_9:\n        /* \"#utility.yul\":4079:4083   */\n      0x00\n        /* \"#utility.yul\":4117:4119   */\n      0x20\n        /* \"#utility.yul\":4106:4115   */\n      dup3\n        /* \"#utility.yul\":4102:4120   */\n      add\n        /* \"#utility.yul\":4094:4120   */\n      swap1\n      pop\n        /* \"#utility.yul\":4130:4199   */\n      tag_95\n        /* \"#utility.yul\":4196:4197   */\n      0x00\n        /* \"#utility.yul\":4185:4194   */\n      dup4\n        /* \"#utility.yul\":4181:4198   */\n      add\n        /* \"#utility.yul\":4172:4178   */\n      dup5\n        /* \"#utility.yul\":4130:4199   */\n      tag_44\n      jump\t// in\n    tag_95:\n        /* \"#utility.yul\":3988:4206   */\n      swap3\n      swap2\n      pop\n      pop\n      jump\t// out\n        /* \"#utility.yul\":4212:4392   */\n    tag_45:\n        /* \"#utility.yul\":4260:4337   */\n      0x4e487b7100000000000000000000000000000000000000000000000000000000\n        /* \"#utility.yul\":4257:4258   */\n      0x00\n        /* \"#utility.yul\":4250:4338   */\n      mstore\n        /* \"#utility.yul\":4357:4361   */\n      0x11\n        /* \"#utility.yul\":4354:4355   */\n      0x04\n        /* \"#utility.yul\":4347:4362   */\n      mstore\n        /* \"#utility.yul\":4381:4385   */\n      0x24\n        /* \"#utility.yul\":4378:4379   */\n      0x00\n        /* \"#utility.yul\":4371:4386   */\n      revert\n        /* \"#utility.yul\":4398:4770   */\n    tag_12:\n        /* \"#utility.yul\":4437:4441   */\n      0x00\n        /* \"#utility.yul\":4457:4476   */\n      tag_98\n        /* \"#utility.yul\":4474:4475   */\n      dup3\n        /* \"#utility.yul\":4457:4476   */\n      tag_43\n      jump\t// in\n    tag_98:\n        /* \"#utility.yul\":4452:4476   */\n      swap2\n      pop\n        /* \"#utility.yul\":4490:4509   */\n      tag_99\n        /* \"#utility.yul\":4507:4508   */\n      dup4\n        /* \"#utility.yul\":4490:4509   */\n      tag_43\n      jump\t// in\n    tag_99:\n        /* \"#utility.yul\":4485:4509   */\n      swap3\n      pop\n        /* \"#utility.yul\":4533:4534   */\n      dup3\n        /* \"#utility.yul\":4530:4531   */\n      dup3\n        /* \"#utility.yul\":4526:4535   */\n      sub\n        /* \"#utility.yul\":4518:4535   */\n      swap1\n      pop\n        /* \"#utility.yul\":4727:4728   */\n      dup2\n        /* \"#utility.yul\":4721:4725   */\n      dup2\n        /* \"#utility.yul\":4717:4729   */\n      slt\n        /* \"#utility.yul\":4713:4714   */\n      0x00\n        /* \"#utility.yul\":4710:4711   */\n      dup5\n        /* \"#utility.yul\":4706:4715   */\n      slt\n        /* \"#utility.yul\":4702:4730   */\n      and\n        /* \"#utility.yul\":4685:4686   */\n      dup3\n        /* \"#utility.yul\":4679:4683   */\n      dup3\n        /* \"#utility.yul\":4675:4687   */\n      sgt\n        /* \"#utility.yul\":4670:4671   */\n      0x00\n        /* \"#utility.yul\":4667:4668   */\n      dup6\n        /* \"#utility.yul\":4663:4672   */\n      slt\n        /* \"#utility.yul\":4656:4673   */\n      iszero\n        /* \"#utility.yul\":4652:4688   */\n      and\n        /* \"#utility.yul\":4636:4740   */\n      or\n        /* \"#utility.yul\":4633:4763   */\n      iszero\n      tag_100\n      jumpi\n        /* \"#utility.yul\":4743:4761   */\n      tag_101\n      tag_45\n      jump\t// in\n    tag_101:\n        /* \"#utility.yul\":4633:4763   */\n    tag_100:\n        /* \"#utility.yul\":4398:4770   */\n      swap3\n      swap2\n      pop\n      pop\n      jump\t// out\n        /* \"#utility.yul\":4776:5151   */\n    tag_16:\n        /* \"#utility.yul\":4815:4818   */\n      0x00\n        /* \"#utility.yul\":4834:4853   */\n      tag_103\n        /* \"#utility.yul\":4851:4852   */\n      dup3\n        /* \"#utility.yul\":4834:4853   */\n      tag_43\n      jump\t// in\n    tag_103:\n        /* \"#utility.yul\":4829:4853   */\n      swap2\n      pop\n        /* \"#utility.yul\":4867:4886   */\n      tag_104\n        /* \"#utility.yul\":4884:4885   */\n      dup4\n        /* \"#utility.yul\":4867:4886   */\n      tag_43\n      jump\t// in\n    tag_104:\n        /* \"#utility.yul\":4862:4886   */\n      swap3\n      pop\n        /* \"#utility.yul\":4909:4910   */\n      dup3\n        /* \"#utility.yul\":4906:4907   */\n      dup3\n        /* \"#utility.yul\":4902:4911   */\n      add\n        /* \"#utility.yul\":4895:4911   */\n      swap1\n      pop\n        /* \"#utility.yul\":5107:5108   */\n      dup3\n        /* \"#utility.yul\":5102:5105   */\n      dup2\n        /* \"#utility.yul\":5098:5109   */\n      slt\n        /* \"#utility.yul\":5091:5110   */\n      iszero\n        /* \"#utility.yul\":5087:5088   */\n      0x00\n        /* \"#utility.yul\":5084:5085   */\n      dup4\n        /* \"#utility.yul\":5080:5089   */\n      slt\n        /* \"#utility.yul\":5076:5111   */\n      and\n        /* \"#utility.yul\":5059:5060   */\n      dup4\n        /* \"#utility.yul\":5054:5057   */\n      dup3\n        /* \"#utility.yul\":5050:5061   */\n      slt\n        /* \"#utility.yul\":5045:5046   */\n      0x00\n        /* \"#utility.yul\":5042:5043   */\n      dup5\n        /* \"#utility.yul\":5038:5047   */\n      slt\n        /* \"#utility.yul\":5031:5048   */\n      iszero\n        /* \"#utility.yul\":5027:5062   */\n      and\n        /* \"#utility.yul\":5011:5121   */\n      or\n        /* \"#utility.yul\":5008:5144   */\n      iszero\n      tag_105\n      jumpi\n        /* \"#utility.yul\":5124:5142   */\n      tag_106\n      tag_45\n      jump\t// in\n    tag_106:\n        /* \"#utility.yul\":5008:5144   */\n    tag_105:\n        /* \"#utility.yul\":4776:5151   */\n      swap3\n      swap2\n      pop\n      pop\n      jump\t// out\n        /* \"#utility.yul\":5157:5337   */\n    tag_46:\n        /* \"#utility.yul\":5205:5282   */\n      0x4e487b7100000000000000000000000000000000000000000000000000000000\n        /* \"#utility.yul\":5202:5203   */\n      0x00\n        /* \"#utility.yul\":5195:5283   */\n      mstore\n        /* \"#utility.yul\":5302:5306   */\n      0x12\n        /* \"#utility.yul\":5299:5300   */\n      0x04\n        /* \"#utility.yul\":5292:5307   */\n      mstore\n        /* \"#utility.yul\":5326:5330   */\n      0x24\n        /* \"#utility.yul\":5323:5324   */\n      0x00\n        /* \"#utility.yul\":5316:5331   */\n      revert\n        /* \"#utility.yul\":5343:5728   */\n    tag_18:\n        /* \"#utility.yul\":5382:5383   */\n      0x00\n        /* \"#utility.yul\":5399:5418   */\n      tag_109\n        /* \"#utility.yul\":5416:5417   */\n      dup3\n        /* \"#utility.yul\":5399:5418   */\n      tag_43\n      jump\t// in\n    tag_109:\n        /* \"#utility.yul\":5394:5418   */\n      swap2\n      pop\n        /* \"#utility.yul\":5432:5451   */\n      tag_110\n        /* \"#utility.yul\":5449:5450   */\n      dup4\n        /* \"#utility.yul\":5432:5451   */\n      tag_43\n      jump\t// in\n    tag_110:\n        /* \"#utility.yul\":5427:5451   */\n      swap3\n      pop\n        /* \"#utility.yul\":5470:5471   */\n      dup3\n        /* \"#utility.yul\":5460:5495   */\n      tag_111\n      jumpi\n        /* \"#utility.yul\":5475:5493   */\n      tag_112\n      tag_46\n      jump\t// in\n    tag_112:\n        /* \"#utility.yul\":5460:5495   */\n    tag_111:\n        /* \"#utility.yul\":5661:5662   */\n      0x01\n        /* \"#utility.yul\":5658:5659   */\n      0x00\n        /* \"#utility.yul\":5654:5663   */\n      sub\n        /* \"#utility.yul\":5651:5652   */\n      dup4\n        /* \"#utility.yul\":5648:5664   */\n      eq\n        /* \"#utility.yul\":5567:5633   */\n      0x8000000000000000000000000000000000000000000000000000000000000000\n        /* \"#utility.yul\":5564:5565   */\n      dup4\n        /* \"#utility.yul\":5561:5634   */\n      eq\n        /* \"#utility.yul\":5544:5674   */\n      and\n        /* \"#utility.yul\":5541:5697   */\n      iszero\n      tag_113\n      jumpi\n        /* \"#utility.yul\":5677:5695   */\n      tag_114\n      tag_45\n      jump\t// in\n    tag_114:\n        /* \"#utility.yul\":5541:5697   */\n    tag_113:\n        /* \"#utility.yul\":5720:5721   */\n      dup3\n        /* \"#utility.yul\":5717:5718   */\n      dup3\n        /* \"#utility.yul\":5712:5722   */\n      sdiv\n        /* \"#utility.yul\":5707:5722   */\n      swap1\n      pop\n        /* \"#utility.yul\":5343:5728   */\n      swap3\n      swap2\n      pop\n      pop\n      jump\t// out\n        /* \"#utility.yul\":5734:5914   */\n    tag_21:\n        /* \"#utility.yul\":5782:5859   */\n      0x4e487b7100000000000000000000000000000000000000000000000000000000\n        /* \"#utility.yul\":5779:5780   */\n      0x00\n        /* \"#utility.yul\":5772:5860   */\n      mstore\n        /* \"#utility.yul\":5879:5883   */\n      0x32\n        /* \"#utility.yul\":5876:5877   */\n      0x04\n        /* \"#utility.yul\":5869:5884   */\n      mstore\n        /* \"#utility.yul\":5903:5907   */\n      0x24\n        /* \"#utility.yul\":5900:5901   */\n      0x00\n        /* \"#utility.yul\":5893:5908   */\n      revert\n\n    auxdata: 0xa2646970667358221220c4118e3810cdfb9be50fe0b686b11682e45d45a22710abf53cd17981e1587a1764736f6c634300081e0033\n}\n",
				"bytecode": {
					"linkReferences": {},
					"object": "6080604052348015600e575f5ffd5b506104eb8061001c5f395ff3fe608060405234801561000f575f5ffd5b5060043610610029575f3560e01c8063b12601da1461002d575b5f5ffd5b610047600480360381019061004291906102ba565b61005d565b604051610054919061032c565b60405180910390f35b5f5f5f90505f600185516100719190610372565b90505b8082136100fa575f6002838361008a91906103b2565b6100949190610420565b90505f8682815181106100aa576100a9610488565b5b602002602001015190508086036100c75781945050505050610120565b808610156100e3576001826100dc9190610372565b92506100f3565b6001826100f091906103b2565b93505b5050610074565b7fffffffffffffffffffffffffffffffffffffffffffffffffffffffffffffffff925050505b92915050565b5f604051905090565b5f5ffd5b5f5ffd5b5f5ffd5b5f601f19601f8301169050919050565b7f4e487b71000000000000000000000000000000000000000000000000000000005f52604160045260245ffd5b6101818261013b565b810181811067ffffffffffffffff821117156101a05761019f61014b565b5b80604052505050565b5f6101b2610126565b90506101be8282610178565b919050565b5f67ffffffffffffffff8211156101dd576101dc61014b565b5b602082029050602081019050919050565b5f5ffd5b5f819050919050565b610204816101f2565b811461020e575f5ffd5b50565b5f8135905061021f816101fb565b92915050565b5f610237610232846101c3565b6101a9565b9050808382526020820190506020840283018581111561025a576102596101ee565b5b835b81811015610283578061026f8882610211565b84526020840193505060208101905061025c565b5050509392505050565b5f82601f8301126102a1576102a0610137565b5b81356102b1848260208601610225565b91505092915050565b5f5f604083850312156102d0576102cf61012f565b5b5f83013567ffffffffffffffff8111156102ed576102ec610133565b5b6102f98582860161028d565b925050602061030a85828601610211565b9150509250929050565b5f819050919050565b61032681610314565b82525050565b5f60208201905061033f5f83018461031d565b92915050565b7f4e487b71000000000000000000000000000000000000000000000000000000005f52601160045260245ffd5b5f61037c82610314565b915061038783610314565b925082820390508181125f8412168282135f8512151617156103ac576103ab610345565b5b92915050565b5f6103bc82610314565b91506103c783610314565b92508282019050828112155f8312168382125f8412151617156103ed576103ec610345565b5b92915050565b7f4e487b71000000000000000000000000000000000000000000000000000000005f52601260045260245ffd5b5f61042a82610314565b915061043583610314565b925082610445576104446103f3565b5b60015f0383147f80000000000000000000000000000000000000000000000000000000000000008314161561047d5761047c610345565b5b828205905092915050565b7f4e487b71000000000000000000000000000000000000000000000000000000005f52603260045260245ffdfea2646970667358221220c4118e3810cdfb9be50fe0b686b11682e45d45a22710abf53cd17981e1587a1764736f6c634300081e0033",
					"opcodes": "PUSH1 0x80 PUSH1 0x40 MSTORE CALLVALUE DUP1 ISZERO PUSH1 0xE JUMPI PUSH0 PUSH0 REVERT JUMPDEST POP PUSH2 0x4EB DUP1 PUSH2 0x1C PUSH0 CODECOPY PUSH0 RETURN INVALID PUSH1 0x80 PUSH1 0x40 MSTORE CALLVALUE DUP1 ISZERO PUSH2 0xF JUMPI PUSH0 PUSH0 REVERT JUMPDEST POP PUSH1 0x4 CALLDATASIZE LT PUSH2 0x29 JUMPI PUSH0 CALLDATALOAD PUSH1 0xE0 SHR DUP1 PUSH4 0xB12601DA EQ PUSH2 0x2D JUMPI JUMPDEST PUSH0 PUSH0 REVERT JUMPDEST PUSH2 0x47 PUSH1 0x4 DUP1 CALLDATASIZE SUB DUP2 ADD SWAP1 PUSH2 0x42 SWAP2 SWAP1 PUSH2 0x2BA JUMP JUMPDEST PUSH2 0x5D JUMP JUMPDEST PUSH1 0x40 MLOAD PUSH2 0x54 SWAP2 SWAP1 PUSH2 0x32C JUMP JUMPDEST PUSH1 0x40 MLOAD DUP1 SWAP2 SUB SWAP1 RETURN JUMPDEST PUSH0 PUSH0 PUSH0 SWAP1 POP PUSH0 PUSH1 0x1 DUP6 MLOAD PUSH2 0x71 SWAP2 SWAP1 PUSH2 0x372 JUMP JUMPDEST SWAP1 POP JUMPDEST DUP1 DUP3 SGT PUSH2 0xFA JUMPI PUSH0 PUSH1 0x2 DUP4 DUP4 PUSH2 0x8A SWAP2 SWAP1 PUSH2 0x3B2 JUMP JUMPDEST PUSH2 0x94 SWAP2 SWAP1 PUSH2 0x420 JUMP JUMPDEST SWAP1 POP PUSH0 DUP7 DUP3 DUP2 MLOAD DUP2 LT PUSH2 0xAA JUMPI PUSH2 0xA9 PUSH2 0x488 JUMP JUMPDEST JUMPDEST PUSH1 0x20 MUL PUSH1 0x20 ADD ADD MLOAD SWAP1 POP DUP1 DUP7 SUB PUSH2 0xC7 JUMPI DUP2 SWAP5 POP POP POP POP POP PUSH2 0x120 JUMP JUMPDEST DUP1 DUP7 LT ISZERO PUSH2 0xE3 JUMPI PUSH1 0x1 DUP3 PUSH2 0xDC SWAP2 SWAP1 PUSH2 0x372 JUMP JUMPDEST SWAP3 POP PUSH2 0xF3 JUMP JUMPDEST PUSH1 0x1 DUP3 PUSH2 0xF0 SWAP2 SWAP1 PUSH2 0x3B2 JUMP JUMPDEST SWAP4 POP JUMPDEST POP POP PUSH2 0x74 JUMP JUMPDEST PUSH32 0xFFFFFFFFFFFFFFFFFFFFFFFFFFFFFFFFFFFFFFFFFFFFFFFFFFFFFFFFFFFFFFFF SWAP3 POP POP POP JUMPDEST SWAP3 SWAP2 POP POP JUMP JUMPDEST PUSH0 PUSH1 0x40 MLOAD SWAP1 POP SWAP1 JUMP JUMPDEST PUSH0 PUSH0 REVERT JUMPDEST PUSH0 PUSH0 REVERT JUMPDEST PUSH0 PUSH0 REVERT JUMPDEST PUSH0 PUSH1 0x1F NOT PUSH1 0x1F DUP4 ADD AND SWAP1 POP SWAP2 SWAP1 POP JUMP JUMPDEST PUSH32 0x4E487B7100000000000000000000000000000000000000000000000000000000 PUSH0 MSTORE PUSH1 0x41 PUSH1 0x4 MSTORE PUSH1 0x24 PUSH0 REVERT JUMPDEST PUSH2 0x181 DUP3 PUSH2 0x13B JUMP JUMPDEST DUP2 ADD DUP2 DUP2 LT PUSH8 0xFFFFFFFFFFFFFFFF DUP3 GT OR ISZERO PUSH2 0x1A0 JUMPI PUSH2 0x19F PUSH2 0x14B JUMP JUMPDEST JUMPDEST DUP1 PUSH1 0x40 MSTORE POP POP POP JUMP JUMPDEST PUSH0 PUSH2 0x1B2 PUSH2 0x126 JUMP JUMPDEST SWAP1 POP PUSH2 0x1BE DUP3 DUP3 PUSH2 0x178 JUMP JUMPDEST SWAP2 SWAP1 POP JUMP JUMPDEST PUSH0 PUSH8 0xFFFFFFFFFFFFFFFF DUP3 GT ISZERO PUSH2 0x1DD JUMPI PUSH2 0x1DC PUSH2 0x14B JUMP JUMPDEST JUMPDEST PUSH1 0x20 DUP3 MUL SWAP1 POP PUSH1 0x20 DUP2 ADD SWAP1 POP SWAP2 SWAP1 POP JUMP JUMPDEST PUSH0 PUSH0 REVERT JUMPDEST PUSH0 DUP2 SWAP1 POP SWAP2 SWAP1 POP JUMP JUMPDEST PUSH2 0x204 DUP2 PUSH2 0x1F2 JUMP JUMPDEST DUP2 EQ PUSH2 0x20E JUMPI PUSH0 PUSH0 REVERT JUMPDEST POP JUMP JUMPDEST PUSH0 DUP2 CALLDATALOAD SWAP1 POP PUSH2 0x21F DUP2 PUSH2 0x1FB JUMP JUMPDEST SWAP3 SWAP2 POP POP JUMP JUMPDEST PUSH0 PUSH2 0x237 PUSH2 0x232 DUP5 PUSH2 0x1C3 JUMP JUMPDEST PUSH2 0x1A9 JUMP JUMPDEST SWAP1 POP DUP1 DUP4 DUP3 MSTORE PUSH1 0x20 DUP3 ADD SWAP1 POP PUSH1 0x20 DUP5 MUL DUP4 ADD DUP6 DUP2 GT ISZERO PUSH2 0x25A JUMPI PUSH2 0x259 PUSH2 0x1EE JUMP JUMPDEST JUMPDEST DUP4 JUMPDEST DUP2 DUP2 LT ISZERO PUSH2 0x283 JUMPI DUP1 PUSH2 0x26F DUP9 DUP3 PUSH2 0x211 JUMP JUMPDEST DUP5 MSTORE PUSH1 0x20 DUP5 ADD SWAP4 POP POP PUSH1 0x20 DUP2 ADD SWAP1 POP PUSH2 0x25C JUMP JUMPDEST POP POP POP SWAP4 SWAP3 POP POP POP JUMP JUMPDEST PUSH0 DUP3 PUSH1 0x1F DUP4 ADD SLT PUSH2 0x2A1 JUMPI PUSH2 0x2A0 PUSH2 0x137 JUMP JUMPDEST JUMPDEST DUP2 CALLDATALOAD PUSH2 0x2B1 DUP5 DUP3 PUSH1 0x20 DUP7 ADD PUSH2 0x225 JUMP JUMPDEST SWAP2 POP POP SWAP3 SWAP2 POP POP JUMP JUMPDEST PUSH0 PUSH0 PUSH1 0x40 DUP4 DUP6 SUB SLT ISZERO PUSH2 0x2D0 JUMPI PUSH2 0x2CF PUSH2 0x12F JUMP JUMPDEST JUMPDEST PUSH0 DUP4 ADD CALLDATALOAD PUSH8 0xFFFFFFFFFFFFFFFF DUP2 GT ISZERO PUSH2 0x2ED JUMPI PUSH2 0x2EC PUSH2 0x133 JUMP JUMPDEST JUMPDEST PUSH2 0x2F9 DUP6 DUP3 DUP7 ADD PUSH2 0x28D JUMP JUMPDEST SWAP3 POP POP PUSH1 0x20 PUSH2 0x30A DUP6 DUP3 DUP7 ADD PUSH2 0x211 JUMP JUMPDEST SWAP2 POP POP SWAP3 POP SWAP3 SWAP1 POP JUMP JUMPDEST PUSH0 DUP2 SWAP1 POP SWAP2 SWAP1 POP JUMP JUMPDEST PUSH2 0x326 DUP2 PUSH2 0x314 JUMP JUMPDEST DUP3 MSTORE POP POP JUMP JUMPDEST PUSH0 PUSH1 0x20 DUP3 ADD SWAP1 POP PUSH2 0x33F PUSH0 DUP4 ADD DUP5 PUSH2 0x31D JUMP JUMPDEST SWAP3 SWAP2 POP POP JUMP JUMPDEST PUSH32 0x4E487B7100000000000000000000000000000000000000000000000000000000 PUSH0 MSTORE PUSH1 0x11 PUSH1 0x4 MSTORE PUSH1 0x24 PUSH0 REVERT JUMPDEST PUSH0 PUSH2 0x37C DUP3 PUSH2 0x314 JUMP JUMPDEST SWAP2 POP PUSH2 0x387 DUP4 PUSH2 0x314 JUMP JUMPDEST SWAP3 POP DUP3 DUP3 SUB SWAP1 POP DUP2 DUP2 SLT PUSH0 DUP5 SLT AND DUP3 DUP3 SGT PUSH0 DUP6 SLT ISZERO AND OR ISZERO PUSH2 0x3AC JUMPI PUSH2 0x3AB PUSH2 0x345 JUMP JUMPDEST JUMPDEST SWAP3 SWAP2 POP POP JUMP JUMPDEST PUSH0 PUSH2 0x3BC DUP3 PUSH2 0x314 JUMP JUMPDEST SWAP2 POP PUSH2 0x3C7 DUP4 PUSH2 0x314 JUMP JUMPDEST SWAP3 POP DUP3 DUP3 ADD SWAP1 POP DUP3 DUP2 SLT ISZERO PUSH0 DUP4 SLT AND DUP4 DUP3 SLT PUSH0 DUP5 SLT ISZERO AND OR ISZERO PUSH2 0x3ED JUMPI PUSH2 0x3EC PUSH2 0x345 JUMP JUMPDEST JUMPDEST SWAP3 SWAP2 POP POP JUMP JUMPDEST PUSH32 0x4E487B7100000000000000000000000000000000000000000000000000000000 PUSH0 MSTORE PUSH1 0x12 PUSH1 0x4 MSTORE PUSH1 0x24 PUSH0 REVERT JUMPDEST PUSH0 PUSH2 0x42A DUP3 PUSH2 0x314 JUMP JUMPDEST SWAP2 POP PUSH2 0x435 DUP4 PUSH2 0x314 JUMP JUMPDEST SWAP3 POP DUP3 PUSH2 0x445 JUMPI PUSH2 0x444 PUSH2 0x3F3 JUMP JUMPDEST JUMPDEST PUSH1 0x1 PUSH0 SUB DUP4 EQ PUSH32 0x8000000000000000000000000000000000000000000000000000000000000000 DUP4 EQ AND ISZERO PUSH2 0x47D JUMPI PUSH2 0x47C PUSH2 0x345 JUMP JUMPDEST JUMPDEST DUP3 DUP3 SDIV SWAP1 POP SWAP3 SWAP2 POP POP JUMP JUMPDEST PUSH32 0x4E487B7100000000000000000000000000000000000000000000000000000000 PUSH0 MSTORE PUSH1 0x32 PUSH1 0x4 MSTORE PUSH1 0x24 PUSH0 REVERT INVALID LOG2 PUSH5 0x6970667358 0x22 SLT KECCAK256 0xC4 GT DUP15 CODESIZE LT 0xCD EXTSTATICCALL SWAP12 JUMPF 0xFE0 0xB6 DUP7 0xB1 AND DUP3 RETF TSTORE GASLIMIT LOG2 0x27 LT 0xAB CREATE2 EXTCODECOPY DATALOADN 0x7981 RJUMPI 0x587A OR PUSH5 0x736F6C6343 STOP ADDMOD 0x1E STOP CALLER "
				},
				"gasEstimates": {
					"creation": {
						"codeDepositCost": "251800",
						"executionCost": "292",
						"totalCost": "252092"
					},
					"external": {
						"binarySearch(uint256[],uint256)": "infinite"
					}
				},
				"methodIdentifiers": {
					"binarySearch(uint256[],uint256)": "b12601da"
				}
			},
			"storageLayout": {
				"storage": [],
				"types": null
			},
			"userdoc": {
				"kind": "user",
				"methods": {},
				"notice": "二分查找 (Binary Search)*",
				"version": 1
			}
		}
	}
}