{
	"solidity入门练习/4_NmberToInteger.sol": {
		"NumberToInteger": {
			"abi": [
				{
					"inputs": [
						{
							"internalType": "uint256",
							"name": "num",
							"type": "uint256"
						}
					],
					"name": "toRoman",
					"outputs": [
						{
							"internalType": "string",
							"name": "",
							"type": "string"
						}
					],
					"stateMutability": "view",
					"type": "function"
				}
			],
			"devdoc": {
				"kind": "dev",
				"methods": {},
				"version": 1
			},
			"evm": {
				"assembly": "    /* \"solidity\\xe5\\x85\\xa5\\xe9\\x97\\xa8\\xe7\\xbb\\x83\\xe4\\xb9\\xa0/4_NmberToInteger.sol\":85:863  contract NumberToInteger {... */\n  mstore(0x40, 0x80)\n    /* \"solidity\\xe5\\x85\\xa5\\xe9\\x97\\xa8\\xe7\\xbb\\x83\\xe4\\xb9\\xa0/4_NmberToInteger.sol\":116:226  uint16[] private values = [... */\n  mload(0x40)\n  dup1\n  0x01a0\n  add\n  0x40\n  mstore\n  dup1\n    /* \"solidity\\xe5\\x85\\xa5\\xe9\\x97\\xa8\\xe7\\xbb\\x83\\xe4\\xb9\\xa0/4_NmberToInteger.sol\":152:156  1000 */\n  0x03e8\n    /* \"solidity\\xe5\\x85\\xa5\\xe9\\x97\\xa8\\xe7\\xbb\\x83\\xe4\\xb9\\xa0/4_NmberToInteger.sol\":116:226  uint16[] private values = [... */\n  0xffff\n  and\n  dup2\n  mstore\n  0x20\n  add\n    /* \"solidity\\xe5\\x85\\xa5\\xe9\\x97\\xa8\\xe7\\xbb\\x83\\xe4\\xb9\\xa0/4_NmberToInteger.sol\":158:161  900 */\n  0x0384\n    /* \"solidity\\xe5\\x85\\xa5\\xe9\\x97\\xa8\\xe7\\xbb\\x83\\xe4\\xb9\\xa0/4_NmberToInteger.sol\":116:226  uint16[] private values = [... */\n  0xffff\n  and\n  dup2\n  mstore\n  0x20\n  add\n    /* \"solidity\\xe5\\x85\\xa5\\xe9\\x97\\xa8\\xe7\\xbb\\x83\\xe4\\xb9\\xa0/4_NmberToInteger.sol\":163:166  500 */\n  0x01f4\n    /* \"solidity\\xe5\\x85\\xa5\\xe9\\x97\\xa8\\xe7\\xbb\\x83\\xe4\\xb9\\xa0/4_NmberToInteger.sol\":116:226  uint16[] private values = [... */\n  0xffff\n  and\n  dup2\n  mstore\n  0x20\n  add\n    /* \"solidity\\xe5\\x85\\xa5\\xe9\\x97\\xa8\\xe7\\xbb\\x83\\xe4\\xb9\\xa0/4_NmberToInteger.sol\":168:171  400 */\n  0x0190\n    /* \"solidity\\xe5\\x85\\xa5\\xe9\\x97\\xa8\\xe7\\xbb\\x83\\xe4\\xb9\\xa0/4_NmberToInteger.sol\":116:226  uint16[] private values = [... */\n  0xffff\n  and\n  dup2\n  mstore\n  0x20\n  add\n    /* \"solidity\\xe5\\x85\\xa5\\xe9\\x97\\xa8\\xe7\\xbb\\x83\\xe4\\xb9\\xa0/4_NmberToInteger.sol\":181:184  100 */\n  0x64\n    /* \"solidity\\xe5\\x85\\xa5\\xe9\\x97\\xa8\\xe7\\xbb\\x83\\xe4\\xb9\\xa0/4_NmberToInteger.sol\":116:226  uint16[] private values = [... */\n  0xffff\n  and\n  dup2\n  mstore\n  0x20\n  add\n    /* \"solidity\\xe5\\x85\\xa5\\xe9\\x97\\xa8\\xe7\\xbb\\x83\\xe4\\xb9\\xa0/4_NmberToInteger.sol\":186:188  90 */\n  0x5a\n    /* \"solidity\\xe5\\x85\\xa5\\xe9\\x97\\xa8\\xe7\\xbb\\x83\\xe4\\xb9\\xa0/4_NmberToInteger.sol\":116:226  uint16[] private values = [... */\n  0xffff\n  and\n  dup2\n  mstore\n  0x20\n  add\n    /* \"solidity\\xe5\\x85\\xa5\\xe9\\x97\\xa8\\xe7\\xbb\\x83\\xe4\\xb9\\xa0/4_NmberToInteger.sol\":190:192  50 */\n  0x32\n    /* \"solidity\\xe5\\x85\\xa5\\xe9\\x97\\xa8\\xe7\\xbb\\x83\\xe4\\xb9\\xa0/4_NmberToInteger.sol\":116:226  uint16[] private values = [... */\n  0xffff\n  and\n  dup2\n  mstore\n  0x20\n  add\n    /* \"solidity\\xe5\\x85\\xa5\\xe9\\x97\\xa8\\xe7\\xbb\\x83\\xe4\\xb9\\xa0/4_NmberToInteger.sol\":194:196  40 */\n  0x28\n    /* \"solidity\\xe5\\x85\\xa5\\xe9\\x97\\xa8\\xe7\\xbb\\x83\\xe4\\xb9\\xa0/4_NmberToInteger.sol\":116:226  uint16[] private values = [... */\n  0xffff\n  and\n  dup2\n  mstore\n  0x20\n  add\n    /* \"solidity\\xe5\\x85\\xa5\\xe9\\x97\\xa8\\xe7\\xbb\\x83\\xe4\\xb9\\xa0/4_NmberToInteger.sol\":206:208  10 */\n  0x0a\n    /* \"solidity\\xe5\\x85\\xa5\\xe9\\x97\\xa8\\xe7\\xbb\\x83\\xe4\\xb9\\xa0/4_NmberToInteger.sol\":116:226  uint16[] private values = [... */\n  0xffff\n  and\n  dup2\n  mstore\n  0x20\n  add\n    /* \"solidity\\xe5\\x85\\xa5\\xe9\\x97\\xa8\\xe7\\xbb\\x83\\xe4\\xb9\\xa0/4_NmberToInteger.sol\":210:211  9 */\n  0x09\n    /* \"solidity\\xe5\\x85\\xa5\\xe9\\x97\\xa8\\xe7\\xbb\\x83\\xe4\\xb9\\xa0/4_NmberToInteger.sol\":116:226  uint16[] private values = [... */\n  0xffff\n  and\n  dup2\n  mstore\n  0x20\n  add\n    /* \"solidity\\xe5\\x85\\xa5\\xe9\\x97\\xa8\\xe7\\xbb\\x83\\xe4\\xb9\\xa0/4_NmberToInteger.sol\":213:214  5 */\n  0x05\n    /* \"solidity\\xe5\\x85\\xa5\\xe9\\x97\\xa8\\xe7\\xbb\\x83\\xe4\\xb9\\xa0/4_NmberToInteger.sol\":116:226  uint16[] private values = [... */\n  0xffff\n  and\n  dup2\n  mstore\n  0x20\n  add\n    /* \"solidity\\xe5\\x85\\xa5\\xe9\\x97\\xa8\\xe7\\xbb\\x83\\xe4\\xb9\\xa0/4_NmberToInteger.sol\":216:217  4 */\n  0x04\n    /* \"solidity\\xe5\\x85\\xa5\\xe9\\x97\\xa8\\xe7\\xbb\\x83\\xe4\\xb9\\xa0/4_NmberToInteger.sol\":116:226  uint16[] private values = [... */\n  0xffff\n  and\n  dup2\n  mstore\n  0x20\n  add\n    /* \"solidity\\xe5\\x85\\xa5\\xe9\\x97\\xa8\\xe7\\xbb\\x83\\xe4\\xb9\\xa0/4_NmberToInteger.sol\":219:220  1 */\n  0x01\n    /* \"solidity\\xe5\\x85\\xa5\\xe9\\x97\\xa8\\xe7\\xbb\\x83\\xe4\\xb9\\xa0/4_NmberToInteger.sol\":116:226  uint16[] private values = [... */\n  0xffff\n  and\n  dup2\n  mstore\n  pop\n  0x00\n  swap1\n  0x0d\n  tag_1\n  swap3\n  swap2\n  swap1\n  tag_2\n  jump\t// in\ntag_1:\n  pop\n    /* \"solidity\\xe5\\x85\\xa5\\xe9\\x97\\xa8\\xe7\\xbb\\x83\\xe4\\xb9\\xa0/4_NmberToInteger.sol\":233:362  string[] private numerals = [... */\n  mload(0x40)\n  dup1\n  0x01a0\n  add\n  0x40\n  mstore\n  dup1\n  mload(0x40)\n  dup1\n  0x40\n  add\n  0x40\n  mstore\n  dup1\n  0x01\n  dup2\n  mstore\n  0x20\n  add\n  0x4d00000000000000000000000000000000000000000000000000000000000000\n  dup2\n  mstore\n  pop\n  dup2\n  mstore\n  0x20\n  add\n  mload(0x40)\n  dup1\n  0x40\n  add\n  0x40\n  mstore\n  dup1\n  0x02\n  dup2\n  mstore\n  0x20\n  add\n  0x434d000000000000000000000000000000000000000000000000000000000000\n  dup2\n  mstore\n  pop\n  dup2\n  mstore\n  0x20\n  add\n  mload(0x40)\n  dup1\n  0x40\n  add\n  0x40\n  mstore\n  dup1\n  0x01\n  dup2\n  mstore\n  0x20\n  add\n  0x4400000000000000000000000000000000000000000000000000000000000000\n  dup2\n  mstore\n  pop\n  dup2\n  mstore\n  0x20\n  add\n  mload(0x40)\n  dup1\n  0x40\n  add\n  0x40\n  mstore\n  dup1\n  0x02\n  dup2\n  mstore\n  0x20\n  add\n  0x4344000000000000000000000000000000000000000000000000000000000000\n  dup2\n  mstore\n  pop\n  dup2\n  mstore\n  0x20\n  add\n  mload(0x40)\n  dup1\n  0x40\n  add\n  0x40\n  mstore\n  dup1\n  0x01\n  dup2\n  mstore\n  0x20\n  add\n  0x4300000000000000000000000000000000000000000000000000000000000000\n  dup2\n  mstore\n  pop\n  dup2\n  mstore\n  0x20\n  add\n  mload(0x40)\n  dup1\n  0x40\n  add\n  0x40\n  mstore\n  dup1\n  0x02\n  dup2\n  mstore\n  0x20\n  add\n  0x5843000000000000000000000000000000000000000000000000000000000000\n  dup2\n  mstore\n  pop\n  dup2\n  mstore\n  0x20\n  add\n  mload(0x40)\n  dup1\n  0x40\n  add\n  0x40\n  mstore\n  dup1\n  0x01\n  dup2\n  mstore\n  0x20\n  add\n  0x4c00000000000000000000000000000000000000000000000000000000000000\n  dup2\n  mstore\n  pop\n  dup2\n  mstore\n  0x20\n  add\n  mload(0x40)\n  dup1\n  0x40\n  add\n  0x40\n  mstore\n  dup1\n  0x02\n  dup2\n  mstore\n  0x20\n  add\n  0x584c000000000000000000000000000000000000000000000000000000000000\n  dup2\n  mstore\n  pop\n  dup2\n  mstore\n  0x20\n  add\n  mload(0x40)\n  dup1\n  0x40\n  add\n  0x40\n  mstore\n  dup1\n  0x01\n  dup2\n  mstore\n  0x20\n  add\n  0x5800000000000000000000000000000000000000000000000000000000000000\n  dup2\n  mstore\n  pop\n  dup2\n  mstore\n  0x20\n  add\n  mload(0x40)\n  dup1\n  0x40\n  add\n  0x40\n  mstore\n  dup1\n  0x02\n  dup2\n  mstore\n  0x20\n  add\n  0x4958000000000000000000000000000000000000000000000000000000000000\n  dup2\n  mstore\n  pop\n  dup2\n  mstore\n  0x20\n  add\n  mload(0x40)\n  dup1\n  0x40\n  add\n  0x40\n  mstore\n  dup1\n  0x01\n  dup2\n  mstore\n  0x20\n  add\n  0x5600000000000000000000000000000000000000000000000000000000000000\n  dup2\n  mstore\n  pop\n  dup2\n  mstore\n  0x20\n  add\n  mload(0x40)\n  dup1\n  0x40\n  add\n  0x40\n  mstore\n  dup1\n  0x02\n  dup2\n  mstore\n  0x20\n  add\n  0x4956000000000000000000000000000000000000000000000000000000000000\n  dup2\n  mstore\n  pop\n  dup2\n  mstore\n  0x20\n  add\n  mload(0x40)\n  dup1\n  0x40\n  add\n  0x40\n  mstore\n  dup1\n  0x01\n  dup2\n  mstore\n  0x20\n  add\n  0x4900000000000000000000000000000000000000000000000000000000000000\n  dup2\n  mstore\n  pop\n  dup2\n  mstore\n  pop\n  0x01\n  swap1\n  0x0d\n  tag_3\n  swap3\n  swap2\n  swap1\n  tag_4\n  jump\t// in\ntag_3:\n  pop\n    /* \"solidity\\xe5\\x85\\xa5\\xe9\\x97\\xa8\\xe7\\xbb\\x83\\xe4\\xb9\\xa0/4_NmberToInteger.sol\":85:863  contract NumberToInteger {... */\n  callvalue\n  dup1\n  iszero\n  tag_5\n  jumpi\n  revert(0x00, 0x00)\ntag_5:\n  pop\n  jump(tag_6)\ntag_2:\n  dup3\n  dup1\n  sload\n  dup3\n  dup3\n  sstore\n  swap1\n  0x00\n  mstore\n  keccak256(0x00, 0x20)\n  swap1\n  0x0f\n  add\n  0x10\n  swap1\n  div\n  dup2\n  add\n  swap3\n  dup3\n  iszero\n  tag_7\n  jumpi\n  swap2\n  0x20\n  mul\n  dup3\n  add\n  0x00\ntag_8:\n  dup4\n  dup3\n  gt\n  iszero\n  tag_9\n  jumpi\n  dup4\n  mload\n  dup4\n  dup3\n  0x0100\n  exp\n  dup2\n  sload\n  dup2\n  0xffff\n  mul\n  not\n  and\n  swap1\n  dup4\n  0xffff\n  and\n  mul\n  or\n  swap1\n  sstore\n  pop\n  swap3\n  0x20\n  add\n  swap3\n  0x02\n  add\n  0x20\n  dup2\n  0x01\n  add\n  div\n  swap3\n  dup4\n  add\n  swap3\n  0x01\n  sub\n  mul\n  jump(tag_8)\ntag_9:\n  dup1\n  iszero\n  tag_10\n  jumpi\n  dup3\n  dup2\n  0x0100\n  exp\n  dup2\n  sload\n  swap1\n  0xffff\n  mul\n  not\n  and\n  swap1\n  sstore\n  0x02\n  add\n  0x20\n  dup2\n  0x01\n  add\n  div\n  swap3\n  dup4\n  add\n  swap3\n  0x01\n  sub\n  mul\n  jump(tag_9)\ntag_10:\n  pop\ntag_7:\n  pop\n  swap1\n  pop\n  tag_11\n  swap2\n  swap1\n  tag_12\n  jump\t// in\ntag_11:\n  pop\n  swap1\n  jump\t// out\ntag_4:\n  dup3\n  dup1\n  sload\n  dup3\n  dup3\n  sstore\n  swap1\n  0x00\n  mstore\n  keccak256(0x00, 0x20)\n  swap1\n  dup2\n  add\n  swap3\n  dup3\n  iszero\n  tag_13\n  jumpi\n  swap2\n  0x20\n  mul\n  dup3\n  add\ntag_14:\n  dup3\n  dup2\n  gt\n  iszero\n  tag_15\n  jumpi\n  dup3\n  mload\n  dup3\n  swap1\n  dup2\n  tag_16\n  swap2\n  swap1\n  tag_17\n  jump\t// in\ntag_16:\n  pop\n  swap2\n  0x20\n  add\n  swap2\n  swap1\n  0x01\n  add\n  swap1\n  jump(tag_14)\ntag_15:\ntag_13:\n  pop\n  swap1\n  pop\n  tag_18\n  swap2\n  swap1\n  tag_19\n  jump\t// in\ntag_18:\n  pop\n  swap1\n  jump\t// out\ntag_12:\ntag_20:\n  dup1\n  dup3\n  gt\n  iszero\n  tag_21\n  jumpi\n  0x00\n  dup2\n  0x00\n  swap1\n  sstore\n  pop\n  0x01\n  add\n  jump(tag_20)\ntag_21:\n  pop\n  swap1\n  jump\t// out\ntag_19:\ntag_22:\n  dup1\n  dup3\n  gt\n  iszero\n  tag_23\n  jumpi\n  0x00\n  dup2\n  dup2\n  tag_24\n  swap2\n  swap1\n  tag_25\n  jump\t// in\ntag_24:\n  pop\n  0x01\n  add\n  jump(tag_22)\ntag_23:\n  pop\n  swap1\n  jump\t// out\ntag_25:\n  pop\n  dup1\n  sload\n  tag_26\n  swap1\n  tag_27\n  jump\t// in\ntag_26:\n  0x00\n  dup3\n  sstore\n  dup1\n  0x1f\n  lt\n  tag_29\n  jumpi\n  pop\n  jump(tag_28)\ntag_29:\n  0x1f\n  add\n  0x20\n  swap1\n  div\n  swap1\n  0x00\n  mstore\n  keccak256(0x00, 0x20)\n  swap1\n  dup2\n  add\n  swap1\n  tag_30\n  swap2\n  swap1\n  tag_12\n  jump\t// in\ntag_30:\ntag_28:\n  pop\n  jump\t// out\n    /* \"#utility.yul\":7:106   */\ntag_31:\n    /* \"#utility.yul\":59:65   */\n  0x00\n    /* \"#utility.yul\":93:98   */\n  dup2\n    /* \"#utility.yul\":87:99   */\n  mload\n    /* \"#utility.yul\":77:99   */\n  swap1\n  pop\n    /* \"#utility.yul\":7:106   */\n  swap2\n  swap1\n  pop\n  jump\t// out\n    /* \"#utility.yul\":112:292   */\ntag_32:\n    /* \"#utility.yul\":160:237   */\n  0x4e487b7100000000000000000000000000000000000000000000000000000000\n    /* \"#utility.yul\":157:158   */\n  0x00\n    /* \"#utility.yul\":150:238   */\n  mstore\n    /* \"#utility.yul\":257:261   */\n  0x41\n    /* \"#utility.yul\":254:255   */\n  0x04\n    /* \"#utility.yul\":247:262   */\n  mstore\n    /* \"#utility.yul\":281:285   */\n  0x24\n    /* \"#utility.yul\":278:279   */\n  0x00\n    /* \"#utility.yul\":271:286   */\n  revert\n    /* \"#utility.yul\":298:478   */\ntag_33:\n    /* \"#utility.yul\":346:423   */\n  0x4e487b7100000000000000000000000000000000000000000000000000000000\n    /* \"#utility.yul\":343:344   */\n  0x00\n    /* \"#utility.yul\":336:424   */\n  mstore\n    /* \"#utility.yul\":443:447   */\n  0x22\n    /* \"#utility.yul\":440:441   */\n  0x04\n    /* \"#utility.yul\":433:448   */\n  mstore\n    /* \"#utility.yul\":467:471   */\n  0x24\n    /* \"#utility.yul\":464:465   */\n  0x00\n    /* \"#utility.yul\":457:472   */\n  revert\n    /* \"#utility.yul\":484:804   */\ntag_27:\n    /* \"#utility.yul\":528:534   */\n  0x00\n    /* \"#utility.yul\":565:566   */\n  0x02\n    /* \"#utility.yul\":559:563   */\n  dup3\n    /* \"#utility.yul\":555:567   */\n  div\n    /* \"#utility.yul\":545:567   */\n  swap1\n  pop\n    /* \"#utility.yul\":612:613   */\n  0x01\n    /* \"#utility.yul\":606:610   */\n  dup3\n    /* \"#utility.yul\":602:614   */\n  and\n    /* \"#utility.yul\":633:651   */\n  dup1\n    /* \"#utility.yul\":623:704   */\n  tag_55\n  jumpi\n    /* \"#utility.yul\":689:693   */\n  0x7f\n    /* \"#utility.yul\":681:687   */\n  dup3\n    /* \"#utility.yul\":677:694   */\n  and\n    /* \"#utility.yul\":667:694   */\n  swap2\n  pop\n    /* \"#utility.yul\":623:704   */\ntag_55:\n    /* \"#utility.yul\":751:753   */\n  0x20\n    /* \"#utility.yul\":743:749   */\n  dup3\n    /* \"#utility.yul\":740:754   */\n  lt\n    /* \"#utility.yul\":720:738   */\n  dup2\n    /* \"#utility.yul\":717:755   */\n  sub\n    /* \"#utility.yul\":714:798   */\n  tag_56\n  jumpi\n    /* \"#utility.yul\":770:788   */\n  tag_57\n  tag_33\n  jump\t// in\ntag_57:\n    /* \"#utility.yul\":714:798   */\ntag_56:\n    /* \"#utility.yul\":535:804   */\n  pop\n    /* \"#utility.yul\":484:804   */\n  swap2\n  swap1\n  pop\n  jump\t// out\n    /* \"#utility.yul\":810:951   */\ntag_34:\n    /* \"#utility.yul\":859:863   */\n  0x00\n    /* \"#utility.yul\":882:885   */\n  dup2\n    /* \"#utility.yul\":874:885   */\n  swap1\n  pop\n    /* \"#utility.yul\":905:908   */\n  dup2\n    /* \"#utility.yul\":902:903   */\n  0x00\n    /* \"#utility.yul\":895:909   */\n  mstore\n    /* \"#utility.yul\":939:943   */\n  0x20\n    /* \"#utility.yul\":936:937   */\n  0x00\n    /* \"#utility.yul\":926:944   */\n  keccak256\n    /* \"#utility.yul\":918:944   */\n  swap1\n  pop\n    /* \"#utility.yul\":810:951   */\n  swap2\n  swap1\n  pop\n  jump\t// out\n    /* \"#utility.yul\":957:1050   */\ntag_35:\n    /* \"#utility.yul\":994:1000   */\n  0x00\n    /* \"#utility.yul\":1041:1043   */\n  0x20\n    /* \"#utility.yul\":1036:1038   */\n  0x1f\n    /* \"#utility.yul\":1029:1034   */\n  dup4\n    /* \"#utility.yul\":1025:1039   */\n  add\n    /* \"#utility.yul\":1021:1044   */\n  div\n    /* \"#utility.yul\":1011:1044   */\n  swap1\n  pop\n    /* \"#utility.yul\":957:1050   */\n  swap2\n  swap1\n  pop\n  jump\t// out\n    /* \"#utility.yul\":1056:1163   */\ntag_36:\n    /* \"#utility.yul\":1100:1108   */\n  0x00\n    /* \"#utility.yul\":1150:1155   */\n  dup3\n    /* \"#utility.yul\":1144:1148   */\n  dup3\n    /* \"#utility.yul\":1140:1156   */\n  shl\n    /* \"#utility.yul\":1119:1156   */\n  swap1\n  pop\n    /* \"#utility.yul\":1056:1163   */\n  swap3\n  swap2\n  pop\n  pop\n  jump\t// out\n    /* \"#utility.yul\":1169:1562   */\ntag_37:\n    /* \"#utility.yul\":1238:1244   */\n  0x00\n    /* \"#utility.yul\":1288:1289   */\n  0x08\n    /* \"#utility.yul\":1276:1286   */\n  dup4\n    /* \"#utility.yul\":1272:1290   */\n  mul\n    /* \"#utility.yul\":1311:1408   */\n  tag_62\n    /* \"#utility.yul\":1341:1407   */\n  0xffffffffffffffffffffffffffffffffffffffffffffffffffffffffffffffff\n    /* \"#utility.yul\":1330:1339   */\n  dup3\n    /* \"#utility.yul\":1311:1408   */\n  tag_36\n  jump\t// in\ntag_62:\n    /* \"#utility.yul\":1429:1468   */\n  tag_63\n    /* \"#utility.yul\":1459:1467   */\n  dup7\n    /* \"#utility.yul\":1448:1457   */\n  dup4\n    /* \"#utility.yul\":1429:1468   */\n  tag_36\n  jump\t// in\ntag_63:\n    /* \"#utility.yul\":1417:1468   */\n  swap6\n  pop\n    /* \"#utility.yul\":1501:1505   */\n  dup1\n    /* \"#utility.yul\":1497:1506   */\n  not\n    /* \"#utility.yul\":1490:1495   */\n  dup5\n    /* \"#utility.yul\":1486:1507   */\n  and\n    /* \"#utility.yul\":1477:1507   */\n  swap4\n  pop\n    /* \"#utility.yul\":1550:1554   */\n  dup1\n    /* \"#utility.yul\":1540:1548   */\n  dup7\n    /* \"#utility.yul\":1536:1555   */\n  and\n    /* \"#utility.yul\":1529:1534   */\n  dup5\n    /* \"#utility.yul\":1526:1556   */\n  or\n    /* \"#utility.yul\":1516:1556   */\n  swap3\n  pop\n    /* \"#utility.yul\":1245:1562   */\n  pop\n  pop\n    /* \"#utility.yul\":1169:1562   */\n  swap4\n  swap3\n  pop\n  pop\n  pop\n  jump\t// out\n    /* \"#utility.yul\":1568:1645   */\ntag_38:\n    /* \"#utility.yul\":1605:1612   */\n  0x00\n    /* \"#utility.yul\":1634:1639   */\n  dup2\n    /* \"#utility.yul\":1623:1639   */\n  swap1\n  pop\n    /* \"#utility.yul\":1568:1645   */\n  swap2\n  swap1\n  pop\n  jump\t// out\n    /* \"#utility.yul\":1651:1711   */\ntag_39:\n    /* \"#utility.yul\":1679:1682   */\n  0x00\n    /* \"#utility.yul\":1700:1705   */\n  dup2\n    /* \"#utility.yul\":1693:1705   */\n  swap1\n  pop\n    /* \"#utility.yul\":1651:1711   */\n  swap2\n  swap1\n  pop\n  jump\t// out\n    /* \"#utility.yul\":1717:1859   */\ntag_40:\n    /* \"#utility.yul\":1767:1776   */\n  0x00\n    /* \"#utility.yul\":1800:1853   */\n  tag_67\n    /* \"#utility.yul\":1818:1852   */\n  tag_68\n    /* \"#utility.yul\":1827:1851   */\n  tag_69\n    /* \"#utility.yul\":1845:1850   */\n  dup5\n    /* \"#utility.yul\":1827:1851   */\n  tag_38\n  jump\t// in\ntag_69:\n    /* \"#utility.yul\":1818:1852   */\n  tag_39\n  jump\t// in\ntag_68:\n    /* \"#utility.yul\":1800:1853   */\n  tag_38\n  jump\t// in\ntag_67:\n    /* \"#utility.yul\":1787:1853   */\n  swap1\n  pop\n    /* \"#utility.yul\":1717:1859   */\n  swap2\n  swap1\n  pop\n  jump\t// out\n    /* \"#utility.yul\":1865:1940   */\ntag_41:\n    /* \"#utility.yul\":1908:1911   */\n  0x00\n    /* \"#utility.yul\":1929:1934   */\n  dup2\n    /* \"#utility.yul\":1922:1934   */\n  swap1\n  pop\n    /* \"#utility.yul\":1865:1940   */\n  swap2\n  swap1\n  pop\n  jump\t// out\n    /* \"#utility.yul\":1946:2215   */\ntag_42:\n    /* \"#utility.yul\":2056:2095   */\n  tag_72\n    /* \"#utility.yul\":2087:2094   */\n  dup4\n    /* \"#utility.yul\":2056:2095   */\n  tag_40\n  jump\t// in\ntag_72:\n    /* \"#utility.yul\":2117:2208   */\n  tag_73\n    /* \"#utility.yul\":2166:2207   */\n  tag_74\n    /* \"#utility.yul\":2190:2206   */\n  dup3\n    /* \"#utility.yul\":2166:2207   */\n  tag_41\n  jump\t// in\ntag_74:\n    /* \"#utility.yul\":2158:2164   */\n  dup5\n    /* \"#utility.yul\":2151:2155   */\n  dup5\n    /* \"#utility.yul\":2145:2156   */\n  sload\n    /* \"#utility.yul\":2117:2208   */\n  tag_37\n  jump\t// in\ntag_73:\n    /* \"#utility.yul\":2111:2115   */\n  dup3\n    /* \"#utility.yul\":2104:2209   */\n  sstore\n    /* \"#utility.yul\":2022:2215   */\n  pop\n    /* \"#utility.yul\":1946:2215   */\n  pop\n  pop\n  pop\n  jump\t// out\n    /* \"#utility.yul\":2221:2294   */\ntag_43:\n    /* \"#utility.yul\":2266:2269   */\n  0x00\n    /* \"#utility.yul\":2287:2288   */\n  0x00\n    /* \"#utility.yul\":2280:2288   */\n  swap1\n  pop\n    /* \"#utility.yul\":2221:2294   */\n  swap1\n  jump\t// out\n    /* \"#utility.yul\":2300:2489   */\ntag_44:\n    /* \"#utility.yul\":2377:2409   */\n  tag_77\n  tag_43\n  jump\t// in\ntag_77:\n    /* \"#utility.yul\":2418:2483   */\n  tag_78\n    /* \"#utility.yul\":2476:2482   */\n  dup2\n    /* \"#utility.yul\":2468:2474   */\n  dup5\n    /* \"#utility.yul\":2462:2466   */\n  dup5\n    /* \"#utility.yul\":2418:2483   */\n  tag_42\n  jump\t// in\ntag_78:\n    /* \"#utility.yul\":2353:2489   */\n  pop\n    /* \"#utility.yul\":2300:2489   */\n  pop\n  pop\n  jump\t// out\n    /* \"#utility.yul\":2495:2681   */\ntag_45:\n    /* \"#utility.yul\":2555:2675   */\ntag_80:\n    /* \"#utility.yul\":2572:2575   */\n  dup2\n    /* \"#utility.yul\":2565:2570   */\n  dup2\n    /* \"#utility.yul\":2562:2576   */\n  lt\n    /* \"#utility.yul\":2555:2675   */\n  iszero\n  tag_82\n  jumpi\n    /* \"#utility.yul\":2626:2665   */\n  tag_83\n    /* \"#utility.yul\":2663:2664   */\n  0x00\n    /* \"#utility.yul\":2656:2661   */\n  dup3\n    /* \"#utility.yul\":2626:2665   */\n  tag_44\n  jump\t// in\ntag_83:\n    /* \"#utility.yul\":2599:2600   */\n  0x01\n    /* \"#utility.yul\":2592:2597   */\n  dup2\n    /* \"#utility.yul\":2588:2601   */\n  add\n    /* \"#utility.yul\":2579:2601   */\n  swap1\n  pop\n    /* \"#utility.yul\":2555:2675   */\n  jump(tag_80)\ntag_82:\n    /* \"#utility.yul\":2495:2681   */\n  pop\n  pop\n  jump\t// out\n    /* \"#utility.yul\":2687:3230   */\ntag_46:\n    /* \"#utility.yul\":2788:2790   */\n  0x1f\n    /* \"#utility.yul\":2783:2786   */\n  dup3\n    /* \"#utility.yul\":2780:2791   */\n  gt\n    /* \"#utility.yul\":2777:3223   */\n  iszero\n  tag_85\n  jumpi\n    /* \"#utility.yul\":2822:2860   */\n  tag_86\n    /* \"#utility.yul\":2854:2859   */\n  dup2\n    /* \"#utility.yul\":2822:2860   */\n  tag_34\n  jump\t// in\ntag_86:\n    /* \"#utility.yul\":2906:2935   */\n  tag_87\n    /* \"#utility.yul\":2924:2934   */\n  dup5\n    /* \"#utility.yul\":2906:2935   */\n  tag_35\n  jump\t// in\ntag_87:\n    /* \"#utility.yul\":2896:2904   */\n  dup2\n    /* \"#utility.yul\":2892:2936   */\n  add\n    /* \"#utility.yul\":3089:3091   */\n  0x20\n    /* \"#utility.yul\":3077:3087   */\n  dup6\n    /* \"#utility.yul\":3074:3092   */\n  lt\n    /* \"#utility.yul\":3071:3120   */\n  iszero\n  tag_88\n  jumpi\n    /* \"#utility.yul\":3110:3118   */\n  dup2\n    /* \"#utility.yul\":3095:3118   */\n  swap1\n  pop\n    /* \"#utility.yul\":3071:3120   */\ntag_88:\n    /* \"#utility.yul\":3133:3213   */\n  tag_89\n    /* \"#utility.yul\":3189:3211   */\n  tag_90\n    /* \"#utility.yul\":3207:3210   */\n  dup6\n    /* \"#utility.yul\":3189:3211   */\n  tag_35\n  jump\t// in\ntag_90:\n    /* \"#utility.yul\":3179:3187   */\n  dup4\n    /* \"#utility.yul\":3175:3212   */\n  add\n    /* \"#utility.yul\":3162:3173   */\n  dup3\n    /* \"#utility.yul\":3133:3213   */\n  tag_45\n  jump\t// in\ntag_89:\n    /* \"#utility.yul\":2792:3223   */\n  pop\n  pop\n    /* \"#utility.yul\":2777:3223   */\ntag_85:\n    /* \"#utility.yul\":2687:3230   */\n  pop\n  pop\n  pop\n  jump\t// out\n    /* \"#utility.yul\":3236:3353   */\ntag_47:\n    /* \"#utility.yul\":3290:3298   */\n  0x00\n    /* \"#utility.yul\":3340:3345   */\n  dup3\n    /* \"#utility.yul\":3334:3338   */\n  dup3\n    /* \"#utility.yul\":3330:3346   */\n  shr\n    /* \"#utility.yul\":3309:3346   */\n  swap1\n  pop\n    /* \"#utility.yul\":3236:3353   */\n  swap3\n  swap2\n  pop\n  pop\n  jump\t// out\n    /* \"#utility.yul\":3359:3528   */\ntag_48:\n    /* \"#utility.yul\":3403:3409   */\n  0x00\n    /* \"#utility.yul\":3436:3487   */\n  tag_93\n    /* \"#utility.yul\":3484:3485   */\n  0x00\n    /* \"#utility.yul\":3480:3486   */\n  not\n    /* \"#utility.yul\":3472:3477   */\n  dup5\n    /* \"#utility.yul\":3469:3470   */\n  0x08\n    /* \"#utility.yul\":3465:3478   */\n  mul\n    /* \"#utility.yul\":3436:3487   */\n  tag_47\n  jump\t// in\ntag_93:\n    /* \"#utility.yul\":3432:3488   */\n  not\n    /* \"#utility.yul\":3517:3521   */\n  dup1\n    /* \"#utility.yul\":3511:3515   */\n  dup4\n    /* \"#utility.yul\":3507:3522   */\n  and\n    /* \"#utility.yul\":3497:3522   */\n  swap2\n  pop\n    /* \"#utility.yul\":3410:3528   */\n  pop\n    /* \"#utility.yul\":3359:3528   */\n  swap3\n  swap2\n  pop\n  pop\n  jump\t// out\n    /* \"#utility.yul\":3533:3828   */\ntag_49:\n    /* \"#utility.yul\":3609:3613   */\n  0x00\n    /* \"#utility.yul\":3755:3784   */\n  tag_95\n    /* \"#utility.yul\":3780:3783   */\n  dup4\n    /* \"#utility.yul\":3774:3778   */\n  dup4\n    /* \"#utility.yul\":3755:3784   */\n  tag_48\n  jump\t// in\ntag_95:\n    /* \"#utility.yul\":3747:3784   */\n  swap2\n  pop\n    /* \"#utility.yul\":3817:3820   */\n  dup3\n    /* \"#utility.yul\":3814:3815   */\n  0x02\n    /* \"#utility.yul\":3810:3821   */\n  mul\n    /* \"#utility.yul\":3804:3808   */\n  dup3\n    /* \"#utility.yul\":3801:3822   */\n  or\n    /* \"#utility.yul\":3793:3822   */\n  swap1\n  pop\n    /* \"#utility.yul\":3533:3828   */\n  swap3\n  swap2\n  pop\n  pop\n  jump\t// out\n    /* \"#utility.yul\":3833:5228   */\ntag_17:\n    /* \"#utility.yul\":3950:3987   */\n  tag_97\n    /* \"#utility.yul\":3983:3986   */\n  dup3\n    /* \"#utility.yul\":3950:3987   */\n  tag_31\n  jump\t// in\ntag_97:\n    /* \"#utility.yul\":4052:4070   */\n  0xffffffffffffffff\n    /* \"#utility.yul\":4044:4050   */\n  dup2\n    /* \"#utility.yul\":4041:4071   */\n  gt\n    /* \"#utility.yul\":4038:4094   */\n  iszero\n  tag_98\n  jumpi\n    /* \"#utility.yul\":4074:4092   */\n  tag_99\n  tag_32\n  jump\t// in\ntag_99:\n    /* \"#utility.yul\":4038:4094   */\ntag_98:\n    /* \"#utility.yul\":4118:4156   */\n  tag_100\n    /* \"#utility.yul\":4150:4154   */\n  dup3\n    /* \"#utility.yul\":4144:4155   */\n  sload\n    /* \"#utility.yul\":4118:4156   */\n  tag_27\n  jump\t// in\ntag_100:\n    /* \"#utility.yul\":4203:4270   */\n  tag_101\n    /* \"#utility.yul\":4263:4269   */\n  dup3\n    /* \"#utility.yul\":4255:4261   */\n  dup3\n    /* \"#utility.yul\":4249:4253   */\n  dup6\n    /* \"#utility.yul\":4203:4270   */\n  tag_46\n  jump\t// in\ntag_101:\n    /* \"#utility.yul\":4297:4298   */\n  0x00\n    /* \"#utility.yul\":4321:4325   */\n  0x20\n    /* \"#utility.yul\":4308:4325   */\n  swap1\n  pop\n    /* \"#utility.yul\":4353:4355   */\n  0x1f\n    /* \"#utility.yul\":4345:4351   */\n  dup4\n    /* \"#utility.yul\":4342:4356   */\n  gt\n    /* \"#utility.yul\":4370:4371   */\n  0x01\n    /* \"#utility.yul\":4365:4983   */\n  dup2\n  eq\n  tag_103\n  jumpi\n    /* \"#utility.yul\":5027:5028   */\n  0x00\n    /* \"#utility.yul\":5044:5050   */\n  dup5\n    /* \"#utility.yul\":5041:5118   */\n  iszero\n  tag_104\n  jumpi\n    /* \"#utility.yul\":5093:5102   */\n  dup3\n    /* \"#utility.yul\":5088:5091   */\n  dup8\n    /* \"#utility.yul\":5084:5103   */\n  add\n    /* \"#utility.yul\":5078:5104   */\n  mload\n    /* \"#utility.yul\":5069:5104   */\n  swap1\n  pop\n    /* \"#utility.yul\":5041:5118   */\ntag_104:\n    /* \"#utility.yul\":5144:5211   */\n  tag_105\n    /* \"#utility.yul\":5204:5210   */\n  dup6\n    /* \"#utility.yul\":5197:5202   */\n  dup3\n    /* \"#utility.yul\":5144:5211   */\n  tag_49\n  jump\t// in\ntag_105:\n    /* \"#utility.yul\":5138:5142   */\n  dup7\n    /* \"#utility.yul\":5131:5212   */\n  sstore\n    /* \"#utility.yul\":5000:5222   */\n  pop\n    /* \"#utility.yul\":4335:5222   */\n  jump(tag_102)\n    /* \"#utility.yul\":4365:4983   */\ntag_103:\n    /* \"#utility.yul\":4417:4421   */\n  0x1f\n    /* \"#utility.yul\":4413:4422   */\n  not\n    /* \"#utility.yul\":4405:4411   */\n  dup5\n    /* \"#utility.yul\":4401:4423   */\n  and\n    /* \"#utility.yul\":4451:4488   */\n  tag_106\n    /* \"#utility.yul\":4483:4487   */\n  dup7\n    /* \"#utility.yul\":4451:4488   */\n  tag_34\n  jump\t// in\ntag_106:\n    /* \"#utility.yul\":4510:4511   */\n  0x00\n    /* \"#utility.yul\":4524:4732   */\ntag_107:\n    /* \"#utility.yul\":4538:4545   */\n  dup3\n    /* \"#utility.yul\":4535:4536   */\n  dup2\n    /* \"#utility.yul\":4532:4546   */\n  lt\n    /* \"#utility.yul\":4524:4732   */\n  iszero\n  tag_109\n  jumpi\n    /* \"#utility.yul\":4617:4626   */\n  dup5\n    /* \"#utility.yul\":4612:4615   */\n  dup10\n    /* \"#utility.yul\":4608:4627   */\n  add\n    /* \"#utility.yul\":4602:4628   */\n  mload\n    /* \"#utility.yul\":4594:4600   */\n  dup3\n    /* \"#utility.yul\":4587:4629   */\n  sstore\n    /* \"#utility.yul\":4668:4669   */\n  0x01\n    /* \"#utility.yul\":4660:4666   */\n  dup3\n    /* \"#utility.yul\":4656:4670   */\n  add\n    /* \"#utility.yul\":4646:4670   */\n  swap2\n  pop\n    /* \"#utility.yul\":4715:4717   */\n  0x20\n    /* \"#utility.yul\":4704:4713   */\n  dup6\n    /* \"#utility.yul\":4700:4718   */\n  add\n    /* \"#utility.yul\":4687:4718   */\n  swap5\n  pop\n    /* \"#utility.yul\":4561:4565   */\n  0x20\n    /* \"#utility.yul\":4558:4559   */\n  dup2\n    /* \"#utility.yul\":4554:4566   */\n  add\n    /* \"#utility.yul\":4549:4566   */\n  swap1\n  pop\n    /* \"#utility.yul\":4524:4732   */\n  jump(tag_107)\ntag_109:\n    /* \"#utility.yul\":4760:4766   */\n  dup7\n    /* \"#utility.yul\":4751:4758   */\n  dup4\n    /* \"#utility.yul\":4748:4767   */\n  lt\n    /* \"#utility.yul\":4745:4924   */\n  iszero\n  tag_110\n  jumpi\n    /* \"#utility.yul\":4818:4827   */\n  dup5\n    /* \"#utility.yul\":4813:4816   */\n  dup10\n    /* \"#utility.yul\":4809:4828   */\n  add\n    /* \"#utility.yul\":4803:4829   */\n  mload\n    /* \"#utility.yul\":4861:4909   */\n  tag_111\n    /* \"#utility.yul\":4903:4907   */\n  0x1f\n    /* \"#utility.yul\":4895:4901   */\n  dup10\n    /* \"#utility.yul\":4891:4908   */\n  and\n    /* \"#utility.yul\":4880:4889   */\n  dup3\n    /* \"#utility.yul\":4861:4909   */\n  tag_48\n  jump\t// in\ntag_111:\n    /* \"#utility.yul\":4853:4859   */\n  dup4\n    /* \"#utility.yul\":4846:4910   */\n  sstore\n    /* \"#utility.yul\":4768:4924   */\n  pop\n    /* \"#utility.yul\":4745:4924   */\ntag_110:\n    /* \"#utility.yul\":4970:4971   */\n  0x01\n    /* \"#utility.yul\":4966:4967   */\n  0x02\n    /* \"#utility.yul\":4958:4964   */\n  dup9\n    /* \"#utility.yul\":4954:4968   */\n  mul\n    /* \"#utility.yul\":4950:4972   */\n  add\n    /* \"#utility.yul\":4944:4948   */\n  dup9\n    /* \"#utility.yul\":4937:4973   */\n  sstore\n    /* \"#utility.yul\":4372:4983   */\n  pop\n  pop\n  pop\n    /* \"#utility.yul\":4335:5222   */\ntag_102:\n  pop\n    /* \"#utility.yul\":3925:5228   */\n  pop\n  pop\n  pop\n    /* \"#utility.yul\":3833:5228   */\n  pop\n  pop\n  jump\t// out\n    /* \"solidity\\xe5\\x85\\xa5\\xe9\\x97\\xa8\\xe7\\xbb\\x83\\xe4\\xb9\\xa0/4_NmberToInteger.sol\":85:863  contract NumberToInteger {... */\ntag_6:\n  dataSize(sub_0)\n  dup1\n  dataOffset(sub_0)\n  0x00\n  codecopy\n  0x00\n  return\nstop\n\nsub_0: assembly {\n        /* \"solidity\\xe5\\x85\\xa5\\xe9\\x97\\xa8\\xe7\\xbb\\x83\\xe4\\xb9\\xa0/4_NmberToInteger.sol\":85:863  contract NumberToInteger {... */\n      mstore(0x40, 0x80)\n      callvalue\n      dup1\n      iszero\n      tag_1\n      jumpi\n      revert(0x00, 0x00)\n    tag_1:\n      pop\n      jumpi(tag_2, lt(calldatasize, 0x04))\n      shr(0xe0, calldataload(0x00))\n      dup1\n      0xab7baabe\n      eq\n      tag_3\n      jumpi\n    tag_2:\n      revert(0x00, 0x00)\n        /* \"solidity\\xe5\\x85\\xa5\\xe9\\x97\\xa8\\xe7\\xbb\\x83\\xe4\\xb9\\xa0/4_NmberToInteger.sol\":407:817  function toRoman(uint num) public view returns (string memory) {... */\n    tag_3:\n      tag_4\n      0x04\n      dup1\n      calldatasize\n      sub\n      dup2\n      add\n      swap1\n      tag_5\n      swap2\n      swap1\n      tag_6\n      jump\t// in\n    tag_5:\n      tag_7\n      jump\t// in\n    tag_4:\n      mload(0x40)\n      tag_8\n      swap2\n      swap1\n      tag_9\n      jump\t// in\n    tag_8:\n      mload(0x40)\n      dup1\n      swap2\n      sub\n      swap1\n      return\n    tag_7:\n        /* \"solidity\\xe5\\x85\\xa5\\xe9\\x97\\xa8\\xe7\\xbb\\x83\\xe4\\xb9\\xa0/4_NmberToInteger.sol\":455:468  string memory */\n      0x60\n        /* \"solidity\\xe5\\x85\\xa5\\xe9\\x97\\xa8\\xe7\\xbb\\x83\\xe4\\xb9\\xa0/4_NmberToInteger.sol\":494:495  0 */\n      0x00\n        /* \"solidity\\xe5\\x85\\xa5\\xe9\\x97\\xa8\\xe7\\xbb\\x83\\xe4\\xb9\\xa0/4_NmberToInteger.sol\":488:491  num */\n      dup3\n        /* \"solidity\\xe5\\x85\\xa5\\xe9\\x97\\xa8\\xe7\\xbb\\x83\\xe4\\xb9\\xa0/4_NmberToInteger.sol\":488:495  num > 0 */\n      gt\n        /* \"solidity\\xe5\\x85\\xa5\\xe9\\x97\\xa8\\xe7\\xbb\\x83\\xe4\\xb9\\xa0/4_NmberToInteger.sol\":488:509  num > 0 && num < 4000 */\n      dup1\n      iszero\n      tag_11\n      jumpi\n      pop\n        /* \"solidity\\xe5\\x85\\xa5\\xe9\\x97\\xa8\\xe7\\xbb\\x83\\xe4\\xb9\\xa0/4_NmberToInteger.sol\":505:509  4000 */\n      0x0fa0\n        /* \"solidity\\xe5\\x85\\xa5\\xe9\\x97\\xa8\\xe7\\xbb\\x83\\xe4\\xb9\\xa0/4_NmberToInteger.sol\":499:502  num */\n      dup3\n        /* \"solidity\\xe5\\x85\\xa5\\xe9\\x97\\xa8\\xe7\\xbb\\x83\\xe4\\xb9\\xa0/4_NmberToInteger.sol\":499:509  num < 4000 */\n      lt\n        /* \"solidity\\xe5\\x85\\xa5\\xe9\\x97\\xa8\\xe7\\xbb\\x83\\xe4\\xb9\\xa0/4_NmberToInteger.sol\":488:509  num > 0 && num < 4000 */\n    tag_11:\n        /* \"solidity\\xe5\\x85\\xa5\\xe9\\x97\\xa8\\xe7\\xbb\\x83\\xe4\\xb9\\xa0/4_NmberToInteger.sol\":480:535  require(num > 0 && num < 4000, \"Out of range (1~3999)\") */\n      tag_12\n      jumpi\n      mload(0x40)\n      0x08c379a000000000000000000000000000000000000000000000000000000000\n      dup2\n      mstore\n      0x04\n      add\n      tag_13\n      swap1\n      tag_14\n      jump\t// in\n    tag_13:\n      mload(0x40)\n      dup1\n      swap2\n      sub\n      swap1\n      revert\n    tag_12:\n        /* \"solidity\\xe5\\x85\\xa5\\xe9\\x97\\xa8\\xe7\\xbb\\x83\\xe4\\xb9\\xa0/4_NmberToInteger.sol\":546:565  bytes memory result */\n      0x60\n        /* \"solidity\\xe5\\x85\\xa5\\xe9\\x97\\xa8\\xe7\\xbb\\x83\\xe4\\xb9\\xa0/4_NmberToInteger.sol\":581:587  uint i */\n      0x00\n        /* \"solidity\\xe5\\x85\\xa5\\xe9\\x97\\xa8\\xe7\\xbb\\x83\\xe4\\xb9\\xa0/4_NmberToInteger.sol\":590:591  0 */\n      0x00\n        /* \"solidity\\xe5\\x85\\xa5\\xe9\\x97\\xa8\\xe7\\xbb\\x83\\xe4\\xb9\\xa0/4_NmberToInteger.sol\":581:591  uint i = 0 */\n      swap1\n      pop\n        /* \"solidity\\xe5\\x85\\xa5\\xe9\\x97\\xa8\\xe7\\xbb\\x83\\xe4\\xb9\\xa0/4_NmberToInteger.sol\":576:779  for (uint i = 0; i < values.length; i++) {... */\n    tag_15:\n        /* \"solidity\\xe5\\x85\\xa5\\xe9\\x97\\xa8\\xe7\\xbb\\x83\\xe4\\xb9\\xa0/4_NmberToInteger.sol\":597:603  values */\n      0x00\n        /* \"solidity\\xe5\\x85\\xa5\\xe9\\x97\\xa8\\xe7\\xbb\\x83\\xe4\\xb9\\xa0/4_NmberToInteger.sol\":597:610  values.length */\n      dup1\n      sload\n      swap1\n      pop\n        /* \"solidity\\xe5\\x85\\xa5\\xe9\\x97\\xa8\\xe7\\xbb\\x83\\xe4\\xb9\\xa0/4_NmberToInteger.sol\":593:594  i */\n      dup2\n        /* \"solidity\\xe5\\x85\\xa5\\xe9\\x97\\xa8\\xe7\\xbb\\x83\\xe4\\xb9\\xa0/4_NmberToInteger.sol\":593:610  i < values.length */\n      lt\n        /* \"solidity\\xe5\\x85\\xa5\\xe9\\x97\\xa8\\xe7\\xbb\\x83\\xe4\\xb9\\xa0/4_NmberToInteger.sol\":576:779  for (uint i = 0; i < values.length; i++) {... */\n      iszero\n      tag_16\n      jumpi\n        /* \"solidity\\xe5\\x85\\xa5\\xe9\\x97\\xa8\\xe7\\xbb\\x83\\xe4\\xb9\\xa0/4_NmberToInteger.sol\":631:769  while (num >= values[i]) {... */\n    tag_18:\n        /* \"solidity\\xe5\\x85\\xa5\\xe9\\x97\\xa8\\xe7\\xbb\\x83\\xe4\\xb9\\xa0/4_NmberToInteger.sol\":645:651  values */\n      0x00\n        /* \"solidity\\xe5\\x85\\xa5\\xe9\\x97\\xa8\\xe7\\xbb\\x83\\xe4\\xb9\\xa0/4_NmberToInteger.sol\":652:653  i */\n      dup2\n        /* \"solidity\\xe5\\x85\\xa5\\xe9\\x97\\xa8\\xe7\\xbb\\x83\\xe4\\xb9\\xa0/4_NmberToInteger.sol\":645:654  values[i] */\n      dup2\n      sload\n      dup2\n      lt\n      tag_20\n      jumpi\n      tag_21\n      tag_22\n      jump\t// in\n    tag_21:\n    tag_20:\n      swap1\n      0x00\n      mstore\n      keccak256(0x00, 0x20)\n      swap1\n      0x10\n      swap2\n      dup3\n      dup3\n      div\n      add\n      swap2\n      swap1\n      mod\n      0x02\n      mul\n      swap1\n      sload\n      swap1\n      0x0100\n      exp\n      swap1\n      div\n      0xffff\n      and\n        /* \"solidity\\xe5\\x85\\xa5\\xe9\\x97\\xa8\\xe7\\xbb\\x83\\xe4\\xb9\\xa0/4_NmberToInteger.sol\":638:654  num >= values[i] */\n      0xffff\n      and\n        /* \"solidity\\xe5\\x85\\xa5\\xe9\\x97\\xa8\\xe7\\xbb\\x83\\xe4\\xb9\\xa0/4_NmberToInteger.sol\":638:641  num */\n      dup5\n        /* \"solidity\\xe5\\x85\\xa5\\xe9\\x97\\xa8\\xe7\\xbb\\x83\\xe4\\xb9\\xa0/4_NmberToInteger.sol\":638:654  num >= values[i] */\n      lt\n        /* \"solidity\\xe5\\x85\\xa5\\xe9\\x97\\xa8\\xe7\\xbb\\x83\\xe4\\xb9\\xa0/4_NmberToInteger.sol\":631:769  while (num >= values[i]) {... */\n      tag_19\n      jumpi\n        /* \"solidity\\xe5\\x85\\xa5\\xe9\\x97\\xa8\\xe7\\xbb\\x83\\xe4\\xb9\\xa0/4_NmberToInteger.sol\":700:706  result */\n      dup2\n        /* \"solidity\\xe5\\x85\\xa5\\xe9\\x97\\xa8\\xe7\\xbb\\x83\\xe4\\xb9\\xa0/4_NmberToInteger.sol\":708:716  numerals */\n      0x01\n        /* \"solidity\\xe5\\x85\\xa5\\xe9\\x97\\xa8\\xe7\\xbb\\x83\\xe4\\xb9\\xa0/4_NmberToInteger.sol\":717:718  i */\n      dup3\n        /* \"solidity\\xe5\\x85\\xa5\\xe9\\x97\\xa8\\xe7\\xbb\\x83\\xe4\\xb9\\xa0/4_NmberToInteger.sol\":708:719  numerals[i] */\n      dup2\n      sload\n      dup2\n      lt\n      tag_24\n      jumpi\n      tag_25\n      tag_22\n      jump\t// in\n    tag_25:\n    tag_24:\n      swap1\n      0x00\n      mstore\n      keccak256(0x00, 0x20)\n      add\n        /* \"solidity\\xe5\\x85\\xa5\\xe9\\x97\\xa8\\xe7\\xbb\\x83\\xe4\\xb9\\xa0/4_NmberToInteger.sol\":683:720  abi.encodePacked(result, numerals[i]) */\n      add(0x20, mload(0x40))\n      tag_27\n      swap3\n      swap2\n      swap1\n      tag_28\n      jump\t// in\n    tag_27:\n      mload(0x40)\n      0x20\n      dup2\n      dup4\n      sub\n      sub\n      dup2\n      mstore\n      swap1\n      0x40\n      mstore\n        /* \"solidity\\xe5\\x85\\xa5\\xe9\\x97\\xa8\\xe7\\xbb\\x83\\xe4\\xb9\\xa0/4_NmberToInteger.sol\":674:720  result = abi.encodePacked(result, numerals[i]) */\n      swap2\n      pop\n        /* \"solidity\\xe5\\x85\\xa5\\xe9\\x97\\xa8\\xe7\\xbb\\x83\\xe4\\xb9\\xa0/4_NmberToInteger.sol\":745:751  values */\n      0x00\n        /* \"solidity\\xe5\\x85\\xa5\\xe9\\x97\\xa8\\xe7\\xbb\\x83\\xe4\\xb9\\xa0/4_NmberToInteger.sol\":752:753  i */\n      dup2\n        /* \"solidity\\xe5\\x85\\xa5\\xe9\\x97\\xa8\\xe7\\xbb\\x83\\xe4\\xb9\\xa0/4_NmberToInteger.sol\":745:754  values[i] */\n      dup2\n      sload\n      dup2\n      lt\n      tag_29\n      jumpi\n      tag_30\n      tag_22\n      jump\t// in\n    tag_30:\n    tag_29:\n      swap1\n      0x00\n      mstore\n      keccak256(0x00, 0x20)\n      swap1\n      0x10\n      swap2\n      dup3\n      dup3\n      div\n      add\n      swap2\n      swap1\n      mod\n      0x02\n      mul\n      swap1\n      sload\n      swap1\n      0x0100\n      exp\n      swap1\n      div\n      0xffff\n      and\n        /* \"solidity\\xe5\\x85\\xa5\\xe9\\x97\\xa8\\xe7\\xbb\\x83\\xe4\\xb9\\xa0/4_NmberToInteger.sol\":738:754  num -= values[i] */\n      0xffff\n      and\n      dup5\n      tag_32\n      swap2\n      swap1\n      tag_33\n      jump\t// in\n    tag_32:\n      swap4\n      pop\n        /* \"solidity\\xe5\\x85\\xa5\\xe9\\x97\\xa8\\xe7\\xbb\\x83\\xe4\\xb9\\xa0/4_NmberToInteger.sol\":631:769  while (num >= values[i]) {... */\n      jump(tag_18)\n    tag_19:\n        /* \"solidity\\xe5\\x85\\xa5\\xe9\\x97\\xa8\\xe7\\xbb\\x83\\xe4\\xb9\\xa0/4_NmberToInteger.sol\":612:615  i++ */\n      dup1\n      dup1\n      0x01\n      add\n      swap2\n      pop\n      pop\n        /* \"solidity\\xe5\\x85\\xa5\\xe9\\x97\\xa8\\xe7\\xbb\\x83\\xe4\\xb9\\xa0/4_NmberToInteger.sol\":576:779  for (uint i = 0; i < values.length; i++) {... */\n      jump(tag_15)\n    tag_16:\n      pop\n        /* \"solidity\\xe5\\x85\\xa5\\xe9\\x97\\xa8\\xe7\\xbb\\x83\\xe4\\xb9\\xa0/4_NmberToInteger.sol\":803:809  result */\n      dup1\n        /* \"solidity\\xe5\\x85\\xa5\\xe9\\x97\\xa8\\xe7\\xbb\\x83\\xe4\\xb9\\xa0/4_NmberToInteger.sol\":789:810  return string(result) */\n      swap2\n      pop\n      pop\n        /* \"solidity\\xe5\\x85\\xa5\\xe9\\x97\\xa8\\xe7\\xbb\\x83\\xe4\\xb9\\xa0/4_NmberToInteger.sol\":407:817  function toRoman(uint num) public view returns (string memory) {... */\n      swap2\n      swap1\n      pop\n      jump\t// out\n        /* \"#utility.yul\":88:205   */\n    tag_35:\n        /* \"#utility.yul\":197:198   */\n      0x00\n        /* \"#utility.yul\":194:195   */\n      0x00\n        /* \"#utility.yul\":187:199   */\n      revert\n        /* \"#utility.yul\":334:411   */\n    tag_37:\n        /* \"#utility.yul\":371:378   */\n      0x00\n        /* \"#utility.yul\":400:405   */\n      dup2\n        /* \"#utility.yul\":389:405   */\n      swap1\n      pop\n        /* \"#utility.yul\":334:411   */\n      swap2\n      swap1\n      pop\n      jump\t// out\n        /* \"#utility.yul\":417:539   */\n    tag_38:\n        /* \"#utility.yul\":490:514   */\n      tag_62\n        /* \"#utility.yul\":508:513   */\n      dup2\n        /* \"#utility.yul\":490:514   */\n      tag_37\n      jump\t// in\n    tag_62:\n        /* \"#utility.yul\":483:488   */\n      dup2\n        /* \"#utility.yul\":480:515   */\n      eq\n        /* \"#utility.yul\":470:533   */\n      tag_63\n      jumpi\n        /* \"#utility.yul\":529:530   */\n      0x00\n        /* \"#utility.yul\":526:527   */\n      0x00\n        /* \"#utility.yul\":519:531   */\n      revert\n        /* \"#utility.yul\":470:533   */\n    tag_63:\n        /* \"#utility.yul\":417:539   */\n      pop\n      jump\t// out\n        /* \"#utility.yul\":545:684   */\n    tag_39:\n        /* \"#utility.yul\":591:596   */\n      0x00\n        /* \"#utility.yul\":629:635   */\n      dup2\n        /* \"#utility.yul\":616:636   */\n      calldataload\n        /* \"#utility.yul\":607:636   */\n      swap1\n      pop\n        /* \"#utility.yul\":645:678   */\n      tag_65\n        /* \"#utility.yul\":672:677   */\n      dup2\n        /* \"#utility.yul\":645:678   */\n      tag_38\n      jump\t// in\n    tag_65:\n        /* \"#utility.yul\":545:684   */\n      swap3\n      swap2\n      pop\n      pop\n      jump\t// out\n        /* \"#utility.yul\":690:1019   */\n    tag_6:\n        /* \"#utility.yul\":749:755   */\n      0x00\n        /* \"#utility.yul\":798:800   */\n      0x20\n        /* \"#utility.yul\":786:795   */\n      dup3\n        /* \"#utility.yul\":777:784   */\n      dup5\n        /* \"#utility.yul\":773:796   */\n      sub\n        /* \"#utility.yul\":769:801   */\n      slt\n        /* \"#utility.yul\":766:885   */\n      iszero\n      tag_67\n      jumpi\n        /* \"#utility.yul\":804:883   */\n      tag_68\n      tag_35\n      jump\t// in\n    tag_68:\n        /* \"#utility.yul\":766:885   */\n    tag_67:\n        /* \"#utility.yul\":924:925   */\n      0x00\n        /* \"#utility.yul\":949:1002   */\n      tag_69\n        /* \"#utility.yul\":994:1001   */\n      dup5\n        /* \"#utility.yul\":985:991   */\n      dup3\n        /* \"#utility.yul\":974:983   */\n      dup6\n        /* \"#utility.yul\":970:992   */\n      add\n        /* \"#utility.yul\":949:1002   */\n      tag_39\n      jump\t// in\n    tag_69:\n        /* \"#utility.yul\":939:1002   */\n      swap2\n      pop\n        /* \"#utility.yul\":895:1012   */\n      pop\n        /* \"#utility.yul\":690:1019   */\n      swap3\n      swap2\n      pop\n      pop\n      jump\t// out\n        /* \"#utility.yul\":1025:1124   */\n    tag_40:\n        /* \"#utility.yul\":1077:1083   */\n      0x00\n        /* \"#utility.yul\":1111:1116   */\n      dup2\n        /* \"#utility.yul\":1105:1117   */\n      mload\n        /* \"#utility.yul\":1095:1117   */\n      swap1\n      pop\n        /* \"#utility.yul\":1025:1124   */\n      swap2\n      swap1\n      pop\n      jump\t// out\n        /* \"#utility.yul\":1130:1299   */\n    tag_41:\n        /* \"#utility.yul\":1214:1225   */\n      0x00\n        /* \"#utility.yul\":1248:1254   */\n      dup3\n        /* \"#utility.yul\":1243:1246   */\n      dup3\n        /* \"#utility.yul\":1236:1255   */\n      mstore\n        /* \"#utility.yul\":1288:1292   */\n      0x20\n        /* \"#utility.yul\":1283:1286   */\n      dup3\n        /* \"#utility.yul\":1279:1293   */\n      add\n        /* \"#utility.yul\":1264:1293   */\n      swap1\n      pop\n        /* \"#utility.yul\":1130:1299   */\n      swap3\n      swap2\n      pop\n      pop\n      jump\t// out\n        /* \"#utility.yul\":1305:1444   */\n    tag_42:\n        /* \"#utility.yul\":1394:1400   */\n      dup3\n        /* \"#utility.yul\":1389:1392   */\n      dup2\n        /* \"#utility.yul\":1384:1387   */\n      dup4\n        /* \"#utility.yul\":1378:1401   */\n      mcopy\n        /* \"#utility.yul\":1435:1436   */\n      0x00\n        /* \"#utility.yul\":1426:1432   */\n      dup4\n        /* \"#utility.yul\":1421:1424   */\n      dup4\n        /* \"#utility.yul\":1417:1433   */\n      add\n        /* \"#utility.yul\":1410:1437   */\n      mstore\n        /* \"#utility.yul\":1305:1444   */\n      pop\n      pop\n      pop\n      jump\t// out\n        /* \"#utility.yul\":1450:1552   */\n    tag_43:\n        /* \"#utility.yul\":1491:1497   */\n      0x00\n        /* \"#utility.yul\":1542:1544   */\n      0x1f\n        /* \"#utility.yul\":1538:1545   */\n      not\n        /* \"#utility.yul\":1533:1535   */\n      0x1f\n        /* \"#utility.yul\":1526:1531   */\n      dup4\n        /* \"#utility.yul\":1522:1536   */\n      add\n        /* \"#utility.yul\":1518:1546   */\n      and\n        /* \"#utility.yul\":1508:1546   */\n      swap1\n      pop\n        /* \"#utility.yul\":1450:1552   */\n      swap2\n      swap1\n      pop\n      jump\t// out\n        /* \"#utility.yul\":1558:1935   */\n    tag_44:\n        /* \"#utility.yul\":1646:1649   */\n      0x00\n        /* \"#utility.yul\":1674:1713   */\n      tag_75\n        /* \"#utility.yul\":1707:1712   */\n      dup3\n        /* \"#utility.yul\":1674:1713   */\n      tag_40\n      jump\t// in\n    tag_75:\n        /* \"#utility.yul\":1729:1800   */\n      tag_76\n        /* \"#utility.yul\":1793:1799   */\n      dup2\n        /* \"#utility.yul\":1788:1791   */\n      dup6\n        /* \"#utility.yul\":1729:1800   */\n      tag_41\n      jump\t// in\n    tag_76:\n        /* \"#utility.yul\":1722:1800   */\n      swap4\n      pop\n        /* \"#utility.yul\":1809:1874   */\n      tag_77\n        /* \"#utility.yul\":1867:1873   */\n      dup2\n        /* \"#utility.yul\":1862:1865   */\n      dup6\n        /* \"#utility.yul\":1855:1859   */\n      0x20\n        /* \"#utility.yul\":1848:1853   */\n      dup7\n        /* \"#utility.yul\":1844:1860   */\n      add\n        /* \"#utility.yul\":1809:1874   */\n      tag_42\n      jump\t// in\n    tag_77:\n        /* \"#utility.yul\":1899:1928   */\n      tag_78\n        /* \"#utility.yul\":1921:1927   */\n      dup2\n        /* \"#utility.yul\":1899:1928   */\n      tag_43\n      jump\t// in\n    tag_78:\n        /* \"#utility.yul\":1894:1897   */\n      dup5\n        /* \"#utility.yul\":1890:1929   */\n      add\n        /* \"#utility.yul\":1883:1929   */\n      swap2\n      pop\n        /* \"#utility.yul\":1650:1935   */\n      pop\n        /* \"#utility.yul\":1558:1935   */\n      swap3\n      swap2\n      pop\n      pop\n      jump\t// out\n        /* \"#utility.yul\":1941:2254   */\n    tag_9:\n        /* \"#utility.yul\":2054:2058   */\n      0x00\n        /* \"#utility.yul\":2092:2094   */\n      0x20\n        /* \"#utility.yul\":2081:2090   */\n      dup3\n        /* \"#utility.yul\":2077:2095   */\n      add\n        /* \"#utility.yul\":2069:2095   */\n      swap1\n      pop\n        /* \"#utility.yul\":2141:2150   */\n      dup2\n        /* \"#utility.yul\":2135:2139   */\n      dup2\n        /* \"#utility.yul\":2131:2151   */\n      sub\n        /* \"#utility.yul\":2127:2128   */\n      0x00\n        /* \"#utility.yul\":2116:2125   */\n      dup4\n        /* \"#utility.yul\":2112:2129   */\n      add\n        /* \"#utility.yul\":2105:2152   */\n      mstore\n        /* \"#utility.yul\":2169:2247   */\n      tag_80\n        /* \"#utility.yul\":2242:2246   */\n      dup2\n        /* \"#utility.yul\":2233:2239   */\n      dup5\n        /* \"#utility.yul\":2169:2247   */\n      tag_44\n      jump\t// in\n    tag_80:\n        /* \"#utility.yul\":2161:2247   */\n      swap1\n      pop\n        /* \"#utility.yul\":1941:2254   */\n      swap3\n      swap2\n      pop\n      pop\n      jump\t// out\n        /* \"#utility.yul\":2260:2431   */\n    tag_45:\n        /* \"#utility.yul\":2400:2423   */\n      0x4f7574206f662072616e67652028317e33393939290000000000000000000000\n        /* \"#utility.yul\":2396:2397   */\n      0x00\n        /* \"#utility.yul\":2388:2394   */\n      dup3\n        /* \"#utility.yul\":2384:2398   */\n      add\n        /* \"#utility.yul\":2377:2424   */\n      mstore\n        /* \"#utility.yul\":2260:2431   */\n      pop\n      jump\t// out\n        /* \"#utility.yul\":2437:2803   */\n    tag_46:\n        /* \"#utility.yul\":2579:2582   */\n      0x00\n        /* \"#utility.yul\":2600:2667   */\n      tag_83\n        /* \"#utility.yul\":2664:2666   */\n      0x15\n        /* \"#utility.yul\":2659:2662   */\n      dup4\n        /* \"#utility.yul\":2600:2667   */\n      tag_41\n      jump\t// in\n    tag_83:\n        /* \"#utility.yul\":2593:2667   */\n      swap2\n      pop\n        /* \"#utility.yul\":2676:2769   */\n      tag_84\n        /* \"#utility.yul\":2765:2768   */\n      dup3\n        /* \"#utility.yul\":2676:2769   */\n      tag_45\n      jump\t// in\n    tag_84:\n        /* \"#utility.yul\":2794:2796   */\n      0x20\n        /* \"#utility.yul\":2789:2792   */\n      dup3\n        /* \"#utility.yul\":2785:2797   */\n      add\n        /* \"#utility.yul\":2778:2797   */\n      swap1\n      pop\n        /* \"#utility.yul\":2437:2803   */\n      swap2\n      swap1\n      pop\n      jump\t// out\n        /* \"#utility.yul\":2809:3228   */\n    tag_14:\n        /* \"#utility.yul\":2975:2979   */\n      0x00\n        /* \"#utility.yul\":3013:3015   */\n      0x20\n        /* \"#utility.yul\":3002:3011   */\n      dup3\n        /* \"#utility.yul\":2998:3016   */\n      add\n        /* \"#utility.yul\":2990:3016   */\n      swap1\n      pop\n        /* \"#utility.yul\":3062:3071   */\n      dup2\n        /* \"#utility.yul\":3056:3060   */\n      dup2\n        /* \"#utility.yul\":3052:3072   */\n      sub\n        /* \"#utility.yul\":3048:3049   */\n      0x00\n        /* \"#utility.yul\":3037:3046   */\n      dup4\n        /* \"#utility.yul\":3033:3050   */\n      add\n        /* \"#utility.yul\":3026:3073   */\n      mstore\n        /* \"#utility.yul\":3090:3221   */\n      tag_86\n        /* \"#utility.yul\":3216:3220   */\n      dup2\n        /* \"#utility.yul\":3090:3221   */\n      tag_46\n      jump\t// in\n    tag_86:\n        /* \"#utility.yul\":3082:3221   */\n      swap1\n      pop\n        /* \"#utility.yul\":2809:3228   */\n      swap2\n      swap1\n      pop\n      jump\t// out\n        /* \"#utility.yul\":3234:3414   */\n    tag_22:\n        /* \"#utility.yul\":3282:3359   */\n      0x4e487b7100000000000000000000000000000000000000000000000000000000\n        /* \"#utility.yul\":3279:3280   */\n      0x00\n        /* \"#utility.yul\":3272:3360   */\n      mstore\n        /* \"#utility.yul\":3379:3383   */\n      0x32\n        /* \"#utility.yul\":3376:3377   */\n      0x04\n        /* \"#utility.yul\":3369:3384   */\n      mstore\n        /* \"#utility.yul\":3403:3407   */\n      0x24\n        /* \"#utility.yul\":3400:3401   */\n      0x00\n        /* \"#utility.yul\":3393:3408   */\n      revert\n        /* \"#utility.yul\":3420:3518   */\n    tag_47:\n        /* \"#utility.yul\":3471:3477   */\n      0x00\n        /* \"#utility.yul\":3505:3510   */\n      dup2\n        /* \"#utility.yul\":3499:3511   */\n      mload\n        /* \"#utility.yul\":3489:3511   */\n      swap1\n      pop\n        /* \"#utility.yul\":3420:3518   */\n      swap2\n      swap1\n      pop\n      jump\t// out\n        /* \"#utility.yul\":3524:3671   */\n    tag_48:\n        /* \"#utility.yul\":3625:3636   */\n      0x00\n        /* \"#utility.yul\":3662:3665   */\n      dup2\n        /* \"#utility.yul\":3647:3665   */\n      swap1\n      pop\n        /* \"#utility.yul\":3524:3671   */\n      swap3\n      swap2\n      pop\n      pop\n      jump\t// out\n        /* \"#utility.yul\":3677:4063   */\n    tag_49:\n        /* \"#utility.yul\":3781:3784   */\n      0x00\n        /* \"#utility.yul\":3809:3847   */\n      tag_91\n        /* \"#utility.yul\":3841:3846   */\n      dup3\n        /* \"#utility.yul\":3809:3847   */\n      tag_47\n      jump\t// in\n    tag_91:\n        /* \"#utility.yul\":3863:3951   */\n      tag_92\n        /* \"#utility.yul\":3944:3950   */\n      dup2\n        /* \"#utility.yul\":3939:3942   */\n      dup6\n        /* \"#utility.yul\":3863:3951   */\n      tag_48\n      jump\t// in\n    tag_92:\n        /* \"#utility.yul\":3856:3951   */\n      swap4\n      pop\n        /* \"#utility.yul\":3960:4025   */\n      tag_93\n        /* \"#utility.yul\":4018:4024   */\n      dup2\n        /* \"#utility.yul\":4013:4016   */\n      dup6\n        /* \"#utility.yul\":4006:4010   */\n      0x20\n        /* \"#utility.yul\":3999:4004   */\n      dup7\n        /* \"#utility.yul\":3995:4011   */\n      add\n        /* \"#utility.yul\":3960:4025   */\n      tag_42\n      jump\t// in\n    tag_93:\n        /* \"#utility.yul\":4050:4056   */\n      dup1\n        /* \"#utility.yul\":4045:4048   */\n      dup5\n        /* \"#utility.yul\":4041:4057   */\n      add\n        /* \"#utility.yul\":4034:4057   */\n      swap2\n      pop\n        /* \"#utility.yul\":3785:4063   */\n      pop\n        /* \"#utility.yul\":3677:4063   */\n      swap3\n      swap2\n      pop\n      pop\n      jump\t// out\n        /* \"#utility.yul\":4069:4249   */\n    tag_50:\n        /* \"#utility.yul\":4117:4194   */\n      0x4e487b7100000000000000000000000000000000000000000000000000000000\n        /* \"#utility.yul\":4114:4115   */\n      0x00\n        /* \"#utility.yul\":4107:4195   */\n      mstore\n        /* \"#utility.yul\":4214:4218   */\n      0x22\n        /* \"#utility.yul\":4211:4212   */\n      0x04\n        /* \"#utility.yul\":4204:4219   */\n      mstore\n        /* \"#utility.yul\":4238:4242   */\n      0x24\n        /* \"#utility.yul\":4235:4236   */\n      0x00\n        /* \"#utility.yul\":4228:4243   */\n      revert\n        /* \"#utility.yul\":4255:4575   */\n    tag_51:\n        /* \"#utility.yul\":4299:4305   */\n      0x00\n        /* \"#utility.yul\":4336:4337   */\n      0x02\n        /* \"#utility.yul\":4330:4334   */\n      dup3\n        /* \"#utility.yul\":4326:4338   */\n      div\n        /* \"#utility.yul\":4316:4338   */\n      swap1\n      pop\n        /* \"#utility.yul\":4383:4384   */\n      0x01\n        /* \"#utility.yul\":4377:4381   */\n      dup3\n        /* \"#utility.yul\":4373:4385   */\n      and\n        /* \"#utility.yul\":4404:4422   */\n      dup1\n        /* \"#utility.yul\":4394:4475   */\n      tag_96\n      jumpi\n        /* \"#utility.yul\":4460:4464   */\n      0x7f\n        /* \"#utility.yul\":4452:4458   */\n      dup3\n        /* \"#utility.yul\":4448:4465   */\n      and\n        /* \"#utility.yul\":4438:4465   */\n      swap2\n      pop\n        /* \"#utility.yul\":4394:4475   */\n    tag_96:\n        /* \"#utility.yul\":4522:4524   */\n      0x20\n        /* \"#utility.yul\":4514:4520   */\n      dup3\n        /* \"#utility.yul\":4511:4525   */\n      lt\n        /* \"#utility.yul\":4491:4509   */\n      dup2\n        /* \"#utility.yul\":4488:4526   */\n      sub\n        /* \"#utility.yul\":4485:4569   */\n      tag_97\n      jumpi\n        /* \"#utility.yul\":4541:4559   */\n      tag_98\n      tag_50\n      jump\t// in\n    tag_98:\n        /* \"#utility.yul\":4485:4569   */\n    tag_97:\n        /* \"#utility.yul\":4306:4575   */\n      pop\n        /* \"#utility.yul\":4255:4575   */\n      swap2\n      swap1\n      pop\n      jump\t// out\n        /* \"#utility.yul\":4581:4729   */\n    tag_52:\n        /* \"#utility.yul\":4683:4694   */\n      0x00\n        /* \"#utility.yul\":4720:4723   */\n      dup2\n        /* \"#utility.yul\":4705:4723   */\n      swap1\n      pop\n        /* \"#utility.yul\":4581:4729   */\n      swap3\n      swap2\n      pop\n      pop\n      jump\t// out\n        /* \"#utility.yul\":4735:4876   */\n    tag_53:\n        /* \"#utility.yul\":4784:4788   */\n      0x00\n        /* \"#utility.yul\":4807:4810   */\n      dup2\n        /* \"#utility.yul\":4799:4810   */\n      swap1\n      pop\n        /* \"#utility.yul\":4830:4833   */\n      dup2\n        /* \"#utility.yul\":4827:4828   */\n      0x00\n        /* \"#utility.yul\":4820:4834   */\n      mstore\n        /* \"#utility.yul\":4864:4868   */\n      0x20\n        /* \"#utility.yul\":4861:4862   */\n      0x00\n        /* \"#utility.yul\":4851:4869   */\n      keccak256\n        /* \"#utility.yul\":4843:4869   */\n      swap1\n      pop\n        /* \"#utility.yul\":4735:4876   */\n      swap2\n      swap1\n      pop\n      jump\t// out\n        /* \"#utility.yul\":4906:5780   */\n    tag_54:\n        /* \"#utility.yul\":5009:5012   */\n      0x00\n        /* \"#utility.yul\":5046:5051   */\n      dup2\n        /* \"#utility.yul\":5040:5052   */\n      sload\n        /* \"#utility.yul\":5075:5111   */\n      tag_102\n        /* \"#utility.yul\":5101:5110   */\n      dup2\n        /* \"#utility.yul\":5075:5111   */\n      tag_51\n      jump\t// in\n    tag_102:\n        /* \"#utility.yul\":5127:5216   */\n      tag_103\n        /* \"#utility.yul\":5209:5215   */\n      dup2\n        /* \"#utility.yul\":5204:5207   */\n      dup7\n        /* \"#utility.yul\":5127:5216   */\n      tag_52\n      jump\t// in\n    tag_103:\n        /* \"#utility.yul\":5120:5216   */\n      swap5\n      pop\n        /* \"#utility.yul\":5247:5248   */\n      0x01\n        /* \"#utility.yul\":5236:5245   */\n      dup3\n        /* \"#utility.yul\":5232:5249   */\n      and\n        /* \"#utility.yul\":5263:5264   */\n      0x00\n        /* \"#utility.yul\":5258:5424   */\n      dup2\n      eq\n      tag_105\n      jumpi\n        /* \"#utility.yul\":5438:5439   */\n      0x01\n        /* \"#utility.yul\":5433:5774   */\n      dup2\n      eq\n      tag_106\n      jumpi\n        /* \"#utility.yul\":5225:5774   */\n      jump(tag_104)\n        /* \"#utility.yul\":5258:5424   */\n    tag_105:\n        /* \"#utility.yul\":5342:5346   */\n      0xff\n        /* \"#utility.yul\":5338:5347   */\n      not\n        /* \"#utility.yul\":5327:5336   */\n      dup4\n        /* \"#utility.yul\":5323:5348   */\n      and\n        /* \"#utility.yul\":5318:5321   */\n      dup7\n        /* \"#utility.yul\":5311:5349   */\n      mstore\n        /* \"#utility.yul\":5404:5410   */\n      dup2\n        /* \"#utility.yul\":5397:5411   */\n      iszero\n        /* \"#utility.yul\":5390:5412   */\n      iszero\n        /* \"#utility.yul\":5382:5388   */\n      dup3\n        /* \"#utility.yul\":5378:5413   */\n      mul\n        /* \"#utility.yul\":5373:5376   */\n      dup7\n        /* \"#utility.yul\":5369:5414   */\n      add\n        /* \"#utility.yul\":5362:5414   */\n      swap4\n      pop\n        /* \"#utility.yul\":5258:5424   */\n      jump(tag_104)\n        /* \"#utility.yul\":5433:5774   */\n    tag_106:\n        /* \"#utility.yul\":5500:5538   */\n      tag_107\n        /* \"#utility.yul\":5532:5537   */\n      dup6\n        /* \"#utility.yul\":5500:5538   */\n      tag_53\n      jump\t// in\n    tag_107:\n        /* \"#utility.yul\":5560:5561   */\n      0x00\n        /* \"#utility.yul\":5574:5728   */\n    tag_108:\n        /* \"#utility.yul\":5588:5594   */\n      dup4\n        /* \"#utility.yul\":5585:5586   */\n      dup2\n        /* \"#utility.yul\":5582:5595   */\n      lt\n        /* \"#utility.yul\":5574:5728   */\n      iszero\n      tag_110\n      jumpi\n        /* \"#utility.yul\":5662:5669   */\n      dup2\n        /* \"#utility.yul\":5656:5670   */\n      sload\n        /* \"#utility.yul\":5652:5653   */\n      dup2\n        /* \"#utility.yul\":5647:5650   */\n      dup10\n        /* \"#utility.yul\":5643:5654   */\n      add\n        /* \"#utility.yul\":5636:5671   */\n      mstore\n        /* \"#utility.yul\":5712:5713   */\n      0x01\n        /* \"#utility.yul\":5703:5710   */\n      dup3\n        /* \"#utility.yul\":5699:5714   */\n      add\n        /* \"#utility.yul\":5688:5714   */\n      swap2\n      pop\n        /* \"#utility.yul\":5610:5614   */\n      0x20\n        /* \"#utility.yul\":5607:5608   */\n      dup2\n        /* \"#utility.yul\":5603:5615   */\n      add\n        /* \"#utility.yul\":5598:5615   */\n      swap1\n      pop\n        /* \"#utility.yul\":5574:5728   */\n      jump(tag_108)\n    tag_110:\n        /* \"#utility.yul\":5757:5763   */\n      dup4\n        /* \"#utility.yul\":5752:5755   */\n      dup9\n        /* \"#utility.yul\":5748:5764   */\n      add\n        /* \"#utility.yul\":5741:5764   */\n      swap6\n      pop\n        /* \"#utility.yul\":5440:5774   */\n      pop\n      pop\n        /* \"#utility.yul\":5225:5774   */\n    tag_104:\n      pop\n        /* \"#utility.yul\":5013:5780   */\n      pop\n      pop\n        /* \"#utility.yul\":4906:5780   */\n      swap3\n      swap2\n      pop\n      pop\n      jump\t// out\n        /* \"#utility.yul\":5786:6211   */\n    tag_28:\n        /* \"#utility.yul\":5961:5964   */\n      0x00\n        /* \"#utility.yul\":5983:6076   */\n      tag_112\n        /* \"#utility.yul\":6072:6075   */\n      dup3\n        /* \"#utility.yul\":6063:6069   */\n      dup6\n        /* \"#utility.yul\":5983:6076   */\n      tag_49\n      jump\t// in\n    tag_112:\n        /* \"#utility.yul\":5976:6076   */\n      swap2\n      pop\n        /* \"#utility.yul\":6093:6185   */\n      tag_113\n        /* \"#utility.yul\":6181:6184   */\n      dup3\n        /* \"#utility.yul\":6172:6178   */\n      dup5\n        /* \"#utility.yul\":6093:6185   */\n      tag_54\n      jump\t// in\n    tag_113:\n        /* \"#utility.yul\":6086:6185   */\n      swap2\n      pop\n        /* \"#utility.yul\":6202:6205   */\n      dup2\n        /* \"#utility.yul\":6195:6205   */\n      swap1\n      pop\n        /* \"#utility.yul\":5786:6211   */\n      swap4\n      swap3\n      pop\n      pop\n      pop\n      jump\t// out\n        /* \"#utility.yul\":6217:6397   */\n    tag_55:\n        /* \"#utility.yul\":6265:6342   */\n      0x4e487b7100000000000000000000000000000000000000000000000000000000\n        /* \"#utility.yul\":6262:6263   */\n      0x00\n        /* \"#utility.yul\":6255:6343   */\n      mstore\n        /* \"#utility.yul\":6362:6366   */\n      0x11\n        /* \"#utility.yul\":6359:6360   */\n      0x04\n        /* \"#utility.yul\":6352:6367   */\n      mstore\n        /* \"#utility.yul\":6386:6390   */\n      0x24\n        /* \"#utility.yul\":6383:6384   */\n      0x00\n        /* \"#utility.yul\":6376:6391   */\n      revert\n        /* \"#utility.yul\":6403:6597   */\n    tag_33:\n        /* \"#utility.yul\":6443:6447   */\n      0x00\n        /* \"#utility.yul\":6463:6483   */\n      tag_116\n        /* \"#utility.yul\":6481:6482   */\n      dup3\n        /* \"#utility.yul\":6463:6483   */\n      tag_37\n      jump\t// in\n    tag_116:\n        /* \"#utility.yul\":6458:6483   */\n      swap2\n      pop\n        /* \"#utility.yul\":6497:6517   */\n      tag_117\n        /* \"#utility.yul\":6515:6516   */\n      dup4\n        /* \"#utility.yul\":6497:6517   */\n      tag_37\n      jump\t// in\n    tag_117:\n        /* \"#utility.yul\":6492:6517   */\n      swap3\n      pop\n        /* \"#utility.yul\":6541:6542   */\n      dup3\n        /* \"#utility.yul\":6538:6539   */\n      dup3\n        /* \"#utility.yul\":6534:6543   */\n      sub\n        /* \"#utility.yul\":6526:6543   */\n      swap1\n      pop\n        /* \"#utility.yul\":6565:6566   */\n      dup2\n        /* \"#utility.yul\":6559:6563   */\n      dup2\n        /* \"#utility.yul\":6556:6567   */\n      gt\n        /* \"#utility.yul\":6553:6590   */\n      iszero\n      tag_118\n      jumpi\n        /* \"#utility.yul\":6570:6588   */\n      tag_119\n      tag_55\n      jump\t// in\n    tag_119:\n        /* \"#utility.yul\":6553:6590   */\n    tag_118:\n        /* \"#utility.yul\":6403:6597   */\n      swap3\n      swap2\n      pop\n      pop\n      jump\t// out\n\n    auxdata: 0xa2646970667358221220c1a83589a0c3793918e9ce6a5590944abfb2d869d5e0dd4ed8dece1e66b08f4264736f6c634300081e0033\n}\n",
				"bytecode": {
					"linkReferences": {},
					"object": "6080604052604051806101a001604052806103e861ffff16815260200161038461ffff1681526020016101f461ffff16815260200161019061ffff168152602001606461ffff168152602001605a61ffff168152602001603261ffff168152602001602861ffff168152602001600a61ffff168152602001600961ffff168152602001600561ffff168152602001600461ffff168152602001600161ffff168152505f90600d6100b09291906103dc565b50604051806101a001604052806040518060400160405280600181526020017f4d0000000000000000000000000000000000000000000000000000000000000081525081526020016040518060400160405280600281526020017f434d00000000000000000000000000000000000000000000000000000000000081525081526020016040518060400160405280600181526020017f440000000000000000000000000000000000000000000000000000000000000081525081526020016040518060400160405280600281526020017f434400000000000000000000000000000000000000000000000000000000000081525081526020016040518060400160405280600181526020017f430000000000000000000000000000000000000000000000000000000000000081525081526020016040518060400160405280600281526020017f584300000000000000000000000000000000000000000000000000000000000081525081526020016040518060400160405280600181526020017f4c0000000000000000000000000000000000000000000000000000000000000081525081526020016040518060400160405280600281526020017f584c00000000000000000000000000000000000000000000000000000000000081525081526020016040518060400160405280600181526020017f580000000000000000000000000000000000000000000000000000000000000081525081526020016040518060400160405280600281526020017f495800000000000000000000000000000000000000000000000000000000000081525081526020016040518060400160405280600181526020017f560000000000000000000000000000000000000000000000000000000000000081525081526020016040518060400160405280600281526020017f495600000000000000000000000000000000000000000000000000000000000081525081526020016040518060400160405280600181526020017f4900000000000000000000000000000000000000000000000000000000000000815250815250600190600d6103ca929190610483565b503480156103d6575f5ffd5b50610861565b828054828255905f5260205f2090600f01601090048101928215610472579160200282015f5b8382111561044257835183826101000a81548161ffff021916908361ffff1602179055509260200192600201602081600101049283019260010302610402565b80156104705782816101000a81549061ffff0219169055600201602081600101049283019260010302610442565b505b50905061047f91906104da565b5090565b828054828255905f5260205f209081019282156104c9579160200282015b828111156104c85782518290816104b89190610792565b50916020019190600101906104a1565b5b5090506104d691906104f5565b5090565b5b808211156104f1575f815f9055506001016104db565b5090565b5b80821115610514575f818161050b9190610518565b506001016104f6565b5090565b508054610524906105b9565b5f825580601f106105355750610552565b601f0160209004905f5260205f209081019061055191906104da565b5b50565b5f81519050919050565b7f4e487b71000000000000000000000000000000000000000000000000000000005f52604160045260245ffd5b7f4e487b71000000000000000000000000000000000000000000000000000000005f52602260045260245ffd5b5f60028204905060018216806105d057607f821691505b6020821081036105e3576105e261058c565b5b50919050565b5f819050815f5260205f209050919050565b5f6020601f8301049050919050565b5f82821b905092915050565b5f600883026106457fffffffffffffffffffffffffffffffffffffffffffffffffffffffffffffffff8261060a565b61064f868361060a565b95508019841693508086168417925050509392505050565b5f819050919050565b5f819050919050565b5f61069361068e61068984610667565b610670565b610667565b9050919050565b5f819050919050565b6106ac83610679565b6106c06106b88261069a565b848454610616565b825550505050565b5f5f905090565b6106d76106c8565b6106e28184846106a3565b505050565b5b81811015610705576106fa5f826106cf565b6001810190506106e8565b5050565b601f82111561074a5761071b816105e9565b610724846105fb565b81016020851015610733578190505b61074761073f856105fb565b8301826106e7565b50505b505050565b5f82821c905092915050565b5f61076a5f198460080261074f565b1980831691505092915050565b5f610782838361075b565b9150826002028217905092915050565b61079b82610555565b67ffffffffffffffff8111156107b4576107b361055f565b5b6107be82546105b9565b6107c9828285610709565b5f60209050601f8311600181146107fa575f84156107e8578287015190505b6107f28582610777565b865550610859565b601f198416610808866105e9565b5f5b8281101561082f5784890151825560018201915060208501945060208101905061080a565b8683101561084c5784890151610848601f89168261075b565b8355505b6001600288020188555050505b505050505050565b61051f8061086e5f395ff3fe608060405234801561000f575f5ffd5b5060043610610029575f3560e01c8063ab7baabe1461002d575b5f5ffd5b610047600480360381019061004291906101d9565b61005d565b6040516100549190610274565b60405180910390f35b60605f8211801561006f5750610fa082105b6100ae576040517f08c379a00000000000000000000000000000000000000000000000000000000081526004016100a5906102de565b60405180910390fd5b60605f5f90505b5f80549050811015610198575b5f81815481106100d5576100d46102fc565b5b905f5260205f2090601091828204019190066002029054906101000a900461ffff1661ffff16841061018b578160018281548110610116576101156102fc565b5b905f5260205f200160405160200161012f929190610466565b60405160208183030381529060405291505f8181548110610153576101526102fc565b5b905f5260205f2090601091828204019190066002029054906101000a900461ffff1661ffff168461018491906104b6565b93506100c2565b80806001019150506100b5565b5080915050919050565b5f5ffd5b5f819050919050565b6101b8816101a6565b81146101c2575f5ffd5b50565b5f813590506101d3816101af565b92915050565b5f602082840312156101ee576101ed6101a2565b5b5f6101fb848285016101c5565b91505092915050565b5f81519050919050565b5f82825260208201905092915050565b8281835e5f83830152505050565b5f601f19601f8301169050919050565b5f61024682610204565b610250818561020e565b935061026081856020860161021e565b6102698161022c565b840191505092915050565b5f6020820190508181035f83015261028c818461023c565b905092915050565b7f4f7574206f662072616e67652028317e333939392900000000000000000000005f82015250565b5f6102c860158361020e565b91506102d382610294565b602082019050919050565b5f6020820190508181035f8301526102f5816102bc565b9050919050565b7f4e487b71000000000000000000000000000000000000000000000000000000005f52603260045260245ffd5b5f81519050919050565b5f81905092915050565b5f61034782610329565b6103518185610333565b935061036181856020860161021e565b80840191505092915050565b7f4e487b71000000000000000000000000000000000000000000000000000000005f52602260045260245ffd5b5f60028204905060018216806103b157607f821691505b6020821081036103c4576103c361036d565b5b50919050565b5f81905092915050565b5f819050815f5260205f209050919050565b5f81546103f28161039a565b6103fc81866103ca565b9450600182165f8114610416576001811461042b5761045d565b60ff198316865281151582028601935061045d565b610434856103d4565b5f5b8381101561045557815481890152600182019150602081019050610436565b838801955050505b50505092915050565b5f610471828561033d565b915061047d82846103e6565b91508190509392505050565b7f4e487b71000000000000000000000000000000000000000000000000000000005f52601160045260245ffd5b5f6104c0826101a6565b91506104cb836101a6565b92508282039050818111156104e3576104e2610489565b5b9291505056fea2646970667358221220c1a83589a0c3793918e9ce6a5590944abfb2d869d5e0dd4ed8dece1e66b08f4264736f6c634300081e0033",
					"opcodes": "PUSH1 0x80 PUSH1 0x40 MSTORE PUSH1 0x40 MLOAD DUP1 PUSH2 0x1A0 ADD PUSH1 0x40 MSTORE DUP1 PUSH2 0x3E8 PUSH2 0xFFFF AND DUP2 MSTORE PUSH1 0x20 ADD PUSH2 0x384 PUSH2 0xFFFF AND DUP2 MSTORE PUSH1 0x20 ADD PUSH2 0x1F4 PUSH2 0xFFFF AND DUP2 MSTORE PUSH1 0x20 ADD PUSH2 0x190 PUSH2 0xFFFF AND DUP2 MSTORE PUSH1 0x20 ADD PUSH1 0x64 PUSH2 0xFFFF AND DUP2 MSTORE PUSH1 0x20 ADD PUSH1 0x5A PUSH2 0xFFFF AND DUP2 MSTORE PUSH1 0x20 ADD PUSH1 0x32 PUSH2 0xFFFF AND DUP2 MSTORE PUSH1 0x20 ADD PUSH1 0x28 PUSH2 0xFFFF AND DUP2 MSTORE PUSH1 0x20 ADD PUSH1 0xA PUSH2 0xFFFF AND DUP2 MSTORE PUSH1 0x20 ADD PUSH1 0x9 PUSH2 0xFFFF AND DUP2 MSTORE PUSH1 0x20 ADD PUSH1 0x5 PUSH2 0xFFFF AND DUP2 MSTORE PUSH1 0x20 ADD PUSH1 0x4 PUSH2 0xFFFF AND DUP2 MSTORE PUSH1 0x20 ADD PUSH1 0x1 PUSH2 0xFFFF AND DUP2 MSTORE POP PUSH0 SWAP1 PUSH1 0xD PUSH2 0xB0 SWAP3 SWAP2 SWAP1 PUSH2 0x3DC JUMP JUMPDEST POP PUSH1 0x40 MLOAD DUP1 PUSH2 0x1A0 ADD PUSH1 0x40 MSTORE DUP1 PUSH1 0x40 MLOAD DUP1 PUSH1 0x40 ADD PUSH1 0x40 MSTORE DUP1 PUSH1 0x1 DUP2 MSTORE PUSH1 0x20 ADD PUSH32 0x4D00000000000000000000000000000000000000000000000000000000000000 DUP2 MSTORE POP DUP2 MSTORE PUSH1 0x20 ADD PUSH1 0x40 MLOAD DUP1 PUSH1 0x40 ADD PUSH1 0x40 MSTORE DUP1 PUSH1 0x2 DUP2 MSTORE PUSH1 0x20 ADD PUSH32 0x434D000000000000000000000000000000000000000000000000000000000000 DUP2 MSTORE POP DUP2 MSTORE PUSH1 0x20 ADD PUSH1 0x40 MLOAD DUP1 PUSH1 0x40 ADD PUSH1 0x40 MSTORE DUP1 PUSH1 0x1 DUP2 MSTORE PUSH1 0x20 ADD PUSH32 0x4400000000000000000000000000000000000000000000000000000000000000 DUP2 MSTORE POP DUP2 MSTORE PUSH1 0x20 ADD PUSH1 0x40 MLOAD DUP1 PUSH1 0x40 ADD PUSH1 0x40 MSTORE DUP1 PUSH1 0x2 DUP2 MSTORE PUSH1 0x20 ADD PUSH32 0x4344000000000000000000000000000000000000000000000000000000000000 DUP2 MSTORE POP DUP2 MSTORE PUSH1 0x20 ADD PUSH1 0x40 MLOAD DUP1 PUSH1 0x40 ADD PUSH1 0x40 MSTORE DUP1 PUSH1 0x1 DUP2 MSTORE PUSH1 0x20 ADD PUSH32 0x4300000000000000000000000000000000000000000000000000000000000000 DUP2 MSTORE POP DUP2 MSTORE PUSH1 0x20 ADD PUSH1 0x40 MLOAD DUP1 PUSH1 0x40 ADD PUSH1 0x40 MSTORE DUP1 PUSH1 0x2 DUP2 MSTORE PUSH1 0x20 ADD PUSH32 0x5843000000000000000000000000000000000000000000000000000000000000 DUP2 MSTORE POP DUP2 MSTORE PUSH1 0x20 ADD PUSH1 0x40 MLOAD DUP1 PUSH1 0x40 ADD PUSH1 0x40 MSTORE DUP1 PUSH1 0x1 DUP2 MSTORE PUSH1 0x20 ADD PUSH32 0x4C00000000000000000000000000000000000000000000000000000000000000 DUP2 MSTORE POP DUP2 MSTORE PUSH1 0x20 ADD PUSH1 0x40 MLOAD DUP1 PUSH1 0x40 ADD PUSH1 0x40 MSTORE DUP1 PUSH1 0x2 DUP2 MSTORE PUSH1 0x20 ADD PUSH32 0x584C000000000000000000000000000000000000000000000000000000000000 DUP2 MSTORE POP DUP2 MSTORE PUSH1 0x20 ADD PUSH1 0x40 MLOAD DUP1 PUSH1 0x40 ADD PUSH1 0x40 MSTORE DUP1 PUSH1 0x1 DUP2 MSTORE PUSH1 0x20 ADD PUSH32 0x5800000000000000000000000000000000000000000000000000000000000000 DUP2 MSTORE POP DUP2 MSTORE PUSH1 0x20 ADD PUSH1 0x40 MLOAD DUP1 PUSH1 0x40 ADD PUSH1 0x40 MSTORE DUP1 PUSH1 0x2 DUP2 MSTORE PUSH1 0x20 ADD PUSH32 0x4958000000000000000000000000000000000000000000000000000000000000 DUP2 MSTORE POP DUP2 MSTORE PUSH1 0x20 ADD PUSH1 0x40 MLOAD DUP1 PUSH1 0x40 ADD PUSH1 0x40 MSTORE DUP1 PUSH1 0x1 DUP2 MSTORE PUSH1 0x20 ADD PUSH32 0x5600000000000000000000000000000000000000000000000000000000000000 DUP2 MSTORE POP DUP2 MSTORE PUSH1 0x20 ADD PUSH1 0x40 MLOAD DUP1 PUSH1 0x40 ADD PUSH1 0x40 MSTORE DUP1 PUSH1 0x2 DUP2 MSTORE PUSH1 0x20 ADD PUSH32 0x4956000000000000000000000000000000000000000000000000000000000000 DUP2 MSTORE POP DUP2 MSTORE PUSH1 0x20 ADD PUSH1 0x40 MLOAD DUP1 PUSH1 0x40 ADD PUSH1 0x40 MSTORE DUP1 PUSH1 0x1 DUP2 MSTORE PUSH1 0x20 ADD PUSH32 0x4900000000000000000000000000000000000000000000000000000000000000 DUP2 MSTORE POP DUP2 MSTORE POP PUSH1 0x1 SWAP1 PUSH1 0xD PUSH2 0x3CA SWAP3 SWAP2 SWAP1 PUSH2 0x483 JUMP JUMPDEST POP CALLVALUE DUP1 ISZERO PUSH2 0x3D6 JUMPI PUSH0 PUSH0 REVERT JUMPDEST POP PUSH2 0x861 JUMP JUMPDEST DUP3 DUP1 SLOAD DUP3 DUP3 SSTORE SWAP1 PUSH0 MSTORE PUSH1 0x20 PUSH0 KECCAK256 SWAP1 PUSH1 0xF ADD PUSH1 0x10 SWAP1 DIV DUP2 ADD SWAP3 DUP3 ISZERO PUSH2 0x472 JUMPI SWAP2 PUSH1 0x20 MUL DUP3 ADD PUSH0 JUMPDEST DUP4 DUP3 GT ISZERO PUSH2 0x442 JUMPI DUP4 MLOAD DUP4 DUP3 PUSH2 0x100 EXP DUP2 SLOAD DUP2 PUSH2 0xFFFF MUL NOT AND SWAP1 DUP4 PUSH2 0xFFFF AND MUL OR SWAP1 SSTORE POP SWAP3 PUSH1 0x20 ADD SWAP3 PUSH1 0x2 ADD PUSH1 0x20 DUP2 PUSH1 0x1 ADD DIV SWAP3 DUP4 ADD SWAP3 PUSH1 0x1 SUB MUL PUSH2 0x402 JUMP JUMPDEST DUP1 ISZERO PUSH2 0x470 JUMPI DUP3 DUP2 PUSH2 0x100 EXP DUP2 SLOAD SWAP1 PUSH2 0xFFFF MUL NOT AND SWAP1 SSTORE PUSH1 0x2 ADD PUSH1 0x20 DUP2 PUSH1 0x1 ADD DIV SWAP3 DUP4 ADD SWAP3 PUSH1 0x1 SUB MUL PUSH2 0x442 JUMP JUMPDEST POP JUMPDEST POP SWAP1 POP PUSH2 0x47F SWAP2 SWAP1 PUSH2 0x4DA JUMP JUMPDEST POP SWAP1 JUMP JUMPDEST DUP3 DUP1 SLOAD DUP3 DUP3 SSTORE SWAP1 PUSH0 MSTORE PUSH1 0x20 PUSH0 KECCAK256 SWAP1 DUP2 ADD SWAP3 DUP3 ISZERO PUSH2 0x4C9 JUMPI SWAP2 PUSH1 0x20 MUL DUP3 ADD JUMPDEST DUP3 DUP2 GT ISZERO PUSH2 0x4C8 JUMPI DUP3 MLOAD DUP3 SWAP1 DUP2 PUSH2 0x4B8 SWAP2 SWAP1 PUSH2 0x792 JUMP JUMPDEST POP SWAP2 PUSH1 0x20 ADD SWAP2 SWAP1 PUSH1 0x1 ADD SWAP1 PUSH2 0x4A1 JUMP JUMPDEST JUMPDEST POP SWAP1 POP PUSH2 0x4D6 SWAP2 SWAP1 PUSH2 0x4F5 JUMP JUMPDEST POP SWAP1 JUMP JUMPDEST JUMPDEST DUP1 DUP3 GT ISZERO PUSH2 0x4F1 JUMPI PUSH0 DUP2 PUSH0 SWAP1 SSTORE POP PUSH1 0x1 ADD PUSH2 0x4DB JUMP JUMPDEST POP SWAP1 JUMP JUMPDEST JUMPDEST DUP1 DUP3 GT ISZERO PUSH2 0x514 JUMPI PUSH0 DUP2 DUP2 PUSH2 0x50B SWAP2 SWAP1 PUSH2 0x518 JUMP JUMPDEST POP PUSH1 0x1 ADD PUSH2 0x4F6 JUMP JUMPDEST POP SWAP1 JUMP JUMPDEST POP DUP1 SLOAD PUSH2 0x524 SWAP1 PUSH2 0x5B9 JUMP JUMPDEST PUSH0 DUP3 SSTORE DUP1 PUSH1 0x1F LT PUSH2 0x535 JUMPI POP PUSH2 0x552 JUMP JUMPDEST PUSH1 0x1F ADD PUSH1 0x20 SWAP1 DIV SWAP1 PUSH0 MSTORE PUSH1 0x20 PUSH0 KECCAK256 SWAP1 DUP2 ADD SWAP1 PUSH2 0x551 SWAP2 SWAP1 PUSH2 0x4DA JUMP JUMPDEST JUMPDEST POP JUMP JUMPDEST PUSH0 DUP2 MLOAD SWAP1 POP SWAP2 SWAP1 POP JUMP JUMPDEST PUSH32 0x4E487B7100000000000000000000000000000000000000000000000000000000 PUSH0 MSTORE PUSH1 0x41 PUSH1 0x4 MSTORE PUSH1 0x24 PUSH0 REVERT JUMPDEST PUSH32 0x4E487B7100000000000000000000000000000000000000000000000000000000 PUSH0 MSTORE PUSH1 0x22 PUSH1 0x4 MSTORE PUSH1 0x24 PUSH0 REVERT JUMPDEST PUSH0 PUSH1 0x2 DUP3 DIV SWAP1 POP PUSH1 0x1 DUP3 AND DUP1 PUSH2 0x5D0 JUMPI PUSH1 0x7F DUP3 AND SWAP2 POP JUMPDEST PUSH1 0x20 DUP3 LT DUP2 SUB PUSH2 0x5E3 JUMPI PUSH2 0x5E2 PUSH2 0x58C JUMP JUMPDEST JUMPDEST POP SWAP2 SWAP1 POP JUMP JUMPDEST PUSH0 DUP2 SWAP1 POP DUP2 PUSH0 MSTORE PUSH1 0x20 PUSH0 KECCAK256 SWAP1 POP SWAP2 SWAP1 POP JUMP JUMPDEST PUSH0 PUSH1 0x20 PUSH1 0x1F DUP4 ADD DIV SWAP1 POP SWAP2 SWAP1 POP JUMP JUMPDEST PUSH0 DUP3 DUP3 SHL SWAP1 POP SWAP3 SWAP2 POP POP JUMP JUMPDEST PUSH0 PUSH1 0x8 DUP4 MUL PUSH2 0x645 PUSH32 0xFFFFFFFFFFFFFFFFFFFFFFFFFFFFFFFFFFFFFFFFFFFFFFFFFFFFFFFFFFFFFFFF DUP3 PUSH2 0x60A JUMP JUMPDEST PUSH2 0x64F DUP7 DUP4 PUSH2 0x60A JUMP JUMPDEST SWAP6 POP DUP1 NOT DUP5 AND SWAP4 POP DUP1 DUP7 AND DUP5 OR SWAP3 POP POP POP SWAP4 SWAP3 POP POP POP JUMP JUMPDEST PUSH0 DUP2 SWAP1 POP SWAP2 SWAP1 POP JUMP JUMPDEST PUSH0 DUP2 SWAP1 POP SWAP2 SWAP1 POP JUMP JUMPDEST PUSH0 PUSH2 0x693 PUSH2 0x68E PUSH2 0x689 DUP5 PUSH2 0x667 JUMP JUMPDEST PUSH2 0x670 JUMP JUMPDEST PUSH2 0x667 JUMP JUMPDEST SWAP1 POP SWAP2 SWAP1 POP JUMP JUMPDEST PUSH0 DUP2 SWAP1 POP SWAP2 SWAP1 POP JUMP JUMPDEST PUSH2 0x6AC DUP4 PUSH2 0x679 JUMP JUMPDEST PUSH2 0x6C0 PUSH2 0x6B8 DUP3 PUSH2 0x69A JUMP JUMPDEST DUP5 DUP5 SLOAD PUSH2 0x616 JUMP JUMPDEST DUP3 SSTORE POP POP POP POP JUMP JUMPDEST PUSH0 PUSH0 SWAP1 POP SWAP1 JUMP JUMPDEST PUSH2 0x6D7 PUSH2 0x6C8 JUMP JUMPDEST PUSH2 0x6E2 DUP2 DUP5 DUP5 PUSH2 0x6A3 JUMP JUMPDEST POP POP POP JUMP JUMPDEST JUMPDEST DUP2 DUP2 LT ISZERO PUSH2 0x705 JUMPI PUSH2 0x6FA PUSH0 DUP3 PUSH2 0x6CF JUMP JUMPDEST PUSH1 0x1 DUP2 ADD SWAP1 POP PUSH2 0x6E8 JUMP JUMPDEST POP POP JUMP JUMPDEST PUSH1 0x1F DUP3 GT ISZERO PUSH2 0x74A JUMPI PUSH2 0x71B DUP2 PUSH2 0x5E9 JUMP JUMPDEST PUSH2 0x724 DUP5 PUSH2 0x5FB JUMP JUMPDEST DUP2 ADD PUSH1 0x20 DUP6 LT ISZERO PUSH2 0x733 JUMPI DUP2 SWAP1 POP JUMPDEST PUSH2 0x747 PUSH2 0x73F DUP6 PUSH2 0x5FB JUMP JUMPDEST DUP4 ADD DUP3 PUSH2 0x6E7 JUMP JUMPDEST POP POP JUMPDEST POP POP POP JUMP JUMPDEST PUSH0 DUP3 DUP3 SHR SWAP1 POP SWAP3 SWAP2 POP POP JUMP JUMPDEST PUSH0 PUSH2 0x76A PUSH0 NOT DUP5 PUSH1 0x8 MUL PUSH2 0x74F JUMP JUMPDEST NOT DUP1 DUP4 AND SWAP2 POP POP SWAP3 SWAP2 POP POP JUMP JUMPDEST PUSH0 PUSH2 0x782 DUP4 DUP4 PUSH2 0x75B JUMP JUMPDEST SWAP2 POP DUP3 PUSH1 0x2 MUL DUP3 OR SWAP1 POP SWAP3 SWAP2 POP POP JUMP JUMPDEST PUSH2 0x79B DUP3 PUSH2 0x555 JUMP JUMPDEST PUSH8 0xFFFFFFFFFFFFFFFF DUP2 GT ISZERO PUSH2 0x7B4 JUMPI PUSH2 0x7B3 PUSH2 0x55F JUMP JUMPDEST JUMPDEST PUSH2 0x7BE DUP3 SLOAD PUSH2 0x5B9 JUMP JUMPDEST PUSH2 0x7C9 DUP3 DUP3 DUP6 PUSH2 0x709 JUMP JUMPDEST PUSH0 PUSH1 0x20 SWAP1 POP PUSH1 0x1F DUP4 GT PUSH1 0x1 DUP2 EQ PUSH2 0x7FA JUMPI PUSH0 DUP5 ISZERO PUSH2 0x7E8 JUMPI DUP3 DUP8 ADD MLOAD SWAP1 POP JUMPDEST PUSH2 0x7F2 DUP6 DUP3 PUSH2 0x777 JUMP JUMPDEST DUP7 SSTORE POP PUSH2 0x859 JUMP JUMPDEST PUSH1 0x1F NOT DUP5 AND PUSH2 0x808 DUP7 PUSH2 0x5E9 JUMP JUMPDEST PUSH0 JUMPDEST DUP3 DUP2 LT ISZERO PUSH2 0x82F JUMPI DUP5 DUP10 ADD MLOAD DUP3 SSTORE PUSH1 0x1 DUP3 ADD SWAP2 POP PUSH1 0x20 DUP6 ADD SWAP5 POP PUSH1 0x20 DUP2 ADD SWAP1 POP PUSH2 0x80A JUMP JUMPDEST DUP7 DUP4 LT ISZERO PUSH2 0x84C JUMPI DUP5 DUP10 ADD MLOAD PUSH2 0x848 PUSH1 0x1F DUP10 AND DUP3 PUSH2 0x75B JUMP JUMPDEST DUP4 SSTORE POP JUMPDEST PUSH1 0x1 PUSH1 0x2 DUP9 MUL ADD DUP9 SSTORE POP POP POP JUMPDEST POP POP POP POP POP POP JUMP JUMPDEST PUSH2 0x51F DUP1 PUSH2 0x86E PUSH0 CODECOPY PUSH0 RETURN INVALID PUSH1 0x80 PUSH1 0x40 MSTORE CALLVALUE DUP1 ISZERO PUSH2 0xF JUMPI PUSH0 PUSH0 REVERT JUMPDEST POP PUSH1 0x4 CALLDATASIZE LT PUSH2 0x29 JUMPI PUSH0 CALLDATALOAD PUSH1 0xE0 SHR DUP1 PUSH4 0xAB7BAABE EQ PUSH2 0x2D JUMPI JUMPDEST PUSH0 PUSH0 REVERT JUMPDEST PUSH2 0x47 PUSH1 0x4 DUP1 CALLDATASIZE SUB DUP2 ADD SWAP1 PUSH2 0x42 SWAP2 SWAP1 PUSH2 0x1D9 JUMP JUMPDEST PUSH2 0x5D JUMP JUMPDEST PUSH1 0x40 MLOAD PUSH2 0x54 SWAP2 SWAP1 PUSH2 0x274 JUMP JUMPDEST PUSH1 0x40 MLOAD DUP1 SWAP2 SUB SWAP1 RETURN JUMPDEST PUSH1 0x60 PUSH0 DUP3 GT DUP1 ISZERO PUSH2 0x6F JUMPI POP PUSH2 0xFA0 DUP3 LT JUMPDEST PUSH2 0xAE JUMPI PUSH1 0x40 MLOAD PUSH32 0x8C379A000000000000000000000000000000000000000000000000000000000 DUP2 MSTORE PUSH1 0x4 ADD PUSH2 0xA5 SWAP1 PUSH2 0x2DE JUMP JUMPDEST PUSH1 0x40 MLOAD DUP1 SWAP2 SUB SWAP1 REVERT JUMPDEST PUSH1 0x60 PUSH0 PUSH0 SWAP1 POP JUMPDEST PUSH0 DUP1 SLOAD SWAP1 POP DUP2 LT ISZERO PUSH2 0x198 JUMPI JUMPDEST PUSH0 DUP2 DUP2 SLOAD DUP2 LT PUSH2 0xD5 JUMPI PUSH2 0xD4 PUSH2 0x2FC JUMP JUMPDEST JUMPDEST SWAP1 PUSH0 MSTORE PUSH1 0x20 PUSH0 KECCAK256 SWAP1 PUSH1 0x10 SWAP2 DUP3 DUP3 DIV ADD SWAP2 SWAP1 MOD PUSH1 0x2 MUL SWAP1 SLOAD SWAP1 PUSH2 0x100 EXP SWAP1 DIV PUSH2 0xFFFF AND PUSH2 0xFFFF AND DUP5 LT PUSH2 0x18B JUMPI DUP2 PUSH1 0x1 DUP3 DUP2 SLOAD DUP2 LT PUSH2 0x116 JUMPI PUSH2 0x115 PUSH2 0x2FC JUMP JUMPDEST JUMPDEST SWAP1 PUSH0 MSTORE PUSH1 0x20 PUSH0 KECCAK256 ADD PUSH1 0x40 MLOAD PUSH1 0x20 ADD PUSH2 0x12F SWAP3 SWAP2 SWAP1 PUSH2 0x466 JUMP JUMPDEST PUSH1 0x40 MLOAD PUSH1 0x20 DUP2 DUP4 SUB SUB DUP2 MSTORE SWAP1 PUSH1 0x40 MSTORE SWAP2 POP PUSH0 DUP2 DUP2 SLOAD DUP2 LT PUSH2 0x153 JUMPI PUSH2 0x152 PUSH2 0x2FC JUMP JUMPDEST JUMPDEST SWAP1 PUSH0 MSTORE PUSH1 0x20 PUSH0 KECCAK256 SWAP1 PUSH1 0x10 SWAP2 DUP3 DUP3 DIV ADD SWAP2 SWAP1 MOD PUSH1 0x2 MUL SWAP1 SLOAD SWAP1 PUSH2 0x100 EXP SWAP1 DIV PUSH2 0xFFFF AND PUSH2 0xFFFF AND DUP5 PUSH2 0x184 SWAP2 SWAP1 PUSH2 0x4B6 JUMP JUMPDEST SWAP4 POP PUSH2 0xC2 JUMP JUMPDEST DUP1 DUP1 PUSH1 0x1 ADD SWAP2 POP POP PUSH2 0xB5 JUMP JUMPDEST POP DUP1 SWAP2 POP POP SWAP2 SWAP1 POP JUMP JUMPDEST PUSH0 PUSH0 REVERT JUMPDEST PUSH0 DUP2 SWAP1 POP SWAP2 SWAP1 POP JUMP JUMPDEST PUSH2 0x1B8 DUP2 PUSH2 0x1A6 JUMP JUMPDEST DUP2 EQ PUSH2 0x1C2 JUMPI PUSH0 PUSH0 REVERT JUMPDEST POP JUMP JUMPDEST PUSH0 DUP2 CALLDATALOAD SWAP1 POP PUSH2 0x1D3 DUP2 PUSH2 0x1AF JUMP JUMPDEST SWAP3 SWAP2 POP POP JUMP JUMPDEST PUSH0 PUSH1 0x20 DUP3 DUP5 SUB SLT ISZERO PUSH2 0x1EE JUMPI PUSH2 0x1ED PUSH2 0x1A2 JUMP JUMPDEST JUMPDEST PUSH0 PUSH2 0x1FB DUP5 DUP3 DUP6 ADD PUSH2 0x1C5 JUMP JUMPDEST SWAP2 POP POP SWAP3 SWAP2 POP POP JUMP JUMPDEST PUSH0 DUP2 MLOAD SWAP1 POP SWAP2 SWAP1 POP JUMP JUMPDEST PUSH0 DUP3 DUP3 MSTORE PUSH1 0x20 DUP3 ADD SWAP1 POP SWAP3 SWAP2 POP POP JUMP JUMPDEST DUP3 DUP2 DUP4 MCOPY PUSH0 DUP4 DUP4 ADD MSTORE POP POP POP JUMP JUMPDEST PUSH0 PUSH1 0x1F NOT PUSH1 0x1F DUP4 ADD AND SWAP1 POP SWAP2 SWAP1 POP JUMP JUMPDEST PUSH0 PUSH2 0x246 DUP3 PUSH2 0x204 JUMP JUMPDEST PUSH2 0x250 DUP2 DUP6 PUSH2 0x20E JUMP JUMPDEST SWAP4 POP PUSH2 0x260 DUP2 DUP6 PUSH1 0x20 DUP7 ADD PUSH2 0x21E JUMP JUMPDEST PUSH2 0x269 DUP2 PUSH2 0x22C JUMP JUMPDEST DUP5 ADD SWAP2 POP POP SWAP3 SWAP2 POP POP JUMP JUMPDEST PUSH0 PUSH1 0x20 DUP3 ADD SWAP1 POP DUP2 DUP2 SUB PUSH0 DUP4 ADD MSTORE PUSH2 0x28C DUP2 DUP5 PUSH2 0x23C JUMP JUMPDEST SWAP1 POP SWAP3 SWAP2 POP POP JUMP JUMPDEST PUSH32 0x4F7574206F662072616E67652028317E33393939290000000000000000000000 PUSH0 DUP3 ADD MSTORE POP JUMP JUMPDEST PUSH0 PUSH2 0x2C8 PUSH1 0x15 DUP4 PUSH2 0x20E JUMP JUMPDEST SWAP2 POP PUSH2 0x2D3 DUP3 PUSH2 0x294 JUMP JUMPDEST PUSH1 0x20 DUP3 ADD SWAP1 POP SWAP2 SWAP1 POP JUMP JUMPDEST PUSH0 PUSH1 0x20 DUP3 ADD SWAP1 POP DUP2 DUP2 SUB PUSH0 DUP4 ADD MSTORE PUSH2 0x2F5 DUP2 PUSH2 0x2BC JUMP JUMPDEST SWAP1 POP SWAP2 SWAP1 POP JUMP JUMPDEST PUSH32 0x4E487B7100000000000000000000000000000000000000000000000000000000 PUSH0 MSTORE PUSH1 0x32 PUSH1 0x4 MSTORE PUSH1 0x24 PUSH0 REVERT JUMPDEST PUSH0 DUP2 MLOAD SWAP1 POP SWAP2 SWAP1 POP JUMP JUMPDEST PUSH0 DUP2 SWAP1 POP SWAP3 SWAP2 POP POP JUMP JUMPDEST PUSH0 PUSH2 0x347 DUP3 PUSH2 0x329 JUMP JUMPDEST PUSH2 0x351 DUP2 DUP6 PUSH2 0x333 JUMP JUMPDEST SWAP4 POP PUSH2 0x361 DUP2 DUP6 PUSH1 0x20 DUP7 ADD PUSH2 0x21E JUMP JUMPDEST DUP1 DUP5 ADD SWAP2 POP POP SWAP3 SWAP2 POP POP JUMP JUMPDEST PUSH32 0x4E487B7100000000000000000000000000000000000000000000000000000000 PUSH0 MSTORE PUSH1 0x22 PUSH1 0x4 MSTORE PUSH1 0x24 PUSH0 REVERT JUMPDEST PUSH0 PUSH1 0x2 DUP3 DIV SWAP1 POP PUSH1 0x1 DUP3 AND DUP1 PUSH2 0x3B1 JUMPI PUSH1 0x7F DUP3 AND SWAP2 POP JUMPDEST PUSH1 0x20 DUP3 LT DUP2 SUB PUSH2 0x3C4 JUMPI PUSH2 0x3C3 PUSH2 0x36D JUMP JUMPDEST JUMPDEST POP SWAP2 SWAP1 POP JUMP JUMPDEST PUSH0 DUP2 SWAP1 POP SWAP3 SWAP2 POP POP JUMP JUMPDEST PUSH0 DUP2 SWAP1 POP DUP2 PUSH0 MSTORE PUSH1 0x20 PUSH0 KECCAK256 SWAP1 POP SWAP2 SWAP1 POP JUMP JUMPDEST PUSH0 DUP2 SLOAD PUSH2 0x3F2 DUP2 PUSH2 0x39A JUMP JUMPDEST PUSH2 0x3FC DUP2 DUP7 PUSH2 0x3CA JUMP JUMPDEST SWAP5 POP PUSH1 0x1 DUP3 AND PUSH0 DUP2 EQ PUSH2 0x416 JUMPI PUSH1 0x1 DUP2 EQ PUSH2 0x42B JUMPI PUSH2 0x45D JUMP JUMPDEST PUSH1 0xFF NOT DUP4 AND DUP7 MSTORE DUP2 ISZERO ISZERO DUP3 MUL DUP7 ADD SWAP4 POP PUSH2 0x45D JUMP JUMPDEST PUSH2 0x434 DUP6 PUSH2 0x3D4 JUMP JUMPDEST PUSH0 JUMPDEST DUP4 DUP2 LT ISZERO PUSH2 0x455 JUMPI DUP2 SLOAD DUP2 DUP10 ADD MSTORE PUSH1 0x1 DUP3 ADD SWAP2 POP PUSH1 0x20 DUP2 ADD SWAP1 POP PUSH2 0x436 JUMP JUMPDEST DUP4 DUP9 ADD SWAP6 POP POP POP JUMPDEST POP POP POP SWAP3 SWAP2 POP POP JUMP JUMPDEST PUSH0 PUSH2 0x471 DUP3 DUP6 PUSH2 0x33D JUMP JUMPDEST SWAP2 POP PUSH2 0x47D DUP3 DUP5 PUSH2 0x3E6 JUMP JUMPDEST SWAP2 POP DUP2 SWAP1 POP SWAP4 SWAP3 POP POP POP JUMP JUMPDEST PUSH32 0x4E487B7100000000000000000000000000000000000000000000000000000000 PUSH0 MSTORE PUSH1 0x11 PUSH1 0x4 MSTORE PUSH1 0x24 PUSH0 REVERT JUMPDEST PUSH0 PUSH2 0x4C0 DUP3 PUSH2 0x1A6 JUMP JUMPDEST SWAP2 POP PUSH2 0x4CB DUP4 PUSH2 0x1A6 JUMP JUMPDEST SWAP3 POP DUP3 DUP3 SUB SWAP1 POP DUP2 DUP2 GT ISZERO PUSH2 0x4E3 JUMPI PUSH2 0x4E2 PUSH2 0x489 JUMP JUMPDEST JUMPDEST SWAP3 SWAP2 POP POP JUMP INVALID LOG2 PUSH5 0x6970667358 0x22 SLT KECCAK256 0xC1 0xA8 CALLDATALOAD DUP10 LOG0 0xC3 PUSH26 0x3918E9CE6A5590944ABFB2D869D5E0DD4ED8DECE1E66B08F4264 PUSH20 0x6F6C634300081E00330000000000000000000000 "
				},
				"gasEstimates": {
					"creation": {
						"codeDepositCost": "262200",
						"executionCost": "infinite",
						"totalCost": "infinite"
					},
					"external": {
						"toRoman(uint256)": "infinite"
					}
				},
				"methodIdentifiers": {
					"toRoman(uint256)": "ab7baabe"
				}
			},
			"storageLayout": {
				"storage": [
					{
						"astId": 18,
						"contract": "solidity入门练习/4_NmberToInteger.sol:NumberToInteger",
						"label": "values",
						"offset": 0,
						"slot": "0",
						"type": "t_array(t_uint16)dyn_storage"
					},
					{
						"astId": 35,
						"contract": "solidity入门练习/4_NmberToInteger.sol:NumberToInteger",
						"label": "numerals",
						"offset": 0,
						"slot": "1",
						"type": "t_array(t_string_storage)dyn_storage"
					}
				],
				"types": {
					"t_array(t_string_storage)dyn_storage": {
						"base": "t_string_storage",
						"encoding": "dynamic_array",
						"label": "string[]",
						"numberOfBytes": "32"
					},
					"t_array(t_uint16)dyn_storage": {
						"base": "t_uint16",
						"encoding": "dynamic_array",
						"label": "uint16[]",
						"numberOfBytes": "32"
					},
					"t_string_storage": {
						"encoding": "bytes",
						"label": "string",
						"numberOfBytes": "32"
					},
					"t_uint16": {
						"encoding": "inplace",
						"label": "uint16",
						"numberOfBytes": "2"
					}
				}
			},
			"userdoc": {
				"kind": "user",
				"methods": {},
				"version": 1
			}
		}
	}
}