{
	"solidity入门练习/Voting.sol": {
		"Voting": {
			"abi": [
				{
					"inputs": [],
					"stateMutability": "nonpayable",
					"type": "constructor"
				},
				{
					"anonymous": false,
					"inputs": [
						{
							"indexed": false,
							"internalType": "string",
							"name": "candidate",
							"type": "string"
						}
					],
					"name": "CandidateAdded",
					"type": "event"
				},
				{
					"anonymous": false,
					"inputs": [
						{
							"indexed": false,
							"internalType": "string",
							"name": "candidate",
							"type": "string"
						},
						{
							"indexed": false,
							"internalType": "uint256",
							"name": "newVoteCount",
							"type": "uint256"
						},
						{
							"indexed": false,
							"internalType": "address",
							"name": "voter",
							"type": "address"
						}
					],
					"name": "VoteCast",
					"type": "event"
				},
				{
					"anonymous": false,
					"inputs": [
						{
							"indexed": false,
							"internalType": "address",
							"name": "resetBy",
							"type": "address"
						}
					],
					"name": "VotesReset",
					"type": "event"
				},
				{
					"inputs": [
						{
							"internalType": "string",
							"name": "candidate",
							"type": "string"
						}
					],
					"name": "addCandidate",
					"outputs": [],
					"stateMutability": "nonpayable",
					"type": "function"
				},
				{
					"inputs": [
						{
							"internalType": "string",
							"name": "",
							"type": "string"
						}
					],
					"name": "candidateExists",
					"outputs": [
						{
							"internalType": "bool",
							"name": "",
							"type": "bool"
						}
					],
					"stateMutability": "view",
					"type": "function"
				},
				{
					"inputs": [
						{
							"internalType": "uint256",
							"name": "",
							"type": "uint256"
						}
					],
					"name": "candidates",
					"outputs": [
						{
							"internalType": "string",
							"name": "",
							"type": "string"
						}
					],
					"stateMutability": "view",
					"type": "function"
				},
				{
					"inputs": [
						{
							"internalType": "string",
							"name": "candidate",
							"type": "string"
						}
					],
					"name": "getVotes",
					"outputs": [
						{
							"internalType": "uint256",
							"name": "",
							"type": "uint256"
						}
					],
					"stateMutability": "view",
					"type": "function"
				},
				{
					"inputs": [],
					"name": "owner",
					"outputs": [
						{
							"internalType": "address",
							"name": "",
							"type": "address"
						}
					],
					"stateMutability": "view",
					"type": "function"
				},
				{
					"inputs": [],
					"name": "resetVotes",
					"outputs": [],
					"stateMutability": "nonpayable",
					"type": "function"
				},
				{
					"inputs": [],
					"name": "totalVotes",
					"outputs": [
						{
							"internalType": "uint256",
							"name": "",
							"type": "uint256"
						}
					],
					"stateMutability": "view",
					"type": "function"
				},
				{
					"inputs": [
						{
							"internalType": "string",
							"name": "candidate",
							"type": "string"
						}
					],
					"name": "vote",
					"outputs": [],
					"stateMutability": "nonpayable",
					"type": "function"
				},
				{
					"inputs": [
						{
							"internalType": "string",
							"name": "",
							"type": "string"
						}
					],
					"name": "votes",
					"outputs": [
						{
							"internalType": "uint256",
							"name": "",
							"type": "uint256"
						}
					],
					"stateMutability": "view",
					"type": "function"
				}
			],
			"devdoc": {
				"details": "一个简单的投票系统，包含基础功能和进阶功能",
				"kind": "dev",
				"methods": {
					"addCandidate(string)": {
						"details": "添加候选人",
						"params": {
							"candidate": "候选人名字"
						}
					},
					"getVotes(string)": {
						"details": "获取候选人得票数",
						"params": {
							"candidate": "候选人名字"
						},
						"returns": {
							"_0": "该候选人的得票数"
						}
					},
					"resetVotes()": {
						"details": "重置所有候选人的得票数"
					},
					"vote(string)": {
						"details": "投票函数 - 基础版本",
						"params": {
							"candidate": "候选人名字"
						}
					}
				},
				"title": "Voting 投票合约",
				"version": 1
			},
			"evm": {
				"assembly": "    /* \"solidity\\xe5\\x85\\xa5\\xe9\\x97\\xa8\\xe7\\xbb\\x83\\xe4\\xb9\\xa0/Voting.sol\":167:3035  contract Voting {... */\n  mstore(0x40, 0x80)\n    /* \"solidity\\xe5\\x85\\xa5\\xe9\\x97\\xa8\\xe7\\xbb\\x83\\xe4\\xb9\\xa0/Voting.sol\":1067:1153  constructor() {... */\n  callvalue\n  dup1\n  iszero\n  tag_1\n  jumpi\n  0x00\n  dup1\n  revert\ntag_1:\n  pop\n    /* \"solidity\\xe5\\x85\\xa5\\xe9\\x97\\xa8\\xe7\\xbb\\x83\\xe4\\xb9\\xa0/Voting.sol\":1099:1109  msg.sender */\n  caller\n    /* \"solidity\\xe5\\x85\\xa5\\xe9\\x97\\xa8\\xe7\\xbb\\x83\\xe4\\xb9\\xa0/Voting.sol\":1091:1096  owner */\n  0x03\n  0x00\n    /* \"solidity\\xe5\\x85\\xa5\\xe9\\x97\\xa8\\xe7\\xbb\\x83\\xe4\\xb9\\xa0/Voting.sol\":1091:1109  owner = msg.sender */\n  0x0100\n  exp\n  dup2\n  sload\n  dup2\n  0xffffffffffffffffffffffffffffffffffffffff\n  mul\n  not\n  and\n  swap1\n  dup4\n  0xffffffffffffffffffffffffffffffffffffffff\n  and\n  mul\n  or\n  swap1\n  sstore\n  pop\n    /* \"solidity\\xe5\\x85\\xa5\\xe9\\x97\\xa8\\xe7\\xbb\\x83\\xe4\\xb9\\xa0/Voting.sol\":167:3035  contract Voting {... */\n  dataSize(sub_0)\n  dup1\n  dataOffset(sub_0)\n  0x00\n  codecopy\n  0x00\n  return\nstop\n\nsub_0: assembly {\n        /* \"solidity\\xe5\\x85\\xa5\\xe9\\x97\\xa8\\xe7\\xbb\\x83\\xe4\\xb9\\xa0/Voting.sol\":167:3035  contract Voting {... */\n      mstore(0x40, 0x80)\n      callvalue\n      dup1\n      iszero\n      tag_1\n      jumpi\n      0x00\n      dup1\n      revert\n    tag_1:\n      pop\n      jumpi(tag_2, lt(calldatasize, 0x04))\n      shr(0xe0, calldataload(0x00))\n      dup1\n      0x8da5cb5b\n      gt\n      tag_12\n      jumpi\n      dup1\n      0x8da5cb5b\n      eq\n      tag_7\n      jumpi\n      dup1\n      0xb620855b\n      eq\n      tag_8\n      jumpi\n      dup1\n      0xb9830ff1\n      eq\n      tag_9\n      jumpi\n      dup1\n      0xb99ef1fa\n      eq\n      tag_10\n      jumpi\n      dup1\n      0xfc36e15b\n      eq\n      tag_11\n      jumpi\n      jump(tag_2)\n    tag_12:\n      dup1\n      0x0d15fd77\n      eq\n      tag_3\n      jumpi\n      dup1\n      0x3477ee2e\n      eq\n      tag_4\n      jumpi\n      dup1\n      0x462e91ec\n      eq\n      tag_5\n      jumpi\n      dup1\n      0x805265e5\n      eq\n      tag_6\n      jumpi\n    tag_2:\n      0x00\n      dup1\n      revert\n        /* \"solidity\\xe5\\x85\\xa5\\xe9\\x97\\xa8\\xe7\\xbb\\x83\\xe4\\xb9\\xa0/Voting.sol\":688:713  uint256 public totalVotes */\n    tag_3:\n      tag_13\n      tag_14\n      jump\t// in\n    tag_13:\n      mload(0x40)\n      tag_15\n      swap2\n      swap1\n      tag_16\n      jump\t// in\n    tag_15:\n      mload(0x40)\n      dup1\n      swap2\n      sub\n      swap1\n      return\n        /* \"solidity\\xe5\\x85\\xa5\\xe9\\x97\\xa8\\xe7\\xbb\\x83\\xe4\\xb9\\xa0/Voting.sol\":460:486  string[] public candidates */\n    tag_4:\n      tag_17\n      0x04\n      dup1\n      calldatasize\n      sub\n      dup2\n      add\n      swap1\n      tag_18\n      swap2\n      swap1\n      tag_19\n      jump\t// in\n    tag_18:\n      tag_20\n      jump\t// in\n    tag_17:\n      mload(0x40)\n      tag_21\n      swap2\n      swap1\n      tag_22\n      jump\t// in\n    tag_21:\n      mload(0x40)\n      dup1\n      swap2\n      sub\n      swap1\n      return\n        /* \"solidity\\xe5\\x85\\xa5\\xe9\\x97\\xa8\\xe7\\xbb\\x83\\xe4\\xb9\\xa0/Voting.sol\":1424:1842  function addCandidate(string memory candidate) public onlyOwner {... */\n    tag_5:\n      tag_23\n      0x04\n      dup1\n      calldatasize\n      sub\n      dup2\n      add\n      swap1\n      tag_24\n      swap2\n      swap1\n      tag_25\n      jump\t// in\n    tag_24:\n      tag_26\n      jump\t// in\n    tag_23:\n      stop\n        /* \"solidity\\xe5\\x85\\xa5\\xe9\\x97\\xa8\\xe7\\xbb\\x83\\xe4\\xb9\\xa0/Voting.sol\":2495:2681  function getVotes(string memory candidate) public view returns (uint256) {... */\n    tag_6:\n      tag_27\n      0x04\n      dup1\n      calldatasize\n      sub\n      dup2\n      add\n      swap1\n      tag_28\n      swap2\n      swap1\n      tag_25\n      jump\t// in\n    tag_28:\n      tag_29\n      jump\t// in\n    tag_27:\n      mload(0x40)\n      tag_30\n      swap2\n      swap1\n      tag_16\n      jump\t// in\n    tag_30:\n      mload(0x40)\n      dup1\n      swap2\n      sub\n      swap1\n      return\n        /* \"solidity\\xe5\\x85\\xa5\\xe9\\x97\\xa8\\xe7\\xbb\\x83\\xe4\\xb9\\xa0/Voting.sol\":637:657  address public owner */\n    tag_7:\n      tag_31\n      tag_32\n      jump\t// in\n    tag_31:\n      mload(0x40)\n      tag_33\n      swap2\n      swap1\n      tag_34\n      jump\t// in\n    tag_33:\n      mload(0x40)\n      dup1\n      swap2\n      sub\n      swap1\n      return\n        /* \"solidity\\xe5\\x85\\xa5\\xe9\\x97\\xa8\\xe7\\xbb\\x83\\xe4\\xb9\\xa0/Voting.sol\":542:588  mapping(string => bool) public candidateExists */\n    tag_8:\n      tag_35\n      0x04\n      dup1\n      calldatasize\n      sub\n      dup2\n      add\n      swap1\n      tag_36\n      swap2\n      swap1\n      tag_25\n      jump\t// in\n    tag_36:\n      tag_37\n      jump\t// in\n    tag_35:\n      mload(0x40)\n      tag_38\n      swap2\n      swap1\n      tag_39\n      jump\t// in\n    tag_38:\n      mload(0x40)\n      dup1\n      swap2\n      sub\n      swap1\n      return\n        /* \"solidity\\xe5\\x85\\xa5\\xe9\\x97\\xa8\\xe7\\xbb\\x83\\xe4\\xb9\\xa0/Voting.sol\":2753:3033  function resetVotes() public onlyOwner {... */\n    tag_9:\n      tag_40\n      tag_41\n      jump\t// in\n    tag_40:\n      stop\n        /* \"solidity\\xe5\\x85\\xa5\\xe9\\x97\\xa8\\xe7\\xbb\\x83\\xe4\\xb9\\xa0/Voting.sol\":357:396  mapping(string => uint256) public votes */\n    tag_10:\n      tag_42\n      0x04\n      dup1\n      calldatasize\n      sub\n      dup2\n      add\n      swap1\n      tag_43\n      swap2\n      swap1\n      tag_25\n      jump\t// in\n    tag_43:\n      tag_44\n      jump\t// in\n    tag_42:\n      mload(0x40)\n      tag_45\n      swap2\n      swap1\n      tag_16\n      jump\t// in\n    tag_45:\n      mload(0x40)\n      dup1\n      swap2\n      sub\n      swap1\n      return\n        /* \"solidity\\xe5\\x85\\xa5\\xe9\\x97\\xa8\\xe7\\xbb\\x83\\xe4\\xb9\\xa0/Voting.sol\":1948:2352  function vote(string memory candidate) public {... */\n    tag_11:\n      tag_46\n      0x04\n      dup1\n      calldatasize\n      sub\n      dup2\n      add\n      swap1\n      tag_47\n      swap2\n      swap1\n      tag_25\n      jump\t// in\n    tag_47:\n      tag_48\n      jump\t// in\n    tag_46:\n      stop\n        /* \"solidity\\xe5\\x85\\xa5\\xe9\\x97\\xa8\\xe7\\xbb\\x83\\xe4\\xb9\\xa0/Voting.sol\":688:713  uint256 public totalVotes */\n    tag_14:\n      sload(0x04)\n      dup2\n      jump\t// out\n        /* \"solidity\\xe5\\x85\\xa5\\xe9\\x97\\xa8\\xe7\\xbb\\x83\\xe4\\xb9\\xa0/Voting.sol\":460:486  string[] public candidates */\n    tag_20:\n      0x01\n      dup2\n      dup2\n      sload\n      dup2\n      lt\n      tag_49\n      jumpi\n      0x00\n      dup1\n      revert\n    tag_49:\n      swap1\n      0x00\n      mstore\n      keccak256(0x00, 0x20)\n      add\n      0x00\n      swap2\n      pop\n      swap1\n      pop\n      dup1\n      sload\n      tag_51\n      swap1\n      tag_52\n      jump\t// in\n    tag_51:\n      dup1\n      0x1f\n      add\n      0x20\n      dup1\n      swap2\n      div\n      mul\n      0x20\n      add\n      mload(0x40)\n      swap1\n      dup2\n      add\n      0x40\n      mstore\n      dup1\n      swap3\n      swap2\n      swap1\n      dup2\n      dup2\n      mstore\n      0x20\n      add\n      dup3\n      dup1\n      sload\n      tag_53\n      swap1\n      tag_52\n      jump\t// in\n    tag_53:\n      dup1\n      iszero\n      tag_54\n      jumpi\n      dup1\n      0x1f\n      lt\n      tag_55\n      jumpi\n      0x0100\n      dup1\n      dup4\n      sload\n      div\n      mul\n      dup4\n      mstore\n      swap2\n      0x20\n      add\n      swap2\n      jump(tag_54)\n    tag_55:\n      dup3\n      add\n      swap2\n      swap1\n      0x00\n      mstore\n      keccak256(0x00, 0x20)\n      swap1\n    tag_56:\n      dup2\n      sload\n      dup2\n      mstore\n      swap1\n      0x01\n      add\n      swap1\n      0x20\n      add\n      dup1\n      dup4\n      gt\n      tag_56\n      jumpi\n      dup3\n      swap1\n      sub\n      0x1f\n      and\n      dup3\n      add\n      swap2\n    tag_54:\n      pop\n      pop\n      pop\n      pop\n      pop\n      dup2\n      jump\t// out\n        /* \"solidity\\xe5\\x85\\xa5\\xe9\\x97\\xa8\\xe7\\xbb\\x83\\xe4\\xb9\\xa0/Voting.sol\":1424:1842  function addCandidate(string memory candidate) public onlyOwner {... */\n    tag_26:\n        /* \"solidity\\xe5\\x85\\xa5\\xe9\\x97\\xa8\\xe7\\xbb\\x83\\xe4\\xb9\\xa0/Voting.sol\":1269:1274  owner */\n      0x03\n      0x00\n      swap1\n      sload\n      swap1\n      0x0100\n      exp\n      swap1\n      div\n      0xffffffffffffffffffffffffffffffffffffffff\n      and\n        /* \"solidity\\xe5\\x85\\xa5\\xe9\\x97\\xa8\\xe7\\xbb\\x83\\xe4\\xb9\\xa0/Voting.sol\":1255:1274  msg.sender == owner */\n      0xffffffffffffffffffffffffffffffffffffffff\n      and\n        /* \"solidity\\xe5\\x85\\xa5\\xe9\\x97\\xa8\\xe7\\xbb\\x83\\xe4\\xb9\\xa0/Voting.sol\":1255:1265  msg.sender */\n      caller\n        /* \"solidity\\xe5\\x85\\xa5\\xe9\\x97\\xa8\\xe7\\xbb\\x83\\xe4\\xb9\\xa0/Voting.sol\":1255:1274  msg.sender == owner */\n      0xffffffffffffffffffffffffffffffffffffffff\n      and\n      eq\n        /* \"solidity\\xe5\\x85\\xa5\\xe9\\x97\\xa8\\xe7\\xbb\\x83\\xe4\\xb9\\xa0/Voting.sol\":1247:1312  require(msg.sender == owner, \"Only owner can call this function\") */\n      tag_58\n      jumpi\n      mload(0x40)\n      0x08c379a000000000000000000000000000000000000000000000000000000000\n      dup2\n      mstore\n      0x04\n      add\n      tag_59\n      swap1\n      tag_60\n      jump\t// in\n    tag_59:\n      mload(0x40)\n      dup1\n      swap2\n      sub\n      swap1\n      revert\n    tag_58:\n        /* \"solidity\\xe5\\x85\\xa5\\xe9\\x97\\xa8\\xe7\\xbb\\x83\\xe4\\xb9\\xa0/Voting.sol\":1532:1533  0 */\n      0x00\n        /* \"solidity\\xe5\\x85\\xa5\\xe9\\x97\\xa8\\xe7\\xbb\\x83\\xe4\\xb9\\xa0/Voting.sol\":1512:1521  candidate */\n      dup2\n        /* \"solidity\\xe5\\x85\\xa5\\xe9\\x97\\xa8\\xe7\\xbb\\x83\\xe4\\xb9\\xa0/Voting.sol\":1506:1529  bytes(candidate).length */\n      mload\n        /* \"solidity\\xe5\\x85\\xa5\\xe9\\x97\\xa8\\xe7\\xbb\\x83\\xe4\\xb9\\xa0/Voting.sol\":1506:1533  bytes(candidate).length > 0 */\n      gt\n        /* \"solidity\\xe5\\x85\\xa5\\xe9\\x97\\xa8\\xe7\\xbb\\x83\\xe4\\xb9\\xa0/Voting.sol\":1498:1568  require(bytes(candidate).length > 0, \"Candidate name cannot be empty\") */\n      tag_62\n      jumpi\n      mload(0x40)\n      0x08c379a000000000000000000000000000000000000000000000000000000000\n      dup2\n      mstore\n      0x04\n      add\n      tag_63\n      swap1\n      tag_64\n      jump\t// in\n    tag_63:\n      mload(0x40)\n      dup1\n      swap2\n      sub\n      swap1\n      revert\n    tag_62:\n        /* \"solidity\\xe5\\x85\\xa5\\xe9\\x97\\xa8\\xe7\\xbb\\x83\\xe4\\xb9\\xa0/Voting.sol\":1587:1602  candidateExists */\n      0x02\n        /* \"solidity\\xe5\\x85\\xa5\\xe9\\x97\\xa8\\xe7\\xbb\\x83\\xe4\\xb9\\xa0/Voting.sol\":1603:1612  candidate */\n      dup2\n        /* \"solidity\\xe5\\x85\\xa5\\xe9\\x97\\xa8\\xe7\\xbb\\x83\\xe4\\xb9\\xa0/Voting.sol\":1587:1613  candidateExists[candidate] */\n      mload(0x40)\n      tag_65\n      swap2\n      swap1\n      tag_66\n      jump\t// in\n    tag_65:\n      swap1\n      dup2\n      mstore\n      0x20\n      add\n      mload(0x40)\n      dup1\n      swap2\n      sub\n      swap1\n      keccak256\n      0x00\n      swap1\n      sload\n      swap1\n      0x0100\n      exp\n      swap1\n      div\n      0xff\n      and\n        /* \"solidity\\xe5\\x85\\xa5\\xe9\\x97\\xa8\\xe7\\xbb\\x83\\xe4\\xb9\\xa0/Voting.sol\":1586:1613  !candidateExists[candidate] */\n      iszero\n        /* \"solidity\\xe5\\x85\\xa5\\xe9\\x97\\xa8\\xe7\\xbb\\x83\\xe4\\xb9\\xa0/Voting.sol\":1578:1642  require(!candidateExists[candidate], \"Candidate already exists\") */\n      tag_67\n      jumpi\n      mload(0x40)\n      0x08c379a000000000000000000000000000000000000000000000000000000000\n      dup2\n      mstore\n      0x04\n      add\n      tag_68\n      swap1\n      tag_69\n      jump\t// in\n    tag_68:\n      mload(0x40)\n      dup1\n      swap2\n      sub\n      swap1\n      revert\n    tag_67:\n        /* \"solidity\\xe5\\x85\\xa5\\xe9\\x97\\xa8\\xe7\\xbb\\x83\\xe4\\xb9\\xa0/Voting.sol\":1661:1671  candidates */\n      0x01\n        /* \"solidity\\xe5\\x85\\xa5\\xe9\\x97\\xa8\\xe7\\xbb\\x83\\xe4\\xb9\\xa0/Voting.sol\":1677:1686  candidate */\n      dup2\n        /* \"solidity\\xe5\\x85\\xa5\\xe9\\x97\\xa8\\xe7\\xbb\\x83\\xe4\\xb9\\xa0/Voting.sol\":1661:1687  candidates.push(candidate) */\n      swap1\n      dup1\n      0x01\n      dup2\n      sload\n      add\n      dup1\n      dup3\n      sstore\n      dup1\n      swap2\n      pop\n      pop\n      0x01\n      swap1\n      sub\n      swap1\n      0x00\n      mstore\n      keccak256(0x00, 0x20)\n      add\n      0x00\n      swap1\n      swap2\n      swap1\n      swap2\n      swap1\n      swap2\n      pop\n      swap1\n      dup2\n      tag_71\n      swap2\n      swap1\n      tag_72\n      jump\t// in\n    tag_71:\n      pop\n        /* \"solidity\\xe5\\x85\\xa5\\xe9\\x97\\xa8\\xe7\\xbb\\x83\\xe4\\xb9\\xa0/Voting.sol\":1726:1730  true */\n      0x01\n        /* \"solidity\\xe5\\x85\\xa5\\xe9\\x97\\xa8\\xe7\\xbb\\x83\\xe4\\xb9\\xa0/Voting.sol\":1697:1712  candidateExists */\n      0x02\n        /* \"solidity\\xe5\\x85\\xa5\\xe9\\x97\\xa8\\xe7\\xbb\\x83\\xe4\\xb9\\xa0/Voting.sol\":1713:1722  candidate */\n      dup3\n        /* \"solidity\\xe5\\x85\\xa5\\xe9\\x97\\xa8\\xe7\\xbb\\x83\\xe4\\xb9\\xa0/Voting.sol\":1697:1723  candidateExists[candidate] */\n      mload(0x40)\n      tag_73\n      swap2\n      swap1\n      tag_66\n      jump\t// in\n    tag_73:\n      swap1\n      dup2\n      mstore\n      0x20\n      add\n      mload(0x40)\n      dup1\n      swap2\n      sub\n      swap1\n      keccak256\n      0x00\n        /* \"solidity\\xe5\\x85\\xa5\\xe9\\x97\\xa8\\xe7\\xbb\\x83\\xe4\\xb9\\xa0/Voting.sol\":1697:1730  candidateExists[candidate] = true */\n      0x0100\n      exp\n      dup2\n      sload\n      dup2\n      0xff\n      mul\n      not\n      and\n      swap1\n      dup4\n      iszero\n      iszero\n      mul\n      or\n      swap1\n      sstore\n      pop\n        /* \"solidity\\xe5\\x85\\xa5\\xe9\\x97\\xa8\\xe7\\xbb\\x83\\xe4\\xb9\\xa0/Voting.sol\":1759:1760  0 */\n      0x00\n        /* \"solidity\\xe5\\x85\\xa5\\xe9\\x97\\xa8\\xe7\\xbb\\x83\\xe4\\xb9\\xa0/Voting.sol\":1740:1745  votes */\n      dup1\n        /* \"solidity\\xe5\\x85\\xa5\\xe9\\x97\\xa8\\xe7\\xbb\\x83\\xe4\\xb9\\xa0/Voting.sol\":1746:1755  candidate */\n      dup3\n        /* \"solidity\\xe5\\x85\\xa5\\xe9\\x97\\xa8\\xe7\\xbb\\x83\\xe4\\xb9\\xa0/Voting.sol\":1740:1756  votes[candidate] */\n      mload(0x40)\n      tag_74\n      swap2\n      swap1\n      tag_66\n      jump\t// in\n    tag_74:\n      swap1\n      dup2\n      mstore\n      0x20\n      add\n      mload(0x40)\n      dup1\n      swap2\n      sub\n      swap1\n      keccak256\n        /* \"solidity\\xe5\\x85\\xa5\\xe9\\x97\\xa8\\xe7\\xbb\\x83\\xe4\\xb9\\xa0/Voting.sol\":1740:1760  votes[candidate] = 0 */\n      dup2\n      swap1\n      sstore\n      pop\n        /* \"solidity\\xe5\\x85\\xa5\\xe9\\x97\\xa8\\xe7\\xbb\\x83\\xe4\\xb9\\xa0/Voting.sol\":1810:1835  CandidateAdded(candidate) */\n      0xf29562dad1599aea0ebb142466120aab326d5efa8f839df82a9c064bf78e8938\n        /* \"solidity\\xe5\\x85\\xa5\\xe9\\x97\\xa8\\xe7\\xbb\\x83\\xe4\\xb9\\xa0/Voting.sol\":1825:1834  candidate */\n      dup2\n        /* \"solidity\\xe5\\x85\\xa5\\xe9\\x97\\xa8\\xe7\\xbb\\x83\\xe4\\xb9\\xa0/Voting.sol\":1810:1835  CandidateAdded(candidate) */\n      mload(0x40)\n      tag_75\n      swap2\n      swap1\n      tag_22\n      jump\t// in\n    tag_75:\n      mload(0x40)\n      dup1\n      swap2\n      sub\n      swap1\n      log1\n        /* \"solidity\\xe5\\x85\\xa5\\xe9\\x97\\xa8\\xe7\\xbb\\x83\\xe4\\xb9\\xa0/Voting.sol\":1424:1842  function addCandidate(string memory candidate) public onlyOwner {... */\n      pop\n      jump\t// out\n        /* \"solidity\\xe5\\x85\\xa5\\xe9\\x97\\xa8\\xe7\\xbb\\x83\\xe4\\xb9\\xa0/Voting.sol\":2495:2681  function getVotes(string memory candidate) public view returns (uint256) {... */\n    tag_29:\n        /* \"solidity\\xe5\\x85\\xa5\\xe9\\x97\\xa8\\xe7\\xbb\\x83\\xe4\\xb9\\xa0/Voting.sol\":2559:2566  uint256 */\n      0x00\n        /* \"solidity\\xe5\\x85\\xa5\\xe9\\x97\\xa8\\xe7\\xbb\\x83\\xe4\\xb9\\xa0/Voting.sol\":2586:2601  candidateExists */\n      0x02\n        /* \"solidity\\xe5\\x85\\xa5\\xe9\\x97\\xa8\\xe7\\xbb\\x83\\xe4\\xb9\\xa0/Voting.sol\":2602:2611  candidate */\n      dup3\n        /* \"solidity\\xe5\\x85\\xa5\\xe9\\x97\\xa8\\xe7\\xbb\\x83\\xe4\\xb9\\xa0/Voting.sol\":2586:2612  candidateExists[candidate] */\n      mload(0x40)\n      tag_77\n      swap2\n      swap1\n      tag_66\n      jump\t// in\n    tag_77:\n      swap1\n      dup2\n      mstore\n      0x20\n      add\n      mload(0x40)\n      dup1\n      swap2\n      sub\n      swap1\n      keccak256\n      0x00\n      swap1\n      sload\n      swap1\n      0x0100\n      exp\n      swap1\n      div\n      0xff\n      and\n        /* \"solidity\\xe5\\x85\\xa5\\xe9\\x97\\xa8\\xe7\\xbb\\x83\\xe4\\xb9\\xa0/Voting.sol\":2578:2641  require(candidateExists[candidate], \"Candidate does not exist\") */\n      tag_78\n      jumpi\n      mload(0x40)\n      0x08c379a000000000000000000000000000000000000000000000000000000000\n      dup2\n      mstore\n      0x04\n      add\n      tag_79\n      swap1\n      tag_80\n      jump\t// in\n    tag_79:\n      mload(0x40)\n      dup1\n      swap2\n      sub\n      swap1\n      revert\n    tag_78:\n        /* \"solidity\\xe5\\x85\\xa5\\xe9\\x97\\xa8\\xe7\\xbb\\x83\\xe4\\xb9\\xa0/Voting.sol\":2658:2663  votes */\n      0x00\n        /* \"solidity\\xe5\\x85\\xa5\\xe9\\x97\\xa8\\xe7\\xbb\\x83\\xe4\\xb9\\xa0/Voting.sol\":2664:2673  candidate */\n      dup3\n        /* \"solidity\\xe5\\x85\\xa5\\xe9\\x97\\xa8\\xe7\\xbb\\x83\\xe4\\xb9\\xa0/Voting.sol\":2658:2674  votes[candidate] */\n      mload(0x40)\n      tag_81\n      swap2\n      swap1\n      tag_66\n      jump\t// in\n    tag_81:\n      swap1\n      dup2\n      mstore\n      0x20\n      add\n      mload(0x40)\n      dup1\n      swap2\n      sub\n      swap1\n      keccak256\n      sload\n        /* \"solidity\\xe5\\x85\\xa5\\xe9\\x97\\xa8\\xe7\\xbb\\x83\\xe4\\xb9\\xa0/Voting.sol\":2651:2674  return votes[candidate] */\n      swap1\n      pop\n        /* \"solidity\\xe5\\x85\\xa5\\xe9\\x97\\xa8\\xe7\\xbb\\x83\\xe4\\xb9\\xa0/Voting.sol\":2495:2681  function getVotes(string memory candidate) public view returns (uint256) {... */\n      swap2\n      swap1\n      pop\n      jump\t// out\n        /* \"solidity\\xe5\\x85\\xa5\\xe9\\x97\\xa8\\xe7\\xbb\\x83\\xe4\\xb9\\xa0/Voting.sol\":637:657  address public owner */\n    tag_32:\n      0x03\n      0x00\n      swap1\n      sload\n      swap1\n      0x0100\n      exp\n      swap1\n      div\n      0xffffffffffffffffffffffffffffffffffffffff\n      and\n      dup2\n      jump\t// out\n        /* \"solidity\\xe5\\x85\\xa5\\xe9\\x97\\xa8\\xe7\\xbb\\x83\\xe4\\xb9\\xa0/Voting.sol\":542:588  mapping(string => bool) public candidateExists */\n    tag_37:\n      0x02\n      dup2\n      dup1\n      mload\n      0x20\n      dup2\n      add\n      dup3\n      add\n      dup1\n      mload\n      dup5\n      dup3\n      mstore\n      0x20\n      dup4\n      add\n      0x20\n      dup6\n      add\n      keccak256\n      dup2\n      dup4\n      mstore\n      dup1\n      swap6\n      pop\n      pop\n      pop\n      pop\n      pop\n      pop\n      0x00\n      swap2\n      pop\n      sload\n      swap1\n      0x0100\n      exp\n      swap1\n      div\n      0xff\n      and\n      dup2\n      jump\t// out\n        /* \"solidity\\xe5\\x85\\xa5\\xe9\\x97\\xa8\\xe7\\xbb\\x83\\xe4\\xb9\\xa0/Voting.sol\":2753:3033  function resetVotes() public onlyOwner {... */\n    tag_41:\n        /* \"solidity\\xe5\\x85\\xa5\\xe9\\x97\\xa8\\xe7\\xbb\\x83\\xe4\\xb9\\xa0/Voting.sol\":1269:1274  owner */\n      0x03\n      0x00\n      swap1\n      sload\n      swap1\n      0x0100\n      exp\n      swap1\n      div\n      0xffffffffffffffffffffffffffffffffffffffff\n      and\n        /* \"solidity\\xe5\\x85\\xa5\\xe9\\x97\\xa8\\xe7\\xbb\\x83\\xe4\\xb9\\xa0/Voting.sol\":1255:1274  msg.sender == owner */\n      0xffffffffffffffffffffffffffffffffffffffff\n      and\n        /* \"solidity\\xe5\\x85\\xa5\\xe9\\x97\\xa8\\xe7\\xbb\\x83\\xe4\\xb9\\xa0/Voting.sol\":1255:1265  msg.sender */\n      caller\n        /* \"solidity\\xe5\\x85\\xa5\\xe9\\x97\\xa8\\xe7\\xbb\\x83\\xe4\\xb9\\xa0/Voting.sol\":1255:1274  msg.sender == owner */\n      0xffffffffffffffffffffffffffffffffffffffff\n      and\n      eq\n        /* \"solidity\\xe5\\x85\\xa5\\xe9\\x97\\xa8\\xe7\\xbb\\x83\\xe4\\xb9\\xa0/Voting.sol\":1247:1312  require(msg.sender == owner, \"Only owner can call this function\") */\n      tag_83\n      jumpi\n      mload(0x40)\n      0x08c379a000000000000000000000000000000000000000000000000000000000\n      dup2\n      mstore\n      0x04\n      add\n      tag_84\n      swap1\n      tag_60\n      jump\t// in\n    tag_84:\n      mload(0x40)\n      dup1\n      swap2\n      sub\n      swap1\n      revert\n    tag_83:\n        /* \"solidity\\xe5\\x85\\xa5\\xe9\\x97\\xa8\\xe7\\xbb\\x83\\xe4\\xb9\\xa0/Voting.sol\":2865:2874  uint256 i */\n      0x00\n        /* \"solidity\\xe5\\x85\\xa5\\xe9\\x97\\xa8\\xe7\\xbb\\x83\\xe4\\xb9\\xa0/Voting.sol\":2860:2957  for (uint256 i = 0; i < candidates.length; i++) {... */\n    tag_86:\n        /* \"solidity\\xe5\\x85\\xa5\\xe9\\x97\\xa8\\xe7\\xbb\\x83\\xe4\\xb9\\xa0/Voting.sol\":2884:2894  candidates */\n      0x01\n        /* \"solidity\\xe5\\x85\\xa5\\xe9\\x97\\xa8\\xe7\\xbb\\x83\\xe4\\xb9\\xa0/Voting.sol\":2884:2901  candidates.length */\n      dup1\n      sload\n      swap1\n      pop\n        /* \"solidity\\xe5\\x85\\xa5\\xe9\\x97\\xa8\\xe7\\xbb\\x83\\xe4\\xb9\\xa0/Voting.sol\":2880:2881  i */\n      dup2\n        /* \"solidity\\xe5\\x85\\xa5\\xe9\\x97\\xa8\\xe7\\xbb\\x83\\xe4\\xb9\\xa0/Voting.sol\":2880:2901  i < candidates.length */\n      lt\n        /* \"solidity\\xe5\\x85\\xa5\\xe9\\x97\\xa8\\xe7\\xbb\\x83\\xe4\\xb9\\xa0/Voting.sol\":2860:2957  for (uint256 i = 0; i < candidates.length; i++) {... */\n      iszero\n      tag_87\n      jumpi\n        /* \"solidity\\xe5\\x85\\xa5\\xe9\\x97\\xa8\\xe7\\xbb\\x83\\xe4\\xb9\\xa0/Voting.sol\":2945:2946  0 */\n      0x00\n        /* \"solidity\\xe5\\x85\\xa5\\xe9\\x97\\xa8\\xe7\\xbb\\x83\\xe4\\xb9\\xa0/Voting.sol\":2922:2927  votes */\n      dup1\n        /* \"solidity\\xe5\\x85\\xa5\\xe9\\x97\\xa8\\xe7\\xbb\\x83\\xe4\\xb9\\xa0/Voting.sol\":2928:2938  candidates */\n      0x01\n        /* \"solidity\\xe5\\x85\\xa5\\xe9\\x97\\xa8\\xe7\\xbb\\x83\\xe4\\xb9\\xa0/Voting.sol\":2939:2940  i */\n      dup4\n        /* \"solidity\\xe5\\x85\\xa5\\xe9\\x97\\xa8\\xe7\\xbb\\x83\\xe4\\xb9\\xa0/Voting.sol\":2928:2941  candidates[i] */\n      dup2\n      sload\n      dup2\n      lt\n      tag_89\n      jumpi\n      tag_90\n      tag_91\n      jump\t// in\n    tag_90:\n    tag_89:\n      swap1\n      0x00\n      mstore\n      keccak256(0x00, 0x20)\n      add\n        /* \"solidity\\xe5\\x85\\xa5\\xe9\\x97\\xa8\\xe7\\xbb\\x83\\xe4\\xb9\\xa0/Voting.sol\":2922:2942  votes[candidates[i]] */\n      mload(0x40)\n      tag_93\n      swap2\n      swap1\n      tag_94\n      jump\t// in\n    tag_93:\n      swap1\n      dup2\n      mstore\n      0x20\n      add\n      mload(0x40)\n      dup1\n      swap2\n      sub\n      swap1\n      keccak256\n        /* \"solidity\\xe5\\x85\\xa5\\xe9\\x97\\xa8\\xe7\\xbb\\x83\\xe4\\xb9\\xa0/Voting.sol\":2922:2946  votes[candidates[i]] = 0 */\n      dup2\n      swap1\n      sstore\n      pop\n        /* \"solidity\\xe5\\x85\\xa5\\xe9\\x97\\xa8\\xe7\\xbb\\x83\\xe4\\xb9\\xa0/Voting.sol\":2903:2906  i++ */\n      dup1\n      dup1\n      tag_95\n      swap1\n      tag_96\n      jump\t// in\n    tag_95:\n      swap2\n      pop\n      pop\n        /* \"solidity\\xe5\\x85\\xa5\\xe9\\x97\\xa8\\xe7\\xbb\\x83\\xe4\\xb9\\xa0/Voting.sol\":2860:2957  for (uint256 i = 0; i < candidates.length; i++) {... */\n      jump(tag_86)\n    tag_87:\n      pop\n        /* \"solidity\\xe5\\x85\\xa5\\xe9\\x97\\xa8\\xe7\\xbb\\x83\\xe4\\xb9\\xa0/Voting.sol\":2979:2980  0 */\n      0x00\n        /* \"solidity\\xe5\\x85\\xa5\\xe9\\x97\\xa8\\xe7\\xbb\\x83\\xe4\\xb9\\xa0/Voting.sol\":2966:2976  totalVotes */\n      0x04\n        /* \"solidity\\xe5\\x85\\xa5\\xe9\\x97\\xa8\\xe7\\xbb\\x83\\xe4\\xb9\\xa0/Voting.sol\":2966:2980  totalVotes = 0 */\n      dup2\n      swap1\n      sstore\n      pop\n        /* \"solidity\\xe5\\x85\\xa5\\xe9\\x97\\xa8\\xe7\\xbb\\x83\\xe4\\xb9\\xa0/Voting.sol\":3004:3026  VotesReset(msg.sender) */\n      0x52377ea4d8812f0bb534fc079993e288b4ea73d011a2a368502255052a6b7730\n        /* \"solidity\\xe5\\x85\\xa5\\xe9\\x97\\xa8\\xe7\\xbb\\x83\\xe4\\xb9\\xa0/Voting.sol\":3015:3025  msg.sender */\n      caller\n        /* \"solidity\\xe5\\x85\\xa5\\xe9\\x97\\xa8\\xe7\\xbb\\x83\\xe4\\xb9\\xa0/Voting.sol\":3004:3026  VotesReset(msg.sender) */\n      mload(0x40)\n      tag_97\n      swap2\n      swap1\n      tag_34\n      jump\t// in\n    tag_97:\n      mload(0x40)\n      dup1\n      swap2\n      sub\n      swap1\n      log1\n        /* \"solidity\\xe5\\x85\\xa5\\xe9\\x97\\xa8\\xe7\\xbb\\x83\\xe4\\xb9\\xa0/Voting.sol\":2753:3033  function resetVotes() public onlyOwner {... */\n      jump\t// out\n        /* \"solidity\\xe5\\x85\\xa5\\xe9\\x97\\xa8\\xe7\\xbb\\x83\\xe4\\xb9\\xa0/Voting.sol\":357:396  mapping(string => uint256) public votes */\n    tag_44:\n      0x00\n      dup2\n      dup1\n      mload\n      0x20\n      dup2\n      add\n      dup3\n      add\n      dup1\n      mload\n      dup5\n      dup3\n      mstore\n      0x20\n      dup4\n      add\n      0x20\n      dup6\n      add\n      keccak256\n      dup2\n      dup4\n      mstore\n      dup1\n      swap6\n      pop\n      pop\n      pop\n      pop\n      pop\n      pop\n      0x00\n      swap2\n      pop\n      swap1\n      pop\n      sload\n      dup2\n      jump\t// out\n        /* \"solidity\\xe5\\x85\\xa5\\xe9\\x97\\xa8\\xe7\\xbb\\x83\\xe4\\xb9\\xa0/Voting.sol\":1948:2352  function vote(string memory candidate) public {... */\n    tag_48:\n        /* \"solidity\\xe5\\x85\\xa5\\xe9\\x97\\xa8\\xe7\\xbb\\x83\\xe4\\xb9\\xa0/Voting.sol\":2038:2039  0 */\n      0x00\n        /* \"solidity\\xe5\\x85\\xa5\\xe9\\x97\\xa8\\xe7\\xbb\\x83\\xe4\\xb9\\xa0/Voting.sol\":2018:2027  candidate */\n      dup2\n        /* \"solidity\\xe5\\x85\\xa5\\xe9\\x97\\xa8\\xe7\\xbb\\x83\\xe4\\xb9\\xa0/Voting.sol\":2012:2035  bytes(candidate).length */\n      mload\n        /* \"solidity\\xe5\\x85\\xa5\\xe9\\x97\\xa8\\xe7\\xbb\\x83\\xe4\\xb9\\xa0/Voting.sol\":2012:2039  bytes(candidate).length > 0 */\n      gt\n        /* \"solidity\\xe5\\x85\\xa5\\xe9\\x97\\xa8\\xe7\\xbb\\x83\\xe4\\xb9\\xa0/Voting.sol\":2004:2074  require(bytes(candidate).length > 0, \"Candidate name cannot be empty\") */\n      tag_99\n      jumpi\n      mload(0x40)\n      0x08c379a000000000000000000000000000000000000000000000000000000000\n      dup2\n      mstore\n      0x04\n      add\n      tag_100\n      swap1\n      tag_64\n      jump\t// in\n    tag_100:\n      mload(0x40)\n      dup1\n      swap2\n      sub\n      swap1\n      revert\n    tag_99:\n        /* \"solidity\\xe5\\x85\\xa5\\xe9\\x97\\xa8\\xe7\\xbb\\x83\\xe4\\xb9\\xa0/Voting.sol\":2092:2107  candidateExists */\n      0x02\n        /* \"solidity\\xe5\\x85\\xa5\\xe9\\x97\\xa8\\xe7\\xbb\\x83\\xe4\\xb9\\xa0/Voting.sol\":2108:2117  candidate */\n      dup2\n        /* \"solidity\\xe5\\x85\\xa5\\xe9\\x97\\xa8\\xe7\\xbb\\x83\\xe4\\xb9\\xa0/Voting.sol\":2092:2118  candidateExists[candidate] */\n      mload(0x40)\n      tag_101\n      swap2\n      swap1\n      tag_66\n      jump\t// in\n    tag_101:\n      swap1\n      dup2\n      mstore\n      0x20\n      add\n      mload(0x40)\n      dup1\n      swap2\n      sub\n      swap1\n      keccak256\n      0x00\n      swap1\n      sload\n      swap1\n      0x0100\n      exp\n      swap1\n      div\n      0xff\n      and\n        /* \"solidity\\xe5\\x85\\xa5\\xe9\\x97\\xa8\\xe7\\xbb\\x83\\xe4\\xb9\\xa0/Voting.sol\":2084:2147  require(candidateExists[candidate], \"Candidate does not exist\") */\n      tag_102\n      jumpi\n      mload(0x40)\n      0x08c379a000000000000000000000000000000000000000000000000000000000\n      dup2\n      mstore\n      0x04\n      add\n      tag_103\n      swap1\n      tag_80\n      jump\t// in\n    tag_103:\n      mload(0x40)\n      dup1\n      swap2\n      sub\n      swap1\n      revert\n    tag_102:\n        /* \"solidity\\xe5\\x85\\xa5\\xe9\\x97\\xa8\\xe7\\xbb\\x83\\xe4\\xb9\\xa0/Voting.sol\":2208:2213  votes */\n      0x00\n        /* \"solidity\\xe5\\x85\\xa5\\xe9\\x97\\xa8\\xe7\\xbb\\x83\\xe4\\xb9\\xa0/Voting.sol\":2214:2223  candidate */\n      dup2\n        /* \"solidity\\xe5\\x85\\xa5\\xe9\\x97\\xa8\\xe7\\xbb\\x83\\xe4\\xb9\\xa0/Voting.sol\":2208:2224  votes[candidate] */\n      mload(0x40)\n      tag_104\n      swap2\n      swap1\n      tag_66\n      jump\t// in\n    tag_104:\n      swap1\n      dup2\n      mstore\n      0x20\n      add\n      mload(0x40)\n      dup1\n      swap2\n      sub\n      swap1\n      keccak256\n      0x00\n        /* \"solidity\\xe5\\x85\\xa5\\xe9\\x97\\xa8\\xe7\\xbb\\x83\\xe4\\xb9\\xa0/Voting.sol\":2208:2226  votes[candidate]++ */\n      dup2\n      sload\n      dup1\n      swap3\n      swap2\n      swap1\n      tag_105\n      swap1\n      tag_96\n      jump\t// in\n    tag_105:\n      swap2\n      swap1\n      pop\n      sstore\n      pop\n        /* \"solidity\\xe5\\x85\\xa5\\xe9\\x97\\xa8\\xe7\\xbb\\x83\\xe4\\xb9\\xa0/Voting.sol\":2236:2246  totalVotes */\n      0x04\n      0x00\n        /* \"solidity\\xe5\\x85\\xa5\\xe9\\x97\\xa8\\xe7\\xbb\\x83\\xe4\\xb9\\xa0/Voting.sol\":2236:2248  totalVotes++ */\n      dup2\n      sload\n      dup1\n      swap3\n      swap2\n      swap1\n      tag_106\n      swap1\n      tag_96\n      jump\t// in\n    tag_106:\n      swap2\n      swap1\n      pop\n      sstore\n      pop\n        /* \"solidity\\xe5\\x85\\xa5\\xe9\\x97\\xa8\\xe7\\xbb\\x83\\xe4\\xb9\\xa0/Voting.sol\":2296:2345  VoteCast(candidate, votes[candidate], msg.sender) */\n      0xfc2f56dbd260ee180dba683a26158ed97396642750489bcd9393b33452d6ad2a\n        /* \"solidity\\xe5\\x85\\xa5\\xe9\\x97\\xa8\\xe7\\xbb\\x83\\xe4\\xb9\\xa0/Voting.sol\":2305:2314  candidate */\n      dup2\n        /* \"solidity\\xe5\\x85\\xa5\\xe9\\x97\\xa8\\xe7\\xbb\\x83\\xe4\\xb9\\xa0/Voting.sol\":2316:2321  votes */\n      0x00\n        /* \"solidity\\xe5\\x85\\xa5\\xe9\\x97\\xa8\\xe7\\xbb\\x83\\xe4\\xb9\\xa0/Voting.sol\":2322:2331  candidate */\n      dup4\n        /* \"solidity\\xe5\\x85\\xa5\\xe9\\x97\\xa8\\xe7\\xbb\\x83\\xe4\\xb9\\xa0/Voting.sol\":2316:2332  votes[candidate] */\n      mload(0x40)\n      tag_107\n      swap2\n      swap1\n      tag_66\n      jump\t// in\n    tag_107:\n      swap1\n      dup2\n      mstore\n      0x20\n      add\n      mload(0x40)\n      dup1\n      swap2\n      sub\n      swap1\n      keccak256\n      sload\n        /* \"solidity\\xe5\\x85\\xa5\\xe9\\x97\\xa8\\xe7\\xbb\\x83\\xe4\\xb9\\xa0/Voting.sol\":2334:2344  msg.sender */\n      caller\n        /* \"solidity\\xe5\\x85\\xa5\\xe9\\x97\\xa8\\xe7\\xbb\\x83\\xe4\\xb9\\xa0/Voting.sol\":2296:2345  VoteCast(candidate, votes[candidate], msg.sender) */\n      mload(0x40)\n      tag_108\n      swap4\n      swap3\n      swap2\n      swap1\n      tag_109\n      jump\t// in\n    tag_108:\n      mload(0x40)\n      dup1\n      swap2\n      sub\n      swap1\n      log1\n        /* \"solidity\\xe5\\x85\\xa5\\xe9\\x97\\xa8\\xe7\\xbb\\x83\\xe4\\xb9\\xa0/Voting.sol\":1948:2352  function vote(string memory candidate) public {... */\n      pop\n      jump\t// out\n        /* \"#utility.yul\":7:84   */\n    tag_110:\n        /* \"#utility.yul\":44:51   */\n      0x00\n        /* \"#utility.yul\":73:78   */\n      dup2\n        /* \"#utility.yul\":62:78   */\n      swap1\n      pop\n        /* \"#utility.yul\":7:84   */\n      swap2\n      swap1\n      pop\n      jump\t// out\n        /* \"#utility.yul\":90:208   */\n    tag_111:\n        /* \"#utility.yul\":177:201   */\n      tag_167\n        /* \"#utility.yul\":195:200   */\n      dup2\n        /* \"#utility.yul\":177:201   */\n      tag_110\n      jump\t// in\n    tag_167:\n        /* \"#utility.yul\":172:175   */\n      dup3\n        /* \"#utility.yul\":165:202   */\n      mstore\n        /* \"#utility.yul\":90:208   */\n      pop\n      pop\n      jump\t// out\n        /* \"#utility.yul\":214:436   */\n    tag_16:\n        /* \"#utility.yul\":307:311   */\n      0x00\n        /* \"#utility.yul\":345:347   */\n      0x20\n        /* \"#utility.yul\":334:343   */\n      dup3\n        /* \"#utility.yul\":330:348   */\n      add\n        /* \"#utility.yul\":322:348   */\n      swap1\n      pop\n        /* \"#utility.yul\":358:429   */\n      tag_169\n        /* \"#utility.yul\":426:427   */\n      0x00\n        /* \"#utility.yul\":415:424   */\n      dup4\n        /* \"#utility.yul\":411:428   */\n      add\n        /* \"#utility.yul\":402:408   */\n      dup5\n        /* \"#utility.yul\":358:429   */\n      tag_111\n      jump\t// in\n    tag_169:\n        /* \"#utility.yul\":214:436   */\n      swap3\n      swap2\n      pop\n      pop\n      jump\t// out\n        /* \"#utility.yul\":442:517   */\n    tag_112:\n        /* \"#utility.yul\":475:481   */\n      0x00\n        /* \"#utility.yul\":508:510   */\n      0x40\n        /* \"#utility.yul\":502:511   */\n      mload\n        /* \"#utility.yul\":492:511   */\n      swap1\n      pop\n        /* \"#utility.yul\":442:517   */\n      swap1\n      jump\t// out\n        /* \"#utility.yul\":523:640   */\n    tag_113:\n        /* \"#utility.yul\":632:633   */\n      0x00\n        /* \"#utility.yul\":629:630   */\n      dup1\n        /* \"#utility.yul\":622:634   */\n      revert\n        /* \"#utility.yul\":646:763   */\n    tag_114:\n        /* \"#utility.yul\":755:756   */\n      0x00\n        /* \"#utility.yul\":752:753   */\n      dup1\n        /* \"#utility.yul\":745:757   */\n      revert\n        /* \"#utility.yul\":769:891   */\n    tag_115:\n        /* \"#utility.yul\":842:866   */\n      tag_174\n        /* \"#utility.yul\":860:865   */\n      dup2\n        /* \"#utility.yul\":842:866   */\n      tag_110\n      jump\t// in\n    tag_174:\n        /* \"#utility.yul\":835:840   */\n      dup2\n        /* \"#utility.yul\":832:867   */\n      eq\n        /* \"#utility.yul\":822:885   */\n      tag_175\n      jumpi\n        /* \"#utility.yul\":881:882   */\n      0x00\n        /* \"#utility.yul\":878:879   */\n      dup1\n        /* \"#utility.yul\":871:883   */\n      revert\n        /* \"#utility.yul\":822:885   */\n    tag_175:\n        /* \"#utility.yul\":769:891   */\n      pop\n      jump\t// out\n        /* \"#utility.yul\":897:1036   */\n    tag_116:\n        /* \"#utility.yul\":943:948   */\n      0x00\n        /* \"#utility.yul\":981:987   */\n      dup2\n        /* \"#utility.yul\":968:988   */\n      calldataload\n        /* \"#utility.yul\":959:988   */\n      swap1\n      pop\n        /* \"#utility.yul\":997:1030   */\n      tag_177\n        /* \"#utility.yul\":1024:1029   */\n      dup2\n        /* \"#utility.yul\":997:1030   */\n      tag_115\n      jump\t// in\n    tag_177:\n        /* \"#utility.yul\":897:1036   */\n      swap3\n      swap2\n      pop\n      pop\n      jump\t// out\n        /* \"#utility.yul\":1042:1371   */\n    tag_19:\n        /* \"#utility.yul\":1101:1107   */\n      0x00\n        /* \"#utility.yul\":1150:1152   */\n      0x20\n        /* \"#utility.yul\":1138:1147   */\n      dup3\n        /* \"#utility.yul\":1129:1136   */\n      dup5\n        /* \"#utility.yul\":1125:1148   */\n      sub\n        /* \"#utility.yul\":1121:1153   */\n      slt\n        /* \"#utility.yul\":1118:1237   */\n      iszero\n      tag_179\n      jumpi\n        /* \"#utility.yul\":1156:1235   */\n      tag_180\n      tag_113\n      jump\t// in\n    tag_180:\n        /* \"#utility.yul\":1118:1237   */\n    tag_179:\n        /* \"#utility.yul\":1276:1277   */\n      0x00\n        /* \"#utility.yul\":1301:1354   */\n      tag_181\n        /* \"#utility.yul\":1346:1353   */\n      dup5\n        /* \"#utility.yul\":1337:1343   */\n      dup3\n        /* \"#utility.yul\":1326:1335   */\n      dup6\n        /* \"#utility.yul\":1322:1344   */\n      add\n        /* \"#utility.yul\":1301:1354   */\n      tag_116\n      jump\t// in\n    tag_181:\n        /* \"#utility.yul\":1291:1354   */\n      swap2\n      pop\n        /* \"#utility.yul\":1247:1364   */\n      pop\n        /* \"#utility.yul\":1042:1371   */\n      swap3\n      swap2\n      pop\n      pop\n      jump\t// out\n        /* \"#utility.yul\":1377:1476   */\n    tag_117:\n        /* \"#utility.yul\":1429:1435   */\n      0x00\n        /* \"#utility.yul\":1463:1468   */\n      dup2\n        /* \"#utility.yul\":1457:1469   */\n      mload\n        /* \"#utility.yul\":1447:1469   */\n      swap1\n      pop\n        /* \"#utility.yul\":1377:1476   */\n      swap2\n      swap1\n      pop\n      jump\t// out\n        /* \"#utility.yul\":1482:1651   */\n    tag_118:\n        /* \"#utility.yul\":1566:1577   */\n      0x00\n        /* \"#utility.yul\":1600:1606   */\n      dup3\n        /* \"#utility.yul\":1595:1598   */\n      dup3\n        /* \"#utility.yul\":1588:1607   */\n      mstore\n        /* \"#utility.yul\":1640:1644   */\n      0x20\n        /* \"#utility.yul\":1635:1638   */\n      dup3\n        /* \"#utility.yul\":1631:1645   */\n      add\n        /* \"#utility.yul\":1616:1645   */\n      swap1\n      pop\n        /* \"#utility.yul\":1482:1651   */\n      swap3\n      swap2\n      pop\n      pop\n      jump\t// out\n        /* \"#utility.yul\":1657:1903   */\n    tag_119:\n        /* \"#utility.yul\":1738:1739   */\n      0x00\n        /* \"#utility.yul\":1748:1861   */\n    tag_185:\n        /* \"#utility.yul\":1762:1768   */\n      dup4\n        /* \"#utility.yul\":1759:1760   */\n      dup2\n        /* \"#utility.yul\":1756:1769   */\n      lt\n        /* \"#utility.yul\":1748:1861   */\n      iszero\n      tag_187\n      jumpi\n        /* \"#utility.yul\":1847:1848   */\n      dup1\n        /* \"#utility.yul\":1842:1845   */\n      dup3\n        /* \"#utility.yul\":1838:1849   */\n      add\n        /* \"#utility.yul\":1832:1850   */\n      mload\n        /* \"#utility.yul\":1828:1829   */\n      dup2\n        /* \"#utility.yul\":1823:1826   */\n      dup5\n        /* \"#utility.yul\":1819:1830   */\n      add\n        /* \"#utility.yul\":1812:1851   */\n      mstore\n        /* \"#utility.yul\":1784:1786   */\n      0x20\n        /* \"#utility.yul\":1781:1782   */\n      dup2\n        /* \"#utility.yul\":1777:1787   */\n      add\n        /* \"#utility.yul\":1772:1787   */\n      swap1\n      pop\n        /* \"#utility.yul\":1748:1861   */\n      jump(tag_185)\n    tag_187:\n        /* \"#utility.yul\":1895:1896   */\n      0x00\n        /* \"#utility.yul\":1886:1892   */\n      dup5\n        /* \"#utility.yul\":1881:1884   */\n      dup5\n        /* \"#utility.yul\":1877:1893   */\n      add\n        /* \"#utility.yul\":1870:1897   */\n      mstore\n        /* \"#utility.yul\":1719:1903   */\n      pop\n        /* \"#utility.yul\":1657:1903   */\n      pop\n      pop\n      pop\n      jump\t// out\n        /* \"#utility.yul\":1909:2011   */\n    tag_120:\n        /* \"#utility.yul\":1950:1956   */\n      0x00\n        /* \"#utility.yul\":2001:2003   */\n      0x1f\n        /* \"#utility.yul\":1997:2004   */\n      not\n        /* \"#utility.yul\":1992:1994   */\n      0x1f\n        /* \"#utility.yul\":1985:1990   */\n      dup4\n        /* \"#utility.yul\":1981:1995   */\n      add\n        /* \"#utility.yul\":1977:2005   */\n      and\n        /* \"#utility.yul\":1967:2005   */\n      swap1\n      pop\n        /* \"#utility.yul\":1909:2011   */\n      swap2\n      swap1\n      pop\n      jump\t// out\n        /* \"#utility.yul\":2017:2394   */\n    tag_121:\n        /* \"#utility.yul\":2105:2108   */\n      0x00\n        /* \"#utility.yul\":2133:2172   */\n      tag_190\n        /* \"#utility.yul\":2166:2171   */\n      dup3\n        /* \"#utility.yul\":2133:2172   */\n      tag_117\n      jump\t// in\n    tag_190:\n        /* \"#utility.yul\":2188:2259   */\n      tag_191\n        /* \"#utility.yul\":2252:2258   */\n      dup2\n        /* \"#utility.yul\":2247:2250   */\n      dup6\n        /* \"#utility.yul\":2188:2259   */\n      tag_118\n      jump\t// in\n    tag_191:\n        /* \"#utility.yul\":2181:2259   */\n      swap4\n      pop\n        /* \"#utility.yul\":2268:2333   */\n      tag_192\n        /* \"#utility.yul\":2326:2332   */\n      dup2\n        /* \"#utility.yul\":2321:2324   */\n      dup6\n        /* \"#utility.yul\":2314:2318   */\n      0x20\n        /* \"#utility.yul\":2307:2312   */\n      dup7\n        /* \"#utility.yul\":2303:2319   */\n      add\n        /* \"#utility.yul\":2268:2333   */\n      tag_119\n      jump\t// in\n    tag_192:\n        /* \"#utility.yul\":2358:2387   */\n      tag_193\n        /* \"#utility.yul\":2380:2386   */\n      dup2\n        /* \"#utility.yul\":2358:2387   */\n      tag_120\n      jump\t// in\n    tag_193:\n        /* \"#utility.yul\":2353:2356   */\n      dup5\n        /* \"#utility.yul\":2349:2388   */\n      add\n        /* \"#utility.yul\":2342:2388   */\n      swap2\n      pop\n        /* \"#utility.yul\":2109:2394   */\n      pop\n        /* \"#utility.yul\":2017:2394   */\n      swap3\n      swap2\n      pop\n      pop\n      jump\t// out\n        /* \"#utility.yul\":2400:2713   */\n    tag_22:\n        /* \"#utility.yul\":2513:2517   */\n      0x00\n        /* \"#utility.yul\":2551:2553   */\n      0x20\n        /* \"#utility.yul\":2540:2549   */\n      dup3\n        /* \"#utility.yul\":2536:2554   */\n      add\n        /* \"#utility.yul\":2528:2554   */\n      swap1\n      pop\n        /* \"#utility.yul\":2600:2609   */\n      dup2\n        /* \"#utility.yul\":2594:2598   */\n      dup2\n        /* \"#utility.yul\":2590:2610   */\n      sub\n        /* \"#utility.yul\":2586:2587   */\n      0x00\n        /* \"#utility.yul\":2575:2584   */\n      dup4\n        /* \"#utility.yul\":2571:2588   */\n      add\n        /* \"#utility.yul\":2564:2611   */\n      mstore\n        /* \"#utility.yul\":2628:2706   */\n      tag_195\n        /* \"#utility.yul\":2701:2705   */\n      dup2\n        /* \"#utility.yul\":2692:2698   */\n      dup5\n        /* \"#utility.yul\":2628:2706   */\n      tag_121\n      jump\t// in\n    tag_195:\n        /* \"#utility.yul\":2620:2706   */\n      swap1\n      pop\n        /* \"#utility.yul\":2400:2713   */\n      swap3\n      swap2\n      pop\n      pop\n      jump\t// out\n        /* \"#utility.yul\":2719:2836   */\n    tag_122:\n        /* \"#utility.yul\":2828:2829   */\n      0x00\n        /* \"#utility.yul\":2825:2826   */\n      dup1\n        /* \"#utility.yul\":2818:2830   */\n      revert\n        /* \"#utility.yul\":2842:2959   */\n    tag_123:\n        /* \"#utility.yul\":2951:2952   */\n      0x00\n        /* \"#utility.yul\":2948:2949   */\n      dup1\n        /* \"#utility.yul\":2941:2953   */\n      revert\n        /* \"#utility.yul\":2965:3145   */\n    tag_124:\n        /* \"#utility.yul\":3013:3090   */\n      0x4e487b7100000000000000000000000000000000000000000000000000000000\n        /* \"#utility.yul\":3010:3011   */\n      0x00\n        /* \"#utility.yul\":3003:3091   */\n      mstore\n        /* \"#utility.yul\":3110:3114   */\n      0x41\n        /* \"#utility.yul\":3107:3108   */\n      0x04\n        /* \"#utility.yul\":3100:3115   */\n      mstore\n        /* \"#utility.yul\":3134:3138   */\n      0x24\n        /* \"#utility.yul\":3131:3132   */\n      0x00\n        /* \"#utility.yul\":3124:3139   */\n      revert\n        /* \"#utility.yul\":3151:3432   */\n    tag_125:\n        /* \"#utility.yul\":3234:3261   */\n      tag_200\n        /* \"#utility.yul\":3256:3260   */\n      dup3\n        /* \"#utility.yul\":3234:3261   */\n      tag_120\n      jump\t// in\n    tag_200:\n        /* \"#utility.yul\":3226:3232   */\n      dup2\n        /* \"#utility.yul\":3222:3262   */\n      add\n        /* \"#utility.yul\":3364:3370   */\n      dup2\n        /* \"#utility.yul\":3352:3362   */\n      dup2\n        /* \"#utility.yul\":3349:3371   */\n      lt\n        /* \"#utility.yul\":3328:3346   */\n      0xffffffffffffffff\n        /* \"#utility.yul\":3316:3326   */\n      dup3\n        /* \"#utility.yul\":3313:3347   */\n      gt\n        /* \"#utility.yul\":3310:3372   */\n      or\n        /* \"#utility.yul\":3307:3395   */\n      iszero\n      tag_201\n      jumpi\n        /* \"#utility.yul\":3375:3393   */\n      tag_202\n      tag_124\n      jump\t// in\n    tag_202:\n        /* \"#utility.yul\":3307:3395   */\n    tag_201:\n        /* \"#utility.yul\":3415:3425   */\n      dup1\n        /* \"#utility.yul\":3411:3413   */\n      0x40\n        /* \"#utility.yul\":3404:3426   */\n      mstore\n        /* \"#utility.yul\":3194:3432   */\n      pop\n        /* \"#utility.yul\":3151:3432   */\n      pop\n      pop\n      jump\t// out\n        /* \"#utility.yul\":3438:3567   */\n    tag_126:\n        /* \"#utility.yul\":3472:3478   */\n      0x00\n        /* \"#utility.yul\":3499:3519   */\n      tag_204\n      tag_112\n      jump\t// in\n    tag_204:\n        /* \"#utility.yul\":3489:3519   */\n      swap1\n      pop\n        /* \"#utility.yul\":3528:3561   */\n      tag_205\n        /* \"#utility.yul\":3556:3560   */\n      dup3\n        /* \"#utility.yul\":3548:3554   */\n      dup3\n        /* \"#utility.yul\":3528:3561   */\n      tag_125\n      jump\t// in\n    tag_205:\n        /* \"#utility.yul\":3438:3567   */\n      swap2\n      swap1\n      pop\n      jump\t// out\n        /* \"#utility.yul\":3573:3881   */\n    tag_127:\n        /* \"#utility.yul\":3635:3639   */\n      0x00\n        /* \"#utility.yul\":3725:3743   */\n      0xffffffffffffffff\n        /* \"#utility.yul\":3717:3723   */\n      dup3\n        /* \"#utility.yul\":3714:3744   */\n      gt\n        /* \"#utility.yul\":3711:3767   */\n      iszero\n      tag_207\n      jumpi\n        /* \"#utility.yul\":3747:3765   */\n      tag_208\n      tag_124\n      jump\t// in\n    tag_208:\n        /* \"#utility.yul\":3711:3767   */\n    tag_207:\n        /* \"#utility.yul\":3785:3814   */\n      tag_209\n        /* \"#utility.yul\":3807:3813   */\n      dup3\n        /* \"#utility.yul\":3785:3814   */\n      tag_120\n      jump\t// in\n    tag_209:\n        /* \"#utility.yul\":3777:3814   */\n      swap1\n      pop\n        /* \"#utility.yul\":3869:3873   */\n      0x20\n        /* \"#utility.yul\":3863:3867   */\n      dup2\n        /* \"#utility.yul\":3859:3874   */\n      add\n        /* \"#utility.yul\":3851:3874   */\n      swap1\n      pop\n        /* \"#utility.yul\":3573:3881   */\n      swap2\n      swap1\n      pop\n      jump\t// out\n        /* \"#utility.yul\":3887:4033   */\n    tag_128:\n        /* \"#utility.yul\":3984:3990   */\n      dup3\n        /* \"#utility.yul\":3979:3982   */\n      dup2\n        /* \"#utility.yul\":3974:3977   */\n      dup4\n        /* \"#utility.yul\":3961:3991   */\n      calldatacopy\n        /* \"#utility.yul\":4025:4026   */\n      0x00\n        /* \"#utility.yul\":4016:4022   */\n      dup4\n        /* \"#utility.yul\":4011:4014   */\n      dup4\n        /* \"#utility.yul\":4007:4023   */\n      add\n        /* \"#utility.yul\":4000:4027   */\n      mstore\n        /* \"#utility.yul\":3887:4033   */\n      pop\n      pop\n      pop\n      jump\t// out\n        /* \"#utility.yul\":4039:4464   */\n    tag_129:\n        /* \"#utility.yul\":4117:4122   */\n      0x00\n        /* \"#utility.yul\":4142:4208   */\n      tag_212\n        /* \"#utility.yul\":4158:4207   */\n      tag_213\n        /* \"#utility.yul\":4200:4206   */\n      dup5\n        /* \"#utility.yul\":4158:4207   */\n      tag_127\n      jump\t// in\n    tag_213:\n        /* \"#utility.yul\":4142:4208   */\n      tag_126\n      jump\t// in\n    tag_212:\n        /* \"#utility.yul\":4133:4208   */\n      swap1\n      pop\n        /* \"#utility.yul\":4231:4237   */\n      dup3\n        /* \"#utility.yul\":4224:4229   */\n      dup2\n        /* \"#utility.yul\":4217:4238   */\n      mstore\n        /* \"#utility.yul\":4269:4273   */\n      0x20\n        /* \"#utility.yul\":4262:4267   */\n      dup2\n        /* \"#utility.yul\":4258:4274   */\n      add\n        /* \"#utility.yul\":4307:4310   */\n      dup5\n        /* \"#utility.yul\":4298:4304   */\n      dup5\n        /* \"#utility.yul\":4293:4296   */\n      dup5\n        /* \"#utility.yul\":4289:4305   */\n      add\n        /* \"#utility.yul\":4286:4311   */\n      gt\n        /* \"#utility.yul\":4283:4395   */\n      iszero\n      tag_214\n      jumpi\n        /* \"#utility.yul\":4314:4393   */\n      tag_215\n      tag_123\n      jump\t// in\n    tag_215:\n        /* \"#utility.yul\":4283:4395   */\n    tag_214:\n        /* \"#utility.yul\":4404:4458   */\n      tag_216\n        /* \"#utility.yul\":4451:4457   */\n      dup5\n        /* \"#utility.yul\":4446:4449   */\n      dup3\n        /* \"#utility.yul\":4441:4444   */\n      dup6\n        /* \"#utility.yul\":4404:4458   */\n      tag_128\n      jump\t// in\n    tag_216:\n        /* \"#utility.yul\":4123:4464   */\n      pop\n        /* \"#utility.yul\":4039:4464   */\n      swap4\n      swap3\n      pop\n      pop\n      pop\n      jump\t// out\n        /* \"#utility.yul\":4484:4824   */\n    tag_130:\n        /* \"#utility.yul\":4540:4545   */\n      0x00\n        /* \"#utility.yul\":4589:4592   */\n      dup3\n        /* \"#utility.yul\":4582:4586   */\n      0x1f\n        /* \"#utility.yul\":4574:4580   */\n      dup4\n        /* \"#utility.yul\":4570:4587   */\n      add\n        /* \"#utility.yul\":4566:4593   */\n      slt\n        /* \"#utility.yul\":4556:4678   */\n      tag_218\n      jumpi\n        /* \"#utility.yul\":4597:4676   */\n      tag_219\n      tag_122\n      jump\t// in\n    tag_219:\n        /* \"#utility.yul\":4556:4678   */\n    tag_218:\n        /* \"#utility.yul\":4714:4720   */\n      dup2\n        /* \"#utility.yul\":4701:4721   */\n      calldataload\n        /* \"#utility.yul\":4739:4818   */\n      tag_220\n        /* \"#utility.yul\":4814:4817   */\n      dup5\n        /* \"#utility.yul\":4806:4812   */\n      dup3\n        /* \"#utility.yul\":4799:4803   */\n      0x20\n        /* \"#utility.yul\":4791:4797   */\n      dup7\n        /* \"#utility.yul\":4787:4804   */\n      add\n        /* \"#utility.yul\":4739:4818   */\n      tag_129\n      jump\t// in\n    tag_220:\n        /* \"#utility.yul\":4730:4818   */\n      swap2\n      pop\n        /* \"#utility.yul\":4546:4824   */\n      pop\n        /* \"#utility.yul\":4484:4824   */\n      swap3\n      swap2\n      pop\n      pop\n      jump\t// out\n        /* \"#utility.yul\":4830:5339   */\n    tag_25:\n        /* \"#utility.yul\":4899:4905   */\n      0x00\n        /* \"#utility.yul\":4948:4950   */\n      0x20\n        /* \"#utility.yul\":4936:4945   */\n      dup3\n        /* \"#utility.yul\":4927:4934   */\n      dup5\n        /* \"#utility.yul\":4923:4946   */\n      sub\n        /* \"#utility.yul\":4919:4951   */\n      slt\n        /* \"#utility.yul\":4916:5035   */\n      iszero\n      tag_222\n      jumpi\n        /* \"#utility.yul\":4954:5033   */\n      tag_223\n      tag_113\n      jump\t// in\n    tag_223:\n        /* \"#utility.yul\":4916:5035   */\n    tag_222:\n        /* \"#utility.yul\":5102:5103   */\n      0x00\n        /* \"#utility.yul\":5091:5100   */\n      dup3\n        /* \"#utility.yul\":5087:5104   */\n      add\n        /* \"#utility.yul\":5074:5105   */\n      calldataload\n        /* \"#utility.yul\":5132:5150   */\n      0xffffffffffffffff\n        /* \"#utility.yul\":5124:5130   */\n      dup2\n        /* \"#utility.yul\":5121:5151   */\n      gt\n        /* \"#utility.yul\":5118:5235   */\n      iszero\n      tag_224\n      jumpi\n        /* \"#utility.yul\":5154:5233   */\n      tag_225\n      tag_114\n      jump\t// in\n    tag_225:\n        /* \"#utility.yul\":5118:5235   */\n    tag_224:\n        /* \"#utility.yul\":5259:5322   */\n      tag_226\n        /* \"#utility.yul\":5314:5321   */\n      dup5\n        /* \"#utility.yul\":5305:5311   */\n      dup3\n        /* \"#utility.yul\":5294:5303   */\n      dup6\n        /* \"#utility.yul\":5290:5312   */\n      add\n        /* \"#utility.yul\":5259:5322   */\n      tag_130\n      jump\t// in\n    tag_226:\n        /* \"#utility.yul\":5249:5322   */\n      swap2\n      pop\n        /* \"#utility.yul\":5045:5332   */\n      pop\n        /* \"#utility.yul\":4830:5339   */\n      swap3\n      swap2\n      pop\n      pop\n      jump\t// out\n        /* \"#utility.yul\":5345:5471   */\n    tag_131:\n        /* \"#utility.yul\":5382:5389   */\n      0x00\n        /* \"#utility.yul\":5422:5464   */\n      0xffffffffffffffffffffffffffffffffffffffff\n        /* \"#utility.yul\":5415:5420   */\n      dup3\n        /* \"#utility.yul\":5411:5465   */\n      and\n        /* \"#utility.yul\":5400:5465   */\n      swap1\n      pop\n        /* \"#utility.yul\":5345:5471   */\n      swap2\n      swap1\n      pop\n      jump\t// out\n        /* \"#utility.yul\":5477:5573   */\n    tag_132:\n        /* \"#utility.yul\":5514:5521   */\n      0x00\n        /* \"#utility.yul\":5543:5567   */\n      tag_229\n        /* \"#utility.yul\":5561:5566   */\n      dup3\n        /* \"#utility.yul\":5543:5567   */\n      tag_131\n      jump\t// in\n    tag_229:\n        /* \"#utility.yul\":5532:5567   */\n      swap1\n      pop\n        /* \"#utility.yul\":5477:5573   */\n      swap2\n      swap1\n      pop\n      jump\t// out\n        /* \"#utility.yul\":5579:5697   */\n    tag_133:\n        /* \"#utility.yul\":5666:5690   */\n      tag_231\n        /* \"#utility.yul\":5684:5689   */\n      dup2\n        /* \"#utility.yul\":5666:5690   */\n      tag_132\n      jump\t// in\n    tag_231:\n        /* \"#utility.yul\":5661:5664   */\n      dup3\n        /* \"#utility.yul\":5654:5691   */\n      mstore\n        /* \"#utility.yul\":5579:5697   */\n      pop\n      pop\n      jump\t// out\n        /* \"#utility.yul\":5703:5925   */\n    tag_34:\n        /* \"#utility.yul\":5796:5800   */\n      0x00\n        /* \"#utility.yul\":5834:5836   */\n      0x20\n        /* \"#utility.yul\":5823:5832   */\n      dup3\n        /* \"#utility.yul\":5819:5837   */\n      add\n        /* \"#utility.yul\":5811:5837   */\n      swap1\n      pop\n        /* \"#utility.yul\":5847:5918   */\n      tag_233\n        /* \"#utility.yul\":5915:5916   */\n      0x00\n        /* \"#utility.yul\":5904:5913   */\n      dup4\n        /* \"#utility.yul\":5900:5917   */\n      add\n        /* \"#utility.yul\":5891:5897   */\n      dup5\n        /* \"#utility.yul\":5847:5918   */\n      tag_133\n      jump\t// in\n    tag_233:\n        /* \"#utility.yul\":5703:5925   */\n      swap3\n      swap2\n      pop\n      pop\n      jump\t// out\n        /* \"#utility.yul\":5931:6021   */\n    tag_134:\n        /* \"#utility.yul\":5965:5972   */\n      0x00\n        /* \"#utility.yul\":6008:6013   */\n      dup2\n        /* \"#utility.yul\":6001:6014   */\n      iszero\n        /* \"#utility.yul\":5994:6015   */\n      iszero\n        /* \"#utility.yul\":5983:6015   */\n      swap1\n      pop\n        /* \"#utility.yul\":5931:6021   */\n      swap2\n      swap1\n      pop\n      jump\t// out\n        /* \"#utility.yul\":6027:6136   */\n    tag_135:\n        /* \"#utility.yul\":6108:6129   */\n      tag_236\n        /* \"#utility.yul\":6123:6128   */\n      dup2\n        /* \"#utility.yul\":6108:6129   */\n      tag_134\n      jump\t// in\n    tag_236:\n        /* \"#utility.yul\":6103:6106   */\n      dup3\n        /* \"#utility.yul\":6096:6130   */\n      mstore\n        /* \"#utility.yul\":6027:6136   */\n      pop\n      pop\n      jump\t// out\n        /* \"#utility.yul\":6142:6352   */\n    tag_39:\n        /* \"#utility.yul\":6229:6233   */\n      0x00\n        /* \"#utility.yul\":6267:6269   */\n      0x20\n        /* \"#utility.yul\":6256:6265   */\n      dup3\n        /* \"#utility.yul\":6252:6270   */\n      add\n        /* \"#utility.yul\":6244:6270   */\n      swap1\n      pop\n        /* \"#utility.yul\":6280:6345   */\n      tag_238\n        /* \"#utility.yul\":6342:6343   */\n      0x00\n        /* \"#utility.yul\":6331:6340   */\n      dup4\n        /* \"#utility.yul\":6327:6344   */\n      add\n        /* \"#utility.yul\":6318:6324   */\n      dup5\n        /* \"#utility.yul\":6280:6345   */\n      tag_135\n      jump\t// in\n    tag_238:\n        /* \"#utility.yul\":6142:6352   */\n      swap3\n      swap2\n      pop\n      pop\n      jump\t// out\n        /* \"#utility.yul\":6358:6538   */\n    tag_136:\n        /* \"#utility.yul\":6406:6483   */\n      0x4e487b7100000000000000000000000000000000000000000000000000000000\n        /* \"#utility.yul\":6403:6404   */\n      0x00\n        /* \"#utility.yul\":6396:6484   */\n      mstore\n        /* \"#utility.yul\":6503:6507   */\n      0x22\n        /* \"#utility.yul\":6500:6501   */\n      0x04\n        /* \"#utility.yul\":6493:6508   */\n      mstore\n        /* \"#utility.yul\":6527:6531   */\n      0x24\n        /* \"#utility.yul\":6524:6525   */\n      0x00\n        /* \"#utility.yul\":6517:6532   */\n      revert\n        /* \"#utility.yul\":6544:6864   */\n    tag_52:\n        /* \"#utility.yul\":6588:6594   */\n      0x00\n        /* \"#utility.yul\":6625:6626   */\n      0x02\n        /* \"#utility.yul\":6619:6623   */\n      dup3\n        /* \"#utility.yul\":6615:6627   */\n      div\n        /* \"#utility.yul\":6605:6627   */\n      swap1\n      pop\n        /* \"#utility.yul\":6672:6673   */\n      0x01\n        /* \"#utility.yul\":6666:6670   */\n      dup3\n        /* \"#utility.yul\":6662:6674   */\n      and\n        /* \"#utility.yul\":6693:6711   */\n      dup1\n        /* \"#utility.yul\":6683:6764   */\n      tag_241\n      jumpi\n        /* \"#utility.yul\":6749:6753   */\n      0x7f\n        /* \"#utility.yul\":6741:6747   */\n      dup3\n        /* \"#utility.yul\":6737:6754   */\n      and\n        /* \"#utility.yul\":6727:6754   */\n      swap2\n      pop\n        /* \"#utility.yul\":6683:6764   */\n    tag_241:\n        /* \"#utility.yul\":6811:6813   */\n      0x20\n        /* \"#utility.yul\":6803:6809   */\n      dup3\n        /* \"#utility.yul\":6800:6814   */\n      lt\n        /* \"#utility.yul\":6780:6798   */\n      dup2\n        /* \"#utility.yul\":6777:6815   */\n      sub\n        /* \"#utility.yul\":6774:6858   */\n      tag_242\n      jumpi\n        /* \"#utility.yul\":6830:6848   */\n      tag_243\n      tag_136\n      jump\t// in\n    tag_243:\n        /* \"#utility.yul\":6774:6858   */\n    tag_242:\n        /* \"#utility.yul\":6595:6864   */\n      pop\n        /* \"#utility.yul\":6544:6864   */\n      swap2\n      swap1\n      pop\n      jump\t// out\n        /* \"#utility.yul\":6870:7090   */\n    tag_137:\n        /* \"#utility.yul\":7010:7044   */\n      0x4f6e6c79206f776e65722063616e2063616c6c20746869732066756e6374696f\n        /* \"#utility.yul\":7006:7007   */\n      0x00\n        /* \"#utility.yul\":6998:7004   */\n      dup3\n        /* \"#utility.yul\":6994:7008   */\n      add\n        /* \"#utility.yul\":6987:7045   */\n      mstore\n        /* \"#utility.yul\":7079:7082   */\n      0x6e00000000000000000000000000000000000000000000000000000000000000\n        /* \"#utility.yul\":7074:7076   */\n      0x20\n        /* \"#utility.yul\":7066:7072   */\n      dup3\n        /* \"#utility.yul\":7062:7077   */\n      add\n        /* \"#utility.yul\":7055:7083   */\n      mstore\n        /* \"#utility.yul\":6870:7090   */\n      pop\n      jump\t// out\n        /* \"#utility.yul\":7096:7462   */\n    tag_138:\n        /* \"#utility.yul\":7238:7241   */\n      0x00\n        /* \"#utility.yul\":7259:7326   */\n      tag_246\n        /* \"#utility.yul\":7323:7325   */\n      0x21\n        /* \"#utility.yul\":7318:7321   */\n      dup4\n        /* \"#utility.yul\":7259:7326   */\n      tag_118\n      jump\t// in\n    tag_246:\n        /* \"#utility.yul\":7252:7326   */\n      swap2\n      pop\n        /* \"#utility.yul\":7335:7428   */\n      tag_247\n        /* \"#utility.yul\":7424:7427   */\n      dup3\n        /* \"#utility.yul\":7335:7428   */\n      tag_137\n      jump\t// in\n    tag_247:\n        /* \"#utility.yul\":7453:7455   */\n      0x40\n        /* \"#utility.yul\":7448:7451   */\n      dup3\n        /* \"#utility.yul\":7444:7456   */\n      add\n        /* \"#utility.yul\":7437:7456   */\n      swap1\n      pop\n        /* \"#utility.yul\":7096:7462   */\n      swap2\n      swap1\n      pop\n      jump\t// out\n        /* \"#utility.yul\":7468:7887   */\n    tag_60:\n        /* \"#utility.yul\":7634:7638   */\n      0x00\n        /* \"#utility.yul\":7672:7674   */\n      0x20\n        /* \"#utility.yul\":7661:7670   */\n      dup3\n        /* \"#utility.yul\":7657:7675   */\n      add\n        /* \"#utility.yul\":7649:7675   */\n      swap1\n      pop\n        /* \"#utility.yul\":7721:7730   */\n      dup2\n        /* \"#utility.yul\":7715:7719   */\n      dup2\n        /* \"#utility.yul\":7711:7731   */\n      sub\n        /* \"#utility.yul\":7707:7708   */\n      0x00\n        /* \"#utility.yul\":7696:7705   */\n      dup4\n        /* \"#utility.yul\":7692:7709   */\n      add\n        /* \"#utility.yul\":7685:7732   */\n      mstore\n        /* \"#utility.yul\":7749:7880   */\n      tag_249\n        /* \"#utility.yul\":7875:7879   */\n      dup2\n        /* \"#utility.yul\":7749:7880   */\n      tag_138\n      jump\t// in\n    tag_249:\n        /* \"#utility.yul\":7741:7880   */\n      swap1\n      pop\n        /* \"#utility.yul\":7468:7887   */\n      swap2\n      swap1\n      pop\n      jump\t// out\n        /* \"#utility.yul\":7893:8073   */\n    tag_139:\n        /* \"#utility.yul\":8033:8065   */\n      0x43616e646964617465206e616d652063616e6e6f7420626520656d7074790000\n        /* \"#utility.yul\":8029:8030   */\n      0x00\n        /* \"#utility.yul\":8021:8027   */\n      dup3\n        /* \"#utility.yul\":8017:8031   */\n      add\n        /* \"#utility.yul\":8010:8066   */\n      mstore\n        /* \"#utility.yul\":7893:8073   */\n      pop\n      jump\t// out\n        /* \"#utility.yul\":8079:8445   */\n    tag_140:\n        /* \"#utility.yul\":8221:8224   */\n      0x00\n        /* \"#utility.yul\":8242:8309   */\n      tag_252\n        /* \"#utility.yul\":8306:8308   */\n      0x1e\n        /* \"#utility.yul\":8301:8304   */\n      dup4\n        /* \"#utility.yul\":8242:8309   */\n      tag_118\n      jump\t// in\n    tag_252:\n        /* \"#utility.yul\":8235:8309   */\n      swap2\n      pop\n        /* \"#utility.yul\":8318:8411   */\n      tag_253\n        /* \"#utility.yul\":8407:8410   */\n      dup3\n        /* \"#utility.yul\":8318:8411   */\n      tag_139\n      jump\t// in\n    tag_253:\n        /* \"#utility.yul\":8436:8438   */\n      0x20\n        /* \"#utility.yul\":8431:8434   */\n      dup3\n        /* \"#utility.yul\":8427:8439   */\n      add\n        /* \"#utility.yul\":8420:8439   */\n      swap1\n      pop\n        /* \"#utility.yul\":8079:8445   */\n      swap2\n      swap1\n      pop\n      jump\t// out\n        /* \"#utility.yul\":8451:8870   */\n    tag_64:\n        /* \"#utility.yul\":8617:8621   */\n      0x00\n        /* \"#utility.yul\":8655:8657   */\n      0x20\n        /* \"#utility.yul\":8644:8653   */\n      dup3\n        /* \"#utility.yul\":8640:8658   */\n      add\n        /* \"#utility.yul\":8632:8658   */\n      swap1\n      pop\n        /* \"#utility.yul\":8704:8713   */\n      dup2\n        /* \"#utility.yul\":8698:8702   */\n      dup2\n        /* \"#utility.yul\":8694:8714   */\n      sub\n        /* \"#utility.yul\":8690:8691   */\n      0x00\n        /* \"#utility.yul\":8679:8688   */\n      dup4\n        /* \"#utility.yul\":8675:8692   */\n      add\n        /* \"#utility.yul\":8668:8715   */\n      mstore\n        /* \"#utility.yul\":8732:8863   */\n      tag_255\n        /* \"#utility.yul\":8858:8862   */\n      dup2\n        /* \"#utility.yul\":8732:8863   */\n      tag_140\n      jump\t// in\n    tag_255:\n        /* \"#utility.yul\":8724:8863   */\n      swap1\n      pop\n        /* \"#utility.yul\":8451:8870   */\n      swap2\n      swap1\n      pop\n      jump\t// out\n        /* \"#utility.yul\":8876:9024   */\n    tag_141:\n        /* \"#utility.yul\":8978:8989   */\n      0x00\n        /* \"#utility.yul\":9015:9018   */\n      dup2\n        /* \"#utility.yul\":9000:9018   */\n      swap1\n      pop\n        /* \"#utility.yul\":8876:9024   */\n      swap3\n      swap2\n      pop\n      pop\n      jump\t// out\n        /* \"#utility.yul\":9030:9420   */\n    tag_142:\n        /* \"#utility.yul\":9136:9139   */\n      0x00\n        /* \"#utility.yul\":9164:9203   */\n      tag_258\n        /* \"#utility.yul\":9197:9202   */\n      dup3\n        /* \"#utility.yul\":9164:9203   */\n      tag_117\n      jump\t// in\n    tag_258:\n        /* \"#utility.yul\":9219:9308   */\n      tag_259\n        /* \"#utility.yul\":9301:9307   */\n      dup2\n        /* \"#utility.yul\":9296:9299   */\n      dup6\n        /* \"#utility.yul\":9219:9308   */\n      tag_141\n      jump\t// in\n    tag_259:\n        /* \"#utility.yul\":9212:9308   */\n      swap4\n      pop\n        /* \"#utility.yul\":9317:9382   */\n      tag_260\n        /* \"#utility.yul\":9375:9381   */\n      dup2\n        /* \"#utility.yul\":9370:9373   */\n      dup6\n        /* \"#utility.yul\":9363:9367   */\n      0x20\n        /* \"#utility.yul\":9356:9361   */\n      dup7\n        /* \"#utility.yul\":9352:9368   */\n      add\n        /* \"#utility.yul\":9317:9382   */\n      tag_119\n      jump\t// in\n    tag_260:\n        /* \"#utility.yul\":9407:9413   */\n      dup1\n        /* \"#utility.yul\":9402:9405   */\n      dup5\n        /* \"#utility.yul\":9398:9414   */\n      add\n        /* \"#utility.yul\":9391:9414   */\n      swap2\n      pop\n        /* \"#utility.yul\":9140:9420   */\n      pop\n        /* \"#utility.yul\":9030:9420   */\n      swap3\n      swap2\n      pop\n      pop\n      jump\t// out\n        /* \"#utility.yul\":9426:9701   */\n    tag_66:\n        /* \"#utility.yul\":9558:9561   */\n      0x00\n        /* \"#utility.yul\":9580:9675   */\n      tag_262\n        /* \"#utility.yul\":9671:9674   */\n      dup3\n        /* \"#utility.yul\":9662:9668   */\n      dup5\n        /* \"#utility.yul\":9580:9675   */\n      tag_142\n      jump\t// in\n    tag_262:\n        /* \"#utility.yul\":9573:9675   */\n      swap2\n      pop\n        /* \"#utility.yul\":9692:9695   */\n      dup2\n        /* \"#utility.yul\":9685:9695   */\n      swap1\n      pop\n        /* \"#utility.yul\":9426:9701   */\n      swap3\n      swap2\n      pop\n      pop\n      jump\t// out\n        /* \"#utility.yul\":9707:9881   */\n    tag_143:\n        /* \"#utility.yul\":9847:9873   */\n      0x43616e64696461746520616c7265616479206578697374730000000000000000\n        /* \"#utility.yul\":9843:9844   */\n      0x00\n        /* \"#utility.yul\":9835:9841   */\n      dup3\n        /* \"#utility.yul\":9831:9845   */\n      add\n        /* \"#utility.yul\":9824:9874   */\n      mstore\n        /* \"#utility.yul\":9707:9881   */\n      pop\n      jump\t// out\n        /* \"#utility.yul\":9887:10253   */\n    tag_144:\n        /* \"#utility.yul\":10029:10032   */\n      0x00\n        /* \"#utility.yul\":10050:10117   */\n      tag_265\n        /* \"#utility.yul\":10114:10116   */\n      0x18\n        /* \"#utility.yul\":10109:10112   */\n      dup4\n        /* \"#utility.yul\":10050:10117   */\n      tag_118\n      jump\t// in\n    tag_265:\n        /* \"#utility.yul\":10043:10117   */\n      swap2\n      pop\n        /* \"#utility.yul\":10126:10219   */\n      tag_266\n        /* \"#utility.yul\":10215:10218   */\n      dup3\n        /* \"#utility.yul\":10126:10219   */\n      tag_143\n      jump\t// in\n    tag_266:\n        /* \"#utility.yul\":10244:10246   */\n      0x20\n        /* \"#utility.yul\":10239:10242   */\n      dup3\n        /* \"#utility.yul\":10235:10247   */\n      add\n        /* \"#utility.yul\":10228:10247   */\n      swap1\n      pop\n        /* \"#utility.yul\":9887:10253   */\n      swap2\n      swap1\n      pop\n      jump\t// out\n        /* \"#utility.yul\":10259:10678   */\n    tag_69:\n        /* \"#utility.yul\":10425:10429   */\n      0x00\n        /* \"#utility.yul\":10463:10465   */\n      0x20\n        /* \"#utility.yul\":10452:10461   */\n      dup3\n        /* \"#utility.yul\":10448:10466   */\n      add\n        /* \"#utility.yul\":10440:10466   */\n      swap1\n      pop\n        /* \"#utility.yul\":10512:10521   */\n      dup2\n        /* \"#utility.yul\":10506:10510   */\n      dup2\n        /* \"#utility.yul\":10502:10522   */\n      sub\n        /* \"#utility.yul\":10498:10499   */\n      0x00\n        /* \"#utility.yul\":10487:10496   */\n      dup4\n        /* \"#utility.yul\":10483:10500   */\n      add\n        /* \"#utility.yul\":10476:10523   */\n      mstore\n        /* \"#utility.yul\":10540:10671   */\n      tag_268\n        /* \"#utility.yul\":10666:10670   */\n      dup2\n        /* \"#utility.yul\":10540:10671   */\n      tag_144\n      jump\t// in\n    tag_268:\n        /* \"#utility.yul\":10532:10671   */\n      swap1\n      pop\n        /* \"#utility.yul\":10259:10678   */\n      swap2\n      swap1\n      pop\n      jump\t// out\n        /* \"#utility.yul\":10684:10825   */\n    tag_145:\n        /* \"#utility.yul\":10733:10737   */\n      0x00\n        /* \"#utility.yul\":10756:10759   */\n      dup2\n        /* \"#utility.yul\":10748:10759   */\n      swap1\n      pop\n        /* \"#utility.yul\":10779:10782   */\n      dup2\n        /* \"#utility.yul\":10776:10777   */\n      0x00\n        /* \"#utility.yul\":10769:10783   */\n      mstore\n        /* \"#utility.yul\":10813:10817   */\n      0x20\n        /* \"#utility.yul\":10810:10811   */\n      0x00\n        /* \"#utility.yul\":10800:10818   */\n      keccak256\n        /* \"#utility.yul\":10792:10818   */\n      swap1\n      pop\n        /* \"#utility.yul\":10684:10825   */\n      swap2\n      swap1\n      pop\n      jump\t// out\n        /* \"#utility.yul\":10831:10924   */\n    tag_146:\n        /* \"#utility.yul\":10868:10874   */\n      0x00\n        /* \"#utility.yul\":10915:10917   */\n      0x20\n        /* \"#utility.yul\":10910:10912   */\n      0x1f\n        /* \"#utility.yul\":10903:10908   */\n      dup4\n        /* \"#utility.yul\":10899:10913   */\n      add\n        /* \"#utility.yul\":10895:10918   */\n      div\n        /* \"#utility.yul\":10885:10918   */\n      swap1\n      pop\n        /* \"#utility.yul\":10831:10924   */\n      swap2\n      swap1\n      pop\n      jump\t// out\n        /* \"#utility.yul\":10930:11037   */\n    tag_147:\n        /* \"#utility.yul\":10974:10982   */\n      0x00\n        /* \"#utility.yul\":11024:11029   */\n      dup3\n        /* \"#utility.yul\":11018:11022   */\n      dup3\n        /* \"#utility.yul\":11014:11030   */\n      shl\n        /* \"#utility.yul\":10993:11030   */\n      swap1\n      pop\n        /* \"#utility.yul\":10930:11037   */\n      swap3\n      swap2\n      pop\n      pop\n      jump\t// out\n        /* \"#utility.yul\":11043:11436   */\n    tag_148:\n        /* \"#utility.yul\":11112:11118   */\n      0x00\n        /* \"#utility.yul\":11162:11163   */\n      0x08\n        /* \"#utility.yul\":11150:11160   */\n      dup4\n        /* \"#utility.yul\":11146:11164   */\n      mul\n        /* \"#utility.yul\":11185:11282   */\n      tag_273\n        /* \"#utility.yul\":11215:11281   */\n      0xffffffffffffffffffffffffffffffffffffffffffffffffffffffffffffffff\n        /* \"#utility.yul\":11204:11213   */\n      dup3\n        /* \"#utility.yul\":11185:11282   */\n      tag_147\n      jump\t// in\n    tag_273:\n        /* \"#utility.yul\":11303:11342   */\n      tag_274\n        /* \"#utility.yul\":11333:11341   */\n      dup7\n        /* \"#utility.yul\":11322:11331   */\n      dup4\n        /* \"#utility.yul\":11303:11342   */\n      tag_147\n      jump\t// in\n    tag_274:\n        /* \"#utility.yul\":11291:11342   */\n      swap6\n      pop\n        /* \"#utility.yul\":11375:11379   */\n      dup1\n        /* \"#utility.yul\":11371:11380   */\n      not\n        /* \"#utility.yul\":11364:11369   */\n      dup5\n        /* \"#utility.yul\":11360:11381   */\n      and\n        /* \"#utility.yul\":11351:11381   */\n      swap4\n      pop\n        /* \"#utility.yul\":11424:11428   */\n      dup1\n        /* \"#utility.yul\":11414:11422   */\n      dup7\n        /* \"#utility.yul\":11410:11429   */\n      and\n        /* \"#utility.yul\":11403:11408   */\n      dup5\n        /* \"#utility.yul\":11400:11430   */\n      or\n        /* \"#utility.yul\":11390:11430   */\n      swap3\n      pop\n        /* \"#utility.yul\":11119:11436   */\n      pop\n      pop\n        /* \"#utility.yul\":11043:11436   */\n      swap4\n      swap3\n      pop\n      pop\n      pop\n      jump\t// out\n        /* \"#utility.yul\":11442:11502   */\n    tag_149:\n        /* \"#utility.yul\":11470:11473   */\n      0x00\n        /* \"#utility.yul\":11491:11496   */\n      dup2\n        /* \"#utility.yul\":11484:11496   */\n      swap1\n      pop\n        /* \"#utility.yul\":11442:11502   */\n      swap2\n      swap1\n      pop\n      jump\t// out\n        /* \"#utility.yul\":11508:11650   */\n    tag_150:\n        /* \"#utility.yul\":11558:11567   */\n      0x00\n        /* \"#utility.yul\":11591:11644   */\n      tag_277\n        /* \"#utility.yul\":11609:11643   */\n      tag_278\n        /* \"#utility.yul\":11618:11642   */\n      tag_279\n        /* \"#utility.yul\":11636:11641   */\n      dup5\n        /* \"#utility.yul\":11618:11642   */\n      tag_110\n      jump\t// in\n    tag_279:\n        /* \"#utility.yul\":11609:11643   */\n      tag_149\n      jump\t// in\n    tag_278:\n        /* \"#utility.yul\":11591:11644   */\n      tag_110\n      jump\t// in\n    tag_277:\n        /* \"#utility.yul\":11578:11644   */\n      swap1\n      pop\n        /* \"#utility.yul\":11508:11650   */\n      swap2\n      swap1\n      pop\n      jump\t// out\n        /* \"#utility.yul\":11656:11731   */\n    tag_151:\n        /* \"#utility.yul\":11699:11702   */\n      0x00\n        /* \"#utility.yul\":11720:11725   */\n      dup2\n        /* \"#utility.yul\":11713:11725   */\n      swap1\n      pop\n        /* \"#utility.yul\":11656:11731   */\n      swap2\n      swap1\n      pop\n      jump\t// out\n        /* \"#utility.yul\":11737:12006   */\n    tag_152:\n        /* \"#utility.yul\":11847:11886   */\n      tag_282\n        /* \"#utility.yul\":11878:11885   */\n      dup4\n        /* \"#utility.yul\":11847:11886   */\n      tag_150\n      jump\t// in\n    tag_282:\n        /* \"#utility.yul\":11908:11999   */\n      tag_283\n        /* \"#utility.yul\":11957:11998   */\n      tag_284\n        /* \"#utility.yul\":11981:11997   */\n      dup3\n        /* \"#utility.yul\":11957:11998   */\n      tag_151\n      jump\t// in\n    tag_284:\n        /* \"#utility.yul\":11949:11955   */\n      dup5\n        /* \"#utility.yul\":11942:11946   */\n      dup5\n        /* \"#utility.yul\":11936:11947   */\n      sload\n        /* \"#utility.yul\":11908:11999   */\n      tag_148\n      jump\t// in\n    tag_283:\n        /* \"#utility.yul\":11902:11906   */\n      dup3\n        /* \"#utility.yul\":11895:12000   */\n      sstore\n        /* \"#utility.yul\":11813:12006   */\n      pop\n        /* \"#utility.yul\":11737:12006   */\n      pop\n      pop\n      pop\n      jump\t// out\n        /* \"#utility.yul\":12012:12085   */\n    tag_153:\n        /* \"#utility.yul\":12057:12060   */\n      0x00\n        /* \"#utility.yul\":12012:12085   */\n      swap1\n      jump\t// out\n        /* \"#utility.yul\":12091:12280   */\n    tag_154:\n        /* \"#utility.yul\":12168:12200   */\n      tag_287\n      tag_153\n      jump\t// in\n    tag_287:\n        /* \"#utility.yul\":12209:12274   */\n      tag_288\n        /* \"#utility.yul\":12267:12273   */\n      dup2\n        /* \"#utility.yul\":12259:12265   */\n      dup5\n        /* \"#utility.yul\":12253:12257   */\n      dup5\n        /* \"#utility.yul\":12209:12274   */\n      tag_152\n      jump\t// in\n    tag_288:\n        /* \"#utility.yul\":12144:12280   */\n      pop\n        /* \"#utility.yul\":12091:12280   */\n      pop\n      pop\n      jump\t// out\n        /* \"#utility.yul\":12286:12472   */\n    tag_155:\n        /* \"#utility.yul\":12346:12466   */\n    tag_290:\n        /* \"#utility.yul\":12363:12366   */\n      dup2\n        /* \"#utility.yul\":12356:12361   */\n      dup2\n        /* \"#utility.yul\":12353:12367   */\n      lt\n        /* \"#utility.yul\":12346:12466   */\n      iszero\n      tag_292\n      jumpi\n        /* \"#utility.yul\":12417:12456   */\n      tag_293\n        /* \"#utility.yul\":12454:12455   */\n      0x00\n        /* \"#utility.yul\":12447:12452   */\n      dup3\n        /* \"#utility.yul\":12417:12456   */\n      tag_154\n      jump\t// in\n    tag_293:\n        /* \"#utility.yul\":12390:12391   */\n      0x01\n        /* \"#utility.yul\":12383:12388   */\n      dup2\n        /* \"#utility.yul\":12379:12392   */\n      add\n        /* \"#utility.yul\":12370:12392   */\n      swap1\n      pop\n        /* \"#utility.yul\":12346:12466   */\n      jump(tag_290)\n    tag_292:\n        /* \"#utility.yul\":12286:12472   */\n      pop\n      pop\n      jump\t// out\n        /* \"#utility.yul\":12478:13021   */\n    tag_156:\n        /* \"#utility.yul\":12579:12581   */\n      0x1f\n        /* \"#utility.yul\":12574:12577   */\n      dup3\n        /* \"#utility.yul\":12571:12582   */\n      gt\n        /* \"#utility.yul\":12568:13014   */\n      iszero\n      tag_295\n      jumpi\n        /* \"#utility.yul\":12613:12651   */\n      tag_296\n        /* \"#utility.yul\":12645:12650   */\n      dup2\n        /* \"#utility.yul\":12613:12651   */\n      tag_145\n      jump\t// in\n    tag_296:\n        /* \"#utility.yul\":12697:12726   */\n      tag_297\n        /* \"#utility.yul\":12715:12725   */\n      dup5\n        /* \"#utility.yul\":12697:12726   */\n      tag_146\n      jump\t// in\n    tag_297:\n        /* \"#utility.yul\":12687:12695   */\n      dup2\n        /* \"#utility.yul\":12683:12727   */\n      add\n        /* \"#utility.yul\":12880:12882   */\n      0x20\n        /* \"#utility.yul\":12868:12878   */\n      dup6\n        /* \"#utility.yul\":12865:12883   */\n      lt\n        /* \"#utility.yul\":12862:12911   */\n      iszero\n      tag_298\n      jumpi\n        /* \"#utility.yul\":12901:12909   */\n      dup2\n        /* \"#utility.yul\":12886:12909   */\n      swap1\n      pop\n        /* \"#utility.yul\":12862:12911   */\n    tag_298:\n        /* \"#utility.yul\":12924:13004   */\n      tag_299\n        /* \"#utility.yul\":12980:13002   */\n      tag_300\n        /* \"#utility.yul\":12998:13001   */\n      dup6\n        /* \"#utility.yul\":12980:13002   */\n      tag_146\n      jump\t// in\n    tag_300:\n        /* \"#utility.yul\":12970:12978   */\n      dup4\n        /* \"#utility.yul\":12966:13003   */\n      add\n        /* \"#utility.yul\":12953:12964   */\n      dup3\n        /* \"#utility.yul\":12924:13004   */\n      tag_155\n      jump\t// in\n    tag_299:\n        /* \"#utility.yul\":12583:13014   */\n      pop\n      pop\n        /* \"#utility.yul\":12568:13014   */\n    tag_295:\n        /* \"#utility.yul\":12478:13021   */\n      pop\n      pop\n      pop\n      jump\t// out\n        /* \"#utility.yul\":13027:13144   */\n    tag_157:\n        /* \"#utility.yul\":13081:13089   */\n      0x00\n        /* \"#utility.yul\":13131:13136   */\n      dup3\n        /* \"#utility.yul\":13125:13129   */\n      dup3\n        /* \"#utility.yul\":13121:13137   */\n      shr\n        /* \"#utility.yul\":13100:13137   */\n      swap1\n      pop\n        /* \"#utility.yul\":13027:13144   */\n      swap3\n      swap2\n      pop\n      pop\n      jump\t// out\n        /* \"#utility.yul\":13150:13319   */\n    tag_158:\n        /* \"#utility.yul\":13194:13200   */\n      0x00\n        /* \"#utility.yul\":13227:13278   */\n      tag_303\n        /* \"#utility.yul\":13275:13276   */\n      0x00\n        /* \"#utility.yul\":13271:13277   */\n      not\n        /* \"#utility.yul\":13263:13268   */\n      dup5\n        /* \"#utility.yul\":13260:13261   */\n      0x08\n        /* \"#utility.yul\":13256:13269   */\n      mul\n        /* \"#utility.yul\":13227:13278   */\n      tag_157\n      jump\t// in\n    tag_303:\n        /* \"#utility.yul\":13223:13279   */\n      not\n        /* \"#utility.yul\":13308:13312   */\n      dup1\n        /* \"#utility.yul\":13302:13306   */\n      dup4\n        /* \"#utility.yul\":13298:13313   */\n      and\n        /* \"#utility.yul\":13288:13313   */\n      swap2\n      pop\n        /* \"#utility.yul\":13201:13319   */\n      pop\n        /* \"#utility.yul\":13150:13319   */\n      swap3\n      swap2\n      pop\n      pop\n      jump\t// out\n        /* \"#utility.yul\":13324:13619   */\n    tag_159:\n        /* \"#utility.yul\":13400:13404   */\n      0x00\n        /* \"#utility.yul\":13546:13575   */\n      tag_305\n        /* \"#utility.yul\":13571:13574   */\n      dup4\n        /* \"#utility.yul\":13565:13569   */\n      dup4\n        /* \"#utility.yul\":13546:13575   */\n      tag_158\n      jump\t// in\n    tag_305:\n        /* \"#utility.yul\":13538:13575   */\n      swap2\n      pop\n        /* \"#utility.yul\":13608:13611   */\n      dup3\n        /* \"#utility.yul\":13605:13606   */\n      0x02\n        /* \"#utility.yul\":13601:13612   */\n      mul\n        /* \"#utility.yul\":13595:13599   */\n      dup3\n        /* \"#utility.yul\":13592:13613   */\n      or\n        /* \"#utility.yul\":13584:13613   */\n      swap1\n      pop\n        /* \"#utility.yul\":13324:13619   */\n      swap3\n      swap2\n      pop\n      pop\n      jump\t// out\n        /* \"#utility.yul\":13624:15019   */\n    tag_72:\n        /* \"#utility.yul\":13741:13778   */\n      tag_307\n        /* \"#utility.yul\":13774:13777   */\n      dup3\n        /* \"#utility.yul\":13741:13778   */\n      tag_117\n      jump\t// in\n    tag_307:\n        /* \"#utility.yul\":13843:13861   */\n      0xffffffffffffffff\n        /* \"#utility.yul\":13835:13841   */\n      dup2\n        /* \"#utility.yul\":13832:13862   */\n      gt\n        /* \"#utility.yul\":13829:13885   */\n      iszero\n      tag_308\n      jumpi\n        /* \"#utility.yul\":13865:13883   */\n      tag_309\n      tag_124\n      jump\t// in\n    tag_309:\n        /* \"#utility.yul\":13829:13885   */\n    tag_308:\n        /* \"#utility.yul\":13909:13947   */\n      tag_310\n        /* \"#utility.yul\":13941:13945   */\n      dup3\n        /* \"#utility.yul\":13935:13946   */\n      sload\n        /* \"#utility.yul\":13909:13947   */\n      tag_52\n      jump\t// in\n    tag_310:\n        /* \"#utility.yul\":13994:14061   */\n      tag_311\n        /* \"#utility.yul\":14054:14060   */\n      dup3\n        /* \"#utility.yul\":14046:14052   */\n      dup3\n        /* \"#utility.yul\":14040:14044   */\n      dup6\n        /* \"#utility.yul\":13994:14061   */\n      tag_156\n      jump\t// in\n    tag_311:\n        /* \"#utility.yul\":14088:14089   */\n      0x00\n        /* \"#utility.yul\":14112:14116   */\n      0x20\n        /* \"#utility.yul\":14099:14116   */\n      swap1\n      pop\n        /* \"#utility.yul\":14144:14146   */\n      0x1f\n        /* \"#utility.yul\":14136:14142   */\n      dup4\n        /* \"#utility.yul\":14133:14147   */\n      gt\n        /* \"#utility.yul\":14161:14162   */\n      0x01\n        /* \"#utility.yul\":14156:14774   */\n      dup2\n      eq\n      tag_313\n      jumpi\n        /* \"#utility.yul\":14818:14819   */\n      0x00\n        /* \"#utility.yul\":14835:14841   */\n      dup5\n        /* \"#utility.yul\":14832:14909   */\n      iszero\n      tag_314\n      jumpi\n        /* \"#utility.yul\":14884:14893   */\n      dup3\n        /* \"#utility.yul\":14879:14882   */\n      dup8\n        /* \"#utility.yul\":14875:14894   */\n      add\n        /* \"#utility.yul\":14869:14895   */\n      mload\n        /* \"#utility.yul\":14860:14895   */\n      swap1\n      pop\n        /* \"#utility.yul\":14832:14909   */\n    tag_314:\n        /* \"#utility.yul\":14935:15002   */\n      tag_315\n        /* \"#utility.yul\":14995:15001   */\n      dup6\n        /* \"#utility.yul\":14988:14993   */\n      dup3\n        /* \"#utility.yul\":14935:15002   */\n      tag_159\n      jump\t// in\n    tag_315:\n        /* \"#utility.yul\":14929:14933   */\n      dup7\n        /* \"#utility.yul\":14922:15003   */\n      sstore\n        /* \"#utility.yul\":14791:15013   */\n      pop\n        /* \"#utility.yul\":14126:15013   */\n      jump(tag_312)\n        /* \"#utility.yul\":14156:14774   */\n    tag_313:\n        /* \"#utility.yul\":14208:14212   */\n      0x1f\n        /* \"#utility.yul\":14204:14213   */\n      not\n        /* \"#utility.yul\":14196:14202   */\n      dup5\n        /* \"#utility.yul\":14192:14214   */\n      and\n        /* \"#utility.yul\":14242:14279   */\n      tag_316\n        /* \"#utility.yul\":14274:14278   */\n      dup7\n        /* \"#utility.yul\":14242:14279   */\n      tag_145\n      jump\t// in\n    tag_316:\n        /* \"#utility.yul\":14301:14302   */\n      0x00\n        /* \"#utility.yul\":14315:14523   */\n    tag_317:\n        /* \"#utility.yul\":14329:14336   */\n      dup3\n        /* \"#utility.yul\":14326:14327   */\n      dup2\n        /* \"#utility.yul\":14323:14337   */\n      lt\n        /* \"#utility.yul\":14315:14523   */\n      iszero\n      tag_319\n      jumpi\n        /* \"#utility.yul\":14408:14417   */\n      dup5\n        /* \"#utility.yul\":14403:14406   */\n      dup10\n        /* \"#utility.yul\":14399:14418   */\n      add\n        /* \"#utility.yul\":14393:14419   */\n      mload\n        /* \"#utility.yul\":14385:14391   */\n      dup3\n        /* \"#utility.yul\":14378:14420   */\n      sstore\n        /* \"#utility.yul\":14459:14460   */\n      0x01\n        /* \"#utility.yul\":14451:14457   */\n      dup3\n        /* \"#utility.yul\":14447:14461   */\n      add\n        /* \"#utility.yul\":14437:14461   */\n      swap2\n      pop\n        /* \"#utility.yul\":14506:14508   */\n      0x20\n        /* \"#utility.yul\":14495:14504   */\n      dup6\n        /* \"#utility.yul\":14491:14509   */\n      add\n        /* \"#utility.yul\":14478:14509   */\n      swap5\n      pop\n        /* \"#utility.yul\":14352:14356   */\n      0x20\n        /* \"#utility.yul\":14349:14350   */\n      dup2\n        /* \"#utility.yul\":14345:14357   */\n      add\n        /* \"#utility.yul\":14340:14357   */\n      swap1\n      pop\n        /* \"#utility.yul\":14315:14523   */\n      jump(tag_317)\n    tag_319:\n        /* \"#utility.yul\":14551:14557   */\n      dup7\n        /* \"#utility.yul\":14542:14549   */\n      dup4\n        /* \"#utility.yul\":14539:14558   */\n      lt\n        /* \"#utility.yul\":14536:14715   */\n      iszero\n      tag_320\n      jumpi\n        /* \"#utility.yul\":14609:14618   */\n      dup5\n        /* \"#utility.yul\":14604:14607   */\n      dup10\n        /* \"#utility.yul\":14600:14619   */\n      add\n        /* \"#utility.yul\":14594:14620   */\n      mload\n        /* \"#utility.yul\":14652:14700   */\n      tag_321\n        /* \"#utility.yul\":14694:14698   */\n      0x1f\n        /* \"#utility.yul\":14686:14692   */\n      dup10\n        /* \"#utility.yul\":14682:14699   */\n      and\n        /* \"#utility.yul\":14671:14680   */\n      dup3\n        /* \"#utility.yul\":14652:14700   */\n      tag_158\n      jump\t// in\n    tag_321:\n        /* \"#utility.yul\":14644:14650   */\n      dup4\n        /* \"#utility.yul\":14637:14701   */\n      sstore\n        /* \"#utility.yul\":14559:14715   */\n      pop\n        /* \"#utility.yul\":14536:14715   */\n    tag_320:\n        /* \"#utility.yul\":14761:14762   */\n      0x01\n        /* \"#utility.yul\":14757:14758   */\n      0x02\n        /* \"#utility.yul\":14749:14755   */\n      dup9\n        /* \"#utility.yul\":14745:14759   */\n      mul\n        /* \"#utility.yul\":14741:14763   */\n      add\n        /* \"#utility.yul\":14735:14739   */\n      dup9\n        /* \"#utility.yul\":14728:14764   */\n      sstore\n        /* \"#utility.yul\":14163:14774   */\n      pop\n      pop\n      pop\n        /* \"#utility.yul\":14126:15013   */\n    tag_312:\n      pop\n        /* \"#utility.yul\":13716:15019   */\n      pop\n      pop\n      pop\n        /* \"#utility.yul\":13624:15019   */\n      pop\n      pop\n      jump\t// out\n        /* \"#utility.yul\":15025:15199   */\n    tag_160:\n        /* \"#utility.yul\":15165:15191   */\n      0x43616e64696461746520646f6573206e6f742065786973740000000000000000\n        /* \"#utility.yul\":15161:15162   */\n      0x00\n        /* \"#utility.yul\":15153:15159   */\n      dup3\n        /* \"#utility.yul\":15149:15163   */\n      add\n        /* \"#utility.yul\":15142:15192   */\n      mstore\n        /* \"#utility.yul\":15025:15199   */\n      pop\n      jump\t// out\n        /* \"#utility.yul\":15205:15571   */\n    tag_161:\n        /* \"#utility.yul\":15347:15350   */\n      0x00\n        /* \"#utility.yul\":15368:15435   */\n      tag_324\n        /* \"#utility.yul\":15432:15434   */\n      0x18\n        /* \"#utility.yul\":15427:15430   */\n      dup4\n        /* \"#utility.yul\":15368:15435   */\n      tag_118\n      jump\t// in\n    tag_324:\n        /* \"#utility.yul\":15361:15435   */\n      swap2\n      pop\n        /* \"#utility.yul\":15444:15537   */\n      tag_325\n        /* \"#utility.yul\":15533:15536   */\n      dup3\n        /* \"#utility.yul\":15444:15537   */\n      tag_160\n      jump\t// in\n    tag_325:\n        /* \"#utility.yul\":15562:15564   */\n      0x20\n        /* \"#utility.yul\":15557:15560   */\n      dup3\n        /* \"#utility.yul\":15553:15565   */\n      add\n        /* \"#utility.yul\":15546:15565   */\n      swap1\n      pop\n        /* \"#utility.yul\":15205:15571   */\n      swap2\n      swap1\n      pop\n      jump\t// out\n        /* \"#utility.yul\":15577:15996   */\n    tag_80:\n        /* \"#utility.yul\":15743:15747   */\n      0x00\n        /* \"#utility.yul\":15781:15783   */\n      0x20\n        /* \"#utility.yul\":15770:15779   */\n      dup3\n        /* \"#utility.yul\":15766:15784   */\n      add\n        /* \"#utility.yul\":15758:15784   */\n      swap1\n      pop\n        /* \"#utility.yul\":15830:15839   */\n      dup2\n        /* \"#utility.yul\":15824:15828   */\n      dup2\n        /* \"#utility.yul\":15820:15840   */\n      sub\n        /* \"#utility.yul\":15816:15817   */\n      0x00\n        /* \"#utility.yul\":15805:15814   */\n      dup4\n        /* \"#utility.yul\":15801:15818   */\n      add\n        /* \"#utility.yul\":15794:15841   */\n      mstore\n        /* \"#utility.yul\":15858:15989   */\n      tag_327\n        /* \"#utility.yul\":15984:15988   */\n      dup2\n        /* \"#utility.yul\":15858:15989   */\n      tag_161\n      jump\t// in\n    tag_327:\n        /* \"#utility.yul\":15850:15989   */\n      swap1\n      pop\n        /* \"#utility.yul\":15577:15996   */\n      swap2\n      swap1\n      pop\n      jump\t// out\n        /* \"#utility.yul\":16002:16182   */\n    tag_91:\n        /* \"#utility.yul\":16050:16127   */\n      0x4e487b7100000000000000000000000000000000000000000000000000000000\n        /* \"#utility.yul\":16047:16048   */\n      0x00\n        /* \"#utility.yul\":16040:16128   */\n      mstore\n        /* \"#utility.yul\":16147:16151   */\n      0x32\n        /* \"#utility.yul\":16144:16145   */\n      0x04\n        /* \"#utility.yul\":16137:16152   */\n      mstore\n        /* \"#utility.yul\":16171:16175   */\n      0x24\n        /* \"#utility.yul\":16168:16169   */\n      0x00\n        /* \"#utility.yul\":16161:16176   */\n      revert\n        /* \"#utility.yul\":16212:17086   */\n    tag_162:\n        /* \"#utility.yul\":16315:16318   */\n      0x00\n        /* \"#utility.yul\":16352:16357   */\n      dup2\n        /* \"#utility.yul\":16346:16358   */\n      sload\n        /* \"#utility.yul\":16381:16417   */\n      tag_330\n        /* \"#utility.yul\":16407:16416   */\n      dup2\n        /* \"#utility.yul\":16381:16417   */\n      tag_52\n      jump\t// in\n    tag_330:\n        /* \"#utility.yul\":16433:16522   */\n      tag_331\n        /* \"#utility.yul\":16515:16521   */\n      dup2\n        /* \"#utility.yul\":16510:16513   */\n      dup7\n        /* \"#utility.yul\":16433:16522   */\n      tag_141\n      jump\t// in\n    tag_331:\n        /* \"#utility.yul\":16426:16522   */\n      swap5\n      pop\n        /* \"#utility.yul\":16553:16554   */\n      0x01\n        /* \"#utility.yul\":16542:16551   */\n      dup3\n        /* \"#utility.yul\":16538:16555   */\n      and\n        /* \"#utility.yul\":16569:16570   */\n      0x00\n        /* \"#utility.yul\":16564:16730   */\n      dup2\n      eq\n      tag_333\n      jumpi\n        /* \"#utility.yul\":16744:16745   */\n      0x01\n        /* \"#utility.yul\":16739:17080   */\n      dup2\n      eq\n      tag_334\n      jumpi\n        /* \"#utility.yul\":16531:17080   */\n      jump(tag_332)\n        /* \"#utility.yul\":16564:16730   */\n    tag_333:\n        /* \"#utility.yul\":16648:16652   */\n      0xff\n        /* \"#utility.yul\":16644:16653   */\n      not\n        /* \"#utility.yul\":16633:16642   */\n      dup4\n        /* \"#utility.yul\":16629:16654   */\n      and\n        /* \"#utility.yul\":16624:16627   */\n      dup7\n        /* \"#utility.yul\":16617:16655   */\n      mstore\n        /* \"#utility.yul\":16710:16716   */\n      dup2\n        /* \"#utility.yul\":16703:16717   */\n      iszero\n        /* \"#utility.yul\":16696:16718   */\n      iszero\n        /* \"#utility.yul\":16688:16694   */\n      dup3\n        /* \"#utility.yul\":16684:16719   */\n      mul\n        /* \"#utility.yul\":16679:16682   */\n      dup7\n        /* \"#utility.yul\":16675:16720   */\n      add\n        /* \"#utility.yul\":16668:16720   */\n      swap4\n      pop\n        /* \"#utility.yul\":16564:16730   */\n      jump(tag_332)\n        /* \"#utility.yul\":16739:17080   */\n    tag_334:\n        /* \"#utility.yul\":16806:16844   */\n      tag_335\n        /* \"#utility.yul\":16838:16843   */\n      dup6\n        /* \"#utility.yul\":16806:16844   */\n      tag_145\n      jump\t// in\n    tag_335:\n        /* \"#utility.yul\":16866:16867   */\n      0x00\n        /* \"#utility.yul\":16880:17034   */\n    tag_336:\n        /* \"#utility.yul\":16894:16900   */\n      dup4\n        /* \"#utility.yul\":16891:16892   */\n      dup2\n        /* \"#utility.yul\":16888:16901   */\n      lt\n        /* \"#utility.yul\":16880:17034   */\n      iszero\n      tag_338\n      jumpi\n        /* \"#utility.yul\":16968:16975   */\n      dup2\n        /* \"#utility.yul\":16962:16976   */\n      sload\n        /* \"#utility.yul\":16958:16959   */\n      dup2\n        /* \"#utility.yul\":16953:16956   */\n      dup10\n        /* \"#utility.yul\":16949:16960   */\n      add\n        /* \"#utility.yul\":16942:16977   */\n      mstore\n        /* \"#utility.yul\":17018:17019   */\n      0x01\n        /* \"#utility.yul\":17009:17016   */\n      dup3\n        /* \"#utility.yul\":17005:17020   */\n      add\n        /* \"#utility.yul\":16994:17020   */\n      swap2\n      pop\n        /* \"#utility.yul\":16916:16920   */\n      0x20\n        /* \"#utility.yul\":16913:16914   */\n      dup2\n        /* \"#utility.yul\":16909:16921   */\n      add\n        /* \"#utility.yul\":16904:16921   */\n      swap1\n      pop\n        /* \"#utility.yul\":16880:17034   */\n      jump(tag_336)\n    tag_338:\n        /* \"#utility.yul\":17063:17069   */\n      dup4\n        /* \"#utility.yul\":17058:17061   */\n      dup9\n        /* \"#utility.yul\":17054:17070   */\n      add\n        /* \"#utility.yul\":17047:17070   */\n      swap6\n      pop\n        /* \"#utility.yul\":16746:17080   */\n      pop\n      pop\n        /* \"#utility.yul\":16531:17080   */\n    tag_332:\n      pop\n        /* \"#utility.yul\":16319:17086   */\n      pop\n      pop\n        /* \"#utility.yul\":16212:17086   */\n      swap3\n      swap2\n      pop\n      pop\n      jump\t// out\n        /* \"#utility.yul\":17092:17361   */\n    tag_94:\n        /* \"#utility.yul\":17221:17224   */\n      0x00\n        /* \"#utility.yul\":17243:17335   */\n      tag_340\n        /* \"#utility.yul\":17331:17334   */\n      dup3\n        /* \"#utility.yul\":17322:17328   */\n      dup5\n        /* \"#utility.yul\":17243:17335   */\n      tag_162\n      jump\t// in\n    tag_340:\n        /* \"#utility.yul\":17236:17335   */\n      swap2\n      pop\n        /* \"#utility.yul\":17352:17355   */\n      dup2\n        /* \"#utility.yul\":17345:17355   */\n      swap1\n      pop\n        /* \"#utility.yul\":17092:17361   */\n      swap3\n      swap2\n      pop\n      pop\n      jump\t// out\n        /* \"#utility.yul\":17367:17547   */\n    tag_163:\n        /* \"#utility.yul\":17415:17492   */\n      0x4e487b7100000000000000000000000000000000000000000000000000000000\n        /* \"#utility.yul\":17412:17413   */\n      0x00\n        /* \"#utility.yul\":17405:17493   */\n      mstore\n        /* \"#utility.yul\":17512:17516   */\n      0x11\n        /* \"#utility.yul\":17509:17510   */\n      0x04\n        /* \"#utility.yul\":17502:17517   */\n      mstore\n        /* \"#utility.yul\":17536:17540   */\n      0x24\n        /* \"#utility.yul\":17533:17534   */\n      0x00\n        /* \"#utility.yul\":17526:17541   */\n      revert\n        /* \"#utility.yul\":17553:17786   */\n    tag_96:\n        /* \"#utility.yul\":17592:17595   */\n      0x00\n        /* \"#utility.yul\":17615:17639   */\n      tag_343\n        /* \"#utility.yul\":17633:17638   */\n      dup3\n        /* \"#utility.yul\":17615:17639   */\n      tag_110\n      jump\t// in\n    tag_343:\n        /* \"#utility.yul\":17606:17639   */\n      swap2\n      pop\n        /* \"#utility.yul\":17661:17727   */\n      0xffffffffffffffffffffffffffffffffffffffffffffffffffffffffffffffff\n        /* \"#utility.yul\":17654:17659   */\n      dup3\n        /* \"#utility.yul\":17651:17728   */\n      sub\n        /* \"#utility.yul\":17648:17751   */\n      tag_344\n      jumpi\n        /* \"#utility.yul\":17731:17749   */\n      tag_345\n      tag_163\n      jump\t// in\n    tag_345:\n        /* \"#utility.yul\":17648:17751   */\n    tag_344:\n        /* \"#utility.yul\":17778:17779   */\n      0x01\n        /* \"#utility.yul\":17771:17776   */\n      dup3\n        /* \"#utility.yul\":17767:17780   */\n      add\n        /* \"#utility.yul\":17760:17780   */\n      swap1\n      pop\n        /* \"#utility.yul\":17553:17786   */\n      swap2\n      swap1\n      pop\n      jump\t// out\n        /* \"#utility.yul\":17792:18325   */\n    tag_109:\n        /* \"#utility.yul\":17961:17965   */\n      0x00\n        /* \"#utility.yul\":17999:18001   */\n      0x60\n        /* \"#utility.yul\":17988:17997   */\n      dup3\n        /* \"#utility.yul\":17984:18002   */\n      add\n        /* \"#utility.yul\":17976:18002   */\n      swap1\n      pop\n        /* \"#utility.yul\":18048:18057   */\n      dup2\n        /* \"#utility.yul\":18042:18046   */\n      dup2\n        /* \"#utility.yul\":18038:18058   */\n      sub\n        /* \"#utility.yul\":18034:18035   */\n      0x00\n        /* \"#utility.yul\":18023:18032   */\n      dup4\n        /* \"#utility.yul\":18019:18036   */\n      add\n        /* \"#utility.yul\":18012:18059   */\n      mstore\n        /* \"#utility.yul\":18076:18154   */\n      tag_347\n        /* \"#utility.yul\":18149:18153   */\n      dup2\n        /* \"#utility.yul\":18140:18146   */\n      dup7\n        /* \"#utility.yul\":18076:18154   */\n      tag_121\n      jump\t// in\n    tag_347:\n        /* \"#utility.yul\":18068:18154   */\n      swap1\n      pop\n        /* \"#utility.yul\":18164:18236   */\n      tag_348\n        /* \"#utility.yul\":18232:18234   */\n      0x20\n        /* \"#utility.yul\":18221:18230   */\n      dup4\n        /* \"#utility.yul\":18217:18235   */\n      add\n        /* \"#utility.yul\":18208:18214   */\n      dup6\n        /* \"#utility.yul\":18164:18236   */\n      tag_111\n      jump\t// in\n    tag_348:\n        /* \"#utility.yul\":18246:18318   */\n      tag_349\n        /* \"#utility.yul\":18314:18316   */\n      0x40\n        /* \"#utility.yul\":18303:18312   */\n      dup4\n        /* \"#utility.yul\":18299:18317   */\n      add\n        /* \"#utility.yul\":18290:18296   */\n      dup5\n        /* \"#utility.yul\":18246:18318   */\n      tag_133\n      jump\t// in\n    tag_349:\n        /* \"#utility.yul\":17792:18325   */\n      swap5\n      swap4\n      pop\n      pop\n      pop\n      pop\n      jump\t// out\n\n    auxdata: 0xa2646970667358221220ec62099d228e5a93d967271f6f32703f85d3171c81d01d4fcc056ddf408d87ca64736f6c63430008120033\n}\n",
				"bytecode": {
					"linkReferences": {},
					"object": "608060405234801561001057600080fd5b5033600360006101000a81548173ffffffffffffffffffffffffffffffffffffffff021916908373ffffffffffffffffffffffffffffffffffffffff160217905550611258806100616000396000f3fe608060405234801561001057600080fd5b50600436106100935760003560e01c80638da5cb5b116100665780638da5cb5b14610132578063b620855b14610150578063b9830ff114610180578063b99ef1fa1461018a578063fc36e15b146101ba57610093565b80630d15fd77146100985780633477ee2e146100b6578063462e91ec146100e6578063805265e514610102575b600080fd5b6100a06101d6565b6040516100ad9190610853565b60405180910390f35b6100d060048036038101906100cb91906108ae565b6101dc565b6040516100dd919061096b565b60405180910390f35b61010060048036038101906100fb9190610ac2565b610288565b005b61011c60048036038101906101179190610ac2565b610491565b6040516101299190610853565b60405180910390f35b61013a610524565b6040516101479190610b4c565b60405180910390f35b61016a60048036038101906101659190610ac2565b61054a565b6040516101779190610b82565b60405180910390f35b610188610580565b005b6101a4600480360381019061019f9190610ac2565b6106b5565b6040516101b19190610853565b60405180910390f35b6101d460048036038101906101cf9190610ac2565b6106e3565b005b60045481565b600181815481106101ec57600080fd5b90600052602060002001600091509050805461020790610bcc565b80601f016020809104026020016040519081016040528092919081815260200182805461023390610bcc565b80156102805780601f1061025557610100808354040283529160200191610280565b820191906000526020600020905b81548152906001019060200180831161026357829003601f168201915b505050505081565b600360009054906101000a900473ffffffffffffffffffffffffffffffffffffffff1673ffffffffffffffffffffffffffffffffffffffff163373ffffffffffffffffffffffffffffffffffffffff1614610318576040517f08c379a000000000000000000000000000000000000000000000000000000000815260040161030f90610c6f565b60405180910390fd5b600081511161035c576040517f08c379a000000000000000000000000000000000000000000000000000000000815260040161035390610cdb565b60405180910390fd5b60028160405161036c9190610d37565b908152602001604051809103902060009054906101000a900460ff16156103c8576040517f08c379a00000000000000000000000000000000000000000000000000000000081526004016103bf90610d9a565b60405180910390fd5b6001819080600181540180825580915050600190039060005260206000200160009091909190915090816103fc9190610f66565b50600160028260405161040f9190610d37565b908152602001604051809103902060006101000a81548160ff021916908315150217905550600080826040516104459190610d37565b9081526020016040518091039020819055507ff29562dad1599aea0ebb142466120aab326d5efa8f839df82a9c064bf78e893881604051610486919061096b565b60405180910390a150565b60006002826040516104a39190610d37565b908152602001604051809103902060009054906101000a900460ff166104fe576040517f08c379a00000000000000000000000000000000000000000000000000000000081526004016104f590611084565b60405180910390fd5b60008260405161050e9190610d37565b9081526020016040518091039020549050919050565b600360009054906101000a900473ffffffffffffffffffffffffffffffffffffffff1681565b6002818051602081018201805184825260208301602085012081835280955050505050506000915054906101000a900460ff1681565b600360009054906101000a900473ffffffffffffffffffffffffffffffffffffffff1673ffffffffffffffffffffffffffffffffffffffff163373ffffffffffffffffffffffffffffffffffffffff1614610610576040517f08c379a000000000000000000000000000000000000000000000000000000000815260040161060790610c6f565b60405180910390fd5b60005b6001805490508110156106735760008060018381548110610637576106366110a4565b5b9060005260206000200160405161064e9190611156565b908152602001604051809103902081905550808061066b9061119c565b915050610613565b5060006004819055507f52377ea4d8812f0bb534fc079993e288b4ea73d011a2a368502255052a6b7730336040516106ab9190610b4c565b60405180910390a1565b6000818051602081018201805184825260208301602085012081835280955050505050506000915090505481565b6000815111610727576040517f08c379a000000000000000000000000000000000000000000000000000000000815260040161071e90610cdb565b60405180910390fd5b6002816040516107379190610d37565b908152602001604051809103902060009054906101000a900460ff16610792576040517f08c379a000000000000000000000000000000000000000000000000000000000815260040161078990611084565b60405180910390fd5b6000816040516107a29190610d37565b908152602001604051809103902060008154809291906107c19061119c565b9190505550600460008154809291906107d99061119c565b91905055507ffc2f56dbd260ee180dba683a26158ed97396642750489bcd9393b33452d6ad2a816000836040516108109190610d37565b9081526020016040518091039020543360405161082f939291906111e4565b60405180910390a150565b6000819050919050565b61084d8161083a565b82525050565b60006020820190506108686000830184610844565b92915050565b6000604051905090565b600080fd5b600080fd5b61088b8161083a565b811461089657600080fd5b50565b6000813590506108a881610882565b92915050565b6000602082840312156108c4576108c3610878565b5b60006108d284828501610899565b91505092915050565b600081519050919050565b600082825260208201905092915050565b60005b838110156109155780820151818401526020810190506108fa565b60008484015250505050565b6000601f19601f8301169050919050565b600061093d826108db565b61094781856108e6565b93506109578185602086016108f7565b61096081610921565b840191505092915050565b600060208201905081810360008301526109858184610932565b905092915050565b600080fd5b600080fd5b7f4e487b7100000000000000000000000000000000000000000000000000000000600052604160045260246000fd5b6109cf82610921565b810181811067ffffffffffffffff821117156109ee576109ed610997565b5b80604052505050565b6000610a0161086e565b9050610a0d82826109c6565b919050565b600067ffffffffffffffff821115610a2d57610a2c610997565b5b610a3682610921565b9050602081019050919050565b82818337600083830152505050565b6000610a65610a6084610a12565b6109f7565b905082815260208101848484011115610a8157610a80610992565b5b610a8c848285610a43565b509392505050565b600082601f830112610aa957610aa861098d565b5b8135610ab9848260208601610a52565b91505092915050565b600060208284031215610ad857610ad7610878565b5b600082013567ffffffffffffffff811115610af657610af561087d565b5b610b0284828501610a94565b91505092915050565b600073ffffffffffffffffffffffffffffffffffffffff82169050919050565b6000610b3682610b0b565b9050919050565b610b4681610b2b565b82525050565b6000602082019050610b616000830184610b3d565b92915050565b60008115159050919050565b610b7c81610b67565b82525050565b6000602082019050610b976000830184610b73565b92915050565b7f4e487b7100000000000000000000000000000000000000000000000000000000600052602260045260246000fd5b60006002820490506001821680610be457607f821691505b602082108103610bf757610bf6610b9d565b5b50919050565b7f4f6e6c79206f776e65722063616e2063616c6c20746869732066756e6374696f60008201527f6e00000000000000000000000000000000000000000000000000000000000000602082015250565b6000610c596021836108e6565b9150610c6482610bfd565b604082019050919050565b60006020820190508181036000830152610c8881610c4c565b9050919050565b7f43616e646964617465206e616d652063616e6e6f7420626520656d7074790000600082015250565b6000610cc5601e836108e6565b9150610cd082610c8f565b602082019050919050565b60006020820190508181036000830152610cf481610cb8565b9050919050565b600081905092915050565b6000610d11826108db565b610d1b8185610cfb565b9350610d2b8185602086016108f7565b80840191505092915050565b6000610d438284610d06565b915081905092915050565b7f43616e64696461746520616c7265616479206578697374730000000000000000600082015250565b6000610d846018836108e6565b9150610d8f82610d4e565b602082019050919050565b60006020820190508181036000830152610db381610d77565b9050919050565b60008190508160005260206000209050919050565b60006020601f8301049050919050565b600082821b905092915050565b600060088302610e1c7fffffffffffffffffffffffffffffffffffffffffffffffffffffffffffffffff82610ddf565b610e268683610ddf565b95508019841693508086168417925050509392505050565b6000819050919050565b6000610e63610e5e610e598461083a565b610e3e565b61083a565b9050919050565b6000819050919050565b610e7d83610e48565b610e91610e8982610e6a565b848454610dec565b825550505050565b600090565b610ea6610e99565b610eb1818484610e74565b505050565b5b81811015610ed557610eca600082610e9e565b600181019050610eb7565b5050565b601f821115610f1a57610eeb81610dba565b610ef484610dcf565b81016020851015610f03578190505b610f17610f0f85610dcf565b830182610eb6565b50505b505050565b600082821c905092915050565b6000610f3d60001984600802610f1f565b1980831691505092915050565b6000610f568383610f2c565b9150826002028217905092915050565b610f6f826108db565b67ffffffffffffffff811115610f8857610f87610997565b5b610f928254610bcc565b610f9d828285610ed9565b600060209050601f831160018114610fd05760008415610fbe578287015190505b610fc88582610f4a565b865550611030565b601f198416610fde86610dba565b60005b8281101561100657848901518255600182019150602085019450602081019050610fe1565b86831015611023578489015161101f601f891682610f2c565b8355505b6001600288020188555050505b505050505050565b7f43616e64696461746520646f6573206e6f742065786973740000000000000000600082015250565b600061106e6018836108e6565b915061107982611038565b602082019050919050565b6000602082019050818103600083015261109d81611061565b9050919050565b7f4e487b7100000000000000000000000000000000000000000000000000000000600052603260045260246000fd5b600081546110e081610bcc565b6110ea8186610cfb565b94506001821660008114611105576001811461111a5761114d565b60ff198316865281151582028601935061114d565b61112385610dba565b60005b8381101561114557815481890152600182019150602081019050611126565b838801955050505b50505092915050565b600061116282846110d3565b915081905092915050565b7f4e487b7100000000000000000000000000000000000000000000000000000000600052601160045260246000fd5b60006111a78261083a565b91507fffffffffffffffffffffffffffffffffffffffffffffffffffffffffffffffff82036111d9576111d861116d565b5b600182019050919050565b600060608201905081810360008301526111fe8186610932565b905061120d6020830185610844565b61121a6040830184610b3d565b94935050505056fea2646970667358221220ec62099d228e5a93d967271f6f32703f85d3171c81d01d4fcc056ddf408d87ca64736f6c63430008120033",
					"opcodes": "PUSH1 0x80 PUSH1 0x40 MSTORE CALLVALUE DUP1 ISZERO PUSH2 0x10 JUMPI PUSH1 0x0 DUP1 REVERT JUMPDEST POP CALLER PUSH1 0x3 PUSH1 0x0 PUSH2 0x100 EXP DUP2 SLOAD DUP2 PUSH20 0xFFFFFFFFFFFFFFFFFFFFFFFFFFFFFFFFFFFFFFFF MUL NOT AND SWAP1 DUP4 PUSH20 0xFFFFFFFFFFFFFFFFFFFFFFFFFFFFFFFFFFFFFFFF AND MUL OR SWAP1 SSTORE POP PUSH2 0x1258 DUP1 PUSH2 0x61 PUSH1 0x0 CODECOPY PUSH1 0x0 RETURN INVALID PUSH1 0x80 PUSH1 0x40 MSTORE CALLVALUE DUP1 ISZERO PUSH2 0x10 JUMPI PUSH1 0x0 DUP1 REVERT JUMPDEST POP PUSH1 0x4 CALLDATASIZE LT PUSH2 0x93 JUMPI PUSH1 0x0 CALLDATALOAD PUSH1 0xE0 SHR DUP1 PUSH4 0x8DA5CB5B GT PUSH2 0x66 JUMPI DUP1 PUSH4 0x8DA5CB5B EQ PUSH2 0x132 JUMPI DUP1 PUSH4 0xB620855B EQ PUSH2 0x150 JUMPI DUP1 PUSH4 0xB9830FF1 EQ PUSH2 0x180 JUMPI DUP1 PUSH4 0xB99EF1FA EQ PUSH2 0x18A JUMPI DUP1 PUSH4 0xFC36E15B EQ PUSH2 0x1BA JUMPI PUSH2 0x93 JUMP JUMPDEST DUP1 PUSH4 0xD15FD77 EQ PUSH2 0x98 JUMPI DUP1 PUSH4 0x3477EE2E EQ PUSH2 0xB6 JUMPI DUP1 PUSH4 0x462E91EC EQ PUSH2 0xE6 JUMPI DUP1 PUSH4 0x805265E5 EQ PUSH2 0x102 JUMPI JUMPDEST PUSH1 0x0 DUP1 REVERT JUMPDEST PUSH2 0xA0 PUSH2 0x1D6 JUMP JUMPDEST PUSH1 0x40 MLOAD PUSH2 0xAD SWAP2 SWAP1 PUSH2 0x853 JUMP JUMPDEST PUSH1 0x40 MLOAD DUP1 SWAP2 SUB SWAP1 RETURN JUMPDEST PUSH2 0xD0 PUSH1 0x4 DUP1 CALLDATASIZE SUB DUP2 ADD SWAP1 PUSH2 0xCB SWAP2 SWAP1 PUSH2 0x8AE JUMP JUMPDEST PUSH2 0x1DC JUMP JUMPDEST PUSH1 0x40 MLOAD PUSH2 0xDD SWAP2 SWAP1 PUSH2 0x96B JUMP JUMPDEST PUSH1 0x40 MLOAD DUP1 SWAP2 SUB SWAP1 RETURN JUMPDEST PUSH2 0x100 PUSH1 0x4 DUP1 CALLDATASIZE SUB DUP2 ADD SWAP1 PUSH2 0xFB SWAP2 SWAP1 PUSH2 0xAC2 JUMP JUMPDEST PUSH2 0x288 JUMP JUMPDEST STOP JUMPDEST PUSH2 0x11C PUSH1 0x4 DUP1 CALLDATASIZE SUB DUP2 ADD SWAP1 PUSH2 0x117 SWAP2 SWAP1 PUSH2 0xAC2 JUMP JUMPDEST PUSH2 0x491 JUMP JUMPDEST PUSH1 0x40 MLOAD PUSH2 0x129 SWAP2 SWAP1 PUSH2 0x853 JUMP JUMPDEST PUSH1 0x40 MLOAD DUP1 SWAP2 SUB SWAP1 RETURN JUMPDEST PUSH2 0x13A PUSH2 0x524 JUMP JUMPDEST PUSH1 0x40 MLOAD PUSH2 0x147 SWAP2 SWAP1 PUSH2 0xB4C JUMP JUMPDEST PUSH1 0x40 MLOAD DUP1 SWAP2 SUB SWAP1 RETURN JUMPDEST PUSH2 0x16A PUSH1 0x4 DUP1 CALLDATASIZE SUB DUP2 ADD SWAP1 PUSH2 0x165 SWAP2 SWAP1 PUSH2 0xAC2 JUMP JUMPDEST PUSH2 0x54A JUMP JUMPDEST PUSH1 0x40 MLOAD PUSH2 0x177 SWAP2 SWAP1 PUSH2 0xB82 JUMP JUMPDEST PUSH1 0x40 MLOAD DUP1 SWAP2 SUB SWAP1 RETURN JUMPDEST PUSH2 0x188 PUSH2 0x580 JUMP JUMPDEST STOP JUMPDEST PUSH2 0x1A4 PUSH1 0x4 DUP1 CALLDATASIZE SUB DUP2 ADD SWAP1 PUSH2 0x19F SWAP2 SWAP1 PUSH2 0xAC2 JUMP JUMPDEST PUSH2 0x6B5 JUMP JUMPDEST PUSH1 0x40 MLOAD PUSH2 0x1B1 SWAP2 SWAP1 PUSH2 0x853 JUMP JUMPDEST PUSH1 0x40 MLOAD DUP1 SWAP2 SUB SWAP1 RETURN JUMPDEST PUSH2 0x1D4 PUSH1 0x4 DUP1 CALLDATASIZE SUB DUP2 ADD SWAP1 PUSH2 0x1CF SWAP2 SWAP1 PUSH2 0xAC2 JUMP JUMPDEST PUSH2 0x6E3 JUMP JUMPDEST STOP JUMPDEST PUSH1 0x4 SLOAD DUP2 JUMP JUMPDEST PUSH1 0x1 DUP2 DUP2 SLOAD DUP2 LT PUSH2 0x1EC JUMPI PUSH1 0x0 DUP1 REVERT JUMPDEST SWAP1 PUSH1 0x0 MSTORE PUSH1 0x20 PUSH1 0x0 KECCAK256 ADD PUSH1 0x0 SWAP2 POP SWAP1 POP DUP1 SLOAD PUSH2 0x207 SWAP1 PUSH2 0xBCC JUMP JUMPDEST DUP1 PUSH1 0x1F ADD PUSH1 0x20 DUP1 SWAP2 DIV MUL PUSH1 0x20 ADD PUSH1 0x40 MLOAD SWAP1 DUP2 ADD PUSH1 0x40 MSTORE DUP1 SWAP3 SWAP2 SWAP1 DUP2 DUP2 MSTORE PUSH1 0x20 ADD DUP3 DUP1 SLOAD PUSH2 0x233 SWAP1 PUSH2 0xBCC JUMP JUMPDEST DUP1 ISZERO PUSH2 0x280 JUMPI DUP1 PUSH1 0x1F LT PUSH2 0x255 JUMPI PUSH2 0x100 DUP1 DUP4 SLOAD DIV MUL DUP4 MSTORE SWAP2 PUSH1 0x20 ADD SWAP2 PUSH2 0x280 JUMP JUMPDEST DUP3 ADD SWAP2 SWAP1 PUSH1 0x0 MSTORE PUSH1 0x20 PUSH1 0x0 KECCAK256 SWAP1 JUMPDEST DUP2 SLOAD DUP2 MSTORE SWAP1 PUSH1 0x1 ADD SWAP1 PUSH1 0x20 ADD DUP1 DUP4 GT PUSH2 0x263 JUMPI DUP3 SWAP1 SUB PUSH1 0x1F AND DUP3 ADD SWAP2 JUMPDEST POP POP POP POP POP DUP2 JUMP JUMPDEST PUSH1 0x3 PUSH1 0x0 SWAP1 SLOAD SWAP1 PUSH2 0x100 EXP SWAP1 DIV PUSH20 0xFFFFFFFFFFFFFFFFFFFFFFFFFFFFFFFFFFFFFFFF AND PUSH20 0xFFFFFFFFFFFFFFFFFFFFFFFFFFFFFFFFFFFFFFFF AND CALLER PUSH20 0xFFFFFFFFFFFFFFFFFFFFFFFFFFFFFFFFFFFFFFFF AND EQ PUSH2 0x318 JUMPI PUSH1 0x40 MLOAD PUSH32 0x8C379A000000000000000000000000000000000000000000000000000000000 DUP2 MSTORE PUSH1 0x4 ADD PUSH2 0x30F SWAP1 PUSH2 0xC6F JUMP JUMPDEST PUSH1 0x40 MLOAD DUP1 SWAP2 SUB SWAP1 REVERT JUMPDEST PUSH1 0x0 DUP2 MLOAD GT PUSH2 0x35C JUMPI PUSH1 0x40 MLOAD PUSH32 0x8C379A000000000000000000000000000000000000000000000000000000000 DUP2 MSTORE PUSH1 0x4 ADD PUSH2 0x353 SWAP1 PUSH2 0xCDB JUMP JUMPDEST PUSH1 0x40 MLOAD DUP1 SWAP2 SUB SWAP1 REVERT JUMPDEST PUSH1 0x2 DUP2 PUSH1 0x40 MLOAD PUSH2 0x36C SWAP2 SWAP1 PUSH2 0xD37 JUMP JUMPDEST SWAP1 DUP2 MSTORE PUSH1 0x20 ADD PUSH1 0x40 MLOAD DUP1 SWAP2 SUB SWAP1 KECCAK256 PUSH1 0x0 SWAP1 SLOAD SWAP1 PUSH2 0x100 EXP SWAP1 DIV PUSH1 0xFF AND ISZERO PUSH2 0x3C8 JUMPI PUSH1 0x40 MLOAD PUSH32 0x8C379A000000000000000000000000000000000000000000000000000000000 DUP2 MSTORE PUSH1 0x4 ADD PUSH2 0x3BF SWAP1 PUSH2 0xD9A JUMP JUMPDEST PUSH1 0x40 MLOAD DUP1 SWAP2 SUB SWAP1 REVERT JUMPDEST PUSH1 0x1 DUP2 SWAP1 DUP1 PUSH1 0x1 DUP2 SLOAD ADD DUP1 DUP3 SSTORE DUP1 SWAP2 POP POP PUSH1 0x1 SWAP1 SUB SWAP1 PUSH1 0x0 MSTORE PUSH1 0x20 PUSH1 0x0 KECCAK256 ADD PUSH1 0x0 SWAP1 SWAP2 SWAP1 SWAP2 SWAP1 SWAP2 POP SWAP1 DUP2 PUSH2 0x3FC SWAP2 SWAP1 PUSH2 0xF66 JUMP JUMPDEST POP PUSH1 0x1 PUSH1 0x2 DUP3 PUSH1 0x40 MLOAD PUSH2 0x40F SWAP2 SWAP1 PUSH2 0xD37 JUMP JUMPDEST SWAP1 DUP2 MSTORE PUSH1 0x20 ADD PUSH1 0x40 MLOAD DUP1 SWAP2 SUB SWAP1 KECCAK256 PUSH1 0x0 PUSH2 0x100 EXP DUP2 SLOAD DUP2 PUSH1 0xFF MUL NOT AND SWAP1 DUP4 ISZERO ISZERO MUL OR SWAP1 SSTORE POP PUSH1 0x0 DUP1 DUP3 PUSH1 0x40 MLOAD PUSH2 0x445 SWAP2 SWAP1 PUSH2 0xD37 JUMP JUMPDEST SWAP1 DUP2 MSTORE PUSH1 0x20 ADD PUSH1 0x40 MLOAD DUP1 SWAP2 SUB SWAP1 KECCAK256 DUP2 SWAP1 SSTORE POP PUSH32 0xF29562DAD1599AEA0EBB142466120AAB326D5EFA8F839DF82A9C064BF78E8938 DUP2 PUSH1 0x40 MLOAD PUSH2 0x486 SWAP2 SWAP1 PUSH2 0x96B JUMP JUMPDEST PUSH1 0x40 MLOAD DUP1 SWAP2 SUB SWAP1 LOG1 POP JUMP JUMPDEST PUSH1 0x0 PUSH1 0x2 DUP3 PUSH1 0x40 MLOAD PUSH2 0x4A3 SWAP2 SWAP1 PUSH2 0xD37 JUMP JUMPDEST SWAP1 DUP2 MSTORE PUSH1 0x20 ADD PUSH1 0x40 MLOAD DUP1 SWAP2 SUB SWAP1 KECCAK256 PUSH1 0x0 SWAP1 SLOAD SWAP1 PUSH2 0x100 EXP SWAP1 DIV PUSH1 0xFF AND PUSH2 0x4FE JUMPI PUSH1 0x40 MLOAD PUSH32 0x8C379A000000000000000000000000000000000000000000000000000000000 DUP2 MSTORE PUSH1 0x4 ADD PUSH2 0x4F5 SWAP1 PUSH2 0x1084 JUMP JUMPDEST PUSH1 0x40 MLOAD DUP1 SWAP2 SUB SWAP1 REVERT JUMPDEST PUSH1 0x0 DUP3 PUSH1 0x40 MLOAD PUSH2 0x50E SWAP2 SWAP1 PUSH2 0xD37 JUMP JUMPDEST SWAP1 DUP2 MSTORE PUSH1 0x20 ADD PUSH1 0x40 MLOAD DUP1 SWAP2 SUB SWAP1 KECCAK256 SLOAD SWAP1 POP SWAP2 SWAP1 POP JUMP JUMPDEST PUSH1 0x3 PUSH1 0x0 SWAP1 SLOAD SWAP1 PUSH2 0x100 EXP SWAP1 DIV PUSH20 0xFFFFFFFFFFFFFFFFFFFFFFFFFFFFFFFFFFFFFFFF AND DUP2 JUMP JUMPDEST PUSH1 0x2 DUP2 DUP1 MLOAD PUSH1 0x20 DUP2 ADD DUP3 ADD DUP1 MLOAD DUP5 DUP3 MSTORE PUSH1 0x20 DUP4 ADD PUSH1 0x20 DUP6 ADD KECCAK256 DUP2 DUP4 MSTORE DUP1 SWAP6 POP POP POP POP POP POP PUSH1 0x0 SWAP2 POP SLOAD SWAP1 PUSH2 0x100 EXP SWAP1 DIV PUSH1 0xFF AND DUP2 JUMP JUMPDEST PUSH1 0x3 PUSH1 0x0 SWAP1 SLOAD SWAP1 PUSH2 0x100 EXP SWAP1 DIV PUSH20 0xFFFFFFFFFFFFFFFFFFFFFFFFFFFFFFFFFFFFFFFF AND PUSH20 0xFFFFFFFFFFFFFFFFFFFFFFFFFFFFFFFFFFFFFFFF AND CALLER PUSH20 0xFFFFFFFFFFFFFFFFFFFFFFFFFFFFFFFFFFFFFFFF AND EQ PUSH2 0x610 JUMPI PUSH1 0x40 MLOAD PUSH32 0x8C379A000000000000000000000000000000000000000000000000000000000 DUP2 MSTORE PUSH1 0x4 ADD PUSH2 0x607 SWAP1 PUSH2 0xC6F JUMP JUMPDEST PUSH1 0x40 MLOAD DUP1 SWAP2 SUB SWAP1 REVERT JUMPDEST PUSH1 0x0 JUMPDEST PUSH1 0x1 DUP1 SLOAD SWAP1 POP DUP2 LT ISZERO PUSH2 0x673 JUMPI PUSH1 0x0 DUP1 PUSH1 0x1 DUP4 DUP2 SLOAD DUP2 LT PUSH2 0x637 JUMPI PUSH2 0x636 PUSH2 0x10A4 JUMP JUMPDEST JUMPDEST SWAP1 PUSH1 0x0 MSTORE PUSH1 0x20 PUSH1 0x0 KECCAK256 ADD PUSH1 0x40 MLOAD PUSH2 0x64E SWAP2 SWAP1 PUSH2 0x1156 JUMP JUMPDEST SWAP1 DUP2 MSTORE PUSH1 0x20 ADD PUSH1 0x40 MLOAD DUP1 SWAP2 SUB SWAP1 KECCAK256 DUP2 SWAP1 SSTORE POP DUP1 DUP1 PUSH2 0x66B SWAP1 PUSH2 0x119C JUMP JUMPDEST SWAP2 POP POP PUSH2 0x613 JUMP JUMPDEST POP PUSH1 0x0 PUSH1 0x4 DUP2 SWAP1 SSTORE POP PUSH32 0x52377EA4D8812F0BB534FC079993E288B4EA73D011A2A368502255052A6B7730 CALLER PUSH1 0x40 MLOAD PUSH2 0x6AB SWAP2 SWAP1 PUSH2 0xB4C JUMP JUMPDEST PUSH1 0x40 MLOAD DUP1 SWAP2 SUB SWAP1 LOG1 JUMP JUMPDEST PUSH1 0x0 DUP2 DUP1 MLOAD PUSH1 0x20 DUP2 ADD DUP3 ADD DUP1 MLOAD DUP5 DUP3 MSTORE PUSH1 0x20 DUP4 ADD PUSH1 0x20 DUP6 ADD KECCAK256 DUP2 DUP4 MSTORE DUP1 SWAP6 POP POP POP POP POP POP PUSH1 0x0 SWAP2 POP SWAP1 POP SLOAD DUP2 JUMP JUMPDEST PUSH1 0x0 DUP2 MLOAD GT PUSH2 0x727 JUMPI PUSH1 0x40 MLOAD PUSH32 0x8C379A000000000000000000000000000000000000000000000000000000000 DUP2 MSTORE PUSH1 0x4 ADD PUSH2 0x71E SWAP1 PUSH2 0xCDB JUMP JUMPDEST PUSH1 0x40 MLOAD DUP1 SWAP2 SUB SWAP1 REVERT JUMPDEST PUSH1 0x2 DUP2 PUSH1 0x40 MLOAD PUSH2 0x737 SWAP2 SWAP1 PUSH2 0xD37 JUMP JUMPDEST SWAP1 DUP2 MSTORE PUSH1 0x20 ADD PUSH1 0x40 MLOAD DUP1 SWAP2 SUB SWAP1 KECCAK256 PUSH1 0x0 SWAP1 SLOAD SWAP1 PUSH2 0x100 EXP SWAP1 DIV PUSH1 0xFF AND PUSH2 0x792 JUMPI PUSH1 0x40 MLOAD PUSH32 0x8C379A000000000000000000000000000000000000000000000000000000000 DUP2 MSTORE PUSH1 0x4 ADD PUSH2 0x789 SWAP1 PUSH2 0x1084 JUMP JUMPDEST PUSH1 0x40 MLOAD DUP1 SWAP2 SUB SWAP1 REVERT JUMPDEST PUSH1 0x0 DUP2 PUSH1 0x40 MLOAD PUSH2 0x7A2 SWAP2 SWAP1 PUSH2 0xD37 JUMP JUMPDEST SWAP1 DUP2 MSTORE PUSH1 0x20 ADD PUSH1 0x40 MLOAD DUP1 SWAP2 SUB SWAP1 KECCAK256 PUSH1 0x0 DUP2 SLOAD DUP1 SWAP3 SWAP2 SWAP1 PUSH2 0x7C1 SWAP1 PUSH2 0x119C JUMP JUMPDEST SWAP2 SWAP1 POP SSTORE POP PUSH1 0x4 PUSH1 0x0 DUP2 SLOAD DUP1 SWAP3 SWAP2 SWAP1 PUSH2 0x7D9 SWAP1 PUSH2 0x119C JUMP JUMPDEST SWAP2 SWAP1 POP SSTORE POP PUSH32 0xFC2F56DBD260EE180DBA683A26158ED97396642750489BCD9393B33452D6AD2A DUP2 PUSH1 0x0 DUP4 PUSH1 0x40 MLOAD PUSH2 0x810 SWAP2 SWAP1 PUSH2 0xD37 JUMP JUMPDEST SWAP1 DUP2 MSTORE PUSH1 0x20 ADD PUSH1 0x40 MLOAD DUP1 SWAP2 SUB SWAP1 KECCAK256 SLOAD CALLER PUSH1 0x40 MLOAD PUSH2 0x82F SWAP4 SWAP3 SWAP2 SWAP1 PUSH2 0x11E4 JUMP JUMPDEST PUSH1 0x40 MLOAD DUP1 SWAP2 SUB SWAP1 LOG1 POP JUMP JUMPDEST PUSH1 0x0 DUP2 SWAP1 POP SWAP2 SWAP1 POP JUMP JUMPDEST PUSH2 0x84D DUP2 PUSH2 0x83A JUMP JUMPDEST DUP3 MSTORE POP POP JUMP JUMPDEST PUSH1 0x0 PUSH1 0x20 DUP3 ADD SWAP1 POP PUSH2 0x868 PUSH1 0x0 DUP4 ADD DUP5 PUSH2 0x844 JUMP JUMPDEST SWAP3 SWAP2 POP POP JUMP JUMPDEST PUSH1 0x0 PUSH1 0x40 MLOAD SWAP1 POP SWAP1 JUMP JUMPDEST PUSH1 0x0 DUP1 REVERT JUMPDEST PUSH1 0x0 DUP1 REVERT JUMPDEST PUSH2 0x88B DUP2 PUSH2 0x83A JUMP JUMPDEST DUP2 EQ PUSH2 0x896 JUMPI PUSH1 0x0 DUP1 REVERT JUMPDEST POP JUMP JUMPDEST PUSH1 0x0 DUP2 CALLDATALOAD SWAP1 POP PUSH2 0x8A8 DUP2 PUSH2 0x882 JUMP JUMPDEST SWAP3 SWAP2 POP POP JUMP JUMPDEST PUSH1 0x0 PUSH1 0x20 DUP3 DUP5 SUB SLT ISZERO PUSH2 0x8C4 JUMPI PUSH2 0x8C3 PUSH2 0x878 JUMP JUMPDEST JUMPDEST PUSH1 0x0 PUSH2 0x8D2 DUP5 DUP3 DUP6 ADD PUSH2 0x899 JUMP JUMPDEST SWAP2 POP POP SWAP3 SWAP2 POP POP JUMP JUMPDEST PUSH1 0x0 DUP2 MLOAD SWAP1 POP SWAP2 SWAP1 POP JUMP JUMPDEST PUSH1 0x0 DUP3 DUP3 MSTORE PUSH1 0x20 DUP3 ADD SWAP1 POP SWAP3 SWAP2 POP POP JUMP JUMPDEST PUSH1 0x0 JUMPDEST DUP4 DUP2 LT ISZERO PUSH2 0x915 JUMPI DUP1 DUP3 ADD MLOAD DUP2 DUP5 ADD MSTORE PUSH1 0x20 DUP2 ADD SWAP1 POP PUSH2 0x8FA JUMP JUMPDEST PUSH1 0x0 DUP5 DUP5 ADD MSTORE POP POP POP POP JUMP JUMPDEST PUSH1 0x0 PUSH1 0x1F NOT PUSH1 0x1F DUP4 ADD AND SWAP1 POP SWAP2 SWAP1 POP JUMP JUMPDEST PUSH1 0x0 PUSH2 0x93D DUP3 PUSH2 0x8DB JUMP JUMPDEST PUSH2 0x947 DUP2 DUP6 PUSH2 0x8E6 JUMP JUMPDEST SWAP4 POP PUSH2 0x957 DUP2 DUP6 PUSH1 0x20 DUP7 ADD PUSH2 0x8F7 JUMP JUMPDEST PUSH2 0x960 DUP2 PUSH2 0x921 JUMP JUMPDEST DUP5 ADD SWAP2 POP POP SWAP3 SWAP2 POP POP JUMP JUMPDEST PUSH1 0x0 PUSH1 0x20 DUP3 ADD SWAP1 POP DUP2 DUP2 SUB PUSH1 0x0 DUP4 ADD MSTORE PUSH2 0x985 DUP2 DUP5 PUSH2 0x932 JUMP JUMPDEST SWAP1 POP SWAP3 SWAP2 POP POP JUMP JUMPDEST PUSH1 0x0 DUP1 REVERT JUMPDEST PUSH1 0x0 DUP1 REVERT JUMPDEST PUSH32 0x4E487B7100000000000000000000000000000000000000000000000000000000 PUSH1 0x0 MSTORE PUSH1 0x41 PUSH1 0x4 MSTORE PUSH1 0x24 PUSH1 0x0 REVERT JUMPDEST PUSH2 0x9CF DUP3 PUSH2 0x921 JUMP JUMPDEST DUP2 ADD DUP2 DUP2 LT PUSH8 0xFFFFFFFFFFFFFFFF DUP3 GT OR ISZERO PUSH2 0x9EE JUMPI PUSH2 0x9ED PUSH2 0x997 JUMP JUMPDEST JUMPDEST DUP1 PUSH1 0x40 MSTORE POP POP POP JUMP JUMPDEST PUSH1 0x0 PUSH2 0xA01 PUSH2 0x86E JUMP JUMPDEST SWAP1 POP PUSH2 0xA0D DUP3 DUP3 PUSH2 0x9C6 JUMP JUMPDEST SWAP2 SWAP1 POP JUMP JUMPDEST PUSH1 0x0 PUSH8 0xFFFFFFFFFFFFFFFF DUP3 GT ISZERO PUSH2 0xA2D JUMPI PUSH2 0xA2C PUSH2 0x997 JUMP JUMPDEST JUMPDEST PUSH2 0xA36 DUP3 PUSH2 0x921 JUMP JUMPDEST SWAP1 POP PUSH1 0x20 DUP2 ADD SWAP1 POP SWAP2 SWAP1 POP JUMP JUMPDEST DUP3 DUP2 DUP4 CALLDATACOPY PUSH1 0x0 DUP4 DUP4 ADD MSTORE POP POP POP JUMP JUMPDEST PUSH1 0x0 PUSH2 0xA65 PUSH2 0xA60 DUP5 PUSH2 0xA12 JUMP JUMPDEST PUSH2 0x9F7 JUMP JUMPDEST SWAP1 POP DUP3 DUP2 MSTORE PUSH1 0x20 DUP2 ADD DUP5 DUP5 DUP5 ADD GT ISZERO PUSH2 0xA81 JUMPI PUSH2 0xA80 PUSH2 0x992 JUMP JUMPDEST JUMPDEST PUSH2 0xA8C DUP5 DUP3 DUP6 PUSH2 0xA43 JUMP JUMPDEST POP SWAP4 SWAP3 POP POP POP JUMP JUMPDEST PUSH1 0x0 DUP3 PUSH1 0x1F DUP4 ADD SLT PUSH2 0xAA9 JUMPI PUSH2 0xAA8 PUSH2 0x98D JUMP JUMPDEST JUMPDEST DUP2 CALLDATALOAD PUSH2 0xAB9 DUP5 DUP3 PUSH1 0x20 DUP7 ADD PUSH2 0xA52 JUMP JUMPDEST SWAP2 POP POP SWAP3 SWAP2 POP POP JUMP JUMPDEST PUSH1 0x0 PUSH1 0x20 DUP3 DUP5 SUB SLT ISZERO PUSH2 0xAD8 JUMPI PUSH2 0xAD7 PUSH2 0x878 JUMP JUMPDEST JUMPDEST PUSH1 0x0 DUP3 ADD CALLDATALOAD PUSH8 0xFFFFFFFFFFFFFFFF DUP2 GT ISZERO PUSH2 0xAF6 JUMPI PUSH2 0xAF5 PUSH2 0x87D JUMP JUMPDEST JUMPDEST PUSH2 0xB02 DUP5 DUP3 DUP6 ADD PUSH2 0xA94 JUMP JUMPDEST SWAP2 POP POP SWAP3 SWAP2 POP POP JUMP JUMPDEST PUSH1 0x0 PUSH20 0xFFFFFFFFFFFFFFFFFFFFFFFFFFFFFFFFFFFFFFFF DUP3 AND SWAP1 POP SWAP2 SWAP1 POP JUMP JUMPDEST PUSH1 0x0 PUSH2 0xB36 DUP3 PUSH2 0xB0B JUMP JUMPDEST SWAP1 POP SWAP2 SWAP1 POP JUMP JUMPDEST PUSH2 0xB46 DUP2 PUSH2 0xB2B JUMP JUMPDEST DUP3 MSTORE POP POP JUMP JUMPDEST PUSH1 0x0 PUSH1 0x20 DUP3 ADD SWAP1 POP PUSH2 0xB61 PUSH1 0x0 DUP4 ADD DUP5 PUSH2 0xB3D JUMP JUMPDEST SWAP3 SWAP2 POP POP JUMP JUMPDEST PUSH1 0x0 DUP2 ISZERO ISZERO SWAP1 POP SWAP2 SWAP1 POP JUMP JUMPDEST PUSH2 0xB7C DUP2 PUSH2 0xB67 JUMP JUMPDEST DUP3 MSTORE POP POP JUMP JUMPDEST PUSH1 0x0 PUSH1 0x20 DUP3 ADD SWAP1 POP PUSH2 0xB97 PUSH1 0x0 DUP4 ADD DUP5 PUSH2 0xB73 JUMP JUMPDEST SWAP3 SWAP2 POP POP JUMP JUMPDEST PUSH32 0x4E487B7100000000000000000000000000000000000000000000000000000000 PUSH1 0x0 MSTORE PUSH1 0x22 PUSH1 0x4 MSTORE PUSH1 0x24 PUSH1 0x0 REVERT JUMPDEST PUSH1 0x0 PUSH1 0x2 DUP3 DIV SWAP1 POP PUSH1 0x1 DUP3 AND DUP1 PUSH2 0xBE4 JUMPI PUSH1 0x7F DUP3 AND SWAP2 POP JUMPDEST PUSH1 0x20 DUP3 LT DUP2 SUB PUSH2 0xBF7 JUMPI PUSH2 0xBF6 PUSH2 0xB9D JUMP JUMPDEST JUMPDEST POP SWAP2 SWAP1 POP JUMP JUMPDEST PUSH32 0x4F6E6C79206F776E65722063616E2063616C6C20746869732066756E6374696F PUSH1 0x0 DUP3 ADD MSTORE PUSH32 0x6E00000000000000000000000000000000000000000000000000000000000000 PUSH1 0x20 DUP3 ADD MSTORE POP JUMP JUMPDEST PUSH1 0x0 PUSH2 0xC59 PUSH1 0x21 DUP4 PUSH2 0x8E6 JUMP JUMPDEST SWAP2 POP PUSH2 0xC64 DUP3 PUSH2 0xBFD JUMP JUMPDEST PUSH1 0x40 DUP3 ADD SWAP1 POP SWAP2 SWAP1 POP JUMP JUMPDEST PUSH1 0x0 PUSH1 0x20 DUP3 ADD SWAP1 POP DUP2 DUP2 SUB PUSH1 0x0 DUP4 ADD MSTORE PUSH2 0xC88 DUP2 PUSH2 0xC4C JUMP JUMPDEST SWAP1 POP SWAP2 SWAP1 POP JUMP JUMPDEST PUSH32 0x43616E646964617465206E616D652063616E6E6F7420626520656D7074790000 PUSH1 0x0 DUP3 ADD MSTORE POP JUMP JUMPDEST PUSH1 0x0 PUSH2 0xCC5 PUSH1 0x1E DUP4 PUSH2 0x8E6 JUMP JUMPDEST SWAP2 POP PUSH2 0xCD0 DUP3 PUSH2 0xC8F JUMP JUMPDEST PUSH1 0x20 DUP3 ADD SWAP1 POP SWAP2 SWAP1 POP JUMP JUMPDEST PUSH1 0x0 PUSH1 0x20 DUP3 ADD SWAP1 POP DUP2 DUP2 SUB PUSH1 0x0 DUP4 ADD MSTORE PUSH2 0xCF4 DUP2 PUSH2 0xCB8 JUMP JUMPDEST SWAP1 POP SWAP2 SWAP1 POP JUMP JUMPDEST PUSH1 0x0 DUP2 SWAP1 POP SWAP3 SWAP2 POP POP JUMP JUMPDEST PUSH1 0x0 PUSH2 0xD11 DUP3 PUSH2 0x8DB JUMP JUMPDEST PUSH2 0xD1B DUP2 DUP6 PUSH2 0xCFB JUMP JUMPDEST SWAP4 POP PUSH2 0xD2B DUP2 DUP6 PUSH1 0x20 DUP7 ADD PUSH2 0x8F7 JUMP JUMPDEST DUP1 DUP5 ADD SWAP2 POP POP SWAP3 SWAP2 POP POP JUMP JUMPDEST PUSH1 0x0 PUSH2 0xD43 DUP3 DUP5 PUSH2 0xD06 JUMP JUMPDEST SWAP2 POP DUP2 SWAP1 POP SWAP3 SWAP2 POP POP JUMP JUMPDEST PUSH32 0x43616E64696461746520616C7265616479206578697374730000000000000000 PUSH1 0x0 DUP3 ADD MSTORE POP JUMP JUMPDEST PUSH1 0x0 PUSH2 0xD84 PUSH1 0x18 DUP4 PUSH2 0x8E6 JUMP JUMPDEST SWAP2 POP PUSH2 0xD8F DUP3 PUSH2 0xD4E JUMP JUMPDEST PUSH1 0x20 DUP3 ADD SWAP1 POP SWAP2 SWAP1 POP JUMP JUMPDEST PUSH1 0x0 PUSH1 0x20 DUP3 ADD SWAP1 POP DUP2 DUP2 SUB PUSH1 0x0 DUP4 ADD MSTORE PUSH2 0xDB3 DUP2 PUSH2 0xD77 JUMP JUMPDEST SWAP1 POP SWAP2 SWAP1 POP JUMP JUMPDEST PUSH1 0x0 DUP2 SWAP1 POP DUP2 PUSH1 0x0 MSTORE PUSH1 0x20 PUSH1 0x0 KECCAK256 SWAP1 POP SWAP2 SWAP1 POP JUMP JUMPDEST PUSH1 0x0 PUSH1 0x20 PUSH1 0x1F DUP4 ADD DIV SWAP1 POP SWAP2 SWAP1 POP JUMP JUMPDEST PUSH1 0x0 DUP3 DUP3 SHL SWAP1 POP SWAP3 SWAP2 POP POP JUMP JUMPDEST PUSH1 0x0 PUSH1 0x8 DUP4 MUL PUSH2 0xE1C PUSH32 0xFFFFFFFFFFFFFFFFFFFFFFFFFFFFFFFFFFFFFFFFFFFFFFFFFFFFFFFFFFFFFFFF DUP3 PUSH2 0xDDF JUMP JUMPDEST PUSH2 0xE26 DUP7 DUP4 PUSH2 0xDDF JUMP JUMPDEST SWAP6 POP DUP1 NOT DUP5 AND SWAP4 POP DUP1 DUP7 AND DUP5 OR SWAP3 POP POP POP SWAP4 SWAP3 POP POP POP JUMP JUMPDEST PUSH1 0x0 DUP2 SWAP1 POP SWAP2 SWAP1 POP JUMP JUMPDEST PUSH1 0x0 PUSH2 0xE63 PUSH2 0xE5E PUSH2 0xE59 DUP5 PUSH2 0x83A JUMP JUMPDEST PUSH2 0xE3E JUMP JUMPDEST PUSH2 0x83A JUMP JUMPDEST SWAP1 POP SWAP2 SWAP1 POP JUMP JUMPDEST PUSH1 0x0 DUP2 SWAP1 POP SWAP2 SWAP1 POP JUMP JUMPDEST PUSH2 0xE7D DUP4 PUSH2 0xE48 JUMP JUMPDEST PUSH2 0xE91 PUSH2 0xE89 DUP3 PUSH2 0xE6A JUMP JUMPDEST DUP5 DUP5 SLOAD PUSH2 0xDEC JUMP JUMPDEST DUP3 SSTORE POP POP POP POP JUMP JUMPDEST PUSH1 0x0 SWAP1 JUMP JUMPDEST PUSH2 0xEA6 PUSH2 0xE99 JUMP JUMPDEST PUSH2 0xEB1 DUP2 DUP5 DUP5 PUSH2 0xE74 JUMP JUMPDEST POP POP POP JUMP JUMPDEST JUMPDEST DUP2 DUP2 LT ISZERO PUSH2 0xED5 JUMPI PUSH2 0xECA PUSH1 0x0 DUP3 PUSH2 0xE9E JUMP JUMPDEST PUSH1 0x1 DUP2 ADD SWAP1 POP PUSH2 0xEB7 JUMP JUMPDEST POP POP JUMP JUMPDEST PUSH1 0x1F DUP3 GT ISZERO PUSH2 0xF1A JUMPI PUSH2 0xEEB DUP2 PUSH2 0xDBA JUMP JUMPDEST PUSH2 0xEF4 DUP5 PUSH2 0xDCF JUMP JUMPDEST DUP2 ADD PUSH1 0x20 DUP6 LT ISZERO PUSH2 0xF03 JUMPI DUP2 SWAP1 POP JUMPDEST PUSH2 0xF17 PUSH2 0xF0F DUP6 PUSH2 0xDCF JUMP JUMPDEST DUP4 ADD DUP3 PUSH2 0xEB6 JUMP JUMPDEST POP POP JUMPDEST POP POP POP JUMP JUMPDEST PUSH1 0x0 DUP3 DUP3 SHR SWAP1 POP SWAP3 SWAP2 POP POP JUMP JUMPDEST PUSH1 0x0 PUSH2 0xF3D PUSH1 0x0 NOT DUP5 PUSH1 0x8 MUL PUSH2 0xF1F JUMP JUMPDEST NOT DUP1 DUP4 AND SWAP2 POP POP SWAP3 SWAP2 POP POP JUMP JUMPDEST PUSH1 0x0 PUSH2 0xF56 DUP4 DUP4 PUSH2 0xF2C JUMP JUMPDEST SWAP2 POP DUP3 PUSH1 0x2 MUL DUP3 OR SWAP1 POP SWAP3 SWAP2 POP POP JUMP JUMPDEST PUSH2 0xF6F DUP3 PUSH2 0x8DB JUMP JUMPDEST PUSH8 0xFFFFFFFFFFFFFFFF DUP2 GT ISZERO PUSH2 0xF88 JUMPI PUSH2 0xF87 PUSH2 0x997 JUMP JUMPDEST JUMPDEST PUSH2 0xF92 DUP3 SLOAD PUSH2 0xBCC JUMP JUMPDEST PUSH2 0xF9D DUP3 DUP3 DUP6 PUSH2 0xED9 JUMP JUMPDEST PUSH1 0x0 PUSH1 0x20 SWAP1 POP PUSH1 0x1F DUP4 GT PUSH1 0x1 DUP2 EQ PUSH2 0xFD0 JUMPI PUSH1 0x0 DUP5 ISZERO PUSH2 0xFBE JUMPI DUP3 DUP8 ADD MLOAD SWAP1 POP JUMPDEST PUSH2 0xFC8 DUP6 DUP3 PUSH2 0xF4A JUMP JUMPDEST DUP7 SSTORE POP PUSH2 0x1030 JUMP JUMPDEST PUSH1 0x1F NOT DUP5 AND PUSH2 0xFDE DUP7 PUSH2 0xDBA JUMP JUMPDEST PUSH1 0x0 JUMPDEST DUP3 DUP2 LT ISZERO PUSH2 0x1006 JUMPI DUP5 DUP10 ADD MLOAD DUP3 SSTORE PUSH1 0x1 DUP3 ADD SWAP2 POP PUSH1 0x20 DUP6 ADD SWAP5 POP PUSH1 0x20 DUP2 ADD SWAP1 POP PUSH2 0xFE1 JUMP JUMPDEST DUP7 DUP4 LT ISZERO PUSH2 0x1023 JUMPI DUP5 DUP10 ADD MLOAD PUSH2 0x101F PUSH1 0x1F DUP10 AND DUP3 PUSH2 0xF2C JUMP JUMPDEST DUP4 SSTORE POP JUMPDEST PUSH1 0x1 PUSH1 0x2 DUP9 MUL ADD DUP9 SSTORE POP POP POP JUMPDEST POP POP POP POP POP POP JUMP JUMPDEST PUSH32 0x43616E64696461746520646F6573206E6F742065786973740000000000000000 PUSH1 0x0 DUP3 ADD MSTORE POP JUMP JUMPDEST PUSH1 0x0 PUSH2 0x106E PUSH1 0x18 DUP4 PUSH2 0x8E6 JUMP JUMPDEST SWAP2 POP PUSH2 0x1079 DUP3 PUSH2 0x1038 JUMP JUMPDEST PUSH1 0x20 DUP3 ADD SWAP1 POP SWAP2 SWAP1 POP JUMP JUMPDEST PUSH1 0x0 PUSH1 0x20 DUP3 ADD SWAP1 POP DUP2 DUP2 SUB PUSH1 0x0 DUP4 ADD MSTORE PUSH2 0x109D DUP2 PUSH2 0x1061 JUMP JUMPDEST SWAP1 POP SWAP2 SWAP1 POP JUMP JUMPDEST PUSH32 0x4E487B7100000000000000000000000000000000000000000000000000000000 PUSH1 0x0 MSTORE PUSH1 0x32 PUSH1 0x4 MSTORE PUSH1 0x24 PUSH1 0x0 REVERT JUMPDEST PUSH1 0x0 DUP2 SLOAD PUSH2 0x10E0 DUP2 PUSH2 0xBCC JUMP JUMPDEST PUSH2 0x10EA DUP2 DUP7 PUSH2 0xCFB JUMP JUMPDEST SWAP5 POP PUSH1 0x1 DUP3 AND PUSH1 0x0 DUP2 EQ PUSH2 0x1105 JUMPI PUSH1 0x1 DUP2 EQ PUSH2 0x111A JUMPI PUSH2 0x114D JUMP JUMPDEST PUSH1 0xFF NOT DUP4 AND DUP7 MSTORE DUP2 ISZERO ISZERO DUP3 MUL DUP7 ADD SWAP4 POP PUSH2 0x114D JUMP JUMPDEST PUSH2 0x1123 DUP6 PUSH2 0xDBA JUMP JUMPDEST PUSH1 0x0 JUMPDEST DUP4 DUP2 LT ISZERO PUSH2 0x1145 JUMPI DUP2 SLOAD DUP2 DUP10 ADD MSTORE PUSH1 0x1 DUP3 ADD SWAP2 POP PUSH1 0x20 DUP2 ADD SWAP1 POP PUSH2 0x1126 JUMP JUMPDEST DUP4 DUP9 ADD SWAP6 POP POP POP JUMPDEST POP POP POP SWAP3 SWAP2 POP POP JUMP JUMPDEST PUSH1 0x0 PUSH2 0x1162 DUP3 DUP5 PUSH2 0x10D3 JUMP JUMPDEST SWAP2 POP DUP2 SWAP1 POP SWAP3 SWAP2 POP POP JUMP JUMPDEST PUSH32 0x4E487B7100000000000000000000000000000000000000000000000000000000 PUSH1 0x0 MSTORE PUSH1 0x11 PUSH1 0x4 MSTORE PUSH1 0x24 PUSH1 0x0 REVERT JUMPDEST PUSH1 0x0 PUSH2 0x11A7 DUP3 PUSH2 0x83A JUMP JUMPDEST SWAP2 POP PUSH32 0xFFFFFFFFFFFFFFFFFFFFFFFFFFFFFFFFFFFFFFFFFFFFFFFFFFFFFFFFFFFFFFFF DUP3 SUB PUSH2 0x11D9 JUMPI PUSH2 0x11D8 PUSH2 0x116D JUMP JUMPDEST JUMPDEST PUSH1 0x1 DUP3 ADD SWAP1 POP SWAP2 SWAP1 POP JUMP JUMPDEST PUSH1 0x0 PUSH1 0x60 DUP3 ADD SWAP1 POP DUP2 DUP2 SUB PUSH1 0x0 DUP4 ADD MSTORE PUSH2 0x11FE DUP2 DUP7 PUSH2 0x932 JUMP JUMPDEST SWAP1 POP PUSH2 0x120D PUSH1 0x20 DUP4 ADD DUP6 PUSH2 0x844 JUMP JUMPDEST PUSH2 0x121A PUSH1 0x40 DUP4 ADD DUP5 PUSH2 0xB3D JUMP JUMPDEST SWAP5 SWAP4 POP POP POP POP JUMP INVALID LOG2 PUSH5 0x6970667358 0x22 SLT KECCAK256 0xEC PUSH3 0x99D22 DUP15 GAS SWAP4 0xD9 PUSH8 0x271F6F32703F85D3 OR SHR DUP2 0xD0 SAR 0x4F 0xCC SDIV PUSH14 0xDF408D87CA64736F6C6343000812 STOP CALLER "
				},
				"gasEstimates": {
					"creation": {
						"codeDepositCost": "939200",
						"executionCost": "25241",
						"totalCost": "964441"
					},
					"external": {
						"addCandidate(string)": "infinite",
						"candidateExists(string)": "infinite",
						"candidates(uint256)": "infinite",
						"getVotes(string)": "infinite",
						"owner()": "2514",
						"resetVotes()": "infinite",
						"totalVotes()": "2430",
						"vote(string)": "infinite",
						"votes(string)": "infinite"
					}
				},
				"methodIdentifiers": {
					"addCandidate(string)": "462e91ec",
					"candidateExists(string)": "b620855b",
					"candidates(uint256)": "3477ee2e",
					"getVotes(string)": "805265e5",
					"owner()": "8da5cb5b",
					"resetVotes()": "b9830ff1",
					"totalVotes()": "0d15fd77",
					"vote(string)": "fc36e15b",
					"votes(string)": "b99ef1fa"
				}
			},
			"storageLayout": {
				"storage": [
					{
						"astId": 6,
						"contract": "solidity入门练习/Voting.sol:Voting",
						"label": "votes",
						"offset": 0,
						"slot": "0",
						"type": "t_mapping(t_string_memory_ptr,t_uint256)"
					},
					{
						"astId": 9,
						"contract": "solidity入门练习/Voting.sol:Voting",
						"label": "candidates",
						"offset": 0,
						"slot": "1",
						"type": "t_array(t_string_storage)dyn_storage"
					},
					{
						"astId": 13,
						"contract": "solidity入门练习/Voting.sol:Voting",
						"label": "candidateExists",
						"offset": 0,
						"slot": "2",
						"type": "t_mapping(t_string_memory_ptr,t_bool)"
					},
					{
						"astId": 15,
						"contract": "solidity入门练习/Voting.sol:Voting",
						"label": "owner",
						"offset": 0,
						"slot": "3",
						"type": "t_address"
					},
					{
						"astId": 17,
						"contract": "solidity入门练习/Voting.sol:Voting",
						"label": "totalVotes",
						"offset": 0,
						"slot": "4",
						"type": "t_uint256"
					}
				],
				"types": {
					"t_address": {
						"encoding": "inplace",
						"label": "address",
						"numberOfBytes": "20"
					},
					"t_array(t_string_storage)dyn_storage": {
						"base": "t_string_storage",
						"encoding": "dynamic_array",
						"label": "string[]",
						"numberOfBytes": "32"
					},
					"t_bool": {
						"encoding": "inplace",
						"label": "bool",
						"numberOfBytes": "1"
					},
					"t_mapping(t_string_memory_ptr,t_bool)": {
						"encoding": "mapping",
						"key": "t_string_memory_ptr",
						"label": "mapping(string => bool)",
						"numberOfBytes": "32",
						"value": "t_bool"
					},
					"t_mapping(t_string_memory_ptr,t_uint256)": {
						"encoding": "mapping",
						"key": "t_string_memory_ptr",
						"label": "mapping(string => uint256)",
						"numberOfBytes": "32",
						"value": "t_uint256"
					},
					"t_string_memory_ptr": {
						"encoding": "bytes",
						"label": "string",
						"numberOfBytes": "32"
					},
					"t_string_storage": {
						"encoding": "bytes",
						"label": "string",
						"numberOfBytes": "32"
					},
					"t_uint256": {
						"encoding": "inplace",
						"label": "uint256",
						"numberOfBytes": "32"
					}
				}
			},
			"userdoc": {
				"kind": "user",
				"methods": {},
				"version": 1
			}
		}
	}
}