{
	"基础练习/2_ContranctStructure.sol": {
		"ContranctStructure": {
			"abi": [
				{
					"anonymous": false,
					"inputs": [
						{
							"indexed": false,
							"internalType": "uint256",
							"name": "oldValue",
							"type": "uint256"
						},
						{
							"indexed": false,
							"internalType": "uint256",
							"name": "incre",
							"type": "uint256"
						}
					],
					"name": "BalanceAdded",
					"type": "event"
				},
				{
					"inputs": [],
					"name": "banlce",
					"outputs": [
						{
							"internalType": "uint256",
							"name": "",
							"type": "uint256"
						}
					],
					"stateMutability": "view",
					"type": "function"
				},
				{
					"inputs": [],
					"name": "getBanlce",
					"outputs": [
						{
							"internalType": "uint256",
							"name": "",
							"type": "uint256"
						}
					],
					"stateMutability": "view",
					"type": "function"
				},
				{
					"inputs": [
						{
							"internalType": "uint256",
							"name": "num",
							"type": "uint256"
						}
					],
					"name": "setBanlce",
					"outputs": [],
					"stateMutability": "nonpayable",
					"type": "function"
				}
			],
			"devdoc": {
				"kind": "dev",
				"methods": {},
				"version": 1
			},
			"evm": {
				"assembly": "    /* \"\\xe5\\x9f\\xba\\xe7\\xa1\\x80\\xe7\\xbb\\x83\\xe4\\xb9\\xa0/2_ContranctStructure.sol\":70:387  contract ContranctStructure {... */\n  mstore(0x40, 0x80)\n  callvalue\n  dup1\n  iszero\n  tag_1\n  jumpi\n  0x00\n  dup1\n  revert\ntag_1:\n  pop\n  dataSize(sub_0)\n  dup1\n  dataOffset(sub_0)\n  0x00\n  codecopy\n  0x00\n  return\nstop\n\nsub_0: assembly {\n        /* \"\\xe5\\x9f\\xba\\xe7\\xa1\\x80\\xe7\\xbb\\x83\\xe4\\xb9\\xa0/2_ContranctStructure.sol\":70:387  contract ContranctStructure {... */\n      mstore(0x40, 0x80)\n      callvalue\n      dup1\n      iszero\n      tag_1\n      jumpi\n      0x00\n      dup1\n      revert\n    tag_1:\n      pop\n      jumpi(tag_2, lt(calldatasize, 0x04))\n      shr(0xe0, calldataload(0x00))\n      dup1\n      0x2f67dcd8\n      eq\n      tag_3\n      jumpi\n      dup1\n      0x8a45826b\n      eq\n      tag_4\n      jumpi\n      dup1\n      0xdac19a67\n      eq\n      tag_5\n      jumpi\n    tag_2:\n      0x00\n      dup1\n      revert\n        /* \"\\xe5\\x9f\\xba\\xe7\\xa1\\x80\\xe7\\xbb\\x83\\xe4\\xb9\\xa0/2_ContranctStructure.sol\":190:270  function getBanlce() public view returns(uint256) {... */\n    tag_3:\n      tag_6\n      tag_7\n      jump\t// in\n    tag_6:\n      mload(0x40)\n      tag_8\n      swap2\n      swap1\n      tag_9\n      jump\t// in\n    tag_8:\n      mload(0x40)\n      dup1\n      swap2\n      sub\n      swap1\n      return\n        /* \"\\xe5\\x9f\\xba\\xe7\\xa1\\x80\\xe7\\xbb\\x83\\xe4\\xb9\\xa0/2_ContranctStructure.sol\":104:125  uint256 public banlce */\n    tag_4:\n      tag_10\n      tag_11\n      jump\t// in\n    tag_10:\n      mload(0x40)\n      tag_12\n      swap2\n      swap1\n      tag_9\n      jump\t// in\n    tag_12:\n      mload(0x40)\n      dup1\n      swap2\n      sub\n      swap1\n      return\n        /* \"\\xe5\\x9f\\xba\\xe7\\xa1\\x80\\xe7\\xbb\\x83\\xe4\\xb9\\xa0/2_ContranctStructure.sol\":276:385  function setBanlce(uint256 num) public {... */\n    tag_5:\n      tag_13\n      0x04\n      dup1\n      calldatasize\n      sub\n      dup2\n      add\n      swap1\n      tag_14\n      swap2\n      swap1\n      tag_15\n      jump\t// in\n    tag_14:\n      tag_16\n      jump\t// in\n    tag_13:\n      stop\n        /* \"\\xe5\\x9f\\xba\\xe7\\xa1\\x80\\xe7\\xbb\\x83\\xe4\\xb9\\xa0/2_ContranctStructure.sol\":190:270  function getBanlce() public view returns(uint256) {... */\n    tag_7:\n        /* \"\\xe5\\x9f\\xba\\xe7\\xa1\\x80\\xe7\\xbb\\x83\\xe4\\xb9\\xa0/2_ContranctStructure.sol\":231:238  uint256 */\n      0x00\n        /* \"\\xe5\\x9f\\xba\\xe7\\xa1\\x80\\xe7\\xbb\\x83\\xe4\\xb9\\xa0/2_ContranctStructure.sol\":257:263  banlce */\n      dup1\n      sload\n        /* \"\\xe5\\x9f\\xba\\xe7\\xa1\\x80\\xe7\\xbb\\x83\\xe4\\xb9\\xa0/2_ContranctStructure.sol\":250:263  return banlce */\n      swap1\n      pop\n        /* \"\\xe5\\x9f\\xba\\xe7\\xa1\\x80\\xe7\\xbb\\x83\\xe4\\xb9\\xa0/2_ContranctStructure.sol\":190:270  function getBanlce() public view returns(uint256) {... */\n      swap1\n      jump\t// out\n        /* \"\\xe5\\x9f\\xba\\xe7\\xa1\\x80\\xe7\\xbb\\x83\\xe4\\xb9\\xa0/2_ContranctStructure.sol\":104:125  uint256 public banlce */\n    tag_11:\n      sload(0x00)\n      dup2\n      jump\t// out\n        /* \"\\xe5\\x9f\\xba\\xe7\\xa1\\x80\\xe7\\xbb\\x83\\xe4\\xb9\\xa0/2_ContranctStructure.sol\":276:385  function setBanlce(uint256 num) public {... */\n    tag_16:\n        /* \"\\xe5\\x9f\\xba\\xe7\\xa1\\x80\\xe7\\xbb\\x83\\xe4\\xb9\\xa0/2_ContranctStructure.sol\":335:338  num */\n      dup1\n        /* \"\\xe5\\x9f\\xba\\xe7\\xa1\\x80\\xe7\\xbb\\x83\\xe4\\xb9\\xa0/2_ContranctStructure.sol\":325:331  banlce */\n      0x00\n      dup1\n        /* \"\\xe5\\x9f\\xba\\xe7\\xa1\\x80\\xe7\\xbb\\x83\\xe4\\xb9\\xa0/2_ContranctStructure.sol\":325:338  banlce += num */\n      dup3\n      dup3\n      sload\n      tag_19\n      swap2\n      swap1\n      tag_20\n      jump\t// in\n    tag_19:\n      swap3\n      pop\n      pop\n      dup2\n      swap1\n      sstore\n      pop\n        /* \"\\xe5\\x9f\\xba\\xe7\\xa1\\x80\\xe7\\xbb\\x83\\xe4\\xb9\\xa0/2_ContranctStructure.sol\":353:378  BalanceAdded(banlce, num) */\n      0x2f59d1a3b7b985da630a67df5848afd649a7ac56a4f65c399458a7b1219d2556\n        /* \"\\xe5\\x9f\\xba\\xe7\\xa1\\x80\\xe7\\xbb\\x83\\xe4\\xb9\\xa0/2_ContranctStructure.sol\":366:372  banlce */\n      sload(0x00)\n        /* \"\\xe5\\x9f\\xba\\xe7\\xa1\\x80\\xe7\\xbb\\x83\\xe4\\xb9\\xa0/2_ContranctStructure.sol\":374:377  num */\n      dup3\n        /* \"\\xe5\\x9f\\xba\\xe7\\xa1\\x80\\xe7\\xbb\\x83\\xe4\\xb9\\xa0/2_ContranctStructure.sol\":353:378  BalanceAdded(banlce, num) */\n      mload(0x40)\n      tag_21\n      swap3\n      swap2\n      swap1\n      tag_22\n      jump\t// in\n    tag_21:\n      mload(0x40)\n      dup1\n      swap2\n      sub\n      swap1\n      log1\n        /* \"\\xe5\\x9f\\xba\\xe7\\xa1\\x80\\xe7\\xbb\\x83\\xe4\\xb9\\xa0/2_ContranctStructure.sol\":276:385  function setBanlce(uint256 num) public {... */\n      pop\n      jump\t// out\n        /* \"#utility.yul\":7:84   */\n    tag_23:\n        /* \"#utility.yul\":44:51   */\n      0x00\n        /* \"#utility.yul\":73:78   */\n      dup2\n        /* \"#utility.yul\":62:78   */\n      swap1\n      pop\n        /* \"#utility.yul\":7:84   */\n      swap2\n      swap1\n      pop\n      jump\t// out\n        /* \"#utility.yul\":90:208   */\n    tag_24:\n        /* \"#utility.yul\":177:201   */\n      tag_34\n        /* \"#utility.yul\":195:200   */\n      dup2\n        /* \"#utility.yul\":177:201   */\n      tag_23\n      jump\t// in\n    tag_34:\n        /* \"#utility.yul\":172:175   */\n      dup3\n        /* \"#utility.yul\":165:202   */\n      mstore\n        /* \"#utility.yul\":90:208   */\n      pop\n      pop\n      jump\t// out\n        /* \"#utility.yul\":214:436   */\n    tag_9:\n        /* \"#utility.yul\":307:311   */\n      0x00\n        /* \"#utility.yul\":345:347   */\n      0x20\n        /* \"#utility.yul\":334:343   */\n      dup3\n        /* \"#utility.yul\":330:348   */\n      add\n        /* \"#utility.yul\":322:348   */\n      swap1\n      pop\n        /* \"#utility.yul\":358:429   */\n      tag_36\n        /* \"#utility.yul\":426:427   */\n      0x00\n        /* \"#utility.yul\":415:424   */\n      dup4\n        /* \"#utility.yul\":411:428   */\n      add\n        /* \"#utility.yul\":402:408   */\n      dup5\n        /* \"#utility.yul\":358:429   */\n      tag_24\n      jump\t// in\n    tag_36:\n        /* \"#utility.yul\":214:436   */\n      swap3\n      swap2\n      pop\n      pop\n      jump\t// out\n        /* \"#utility.yul\":523:640   */\n    tag_26:\n        /* \"#utility.yul\":632:633   */\n      0x00\n        /* \"#utility.yul\":629:630   */\n      dup1\n        /* \"#utility.yul\":622:634   */\n      revert\n        /* \"#utility.yul\":769:891   */\n    tag_28:\n        /* \"#utility.yul\":842:866   */\n      tag_41\n        /* \"#utility.yul\":860:865   */\n      dup2\n        /* \"#utility.yul\":842:866   */\n      tag_23\n      jump\t// in\n    tag_41:\n        /* \"#utility.yul\":835:840   */\n      dup2\n        /* \"#utility.yul\":832:867   */\n      eq\n        /* \"#utility.yul\":822:885   */\n      tag_42\n      jumpi\n        /* \"#utility.yul\":881:882   */\n      0x00\n        /* \"#utility.yul\":878:879   */\n      dup1\n        /* \"#utility.yul\":871:883   */\n      revert\n        /* \"#utility.yul\":822:885   */\n    tag_42:\n        /* \"#utility.yul\":769:891   */\n      pop\n      jump\t// out\n        /* \"#utility.yul\":897:1036   */\n    tag_29:\n        /* \"#utility.yul\":943:948   */\n      0x00\n        /* \"#utility.yul\":981:987   */\n      dup2\n        /* \"#utility.yul\":968:988   */\n      calldataload\n        /* \"#utility.yul\":959:988   */\n      swap1\n      pop\n        /* \"#utility.yul\":997:1030   */\n      tag_44\n        /* \"#utility.yul\":1024:1029   */\n      dup2\n        /* \"#utility.yul\":997:1030   */\n      tag_28\n      jump\t// in\n    tag_44:\n        /* \"#utility.yul\":897:1036   */\n      swap3\n      swap2\n      pop\n      pop\n      jump\t// out\n        /* \"#utility.yul\":1042:1371   */\n    tag_15:\n        /* \"#utility.yul\":1101:1107   */\n      0x00\n        /* \"#utility.yul\":1150:1152   */\n      0x20\n        /* \"#utility.yul\":1138:1147   */\n      dup3\n        /* \"#utility.yul\":1129:1136   */\n      dup5\n        /* \"#utility.yul\":1125:1148   */\n      sub\n        /* \"#utility.yul\":1121:1153   */\n      slt\n        /* \"#utility.yul\":1118:1237   */\n      iszero\n      tag_46\n      jumpi\n        /* \"#utility.yul\":1156:1235   */\n      tag_47\n      tag_26\n      jump\t// in\n    tag_47:\n        /* \"#utility.yul\":1118:1237   */\n    tag_46:\n        /* \"#utility.yul\":1276:1277   */\n      0x00\n        /* \"#utility.yul\":1301:1354   */\n      tag_48\n        /* \"#utility.yul\":1346:1353   */\n      dup5\n        /* \"#utility.yul\":1337:1343   */\n      dup3\n        /* \"#utility.yul\":1326:1335   */\n      dup6\n        /* \"#utility.yul\":1322:1344   */\n      add\n        /* \"#utility.yul\":1301:1354   */\n      tag_29\n      jump\t// in\n    tag_48:\n        /* \"#utility.yul\":1291:1354   */\n      swap2\n      pop\n        /* \"#utility.yul\":1247:1364   */\n      pop\n        /* \"#utility.yul\":1042:1371   */\n      swap3\n      swap2\n      pop\n      pop\n      jump\t// out\n        /* \"#utility.yul\":1377:1557   */\n    tag_30:\n        /* \"#utility.yul\":1425:1502   */\n      0x4e487b7100000000000000000000000000000000000000000000000000000000\n        /* \"#utility.yul\":1422:1423   */\n      0x00\n        /* \"#utility.yul\":1415:1503   */\n      mstore\n        /* \"#utility.yul\":1522:1526   */\n      0x11\n        /* \"#utility.yul\":1519:1520   */\n      0x04\n        /* \"#utility.yul\":1512:1527   */\n      mstore\n        /* \"#utility.yul\":1546:1550   */\n      0x24\n        /* \"#utility.yul\":1543:1544   */\n      0x00\n        /* \"#utility.yul\":1536:1551   */\n      revert\n        /* \"#utility.yul\":1563:1754   */\n    tag_20:\n        /* \"#utility.yul\":1603:1606   */\n      0x00\n        /* \"#utility.yul\":1622:1642   */\n      tag_51\n        /* \"#utility.yul\":1640:1641   */\n      dup3\n        /* \"#utility.yul\":1622:1642   */\n      tag_23\n      jump\t// in\n    tag_51:\n        /* \"#utility.yul\":1617:1642   */\n      swap2\n      pop\n        /* \"#utility.yul\":1656:1676   */\n      tag_52\n        /* \"#utility.yul\":1674:1675   */\n      dup4\n        /* \"#utility.yul\":1656:1676   */\n      tag_23\n      jump\t// in\n    tag_52:\n        /* \"#utility.yul\":1651:1676   */\n      swap3\n      pop\n        /* \"#utility.yul\":1699:1700   */\n      dup3\n        /* \"#utility.yul\":1696:1697   */\n      dup3\n        /* \"#utility.yul\":1692:1701   */\n      add\n        /* \"#utility.yul\":1685:1701   */\n      swap1\n      pop\n        /* \"#utility.yul\":1720:1723   */\n      dup1\n        /* \"#utility.yul\":1717:1718   */\n      dup3\n        /* \"#utility.yul\":1714:1724   */\n      gt\n        /* \"#utility.yul\":1711:1747   */\n      iszero\n      tag_53\n      jumpi\n        /* \"#utility.yul\":1727:1745   */\n      tag_54\n      tag_30\n      jump\t// in\n    tag_54:\n        /* \"#utility.yul\":1711:1747   */\n    tag_53:\n        /* \"#utility.yul\":1563:1754   */\n      swap3\n      swap2\n      pop\n      pop\n      jump\t// out\n        /* \"#utility.yul\":1760:2092   */\n    tag_22:\n        /* \"#utility.yul\":1881:1885   */\n      0x00\n        /* \"#utility.yul\":1919:1921   */\n      0x40\n        /* \"#utility.yul\":1908:1917   */\n      dup3\n        /* \"#utility.yul\":1904:1922   */\n      add\n        /* \"#utility.yul\":1896:1922   */\n      swap1\n      pop\n        /* \"#utility.yul\":1932:2003   */\n      tag_56\n        /* \"#utility.yul\":2000:2001   */\n      0x00\n        /* \"#utility.yul\":1989:1998   */\n      dup4\n        /* \"#utility.yul\":1985:2002   */\n      add\n        /* \"#utility.yul\":1976:1982   */\n      dup6\n        /* \"#utility.yul\":1932:2003   */\n      tag_24\n      jump\t// in\n    tag_56:\n        /* \"#utility.yul\":2013:2085   */\n      tag_57\n        /* \"#utility.yul\":2081:2083   */\n      0x20\n        /* \"#utility.yul\":2070:2079   */\n      dup4\n        /* \"#utility.yul\":2066:2084   */\n      add\n        /* \"#utility.yul\":2057:2063   */\n      dup5\n        /* \"#utility.yul\":2013:2085   */\n      tag_24\n      jump\t// in\n    tag_57:\n        /* \"#utility.yul\":1760:2092   */\n      swap4\n      swap3\n      pop\n      pop\n      pop\n      jump\t// out\n\n    auxdata: 0xa264697066735822122059f3e23cd8d03a192bb2fbea59a2ad05f88755fa1a7403cfbedb1d3b96a5518164736f6c63430008120033\n}\n",
				"bytecode": {
					"linkReferences": {},
					"object": "608060405234801561001057600080fd5b50610257806100206000396000f3fe608060405234801561001057600080fd5b50600436106100415760003560e01c80632f67dcd8146100465780638a45826b14610064578063dac19a6714610082575b600080fd5b61004e61009e565b60405161005b919061011c565b60405180910390f35b61006c6100a7565b604051610079919061011c565b60405180910390f35b61009c60048036038101906100979190610168565b6100ad565b005b60008054905090565b60005481565b806000808282546100be91906101c4565b925050819055507f2f59d1a3b7b985da630a67df5848afd649a7ac56a4f65c399458a7b1219d2556600054826040516100f89291906101f8565b60405180910390a150565b6000819050919050565b61011681610103565b82525050565b6000602082019050610131600083018461010d565b92915050565b600080fd5b61014581610103565b811461015057600080fd5b50565b6000813590506101628161013c565b92915050565b60006020828403121561017e5761017d610137565b5b600061018c84828501610153565b91505092915050565b7f4e487b7100000000000000000000000000000000000000000000000000000000600052601160045260246000fd5b60006101cf82610103565b91506101da83610103565b92508282019050808211156101f2576101f1610195565b5b92915050565b600060408201905061020d600083018561010d565b61021a602083018461010d565b939250505056fea264697066735822122059f3e23cd8d03a192bb2fbea59a2ad05f88755fa1a7403cfbedb1d3b96a5518164736f6c63430008120033",
					"opcodes": "PUSH1 0x80 PUSH1 0x40 MSTORE CALLVALUE DUP1 ISZERO PUSH2 0x10 JUMPI PUSH1 0x0 DUP1 REVERT JUMPDEST POP PUSH2 0x257 DUP1 PUSH2 0x20 PUSH1 0x0 CODECOPY PUSH1 0x0 RETURN INVALID PUSH1 0x80 PUSH1 0x40 MSTORE CALLVALUE DUP1 ISZERO PUSH2 0x10 JUMPI PUSH1 0x0 DUP1 REVERT JUMPDEST POP PUSH1 0x4 CALLDATASIZE LT PUSH2 0x41 JUMPI PUSH1 0x0 CALLDATALOAD PUSH1 0xE0 SHR DUP1 PUSH4 0x2F67DCD8 EQ PUSH2 0x46 JUMPI DUP1 PUSH4 0x8A45826B EQ PUSH2 0x64 JUMPI DUP1 PUSH4 0xDAC19A67 EQ PUSH2 0x82 JUMPI JUMPDEST PUSH1 0x0 DUP1 REVERT JUMPDEST PUSH2 0x4E PUSH2 0x9E JUMP JUMPDEST PUSH1 0x40 MLOAD PUSH2 0x5B SWAP2 SWAP1 PUSH2 0x11C JUMP JUMPDEST PUSH1 0x40 MLOAD DUP1 SWAP2 SUB SWAP1 RETURN JUMPDEST PUSH2 0x6C PUSH2 0xA7 JUMP JUMPDEST PUSH1 0x40 MLOAD PUSH2 0x79 SWAP2 SWAP1 PUSH2 0x11C JUMP JUMPDEST PUSH1 0x40 MLOAD DUP1 SWAP2 SUB SWAP1 RETURN JUMPDEST PUSH2 0x9C PUSH1 0x4 DUP1 CALLDATASIZE SUB DUP2 ADD SWAP1 PUSH2 0x97 SWAP2 SWAP1 PUSH2 0x168 JUMP JUMPDEST PUSH2 0xAD JUMP JUMPDEST STOP JUMPDEST PUSH1 0x0 DUP1 SLOAD SWAP1 POP SWAP1 JUMP JUMPDEST PUSH1 0x0 SLOAD DUP2 JUMP JUMPDEST DUP1 PUSH1 0x0 DUP1 DUP3 DUP3 SLOAD PUSH2 0xBE SWAP2 SWAP1 PUSH2 0x1C4 JUMP JUMPDEST SWAP3 POP POP DUP2 SWAP1 SSTORE POP PUSH32 0x2F59D1A3B7B985DA630A67DF5848AFD649A7AC56A4F65C399458A7B1219D2556 PUSH1 0x0 SLOAD DUP3 PUSH1 0x40 MLOAD PUSH2 0xF8 SWAP3 SWAP2 SWAP1 PUSH2 0x1F8 JUMP JUMPDEST PUSH1 0x40 MLOAD DUP1 SWAP2 SUB SWAP1 LOG1 POP JUMP JUMPDEST PUSH1 0x0 DUP2 SWAP1 POP SWAP2 SWAP1 POP JUMP JUMPDEST PUSH2 0x116 DUP2 PUSH2 0x103 JUMP JUMPDEST DUP3 MSTORE POP POP JUMP JUMPDEST PUSH1 0x0 PUSH1 0x20 DUP3 ADD SWAP1 POP PUSH2 0x131 PUSH1 0x0 DUP4 ADD DUP5 PUSH2 0x10D JUMP JUMPDEST SWAP3 SWAP2 POP POP JUMP JUMPDEST PUSH1 0x0 DUP1 REVERT JUMPDEST PUSH2 0x145 DUP2 PUSH2 0x103 JUMP JUMPDEST DUP2 EQ PUSH2 0x150 JUMPI PUSH1 0x0 DUP1 REVERT JUMPDEST POP JUMP JUMPDEST PUSH1 0x0 DUP2 CALLDATALOAD SWAP1 POP PUSH2 0x162 DUP2 PUSH2 0x13C JUMP JUMPDEST SWAP3 SWAP2 POP POP JUMP JUMPDEST PUSH1 0x0 PUSH1 0x20 DUP3 DUP5 SUB SLT ISZERO PUSH2 0x17E JUMPI PUSH2 0x17D PUSH2 0x137 JUMP JUMPDEST JUMPDEST PUSH1 0x0 PUSH2 0x18C DUP5 DUP3 DUP6 ADD PUSH2 0x153 JUMP JUMPDEST SWAP2 POP POP SWAP3 SWAP2 POP POP JUMP JUMPDEST PUSH32 0x4E487B7100000000000000000000000000000000000000000000000000000000 PUSH1 0x0 MSTORE PUSH1 0x11 PUSH1 0x4 MSTORE PUSH1 0x24 PUSH1 0x0 REVERT JUMPDEST PUSH1 0x0 PUSH2 0x1CF DUP3 PUSH2 0x103 JUMP JUMPDEST SWAP2 POP PUSH2 0x1DA DUP4 PUSH2 0x103 JUMP JUMPDEST SWAP3 POP DUP3 DUP3 ADD SWAP1 POP DUP1 DUP3 GT ISZERO PUSH2 0x1F2 JUMPI PUSH2 0x1F1 PUSH2 0x195 JUMP JUMPDEST JUMPDEST SWAP3 SWAP2 POP POP JUMP JUMPDEST PUSH1 0x0 PUSH1 0x40 DUP3 ADD SWAP1 POP PUSH2 0x20D PUSH1 0x0 DUP4 ADD DUP6 PUSH2 0x10D JUMP JUMPDEST PUSH2 0x21A PUSH1 0x20 DUP4 ADD DUP5 PUSH2 0x10D JUMP JUMPDEST SWAP4 SWAP3 POP POP POP JUMP INVALID LOG2 PUSH5 0x6970667358 0x22 SLT KECCAK256 MSIZE RETURN 0xE2 EXTCODECOPY 0xD8 0xD0 GASPRICE NOT 0x2B 0xB2 0xFB 0xEA MSIZE LOG2 0xAD SDIV 0xF8 DUP8 SSTORE STATICCALL BYTE PUSH21 0x3CFBEDB1D3B96A5518164736F6C63430008120033 "
				},
				"gasEstimates": {
					"creation": {
						"codeDepositCost": "119800",
						"executionCost": "165",
						"totalCost": "119965"
					},
					"external": {
						"banlce()": "2429",
						"getBanlce()": "2415",
						"setBanlce(uint256)": "infinite"
					}
				},
				"methodIdentifiers": {
					"banlce()": "8a45826b",
					"getBanlce()": "2f67dcd8",
					"setBanlce(uint256)": "dac19a67"
				}
			},
			"storageLayout": {
				"storage": [
					{
						"astId": 3,
						"contract": "基础练习/2_ContranctStructure.sol:ContranctStructure",
						"label": "banlce",
						"offset": 0,
						"slot": "0",
						"type": "t_uint256"
					}
				],
				"types": {
					"t_uint256": {
						"encoding": "inplace",
						"label": "uint256",
						"numberOfBytes": "32"
					}
				}
			},
			"userdoc": {
				"kind": "user",
				"methods": {},
				"version": 1
			}
		}
	}
}