{
	"data": {
		"bytecode": {
			"linkReferences": {},
			"object": "608060405234801561001057600080fd5b5061057f806100206000396000f3fe608060405234801561001057600080fd5b506004361061002b5760003560e01c80636297206f14610030575b600080fd5b61004a6004803603810190610045919061031d565b610060565b6040516100579190610424565b60405180910390f35b6060600182511161007357819050610175565b6000600190505b825181101561017057600083828151811061009857610097610446565b5b6020026020010151905060008290505b6000811180156100dd575081856001836100c291906104a4565b815181106100d3576100d2610446565b5b6020026020010151115b1561013b57846001826100f091906104a4565b8151811061010157610100610446565b5b602002602001015185828151811061011c5761011b610446565b5b6020026020010181815250508080610133906104d8565b9150506100a8565b8185828151811061014f5761014e610446565b5b6020026020010181815250505050808061016890610501565b91505061007a565b508190505b919050565b6000604051905090565b600080fd5b600080fd5b600080fd5b6000601f19601f8301169050919050565b7f4e487b7100000000000000000000000000000000000000000000000000000000600052604160045260246000fd5b6101dc82610193565b810181811067ffffffffffffffff821117156101fb576101fa6101a4565b5b80604052505050565b600061020e61017a565b905061021a82826101d3565b919050565b600067ffffffffffffffff82111561023a576102396101a4565b5b602082029050602081019050919050565b600080fd5b6000819050919050565b61026381610250565b811461026e57600080fd5b50565b6000813590506102808161025a565b92915050565b60006102996102948461021f565b610204565b905080838252602082019050602084028301858111156102bc576102bb61024b565b5b835b818110156102e557806102d18882610271565b8452602084019350506020810190506102be565b5050509392505050565b600082601f8301126103045761030361018e565b5b8135610314848260208601610286565b91505092915050565b60006020828403121561033357610332610184565b5b600082013567ffffffffffffffff81111561035157610350610189565b5b61035d848285016102ef565b91505092915050565b600081519050919050565b600082825260208201905092915050565b6000819050602082019050919050565b61039b81610250565b82525050565b60006103ad8383610392565b60208301905092915050565b6000602082019050919050565b60006103d182610366565b6103db8185610371565b93506103e683610382565b8060005b838110156104175781516103fe88826103a1565b9750610409836103b9565b9250506001810190506103ea565b5085935050505092915050565b6000602082019050818103600083015261043e81846103c6565b905092915050565b7f4e487b7100000000000000000000000000000000000000000000000000000000600052603260045260246000fd5b7f4e487b7100000000000000000000000000000000000000000000000000000000600052601160045260246000fd5b60006104af82610250565b91506104ba83610250565b92508282039050818111156104d2576104d1610475565b5b92915050565b60006104e382610250565b9150600082036104f6576104f5610475565b5b600182039050919050565b600061050c82610250565b91507fffffffffffffffffffffffffffffffffffffffffffffffffffffffffffffffff820361053e5761053d610475565b5b60018201905091905056fea2646970667358221220788ffba6f67b5ff9240e0ff7ea7e0a064afb4983ba2827e38f549589ad7ad4db64736f6c63430008120033",
			"opcodes": "PUSH1 0x80 PUSH1 0x40 MSTORE CALLVALUE DUP1 ISZERO PUSH2 0x10 JUMPI PUSH1 0x0 DUP1 REVERT JUMPDEST POP PUSH2 0x57F DUP1 PUSH2 0x20 PUSH1 0x0 CODECOPY PUSH1 0x0 RETURN INVALID PUSH1 0x80 PUSH1 0x40 MSTORE CALLVALUE DUP1 ISZERO PUSH2 0x10 JUMPI PUSH1 0x0 DUP1 REVERT JUMPDEST POP PUSH1 0x4 CALLDATASIZE LT PUSH2 0x2B JUMPI PUSH1 0x0 CALLDATALOAD PUSH1 0xE0 SHR DUP1 PUSH4 0x6297206F EQ PUSH2 0x30 JUMPI JUMPDEST PUSH1 0x0 DUP1 REVERT JUMPDEST PUSH2 0x4A PUSH1 0x4 DUP1 CALLDATASIZE SUB DUP2 ADD SWAP1 PUSH2 0x45 SWAP2 SWAP1 PUSH2 0x31D JUMP JUMPDEST PUSH2 0x60 JUMP JUMPDEST PUSH1 0x40 MLOAD PUSH2 0x57 SWAP2 SWAP1 PUSH2 0x424 JUMP JUMPDEST PUSH1 0x40 MLOAD DUP1 SWAP2 SUB SWAP1 RETURN JUMPDEST PUSH1 0x60 PUSH1 0x1 DUP3 MLOAD GT PUSH2 0x73 JUMPI DUP2 SWAP1 POP PUSH2 0x175 JUMP JUMPDEST PUSH1 0x0 PUSH1 0x1 SWAP1 POP JUMPDEST DUP3 MLOAD DUP2 LT ISZERO PUSH2 0x170 JUMPI PUSH1 0x0 DUP4 DUP3 DUP2 MLOAD DUP2 LT PUSH2 0x98 JUMPI PUSH2 0x97 PUSH2 0x446 JUMP JUMPDEST JUMPDEST PUSH1 0x20 MUL PUSH1 0x20 ADD ADD MLOAD SWAP1 POP PUSH1 0x0 DUP3 SWAP1 POP JUMPDEST PUSH1 0x0 DUP2 GT DUP1 ISZERO PUSH2 0xDD JUMPI POP DUP2 DUP6 PUSH1 0x1 DUP4 PUSH2 0xC2 SWAP2 SWAP1 PUSH2 0x4A4 JUMP JUMPDEST DUP2 MLOAD DUP2 LT PUSH2 0xD3 JUMPI PUSH2 0xD2 PUSH2 0x446 JUMP JUMPDEST JUMPDEST PUSH1 0x20 MUL PUSH1 0x20 ADD ADD MLOAD GT JUMPDEST ISZERO PUSH2 0x13B JUMPI DUP5 PUSH1 0x1 DUP3 PUSH2 0xF0 SWAP2 SWAP1 PUSH2 0x4A4 JUMP JUMPDEST DUP2 MLOAD DUP2 LT PUSH2 0x101 JUMPI PUSH2 0x100 PUSH2 0x446 JUMP JUMPDEST JUMPDEST PUSH1 0x20 MUL PUSH1 0x20 ADD ADD MLOAD DUP6 DUP3 DUP2 MLOAD DUP2 LT PUSH2 0x11C JUMPI PUSH2 0x11B PUSH2 0x446 JUMP JUMPDEST JUMPDEST PUSH1 0x20 MUL PUSH1 0x20 ADD ADD DUP2 DUP2 MSTORE POP POP DUP1 DUP1 PUSH2 0x133 SWAP1 PUSH2 0x4D8 JUMP JUMPDEST SWAP2 POP POP PUSH2 0xA8 JUMP JUMPDEST DUP2 DUP6 DUP3 DUP2 MLOAD DUP2 LT PUSH2 0x14F JUMPI PUSH2 0x14E PUSH2 0x446 JUMP JUMPDEST JUMPDEST PUSH1 0x20 MUL PUSH1 0x20 ADD ADD DUP2 DUP2 MSTORE POP POP POP POP DUP1 DUP1 PUSH2 0x168 SWAP1 PUSH2 0x501 JUMP JUMPDEST SWAP2 POP POP PUSH2 0x7A JUMP JUMPDEST POP DUP2 SWAP1 POP JUMPDEST SWAP2 SWAP1 POP JUMP JUMPDEST PUSH1 0x0 PUSH1 0x40 MLOAD SWAP1 POP SWAP1 JUMP JUMPDEST PUSH1 0x0 DUP1 REVERT JUMPDEST PUSH1 0x0 DUP1 REVERT JUMPDEST PUSH1 0x0 DUP1 REVERT JUMPDEST PUSH1 0x0 PUSH1 0x1F NOT PUSH1 0x1F DUP4 ADD AND SWAP1 POP SWAP2 SWAP1 POP JUMP JUMPDEST PUSH32 0x4E487B7100000000000000000000000000000000000000000000000000000000 PUSH1 0x0 MSTORE PUSH1 0x41 PUSH1 0x4 MSTORE PUSH1 0x24 PUSH1 0x0 REVERT JUMPDEST PUSH2 0x1DC DUP3 PUSH2 0x193 JUMP JUMPDEST DUP2 ADD DUP2 DUP2 LT PUSH8 0xFFFFFFFFFFFFFFFF DUP3 GT OR ISZERO PUSH2 0x1FB JUMPI PUSH2 0x1FA PUSH2 0x1A4 JUMP JUMPDEST JUMPDEST DUP1 PUSH1 0x40 MSTORE POP POP POP JUMP JUMPDEST PUSH1 0x0 PUSH2 0x20E PUSH2 0x17A JUMP JUMPDEST SWAP1 POP PUSH2 0x21A DUP3 DUP3 PUSH2 0x1D3 JUMP JUMPDEST SWAP2 SWAP1 POP JUMP JUMPDEST PUSH1 0x0 PUSH8 0xFFFFFFFFFFFFFFFF DUP3 GT ISZERO PUSH2 0x23A JUMPI PUSH2 0x239 PUSH2 0x1A4 JUMP JUMPDEST JUMPDEST PUSH1 0x20 DUP3 MUL SWAP1 POP PUSH1 0x20 DUP2 ADD SWAP1 POP SWAP2 SWAP1 POP JUMP JUMPDEST PUSH1 0x0 DUP1 REVERT JUMPDEST PUSH1 0x0 DUP2 SWAP1 POP SWAP2 SWAP1 POP JUMP JUMPDEST PUSH2 0x263 DUP2 PUSH2 0x250 JUMP JUMPDEST DUP2 EQ PUSH2 0x26E JUMPI PUSH1 0x0 DUP1 REVERT JUMPDEST POP JUMP JUMPDEST PUSH1 0x0 DUP2 CALLDATALOAD SWAP1 POP PUSH2 0x280 DUP2 PUSH2 0x25A JUMP JUMPDEST SWAP3 SWAP2 POP POP JUMP JUMPDEST PUSH1 0x0 PUSH2 0x299 PUSH2 0x294 DUP5 PUSH2 0x21F JUMP JUMPDEST PUSH2 0x204 JUMP JUMPDEST SWAP1 POP DUP1 DUP4 DUP3 MSTORE PUSH1 0x20 DUP3 ADD SWAP1 POP PUSH1 0x20 DUP5 MUL DUP4 ADD DUP6 DUP2 GT ISZERO PUSH2 0x2BC JUMPI PUSH2 0x2BB PUSH2 0x24B JUMP JUMPDEST JUMPDEST DUP4 JUMPDEST DUP2 DUP2 LT ISZERO PUSH2 0x2E5 JUMPI DUP1 PUSH2 0x2D1 DUP9 DUP3 PUSH2 0x271 JUMP JUMPDEST DUP5 MSTORE PUSH1 0x20 DUP5 ADD SWAP4 POP POP PUSH1 0x20 DUP2 ADD SWAP1 POP PUSH2 0x2BE JUMP JUMPDEST POP POP POP SWAP4 SWAP3 POP POP POP JUMP JUMPDEST PUSH1 0x0 DUP3 PUSH1 0x1F DUP4 ADD SLT PUSH2 0x304 JUMPI PUSH2 0x303 PUSH2 0x18E JUMP JUMPDEST JUMPDEST DUP2 CALLDATALOAD PUSH2 0x314 DUP5 DUP3 PUSH1 0x20 DUP7 ADD PUSH2 0x286 JUMP JUMPDEST SWAP2 POP POP SWAP3 SWAP2 POP POP JUMP JUMPDEST PUSH1 0x0 PUSH1 0x20 DUP3 DUP5 SUB SLT ISZERO PUSH2 0x333 JUMPI PUSH2 0x332 PUSH2 0x184 JUMP JUMPDEST JUMPDEST PUSH1 0x0 DUP3 ADD CALLDATALOAD PUSH8 0xFFFFFFFFFFFFFFFF DUP2 GT ISZERO PUSH2 0x351 JUMPI PUSH2 0x350 PUSH2 0x189 JUMP JUMPDEST JUMPDEST PUSH2 0x35D DUP5 DUP3 DUP6 ADD PUSH2 0x2EF JUMP JUMPDEST SWAP2 POP POP SWAP3 SWAP2 POP POP JUMP JUMPDEST PUSH1 0x0 DUP2 MLOAD SWAP1 POP SWAP2 SWAP1 POP JUMP JUMPDEST PUSH1 0x0 DUP3 DUP3 MSTORE PUSH1 0x20 DUP3 ADD SWAP1 POP SWAP3 SWAP2 POP POP JUMP JUMPDEST PUSH1 0x0 DUP2 SWAP1 POP PUSH1 0x20 DUP3 ADD SWAP1 POP SWAP2 SWAP1 POP JUMP JUMPDEST PUSH2 0x39B DUP2 PUSH2 0x250 JUMP JUMPDEST DUP3 MSTORE POP POP JUMP JUMPDEST PUSH1 0x0 PUSH2 0x3AD DUP4 DUP4 PUSH2 0x392 JUMP JUMPDEST PUSH1 0x20 DUP4 ADD SWAP1 POP SWAP3 SWAP2 POP POP JUMP JUMPDEST PUSH1 0x0 PUSH1 0x20 DUP3 ADD SWAP1 POP SWAP2 SWAP1 POP JUMP JUMPDEST PUSH1 0x0 PUSH2 0x3D1 DUP3 PUSH2 0x366 JUMP JUMPDEST PUSH2 0x3DB DUP2 DUP6 PUSH2 0x371 JUMP JUMPDEST SWAP4 POP PUSH2 0x3E6 DUP4 PUSH2 0x382 JUMP JUMPDEST DUP1 PUSH1 0x0 JUMPDEST DUP4 DUP2 LT ISZERO PUSH2 0x417 JUMPI DUP2 MLOAD PUSH2 0x3FE DUP9 DUP3 PUSH2 0x3A1 JUMP JUMPDEST SWAP8 POP PUSH2 0x409 DUP4 PUSH2 0x3B9 JUMP JUMPDEST SWAP3 POP POP PUSH1 0x1 DUP2 ADD SWAP1 POP PUSH2 0x3EA JUMP JUMPDEST POP DUP6 SWAP4 POP POP POP POP SWAP3 SWAP2 POP POP JUMP JUMPDEST PUSH1 0x0 PUSH1 0x20 DUP3 ADD SWAP1 POP DUP2 DUP2 SUB PUSH1 0x0 DUP4 ADD MSTORE PUSH2 0x43E DUP2 DUP5 PUSH2 0x3C6 JUMP JUMPDEST SWAP1 POP SWAP3 SWAP2 POP POP JUMP JUMPDEST PUSH32 0x4E487B7100000000000000000000000000000000000000000000000000000000 PUSH1 0x0 MSTORE PUSH1 0x32 PUSH1 0x4 MSTORE PUSH1 0x24 PUSH1 0x0 REVERT JUMPDEST PUSH32 0x4E487B7100000000000000000000000000000000000000000000000000000000 PUSH1 0x0 MSTORE PUSH1 0x11 PUSH1 0x4 MSTORE PUSH1 0x24 PUSH1 0x0 REVERT JUMPDEST PUSH1 0x0 PUSH2 0x4AF DUP3 PUSH2 0x250 JUMP JUMPDEST SWAP2 POP PUSH2 0x4BA DUP4 PUSH2 0x250 JUMP JUMPDEST SWAP3 POP DUP3 DUP3 SUB SWAP1 POP DUP2 DUP2 GT ISZERO PUSH2 0x4D2 JUMPI PUSH2 0x4D1 PUSH2 0x475 JUMP JUMPDEST JUMPDEST SWAP3 SWAP2 POP POP JUMP JUMPDEST PUSH1 0x0 PUSH2 0x4E3 DUP3 PUSH2 0x250 JUMP JUMPDEST SWAP2 POP PUSH1 0x0 DUP3 SUB PUSH2 0x4F6 JUMPI PUSH2 0x4F5 PUSH2 0x475 JUMP JUMPDEST JUMPDEST PUSH1 0x1 DUP3 SUB SWAP1 POP SWAP2 SWAP1 POP JUMP JUMPDEST PUSH1 0x0 PUSH2 0x50C DUP3 PUSH2 0x250 JUMP JUMPDEST SWAP2 POP PUSH32 0xFFFFFFFFFFFFFFFFFFFFFFFFFFFFFFFFFFFFFFFFFFFFFFFFFFFFFFFFFFFFFFFF DUP3 SUB PUSH2 0x53E JUMPI PUSH2 0x53D PUSH2 0x475 JUMP JUMPDEST JUMPDEST PUSH1 0x1 DUP3 ADD SWAP1 POP SWAP2 SWAP1 POP JUMP INVALID LOG2 PUSH5 0x6970667358 0x22 SLT KECCAK256 PUSH25 0x8FFBA6F67B5FF9240E0FF7EA7E0A064AFB4983BA2827E38F54 SWAP6 DUP10 0xAD PUSH27 0xD4DB64736F6C634300081200330000000000000000000000000000 "
		},
		"gasEstimates": {
			"creation": {
				"codeDepositCost": "281400",
				"executionCost": "318",
				"totalCost": "281718"
			},
			"external": {
				"insertionSort(uint256[])": "infinite"
			}
		},
		"methodIdentifiers": {
			"insertionSort(uint256[])": "6297206f"
		}
	},
	"abi": [
		{
			"inputs": [
				{
					"internalType": "uint256[]",
					"name": "arr",
					"type": "uint256[]"
				}
			],
			"name": "insertionSort",
			"outputs": [
				{
					"internalType": "uint256[]",
					"name": "",
					"type": "uint256[]"
				}
			],
			"stateMutability": "pure",
			"type": "function"
		}
	]
}